:100000000C94C1150C94DE150C94DE150C94DE15C1
:100010000C94DE150C94DE150C94DE150C947C16F5
:100020000C94DE150C94DE150C94DE150C94DE1584
:100030000C94DE150C94DE150C94DE150C94DE1574
:100040000C94DE150C94DE150C94DE150C94DE1564
:100050000C94DE150C94DE150C94DE150C94DE1554
:100060000C94DE150C94DE15000083008B009300C9
:100070009C00A500AF00B900C400D000DC00E9007E
:10008000F700050115012601370149015D017201E3
:1000900088019F01B801D201ED010B022A024B0237
:1000A0006E029302BA02E40210033F037003A4033A
:1000B000DB030B0293020000000002000B0293021C
:1000C0000000000002000B0293020000000002008A
:1000D0000B0293020000000002000B0293020000DA
:1000E000000002000B0293020000000002000B025D
:1000F00093020000000002000B02930200000000C7
:1001000002000000000000000000000000000000ED
:100110000000000000000B020000000000000100D1
:100120000B0200000000000001009302000000002C
:100130000000010093020000000000000100000028
:1001400000000000000000000000000000000000AF
:100150000000ED011003000000000200ED0110039B
:10016000000000000200ED0110030000000002008A
:10017000ED0110030000000002000000000000007C
:10018000000000000000000000000000000000006F
:10019000000000000000000000000000000000005F
:1001A0000000F7008801000000000200F70088014D
:1001B000000000000200F7008801000000000200BB
:1001C000F7008801000000000200000000000000AD
:1001D000000000000000000000000000000000001F
:1001E000000000000000000000000000000000000F
:1001F00000000B0200000000000001000B020000E4
:100200000000000001000B020000000000000100DF
:100210000B020000000000000100000000000000D0
:100220000000000000000000000000000000880145
:100230000000000000000100880100000000000034
:10024000010088010000000000000100880100009A
:10025000000000000100000000000000000000009D
:100260000000000000000000000049010000000044
:1002700000000100490100000000000001004901E8
:100280000000000000000100490100000000000023
:10029000010000000000000000000000000000005D
:1002A000000000000000B801000000000000010094
:1002B000B8010000000000000100B80100000000CB
:1002C00000000100B8010000000000000100ED0185
:1002D0000000000000000100ED010000000000002F
:1002E0000100ED010000000000000100ED01000030
:1002F000000000000100D201000000000000010029
:10030000D2010000000000000100B8010000000060
:1003100000000100B8010000000000000100000022
:1003200000000000000000000000000000000000CD
:1003300000008801000000000000010088010000AA
:100340000000000001008801000000000000010022
:100350009302000000000000010093020000000072
:1003600000000100930200000000000001001003E3
:100370000000000000000100100300000000000069
:100380000100700300000000000001007003000085
:1003900000000000010070030000000000000100E8
:1003A00070030000000000000100BA02000000001D
:1003B00000000100BA02000000000000010010036C
:1003C0000000000000000100100300000000000019
:1003D000010000000000000000000000000000001C
:1003E0000000000000009302000000000000010077
:1003F00093020000000000000100930200000000D2
:1004000000000100930200000000000001000B0248
:1004100000000000000001000B02000000000000CE
:1004200001004B0200000000000001004B02000030
:10043000000000000100ED010000000000000100CC
:10044000ED010000000000000100000000000000BD
:10045000000000000000000000000000000000009C
:10046000000000000000000000000000000000008C
:1004700000000B0200000000000001000B02000061
:100480000000000001000B0200000000000001005D
:100490000B0200000000000001000000000000004E
:1004A00000000000000000000000000000008801C3
:1004B00000000000000001008801000000000000B2
:1004C0000100880100000000000001008801000018
:1004D000000000000100000000000000000000001B
:1004E00000000000000000000000490100000000C2
:1004F0000000010049010000000000000100490166
:1005000000000000000001004901000000000000A0
:1005100001000000000000000000000000000000DA
:10052000000000000000B801000000000000010011
:10053000B8010000000000000100B8010000000048
:1005400000000100B8010000000000000100ED0102
:100550000000000000000100ED01000000000000AC
:100560000100ED010000000000000100ED010000AD
:10057000000000000100D2010000000000000100A6
:10058000D2010000000000000100B80100000000DE
:1005900000000100B80100000000000001000000A0
:1005A000000000000000000000000000000000004B
:1005B0000000880100000000000001008801000028
:1005C00000000000010088010000000000000100A0
:1005D00093020000000000000100930200000000F0
:1005E0000000010093020000000000000100100361
:1005F00000000000000001001003000000000000E7
:100600000100700300000000000001007003000002
:100610000000000001007003000000000000010065
:1006200070030000000000000100BA02000000009A
:1006300000000100BA0200000000000001001003E9
:100640000000000000000100100300000000000096
:100650000100000000000000000000000000000099
:1006600000000000000093020000000000000100F4
:10067000930200000000000001009302000000004F
:1006800000000100930200000000000001000B02C6
:1006900000000000000001000B020000000000004C
:1006A00001004B0200000000000001004B020000AE
:1006B000000000000100ED0100000000000001004A
:1006C000ED0100000000000001000000000000003B
:1006D000000000000000000000000000000000001A
:1006E000000000000000000000000000000000000A
:1006F00000000501000000000000010005010000ED
:1007000000000000010000000000000000000000E8
:1007100000000000000000000000100300000000C6
:100720000000010010030000000000000100E402CE
:100730000000000000000100E402000000000000D2
:100740000100BA020000000000000100BA0200002F
:100750000000000001006E02000000000000010027
:100760006E02000000000000010000000000000018
:1007700000000000000000000000000000000B026C
:1007800093020000000002000B0293020000000030
:100790000200000000000000000000000000000057
:1007A0000000000000009F010000000000000100A8
:1007B0009F010000000000000100B80100000000DF
:1007C00000000100B80100000000000001000B0261
:1007D00000000000000001000B020000000000000B
:1007E0000100000000000000000000000000000008
:1007F000000000000000B80100000000000001003F
:10080000B80100000000000001000B020000000021
:10081000000001000B0200000000000001004B027C
:1008200000000000000001004B020000000000007A
:1008300001000501000000000000010005010000AA
:1008400000000000010000000000000000000000A7
:100850000000000000000000000010030000000085
:100860000000010010030000000000000100E4028D
:100870000000000000000100E40200000000000091
:100880000100BA020000000000000100BA020000EE
:100890000000000001006E020000000000000100E6
:1008A0006E020000000000000100000000000000D7
:1008B00000000000000000000000000000000B022B
:1008C00093020000000002000B02930200000000EF
:1008D0000200000000000000000000000000000016
:1008E0000000000000009302160400000000020057
:1008F0009302160400000000020000000000000047
:1009000000000000000000000000000000000000E7
:1009100000000000000000000000000000000000D7
:1009200000000000000000000000000000000000C7
:1009300000000000000000000000000000000000B7
:1016200000000000A5009302000000000200A500D9
:101630009302000000000200A500930200000000D9
:101640000200A5009302000000000200490193027D
:1016500000000000020049019302000000000200A7
:1016600049019302000000000200490193020000BA
:1016700000000200A500ED01000000000200A5002E
:10168000ED01000000000200A500ED0100000000D7
:101690000200A500000000000000010049010B024B
:1016A00000000000020049010B02000000000200DF
:1016B00049010B0200000000020049010000000087
:1016C00000000100A5004B02000000000200A50080
:1016D0004B02000000000200A5004B0200000000C9
:1016E0000200A5004B0200000000020049014B026D
:1016F00000000000020049014B020000000002004F
:1017000049014B0200000000020049014B020000A9
:1017100000000200A5000B02000000000200A5006E
:101720000B02000000000200A5000B0200000000F8
:101730000200A5000B020000000002004901ED01BB
:101740000000000002004901ED010000000002005D
:101750004901ED010000000002004901ED01000017
:1017600000000200B8010000000000000200B80103
:101770000000000000000200B801000000000000AE
:101780000200B8010000000000000200DC00B80107
:10179000000000000200DC00B801000000000200B0
:1017A000DC00B801000000000200DC00B80100000D
:1017B00000000200B8010000000000000200B801B3
:1017C0000000000000000200B8010000000000005E
:1017D0000200B8010000000000000200DC000B0263
:1017E000000000000200DC000B020000000002000C
:1017F000DC000B02000000000200DC000B02000015
:1018000000000200930200000000000002009302AA
:101810000000000000000200930200000000000031
:10182000020093020000000000000200DC009302AE
:10183000000000000200DC00930200000000020033
:10184000DC009302000000000200DC0093020000B4
:10185000000002004B0200000000000002004B02EA
:1018600000000000000002004B0200000000000029
:1018700002004B020000000000000200DC000B022E
:10188000000000000200DC000B020000000002006B
:10189000DC000B02000000000200DC000B02000074
:1018A00000000200ED010000000000000200ED0158
:1018B0000000000000000200ED0100000000000038
:1018C0000200ED010000000000000200D000ED0168
:1018D000000000000200D000ED0100000000020046
:1018E000D000ED01000000000200D000ED0100007A
:1018F00000000200ED010000000000000200ED0108
:101900000000000000000200ED01000000000000E7
:101910000200ED010000000000000200D0000B02F8
:10192000000000000200D0000B02000000000200D6
:10193000D0000B02000000000200D0000B020000EB
:10194000000002004B0200000000000002004B02F9
:1019500000000000000002004B0200000000000038
:1019600002004B020000000000000200D0004B0209
:10197000000000000200D0004B0200000000020046
:10198000D0004B02000000000200D0004B0200001B
:101990000000020093020000000000000200930219
:1019A00000000000000002009302000000000000A0
:1019B000020093020000000000000200D000930229
:1019C000000000000200D0009302000000000200AE
:1019D000D0009302000000000200D000930200003B
:1019E000000002000B0200000000000002000B02D9
:1019F00000000000000002000B02000000000000D8
:101A000002000B020000000000000200DC000B02DC
:101A1000000000000200DC000B02000000000200D9
:101A2000DC000B02000000000200DC000B020000E2
:101A300000000200B8010000000000000200B80130
:101A40000000000000000200B801000000000000DB
:101A50000200B8010000000000000200DC00B80134
:101A6000000000000200DC00B801000000000200DD
:101A7000DC00B801000000000200DC00B80100003A
:101A800000000200B8010000000000000200B801E0
:101A90000000000000000200B8010000000000008B
:101AA0000200B8010000000000000200DC00B801E4
:101AB000000000000200DC00B8010000000002008D
:101AC000DC00B801000000000200DC00B8010000EA
:101AD00000000200F7000000000000000200F70014
:101AE0000000000000000200F700000000000000FD
:101AF0000200F70000000000000002008300050162
:101B00000000000002008300050100000000020048
:101B100083000501000000000200830000000000B7
:101B2000000001009300000000000000010093008D
:101B30000000000000000100930000000000000011
:101B400001009300000000000000010026010000D9
:101B5000000000000100260100000000000001005C
:101B60002601000000000000010026010000000026
:101B70000000010093004B020000000002009300EF
:101B80004B0200000000020093004B020000000026
:101B9000020093004B0200000000020026014B02ED
:101BA00000000000020026014B02000000000200BD
:101BB00026014B0200000000020026014B0200003B
:101BC000000002009300BA0200000000020093002F
:101BD000BA020000000002009300BA0200000000F8
:101BE00002009300BA020000000002002601700308
:101BF0000000000002002601700300000000020047
:101C0000260170030000000002002601700300009E
:101C10000000020093007003000000000200930027
:101C20007003000000000200930070030000000039
:101C30000200930070030000000002002601000073
:101C4000000000000100260100000000000001006B
:101C50002601000000000000010026010000000035
:101C60000000010093001003000000000200930038
:101C700010030000000002009300100300000000A9
:101C80000200930010030000000002002601BA02C7
:101C90000000000002002601BA020000000002005D
:101CA0002601BA020000000002002601BA0200006C
:101CB0000000020083009302000000000200830085
:101CC0009302000000000200830093020000000065
:101CD000020083009302000000000200050193024D
:101CE0000000000002000501930200000000020055
:101CF00005019302000000000200050193020000AC
:101D00000000020083009302000000000200830034
:101D10009302000000000200830093020000000014
:101D200002008300930200000000020005019302FC
:101D30000000000002000501930200000000020004
:101D4000050193020000000002000501930200005B
:101D50000000020083000B0200000000020083006C
:101D60000B0200000000020083000B0200000000D4
:101D7000020083000B020000000002000501930234
:101D800000000000020005019302000000000200B4
:101D9000050193020000000002000501930200000B
:101DA0000000020083009302000000000200830094
:101DB0009302000000000200830093020000000074
:101DC000020083009302000000000200050193025C
:101DD0000000000002000501930200000000020064
:101DE00005019302000000000200050193020000BB
:101DF0000000020083004B0200000000020083008C
:101E00004B0200000000020083004B0200000000B3
:101E1000020083004B0200000000020005010B02DB
:101E200000000000020005010B020000000002009B
:101E300005010B0200000000020005010B0200007A
:101E400000000200ED010000000000000200ED01B2
:101E50000000000000000200ED0100000000000092
:101E60000200ED010000000000000200D000ED01C2
:101E7000000000000200D000ED01000000000200A0
:101E8000D000ED01000000000200D000ED010000D4
:101E900000000200ED010000000000000200ED0162
:101EA0000000000000000200ED0100000000000042
:101EB0000200ED010000000000000200D0000B0253
:101EC000000000000200D0000B0200000000020031
:101ED000D0000B02000000000200D0000B02000046
:101EE000000002004B0200000000000002004B0254
:101EF00000000000000002004B0200000000000093
:101F000002004B020000000000000200D0004B0263
:101F1000000000000200D0004B02000000000200A0
:101F2000D0004B02000000000200D0004B02000075
:101F30000000020093020000000000000200930273
:101F400000000000000002009302000000000000FA
:101F5000020093020000000000000200D000930283
:101F6000000000000200D000930200000000020008
:101F7000D0009302000000000200D0009302000095
:101F8000000002000B0200000000000002000B0233
:101F900000000000000002000B0200000000000032
:101FA00002000B020000000000000200DC000B0237
:101FB000000000000200DC000B0200000000020034
:101FC000DC000B02000000000200DC000B0200003D
:101FD00000000200B8010000000000000200B8018B
:101FE0000000000000000200B80100000000000036
:101FF0000200B8010000000000000200DC00B8018F
:10200000000000000200DC00B80100000000020037
:10201000DC00B801000000000200DC00B801000094
:1020200000000200B8010000000000000200B8013A
:102030000000000000000200B801000000000000E5
:102040000200B8010000000000000200DC00B8013E
:10205000000000000200DC00B801000000000200E7
:10206000DC00B801000000000200DC00B801000044
:10207000000002000000000000000000010000005D
:10208000000000000000010000000000000000004F
:10209000010000000000000000000100DC00000062
:1020A000000000000100DC00000000000000010052
:1020B000DC000000000000000100DC000000000067
:1020C000000001000000000000000000000000000F
:1020D0000000000000000000000000000000000000
:1020E00000000000000000000000000000000000F0
:1020F00000000000000000000000000000000000E0
:1021000000000000000000000000000000000000CF
:1021100000000000000000000000000000000000BF
:1021200000000000000000000000000000000000AF
:10213000000000000000000000000000000000009F
:10214000000000000000000000000000000000008F
:10215000000000000000000000000000000000007F
:102160000000000093020000000000000200930243
:1021700000000000000002009302000000000000C8
:10218000020093020000000000000200DC00930245
:10219000000000000200DC009302000000000200CA
:1021A000DC009302000000000200DC00930200004B
:1021B00000000200930200000000000002009302F1
:1021C0000000000000000200930200000000000078
:1021D000020093020000000000000200DC009302F5
:1021E000000000000200DC0093020000000002007A
:1021F000DC009302000000000200DC0093020000FB
:10220000000002000B0200000000000002000B02B0
:1022100000000000000002000B02000000000000AF
:1022200002000B020000000000000200DC000B02B4
:10223000000000000200DC000B02000000000200B1
:10224000DC000B02000000000200DC000B020000BA
:10225000000002000B0200000000000002000B0260
:1022600000000000000002000B020000000000005F
:1022700002000B020000000000000200DC000B0264
:10228000000000000200DC000B0200000000020061
:10229000DC000B02000000000200DC000B0200006A
:1022A000000002004B0200000000000002004B0290
:1022B00000000000000002004B02000000000000CF
:1022C00002004B020000000000000200D0004B02A0
:1022D000000000000200D0004B02000000000200DD
:1022E000D0004B02000000000200D0004B020000B2
:1022F000000002004B0200000000000002004B0240
:1023000000000000000002004B020000000000007E
:1023100002004B020000000000000200D0004B024F
:10232000000000000200D0004B020000000002008C
:10233000D0004B02000000000200D0004B02000061
:1023400000000200ED010000000000000200ED01AD
:102350000000000000000200ED010000000000008D
:102360000200ED010000000000000200D000ED01BD
:10237000000000000200D000ED010000000002009B
:10238000D000ED01000000000200D000ED010000CF
:1023900000000200ED010000000000000200ED015D
:1023A0000000000000000200ED010000000000003D
:1023B0000200ED010000000000000200D000ED016D
:1023C000000000000200D000ED010000000002004B
:1023D000D000ED01000000000200D000ED0100007F
:1023E000000002000B0200000000000002000B02CF
:1023F00000000000000002000B02000000000000CE
:1024000002000B020000000000000200DC000B02D2
:10241000000000000200DC000B02000000000200CF
:10242000DC000B02000000000200DC000B020000D8
:10243000000002000B0200000000000002000B027E
:1024400000000000000002000B020000000000007D
:1024500002000B020000000000000200DC000B0282
:10246000000000000200DC000B020000000002007F
:10247000DC000B02000000000200DC000B02000088
:1024800000000200B8010000000000000200B801D6
:102490000000000000000200B80100000000000081
:1024A0000200B8010000000000000200DC00B801DA
:1024B000000000000200DC00B80100000000020083
:1024C000DC00B801000000000200DC00B8010000E0
:1024D00000000200B8010000000000000200B80186
:1024E0000000000000000200B80100000000000031
:1024F0000200B8010000000000000200DC00B8018A
:10250000000000000200DC00B80100000000020032
:10251000DC00B801000000000200DC00B80100008F
:10252000000002009F0100000000000002009F0167
:1025300000000000000002009F01000000000000F9
:1025400002009F010000000000000200D0009F0177
:10255000000000000200D0009F0100000000020007
:10256000D0009F01000000000200D0009F01000089
:10257000000002009F0100000000000002009F0117
:1025800000000000000002009F01000000000000A9
:1025900002009F010000000000000200D0009F0127
:1025A000000000000200D0009F01000000000200B7
:1025B000D0009F01000000000200D0009F01000039
:1025C00000000200ED010000000000000200ED012B
:1025D0000000000000000200ED010000000000000B
:1025E0000200ED010000000000000200D000ED013B
:1025F000000000000200D000ED0100000000020019
:10260000D000ED01000000000200D000ED0100004C
:1026100000000200ED010000000000000200ED01DA
:102620000000000000000200ED01000000000000BA
:102630000200ED010000000000000200D000ED01EA
:10264000000000000200D000ED01000000000200C8
:10265000D000ED01000000000200D000ED010000FC
:10266000000002009302000000000000020093023C
:1026700000000000000002009302000000000000C3
:10268000020093020000000000000200DC00930240
:10269000000000000200DC009302000000000200C5
:1026A000DC009302000000000200DC009302000046
:1026B00000000200930200000000000002009302EC
:1026C0000000000000000200930200000000000073
:1026D000020093020000000000000200DC009302F0
:1026E000000000000200DC00930200000000020075
:1026F000DC009302000000000200DC0093020000F6
:10270000000002000B0200000000000002000B02AB
:1027100000000000000002000B02000000000000AA
:1027200002000B020000000000000200DC000B02AF
:10273000000000000200DC000B02000000000200AC
:10274000DC000B02000000000200DC000B020000B5
:10275000000002000B0200000000000002000B025B
:1027600000000000000002000B020000000000005A
:1027700002000B020000000000000200DC000B025F
:10278000000000000200DC000B020000000002005C
:10279000DC000B02000000000200DC000B02000065
:1027A000000002004B0200000000000002004B028B
:1027B00000000000000002004B02000000000000CA
:1027C00002004B020000000000000200D0004B029B
:1027D000000000000200D0004B02000000000200D8
:1027E000D0004B02000000000200D0004B020000AD
:1027F000000002004B0200000000000002004B023B
:1028000000000000000002004B0200000000000079
:1028100002004B020000000000000200D0004B024A
:10282000000000000200D0004B0200000000020087
:10283000D0004B02000000000200D0004B0200005C
:1028400000000200ED010000000000000200ED01A8
:102850000000000000000200ED0100000000000088
:102860000200ED010000000000000200D000ED01B8
:10287000000000000200D000ED0100000000020096
:10288000D000ED01000000000200D000ED010000CA
:1028900000000200ED010000000000000200ED0158
:1028A0000000000000000200ED0100000000000038
:1028B0000200ED010000000000000200D000ED0168
:1028C000000000000200D000ED0100000000020046
:1028D000D000ED01000000000200D000ED0100007A
:1028E000000002000B0200000000000002000B02CA
:1028F00000000000000002000B02000000000000C9
:1029000002000B020000000000000200DC000B02CD
:10291000000000000200DC000B02000000000200CA
:10292000DC000B02000000000200DC000B020000D3
:102930000000020093020000000000000200930269
:1029400000000000000002009302000000000000F0
:10295000020093020000000000000200DC0093026D
:10296000000000000200DC009302000000000200F2
:10297000DC009302000000000200DC009302000073
:10298000000002007003000000000000020070035D
:1029900000000000000002007003000000000000C2
:1029A000020070030000000000000200DC00700361
:1029B000000000000200DC007003000000000200C4
:1029C000DC007003000000000200DC007003000067
:1029D000000002007003000000000000020070030D
:1029E0000000000000000200700300000000000072
:1029F000020070030000000000000200DC00700311
:102A0000000000000200DC00700300000000020073
:102A1000DC007003000000000200DC007003000016
:102A2000000002003F0300000000000002003F031E
:102A300000000000000002003F0300000000000052
:102A400002003F030000000000000200D0003F032E
:102A5000000000000200D0003F0300000000020060
:102A6000D0003F03000000000200D0003F03000040
:102A7000000002003F0300000000000002003F03CE
:102A800000000000000002003F0300000000000002
:102A900002003F030000000000000200D0003F03DE
:102AA000000000000200D0003F0300000000020010
:102AB000D0003F03000000000200D0003F030000F0
:102AC000000002003F0300000000000002003F037E
:102AD00000000000000002003F03000000000000B2
:102AE00002003F030000000000000200D0003F038E
:102AF000000000000200D0003F03000000000200C0
:102B0000D0003F03000000000200D0003F0300009F
:102B1000000002003F0300000000000002003F032D
:102B200000000000000002003F0300000000000061
:102B300002003F030000000000000200D0003F033D
:102B4000000000000200D0003F030000000002006F
:102B5000D0003F03000000000200D0003F0300004F
:102B60000000020000000000000000000000000063
:102B70000000000000000000000000000000000055
:102B8000000011241FBECFEFD8E0DEBFCDBF11E0A3
:102B9000A0E0B1E0E0E5F7E302C005900D92A231BC
:102BA000B107D9F721E0A2E1B1E001C01D92A23244
:102BB000B207E1F70E94DB190C94A61B0C940000ED
:102BC000109280001092890010928800089540E0D1
:102BD00061E080E00E94531820E041E061E081E084
:102BE0000E946B1820E040E060E081E00E948C18B9
:102BF000219A1092870010928600109289001092FC
:102C00008800089540E061E081E00E94021840E001
:102C100061E080E00E941A1820E040E060E080E07F
:102C20000E943218E0E7F0E080818260808384E6D1
:102C30008093B300089561157105D1F0FC016130F6
:102C4000710529F080E090E020E030E003C0808151
:102C500091810895261737073CF441915191840FD3
:102C6000951F2F5F3F4FF6CF0E940D1ACB0108959D
:102C700080E090E008952AE0629F800D911D11246C
:102C8000BC014AE050E088E191E00E949D1B8091E8
:102C9000200190912101892B11F40C94E0150E94E0
:102CA000E7150E940216E0911701F0E0EE0FFF1FFA
:102CB000E85EFE4F2081318194E0220F331F9A9508
:102CC000E1F740E050E060E074E284EF90E00E94C1
:102CD000211A2150310930938700209386003695C0
:102CE0002795309389002093880010921401109248
:102CF00013011092B20008951F920F920FB60F9217
:102D000011242F933F934F935F936F937F938F93F0
:102D10009F93AF93BF93EF93FF9380911301909193
:102D20001401019690931401809313018091200166
:102D3000909121010297C4F18091130190911401A7
:102D400062E370E00E94F919892B71F580911601F8
:102D5000609120017091210190E001960E940D1A6E
:102D600080931601E0911601F0E0EE0FFF1FE85E80
:102D7000FE4F2081318194E0220F331F9A95E1F7B5
:102D800040E050E060E074E284EF90E00E94211A9D
:102D9000215031093093870020938600369527957E
:102DA0003093890020938800809113019091140141
:102DB0008A3F910539F4109214011092130181E0B9
:102DC00080931501FF91EF91BF91AF919F918F91EA
:102DD0007F916F915F914F913F912F910F900FBE17
:102DE0000F901F9018956CE177EC85EF90E40E94AE
:102DF000A0191092C5008093C40088E08093C100A0
:102E000086E08093C20008959091C00095FFFCCFAA
:102E10008093C60008958091C00087FFFCCF809109
:102E2000C6000895CF93DF93EC018991882319F0B0
:102E30000E940417FACFDF91CF910895EF92FF928D
:102E40000F931F93CF93DF9300D000D01F92CDB785
:102E5000DEB7009771F480E30F900F900F900F9002
:102E60000F90DF91CF911F910F91FF90EF900C94F5
:102E700004179E012F5F3F4F7901F9012AE030E0EE
:102E80008F010E191F09B9010E94F919805D819304
:102E9000CB010097A9F70F5F1F4F0E0D1F1DE01606
:102EA000F10631F0F80182918F010E940417F7CFEB
:102EB0000F900F900F900F900F90DF91CF911F9177
:102EC0000F91FF90EF9008951F93CF93DF93CDB7AD
:102ED000DEB760970FB6F894DEBF0FBECDBF182FD8
:102EE00080E1E0E0F1E0DE01119601900D928A951B
:102EF000E1F7812F82958F70E1E0F0E0EC0FFD1F8C
:102F0000E80FF11D80810E9404171F70E1E0F0E0DE
:102F1000EC0FFD1FE10FF11D808160960FB6F89454
:102F2000DEBF0FBECDBFDF91CF911F910C94041770
:102F3000CF93DF93EC0197FF06C08DE20E94041748
:102F4000D195C195D109CE01DF91CF910C941E1777
:102F5000CF93C82F892F0E9464178C2FCF910C9488
:102F60006417CF93DF93D62FC42F42E0682F85E4F8
:102F700090E00E94D81841E06D2F85E490E00E9417
:102F8000D81840E06C2F85E490E0DF91CF910C944D
:102F9000D818CF93DF93C82FD62F642F40E084E456
:102FA00090E00E94D81841E06D2F84E490E00E94E8
:102FB000D81843E06C2F85E490E0DF91CF910C941A
:102FC000D8181F93CF93DF93162FD42FC22F47E02B
:102FD000682F84E490E00E94D81846E0612F84E4D2
:102FE00090E00E94D81845E06D2F84E490E00E94A4
:102FF000D81844E06C2F84E490E0DF91CF911F91CA
:103000000C94D818CF93DF93D62FC42F40E0682FAD
:1030100081EB90E00E94D81841E06D2F81EB90E0A9
:103020000E94D81842E06C2F81EB90E0DF91CF91A5
:103030000C94D818CF93DF93C82FD62F642F40E07D
:1030400080EB90E00E94D81841E06D2F80EB90E07B
:103050000E94D81843E06C2F81EB90E0DF91CF9174
:103060000C94D8181F93CF93DF93162FD42FC22F11
:1030700047E0682F80EB90E00E94D81846E0612F6F
:1030800080EB90E00E94D81845E06D2F80EB90E037
:103090000E94D81844E06C2F80EB90E0DF91CF9134
:1030A0001F910C94D818CF93DF93D62FC42F42E0F2
:1030B000682F81E890E00E94D81841E06D2F81E8E8
:1030C00090E00E94D81840E06C2F81E890E0DF91FA
:1030D000CF910C94D8181F93CF93DF93C82FD62F7E
:1030E000142F40E0622F80E890E00E94D81841E061
:1030F000612F80E890E00E94D81843E06D2F81E8AE
:1031000090E00E94D81844E06C2F81E890E0DF91B5
:10311000CF911F910C94D8181F93CF93DF93162F44
:10312000D42FC22F47E0682F80E890E00E94D81883
:1031300046E0612F80E890E00E94D81845E06D2FAE
:1031400080E890E00E94D81844E06C2F80E890E07E
:10315000DF91CF911F910C94D81821E030E001C08D
:10316000220F6A95EAF7FC0120830895FC01408153
:1031700021E030E001C0220F6A95EAF7242720837E
:103180000895FC01408121E030E001C0220F6A95E2
:10319000EAF7242B20830895FC01908121E030E0A0
:1031A00001C0220F6A95EAF720952923208308950C
:1031B000662359F0FC01508121E030E001C0220F6C
:1031C0004A95EAF7252B20830895642F0C94CC1898
:1031D000FC01208181E090E001C0880F6A95EAF748
:1031E000822381700895FC01108208950F931F932C
:1031F000CF93DF9300D000D01F92CDB7DEB74983C5
:103200005A836B837C838D83E981FA81002349F0A3
:10321000308181E090E001C0880F6A95EAF7832B46
:103220008083112359F0308181E090E00C8002C04E
:10323000880F991F0A94E2F7832B8083222359F089
:10324000208181E090E00D8002C0880F991F0A94D0
:10325000E2F7822B80830F900F900F900F900F90CA
:10326000DF91CF911F910F910895CF93DF9300D0FD
:1032700000D01F92CDB7DEB749835A836B837C831E
:103280008D83E981FA81308181E090E0AC0101C059
:10329000440F6A95EAF7242F209523232083308159
:1032A000AC0101C0440F7A95EAF7242F209523231F
:1032B000208320810D8002C0880F991F0A94E2F7B5
:1032C0008095822380830F900F900F900F900F9026
:1032D000DF91CF9108959FE9980F9A3110F48052B1
:1032E00008959FEB980F9A3108F4805E089590ED51
:1032F000980F9A3038F09FE9980F81E0963018F0D7
:1033000080E0089581E0089590ED980F9A3040F0A4
:103310009FE9980F963018F499EA980F01C090E051
:10332000892F8295807F90ED960F9A3010F4890F47
:1033300008959FE9960F963010F46755860F08950B
:10334000CF92DF92EF92FF926B017C010E94B01A44
:10335000072E000C880B990B0E94E81A9B01AC0108
:10336000C701B6010E94431A20E030E040E05FE36D
:103370000E94741B87FD06C0C701B6010E94B71AE0
:103380006F5F04C0C701B6010E94B71A862FFF9075
:10339000EF90DF90CF9008959C0180E0F901E80F55
:1033A000F11D9081992311F08F5FF8CF0895559A00
:1033B000569A579A0895219A0E94F3160E94E7158B
:1033C0000E9402167894C0E0D0E003ED10E08091F6
:1033D00015018823E1F36C2F8AE196E10E943B16E8
:1033E000CE010196B8010E940D1AEC011092150150
:1033F000EECFAA1BBB1B51E107C0AA1FBB1FA6171C
:10340000B70710F0A61BB70B881F991F5A95A9F78D
:1034100080959095BC01CD01089597FB072E16F479
:10342000009407D077FD09D00E94F91907FC05D058
:103430003EF4909581959F4F0895709561957F4FCB
:103440000895A1E21A2EAA1BBB1BFD010DC0AA1FE5
:10345000BB1FEE1FFF1FA217B307E407F50720F0FD
:10346000A21BB30BE40BF50B661F771F881F991F78
:103470001A9469F760957095809590959B01AC01C1
:10348000BD01CF0108955058BB27AA270E945B1A9F
:103490000C943A1B0E942C1B38F00E94331B20F026
:1034A00039F49F3F19F426F40C94291B0EF4E0958F
:1034B000E7FB0C94231BE92F0E944B1B58F3BA1710
:1034C000620773078407950720F079F4A6F50C943A
:1034D0006D1B0EF4E0950B2EBA2FA02D0B01B90138
:1034E00090010C01CA01A0011124FF27591B99F07A
:1034F000593F50F4503E68F11A16F040A22F232F86
:10350000342F4427585FF3CF469537952795A795D5
:10351000F0405395C9F77EF41F16BA0B620B730B7C
:10352000840BBAF09150A1F0FF0FBB1F661F771FED
:10353000881FC2F70EC0BA0F621F731F841F48F4A2
:10354000879577956795B795F7959E3F08F0B0CF2B
:103550009395880F08F09927EE0F97958795089512
:103560000E94B71A6894B1110C946E1B08950E94C2
:10357000531B88F09F5798F0B92F9927B751B0F097
:10358000E1F0660F771F881F991F1AF0BA95C9F7E7
:1035900014C0B13091F00E946D1BB1E008950C94FD
:1035A0006D1B672F782F8827B85F39F0B93FCCF3B0
:1035B000869577956795B395D9F73EF49095809564
:1035C000709561957F4F8F4F9F4F0895E89409C084
:1035D00097FB3EF490958095709561957F4F8F4F46
:1035E0009F4F9923A9F0F92F96E9BB279395F6955C
:1035F000879577956795B795F111F8CFFAF4BB0FDA
:1036000011F460FF1BC06F5F7F4F8F4F9F4F16C03D
:10361000882311F096E911C0772321F09EE8872FC7
:10362000762F05C0662371F096E8862F70E060E083
:103630002AF09A95660F771F881FDAF7880F9695FC
:10364000879597F9089597F99F6780E870E060E0A3
:1036500008959FEF80EC089500240A94161617062B
:1036600018060906089500240A9412161306140673
:1036700005060895092E0394000C11F4882352F0D6
:10368000BB0F40F4BF2B11F460FF04C06F5F7F4F8E
:103690008F4F9F4F089557FD9058440F551F59F075
:1036A0005F3F71F04795880F97FB991F61F09F3F2F
:1036B00079F087950895121613061406551FF2CF58
:1036C0004695F1DF08C0161617061806991FF1CFA8
:1036D00086957105610508940895E894BB276627CF
:1036E0007727CB0197F908950E94791B08F48FEF93
:1036F0000895990F0008550FAA0BE0E8FEEF161683
:103700001706E807F907C0F012161306E407F507D5
:1037100098F0621B730B840B950B39F40A2661F049
:10372000232B242B252B21F408950A2609F4A140EC
:10373000A6958FEF811D811D0895FB01DC0102C05C
:1037400005900D9241505040D8F70895F894FFCF5E
:1037500030313233343536373839414243444546C7
:02376000000067
:00000001FF
