:100000000C944B0B0C946C0B0C946C0B0C946C0BB5
:100010000C946C0B0C946C0B0C946C0B0C946C0B84
:100020000C946C0B0C946C0B0C946C0B0C946C0B74
:100030000C946C0B0C94E80B0C946C0B0C946C0BE8
:100040000C946C0B0C946C0B0C946C0B0C946C0B54
:100050000C946C0B0C946C0B0C946C0B0C946C0B44
:100060000C946C0B0C946C0B0C946C0B0C946C0B34
:100070000C946C0B0C946C0B0C946C0B0C946C0B24
:100080000C946C0B0C946C0B0C946C0B0C946C0B14
:100090000C946C0B0C946C0B0C946C0B0C946C0B04
:1000A0000C946C0B0C946C0B0C946C0B0C946C0BF4
:1000B0000C946C0B0C946C0B0C946C0B0C946C0BE4
:1000C0000C946C0B0C946C0B0C946C0B0C946C0BD4
:1000D0000C946C0B0C946C0B0C946C0B0C946C0BC4
:1000E0000C946C0B000083008B0093009C00A50017
:1000F000AF00B900C400D000DC00E900F700050142
:1001000015012601370149015D01720188019F0136
:10011000B801D201ED010B022A024B026E029302DA
:10012000BA02E40210033F037003A403DB030000E0
:100130000000000000000000A50093020000000085
:100140000200A5009302000000000200A500930237
:10015000000000000200A500930200000000020061
:1001600049019302000000000200490193020000CF
:100170000000020049019302000000000200490152
:100180009302000000000200A500ED010000000045
:100190000200A500ED01000000000200A500ED0135
:1001A000000000000200A5000000000000000100A7
:1001B00049010B0200000000020049010B0200008F
:1001C0000000020049010B0200000000020049018A
:1001D0000000000000000100A5004B02000000002C
:1001E0000200A5004B02000000000200A5004B0227
:1001F000000000000200A5004B0200000000020009
:1002000049014B0200000000020049014B020000BE
:100210000000020049014B020000000002004901F9
:100220004B02000000000200A5000B0200000000CD
:100230000200A5000B02000000000200A5000B0256
:10024000000000000200A5000B02000000000200F8
:100250004901ED010000000002004901ED0100002C
:10026000000002004901ED01000000000200490108
:10027000ED01000000000200B801000000000000D5
:100280000200B8010000000000000200B8010000F8
:10029000000000000200B8010000000000000200A1
:1002A000DC00B801000000000200DC00B801000022
:1002B00000000200DC00B801000000000200DC00C9
:1002C000B801000000000200B801000000000000BA
:1002D0000200B8010000000000000200B8010000A8
:1002E000000000000200B801000000000000020051
:1002F000DC000B02000000000200DC000B0200002A
:1003000000000200DC000B02000000000200DC0024
:100310000B02000000000200930200000000000039
:10032000020093020000000000000200930200009F
:100330000000000002009302000000000000020024
:10034000DC009302000000000200DC0093020000C9
:1003500000000200DC009302000000000200DC004C
:1003600093020000000002004B02000000000000A9
:1003700002004B0200000000000002004B020000DF
:100380000000000002004B0200000000000002001C
:10039000DC000B02000000000200DC000B02000089
:1003A00000000200DC000B02000000000200DC0084
:1003B0000B02000000000200ED0100000000000040
:1003C0000200ED010000000000000200ED0100004D
:1003D000000000000200ED0100000000000002002B
:1003E000D000ED01000000000200D000ED0100008F
:1003F00000000200D000ED01000000000200D0006B
:10040000ED01000000000200ED010000000000000E
:100410000200ED010000000000000200ED010000FC
:10042000000000000200ED010000000000000200DA
:10043000D0000B02000000000200D0000B02000000
:1004400000000200D0000B02000000000200D000FB
:100450000B020000000002004B0200000000000040
:1004600002004B0200000000000002004B020000EE
:100470000000000002004B0200000000000002002B
:10048000D0004B02000000000200D0004B02000030
:1004900000000200D0004B02000000000200D0006B
:1004A0004B02000000000200930200000000000068
:1004B000020093020000000000000200930200000E
:1004C0000000000002009302000000000000020093
:1004D000D0009302000000000200D0009302000050
:1004E00000000200D0009302000000000200D000D3
:1004F00093020000000002000B0200000000000058
:1005000002000B0200000000000002000B020000CD
:100510000000000002000B020000000000000200CA
:10052000DC000B02000000000200DC000B020000F7
:1005300000000200DC000B02000000000200DC00F2
:100540000B02000000000200B801000000000000E3
:100550000200B8010000000000000200B801000025
:10056000000000000200B8010000000000000200CE
:10057000DC00B801000000000200DC00B80100004F
:1005800000000200DC00B801000000000200DC00F6
:10059000B801000000000200B801000000000000E7
:1005A0000200B8010000000000000200B8010000D5
:1005B000000000000200B80100000000000002007E
:1005C000DC00B801000000000200DC00B8010000FF
:1005D00000000200DC00B801000000000200DC00A6
:1005E000B801000000000200F70000000000000059
:1005F0000200F7000000000000000200F700000009
:10060000000000000200F7000000000000000200EF
:1006100083000501000000000200830005010000C6
:1006200000000200830005010000000002008300BA
:100630000000000000000100930000000000000026
:100640000100930000000000000001009300000082
:100650000000000001009300000000000000010005
:10066000260100000000000001002601000000003B
:10067000000001002601000000000000010026012A
:10068000000000000000010093004B020000000089
:10069000020093004B0200000000020093004B0296
:1006A00000000000020093004B0200000000020066
:1006B00026014B0200000000020026014B02000050
:1006C0000000020026014B0200000000020026018B
:1006D0004B020000000002009300BA02000000007C
:1006E00002009300BA020000000002009300BA0268
:1006F0000000000002009300BA02000000000200A7
:1007000026017003000000000200260170030000B3
:100710000000020026017003000000000200260114
:10072000700300000000020093007003000000004E
:1007300002009300700300000000020093007003A9
:10074000000000000200930070030000000002009F
:10075000260100000000000001002601000000004A
:100760000000010026010000000000000100260139
:1007700000000000000001009300100300000000D2
:100780000200930010030000000002009300100319
:1007900000000000020093001003000000000200AF
:1007A0002601BA020000000002002601BA02000081
:1007B000000002002601BA0200000000020026012B
:1007C000BA02000000000200830093020000000053
:1007D00002008300930200000000020083009302E5
:1007E00000000000020083009302000000000200ED
:1007F00005019302000000000200050193020000C1
:100800000000020005019302000000000200050143
:100810009302000000000200830093020000000029
:100820000200830093020000000002008300930294
:10083000000000000200830093020000000002009C
:100840000501930200000000020005019302000070
:1008500000000200050193020000000002000501F3
:10086000930200000000020083000B020000000061
:10087000020083000B0200000000020083000B0254
:1008800000000000020083000B02000000000200D4
:100890000501930200000000020005019302000020
:1008A00000000200050193020000000002000501A3
:1008B0009302000000000200830093020000000089
:1008C00002008300930200000000020083009302F4
:1008D00000000000020083009302000000000200FC
:1008E00005019302000000000200050193020000D0
:1008F0000000020005019302000000000200050153
:10090000930200000000020083004B020000000080
:10091000020083004B0200000000020083004B0233
:1009200000000000020083004B02000000000200F3
:1009300005010B0200000000020005010B0200008F
:100940000000020005010B0200000000020005018A
:100950000B02000000000200ED010000000000009A
:100960000200ED010000000000000200ED010000A7
:10097000000000000200ED01000000000000020085
:10098000D000ED01000000000200D000ED010000E9
:1009900000000200D000ED01000000000200D000C5
:1009A000ED01000000000200ED0100000000000069
:1009B0000200ED010000000000000200ED01000057
:1009C000000000000200ED01000000000000020035
:1009D000D0000B02000000000200D0000B0200005B
:1009E00000000200D0000B02000000000200D00056
:1009F0000B020000000002004B020000000000009B
:100A000002004B0200000000000002004B02000048
:100A10000000000002004B02000000000000020085
:100A2000D0004B02000000000200D0004B0200008A
:100A300000000200D0004B02000000000200D000C5
:100A40004B020000000002009302000000000000C2
:100A50000200930200000000000002009302000068
:100A600000000000020093020000000000000200ED
:100A7000D0009302000000000200D00093020000AA
:100A800000000200D0009302000000000200D0002D
:100A900093020000000002000B02000000000000B2
:100AA00002000B0200000000000002000B02000028
:100AB0000000000002000B02000000000000020025
:100AC000DC000B02000000000200DC000B02000052
:100AD00000000200DC000B02000000000200DC004D
:100AE0000B02000000000200B8010000000000003E
:100AF0000200B8010000000000000200B801000080
:100B0000000000000200B801000000000000020028
:100B1000DC00B801000000000200DC00B8010000A9
:100B200000000200DC00B801000000000200DC0050
:100B3000B801000000000200B80100000000000041
:100B40000200B8010000000000000200B80100002F
:100B5000000000000200B8010000000000000200D8
:100B6000DC00B801000000000200DC00B801000059
:100B700000000200DC00B801000000000200DC0000
:100B8000B8010000000002000000000000000000AA
:100B90000100000000000000000001000000000053
:100BA0000000000001000000000000000000010043
:100BB000DC000000000000000100DC00000000007C
:100BC00000000100DC000000000000000100DC006B
:100BD0000000000000000100000000000000000014
:100BE0000000000000000000000000000000000005
:100BF00000000000000000000000000000000000F5
:100C000000000000000000000000000000000000E4
:100C100000000000000000000000000000000000D4
:100C200000000000000000000000000000000000C4
:100C300000000000000000000000000000000000B4
:100C400000000000000000000000000000000000A4
:100C50000000000000000000000000000000000094
:100C60000000000000000000000000000000000084
:100C700000000000000000009302000000000000DF
:100C80000200930200000000000002009302000036
:100C900000000000020093020000000000000200BB
:100CA000DC009302000000000200DC009302000060
:100CB00000000200DC009302000000000200DC00E3
:100CC00093020000000002009302000000000000F8
:100CD00002009302000000000000020093020000E6
:100CE000000000000200930200000000000002006B
:100CF000DC009302000000000200DC009302000010
:100D000000000200DC009302000000000200DC0092
:100D100093020000000002000B020000000000002F
:100D200002000B0200000000000002000B020000A5
:100D30000000000002000B020000000000000200A2
:100D4000DC000B02000000000200DC000B020000CF
:100D500000000200DC000B02000000000200DC00CA
:100D60000B020000000002000B0200000000000067
:100D700002000B0200000000000002000B02000055
:100D80000000000002000B02000000000000020052
:100D9000DC000B02000000000200DC000B0200007F
:100DA00000000200DC000B02000000000200DC007A
:100DB0000B020000000002004B02000000000000D7
:100DC00002004B0200000000000002004B02000085
:100DD0000000000002004B020000000000000200C2
:100DE000D0004B02000000000200D0004B020000C7
:100DF00000000200D0004B02000000000200D00002
:100E00004B020000000002004B0200000000000046
:100E100002004B0200000000000002004B02000034
:100E20000000000002004B02000000000000020071
:100E3000D0004B02000000000200D0004B02000076
:100E400000000200D0004B02000000000200D000B1
:100E50004B02000000000200ED0100000000000055
:100E60000200ED010000000000000200ED010000A2
:100E7000000000000200ED01000000000000020080
:100E8000D000ED01000000000200D000ED010000E4
:100E900000000200D000ED01000000000200D000C0
:100EA000ED01000000000200ED0100000000000064
:100EB0000200ED010000000000000200ED01000052
:100EC000000000000200ED01000000000000020030
:100ED000D000ED01000000000200D000ED01000094
:100EE00000000200D000ED01000000000200D00070
:100EF000ED010000000002000B02000000000000F5
:100F000002000B0200000000000002000B020000C3
:100F10000000000002000B020000000000000200C0
:100F2000DC000B02000000000200DC000B020000ED
:100F300000000200DC000B02000000000200DC00E8
:100F40000B020000000002000B0200000000000085
:100F500002000B0200000000000002000B02000073
:100F60000000000002000B02000000000000020070
:100F7000DC000B02000000000200DC000B0200009D
:100F800000000200DC000B02000000000200DC0098
:100F90000B02000000000200B80100000000000089
:100FA0000200B8010000000000000200B8010000CB
:100FB000000000000200B801000000000000020074
:100FC000DC00B801000000000200DC00B8010000F5
:100FD00000000200DC00B801000000000200DC009C
:100FE000B801000000000200B8010000000000008D
:100FF0000200B8010000000000000200B80100007B
:10100000000000000200B801000000000000020023
:10101000DC00B801000000000200DC00B8010000A4
:1010200000000200DC00B801000000000200DC004B
:10103000B8010000000002009F0100000000000055
:1010400002009F0100000000000002009F0100005C
:101050000000000002009F010000000000000200EC
:10106000D0009F01000000000200D0009F0100009E
:1010700000000200D0009F01000000000200D0002C
:101080009F010000000002009F010000000000001E
:1010900002009F0100000000000002009F0100000C
:1010A0000000000002009F0100000000000002009C
:1010B000D0009F01000000000200D0009F0100004E
:1010C00000000200D0009F01000000000200D000DC
:1010D0009F01000000000200ED0100000000000080
:1010E0000200ED010000000000000200ED01000020
:1010F000000000000200ED010000000000000200FE
:10110000D000ED01000000000200D000ED01000061
:1011100000000200D000ED01000000000200D0003D
:10112000ED01000000000200ED01000000000000E1
:101130000200ED010000000000000200ED010000CF
:10114000000000000200ED010000000000000200AD
:10115000D000ED01000000000200D000ED01000011
:1011600000000200D000ED01000000000200D000ED
:10117000ED010000000002009302000000000000EA
:101180000200930200000000000002009302000031
:1011900000000000020093020000000000000200B6
:1011A000DC009302000000000200DC00930200005B
:1011B00000000200DC009302000000000200DC00DE
:1011C00093020000000002009302000000000000F3
:1011D00002009302000000000000020093020000E1
:1011E0000000000002009302000000000000020066
:1011F000DC009302000000000200DC00930200000B
:1012000000000200DC009302000000000200DC008D
:1012100093020000000002000B020000000000002A
:1012200002000B0200000000000002000B020000A0
:101230000000000002000B0200000000000002009D
:10124000DC000B02000000000200DC000B020000CA
:1012500000000200DC000B02000000000200DC00C5
:101260000B020000000002000B0200000000000062
:1012700002000B0200000000000002000B02000050
:101280000000000002000B0200000000000002004D
:10129000DC000B02000000000200DC000B0200007A
:1012A00000000200DC000B02000000000200DC0075
:1012B0000B020000000002004B02000000000000D2
:1012C00002004B0200000000000002004B02000080
:1012D0000000000002004B020000000000000200BD
:1012E000D0004B02000000000200D0004B020000C2
:1012F00000000200D0004B02000000000200D000FD
:101300004B020000000002004B0200000000000041
:1013100002004B0200000000000002004B0200002F
:101320000000000002004B0200000000000002006C
:10133000D0004B02000000000200D0004B02000071
:1013400000000200D0004B02000000000200D000AC
:101350004B02000000000200ED0100000000000050
:101360000200ED010000000000000200ED0100009D
:10137000000000000200ED0100000000000002007B
:10138000D000ED01000000000200D000ED010000DF
:1013900000000200D000ED01000000000200D000BB
:1013A000ED01000000000200ED010000000000005F
:1013B0000200ED010000000000000200ED0100004D
:1013C000000000000200ED0100000000000002002B
:1013D000D000ED01000000000200D000ED0100008F
:1013E00000000200D000ED01000000000200D0006B
:1013F000ED010000000002000B02000000000000F0
:1014000002000B0200000000000002000B020000BE
:101410000000000002000B020000000000000200BB
:10142000DC000B02000000000200DC000B020000E8
:1014300000000200DC000B02000000000200DC00E3
:101440000B020000000002009302000000000000F8
:10145000020093020000000000000200930200005E
:1014600000000000020093020000000000000200E3
:10147000DC009302000000000200DC009302000088
:1014800000000200DC009302000000000200DC000B
:101490009302000000000200700300000000000042
:1014A0000200700300000000000002007003000052
:1014B00000000000020070030000000000000200B5
:1014C000DC007003000000000200DC00700300007C
:1014D00000000200DC007003000000000200DC00DD
:1014E0007003000000000200700300000000000014
:1014F0000200700300000000000002007003000002
:101500000000000002007003000000000000020064
:10151000DC007003000000000200DC00700300002B
:1015200000000200DC007003000000000200DC008C
:1015300070030000000002003F03000000000000F4
:1015400002003F0300000000000002003F03000013
:101550000000000002003F03000000000000020045
:10156000D0003F03000000000200D0003F03000055
:1015700000000200D0003F03000000000200D00085
:101580003F030000000002003F03000000000000D5
:1015900002003F0300000000000002003F030000C3
:1015A0000000000002003F030000000000000200F5
:1015B000D0003F03000000000200D0003F03000005
:1015C00000000200D0003F03000000000200D00035
:1015D0003F030000000002003F0300000000000085
:1015E00002003F0300000000000002003F03000073
:1015F0000000000002003F030000000000000200A5
:10160000D0003F03000000000200D0003F030000B4
:1016100000000200D0003F03000000000200D000E4
:101620003F030000000002003F0300000000000034
:1016300002003F0300000000000002003F03000022
:101640000000000002003F03000000000000020054
:10165000D0003F03000000000200D0003F03000064
:1016600000000200D0003F03000000000200D00094
:101670003F03000000000200000000000000000026
:10168000000000000000000000000000000000005A
:1016900000000000000011241FBECFEFD1E2DEBF2A
:1016A000CDBF00E00CBF12E0A0E0B2E0E8E7F1E25D
:1016B00000E00BBF02C007900D92A231B107D9F72D
:1016C00022E0A2E1B2E001C01D92A132B207E1F72F
:1016D0000E94EF0E0C94BA100C940000109280003F
:1016E0001092890010928800089540E061E080E047
:1016F0000E94670D20E041E061E081E00E947F0DE3
:1017000020E040E060E081E00E94A00D259A109268
:101710008700109286001092890010928800089528
:1017200040E061E081E00E94160D40E061E080E071
:101730000E942E0D20E040E060E080E00E94460D17
:10174000E0E7F0E080818260808384E68093B300EC
:1017500008952AE0629F800D911D1124BC014AE08A
:1017600050E087E192E00E94B11080911F029091B9
:101770002002892B11F40C946E0B0E94750BE091E2
:101780001602F0E0EE0FFF1FE95EFD4F2081318170
:1017900094E0220F331F9A95E1F740E050E060E0BB
:1017A00074E284EF90E00E94350F215031093093AC
:1017B00087002093860036952795309389002093E3
:1017C000880010921402109213021092B200089531
:1017D0001F920F920FB60F9211248F939F938091B7
:1017E00013029091140201969093140280931302B5
:1017F00080911302909114028A3F910539F410925E
:1018000014021092130281E0809315029F918F9130
:101810000F900FBE0F901F9018951092C50088E092
:101820008093C4008093C10086E08093C200089535
:101830009091C00095FFFCCF8093C60008958091E1
:10184000C00087FFFCCF8091C6000895CF93DF933F
:10185000EC018991882319F00E94180CFACFDF91CE
:10186000CF910895EF92FF920F931F93CF93DF9341
:1018700000D01F921F92CDB7DEB7009771F480E3BE
:101880000F900F900F900F900F90DF91CF911F91BD
:101890000F91FF90EF900C94180C9E012F5F3F4F1B
:1018A0007901F9012AE030E08F010E191F09B90111
:1018B0000E940D0F805D8193CB010097A9F70F5F08
:1018C0001F4F0E0D1F1DE016F10631F0F801829139
:1018D0008F010E94180CF7CF0F900F900F900F9070
:1018E0000F90DF91CF911F910F91FF90EF9008958E
:1018F0001F93CF93DF93CDB7DEB760970FB6F89401
:10190000DEBF0FBECDBF182F80E1E0E0F2E0DE01C8
:10191000119601900D928A95E1F7812F82958F7033
:10192000E1E0F0E0EC0FFD1FE80FF11D80810E9467
:10193000180C1F70E1E0F0E0EC0FFD1FE10FF11D4E
:10194000808160960FB6F894DEBF0FBECDBFDF91E9
:10195000CF911F910C94180CCF93DF93EC0197FF5C
:1019600006C08DE20E94180CD195C195D109CE0117
:10197000DF91CF910C94320CCF93C82F892F0E9406
:10198000780C8C2FCF910C94780CCF93DF93D62FBB
:10199000C42F42E0682F85E490E00E94EC0D41E006
:1019A0006D2F85E490E00E94EC0D40E06C2F85E403
:1019B00090E0DF91CF910C94EC0DCF93DF93C82F83
:1019C000D62F642F40E084E490E00E94EC0D41E0CB
:1019D0006D2F84E490E00E94EC0D43E06C2F85E4D1
:1019E00090E0DF91CF910C94EC0D1F93CF93DF9398
:1019F000162FD42FC22F47E0682F84E490E00E9476
:101A0000EC0D46E0612F84E490E00E94EC0D45E08F
:101A10006D2F84E490E00E94EC0D44E06C2F84E490
:101A200090E0DF91CF911F910C94EC0DCF93DF9359
:101A3000D62FC42F40E0682F81EB90E00E94EC0D80
:101A400041E06D2F81EB90E00E94EC0D42E06C2FA5
:101A500081EB90E0DF91CF910C94EC0DCF93DF936D
:101A6000C82FD62F642F40E080EB90E00E94EC0D51
:101A700041E06D2F80EB90E00E94EC0D43E06C2F75
:101A800081EB90E0DF91CF910C94EC0D1F93CF93FD
:101A9000DF93162FD42FC22F47E0682F80EB90E002
:101AA0000E94EC0D46E0612F80EB90E00E94EC0D6F
:101AB00045E06D2F80EB90E00E94EC0D44E06C2F30
:101AC00080EB90E0DF91CF911F910C94EC0DCF93C0
:101AD000DF93D62FC42F42E0682F81E890E00E9468
:101AE000EC0D41E06D2F81E890E00E94EC0D40E0AC
:101AF0006C2F81E890E0DF91CF910C94EC0D1F9357
:101B0000CF93DF93C82FD62F142F40E0622F80E8A9
:101B100090E00E94EC0D41E0612F80E890E00E948F
:101B2000EC0D43E06D2F81E890E00E94EC0D44E065
:101B30006C2F81E890E0DF91CF911F910C94EC0D18
:101B40001F93CF93DF93162FD42FC22F47E0682F18
:101B500080E890E00E94EC0D46E0612F80E890E084
:101B60000E94EC0D45E06D2F80E890E00E94EC0DA6
:101B700044E06C2F80E890E0DF91CF911F910C94AE
:101B8000EC0D21E030E001C0220F6A95EAF7FC017C
:101B900020830895FC01408121E030E001C0220F44
:101BA0006A95EAF7242720830895FC01408121E00B
:101BB00030E001C0220F6A95EAF7242B20830895B4
:101BC000FC01908121E030E001C0220F6A95EAF724
:101BD0002095292320830895662359F0FC01508124
:101BE00021E030E001C0220F4A95EAF7252B20833F
:101BF0000895642F0C94E00DFC01208181E090E0B9
:101C000001C0880F6A95EAF7822381700895FC016C
:101C1000108208950F931F93CF93DF9300D01F92EC
:101C20001F92CDB7DEB749835A836B837C838D8344
:101C3000E981FA81002349F0308181E090E001C020
:101C4000880F6A95EAF7832B8083112359F030813E
:101C500081E090E00C8002C0880F991F0A94E2F79F
:101C6000832B8083222359F0208181E090E00D8036
:101C700002C0880F991F0A94E2F7822B80830F908D
:101C80000F900F900F900F90DF91CF911F910F91B8
:101C90000895CF93DF9300D01F921F92CDB7DEB788
:101CA00049835A836B837C838D83E981FA813081F8
:101CB00081E090E0AC0101C0440F6A95EAF7242F5F
:101CC0002095232320833081AC0101C0440F7A95F5
:101CD000EAF7242F20952323208320810D8002C042
:101CE000880F991F0A94E2F78095822380830F90D2
:101CF0000F900F900F900F90DF91CF9108959FE973
:101D0000980F9A3110F4805208959FEB980F9A31F2
:101D100008F4805E089590ED980F9A3038F09FE9AE
:101D2000980F81E0963018F080E0089581E00895E2
:101D300090ED980F9A3040F09FE9980F963018F484
:101D400099EA980F01C090E0892F8295807F90EDED
:101D5000960F9A3010F4890F08959FE9960F9630E8
:101D600010F46755860F0895CF92DF92EF92FF929D
:101D70006B017C010E94C40F072E000C880B990B8D
:101D80000E94FC0F9B01AC01C701B6010E94570FD6
:101D900020E030E040E05FE30E94881087FD06C04D
:101DA000C701B6010E94CB0F6F5F04C0C701B60127
:101DB0000E94CB0F862FFF90EF90DF90CF90089579
:101DC0009C0180E0F901E80FF11D9081992311F049
:101DD0008F5FF8CF0895559A569A579A0895259A85
:101DE0000E940D0C0E94750B0E94900B7894C0E02D
:101DF000D0E004E212E0809115028823E1F36C2F19
:101E00008EE291E00E94A90BCE010196B8010E94DA
:101E1000210FEC0110921502EECFAA1BBB1B51E162
:101E200007C0AA1FBB1FA617B70710F0A61BB70B4A
:101E3000881F991F5A95A9F780959095BC01CD01EF
:101E4000089597FB072E16F4009407D077FD09D06C
:101E50000E940D0F07FC05D03EF4909581959F4F91
:101E60000895709561957F4F0895A1E21A2EAA1BDF
:101E7000BB1BFD010DC0AA1FBB1FEE1FFF1FA2173A
:101E8000B307E407F50720F0A21BB30BE40BF50B37
:101E9000661F771F881F991F1A9469F760957095C0
:101EA000809590959B01AC01BD01CF0108955058DC
:101EB000BB27AA270E946F0F0C944E100E9440105F
:101EC00038F00E94471020F039F49F3F19F426F4AF
:101ED0000C943D100EF4E095E7FB0C943710E92FBD
:101EE0000E945F1058F3BA176207730784079507BB
:101EF00020F079F4A6F50C9481100EF4E0950B2EE9
:101F0000BA2FA02D0B01B90190010C01CA01A0014B
:101F10001124FF27591B99F0593F50F4503E68F1A6
:101F20001A16F040A22F232F342F4427585FF3CFE7
:101F3000469537952795A795F0405395C9F77EF4B8
:101F40001F16BA0B620B730B840BBAF09150A1F001
:101F5000FF0FBB1F661F771F881FC2F70EC0BA0F87
:101F6000621F731F841F48F4879577956795B7950F
:101F7000F7959E3F08F0B0CF9395880F08F099270A
:101F8000EE0F9795879508950E94CB0F6894B11135
:101F90000C94821008950E94671088F09F5798F063
:101FA000B92F9927B751B0F0E1F0660F771F881F5E
:101FB000991F1AF0BA95C9F714C0B13091F00E9478
:101FC0008110B1E008950C948110672F782F882735
:101FD000B85F39F0B93FCCF3869577956795B3959F
:101FE000D9F73EF490958095709561957F4F8F4F0E
:101FF0009F4F0895E89409C097FB3EF49095809513
:10200000709561957F4F8F4F9F4F9923A9F0F92FBE
:1020100096E9BB279395F695879577956795B7953C
:10202000F111F8CFFAF4BB0F11F460FF1BC06F5F22
:102030007F4F8F4F9F4F16C0882311F096E911C034
:10204000772321F09EE8872F762F05C0662371F055
:1020500096E8862F70E060E02AF09A95660F771F69
:10206000881FDAF7880F9695879597F9089597F95D
:102070009F6780E870E060E008959FEF80EC08952E
:1020800000240A9416161706180609060895002457
:102090000A9412161306140605060895092E0394D1
:1020A000000C11F4882352F0BB0F40F4BF2B11F445
:1020B00060FF04C06F5F7F4F8F4F9F4F089557FDA4
:1020C0009058440F551F59F05F3F71F04795880FA6
:1020D00097FB991F61F09F3F79F08795089512163D
:1020E00013061406551FF2CF4695F1DF08C01616E9
:1020F00017061806991FF1CF86957105610508949A
:102100000895E894BB2766277727CB0197F90895B0
:102110000E948D1008F48FEF0895990F0008550F55
:10212000AA0BE0E8FEEF16161706E807F907C0F05D
:1021300012161306E407F50798F0621B730B840B65
:10214000950B39F40A2661F0232B242B252B21F43F
:1021500008950A2609F4A140A6958FEF811D811DDF
:102160000895FB01DC0102C005900D9241505040E2
:08217000D8F70895F894FFCFA1
:1021780030313233343536373839414243444546B5
:02218800000055
:00000001FF
