:100000000C94EF6E0C94106F0C94106F0C94106F96
:100010000C94106F0C94106F0C94106F0C94106F64
:100020000C94106F0C94106F0C94106F0C94106F54
:100030000C94106F0C94106F0C94106F0C94106F44
:100040000C94106F0C94106F0C94106F0C94106F34
:100050000C94106F0C94A0700C94106F0C94106F93
:100060000C94106F0C94106F0C94106F0C94106F14
:100070000C94106F0C94106F0C94106F0C94106F04
:100080000C94106F0C94106F0C94106F0C94106FF4
:100090000C94106F0C94106F0C94106F0C94106FE4
:1000A0000C94106F0C94106F0C94106F0C94106FD4
:1000B0000C94106F0C94106F0C94106F0C94106FC4
:1000C0000C94106F0C94106F0C94106F0C94106FB4
:1000D0000C94106F0C94106F0C94106F0C94106FA4
:1000E0000C94106F060126014A0106010601260143
:1000F0004A0106014A015D0188014A015D0188014A
:100100008801B80188015D014A0106018801B80132
:1001100088015D014A0106010601C40006010601CD
:10012000C400060100000000000000000000000004
:1001300000000000000000000000000000000000BF
:1001400000000000000000000000000000000000AF
:10015000000000000000000000000000000000009F
:10016000000000000000000000000000000000008F
:100C0000930000009300000093000000A500000086
:100C1000A5000000A5000000A5000000A500000040
:100C2000A500000083000000830000008300000096
:100C300000000000000000000000000000000000B4
:100C400000000000000000000000000000000000A4
:100C50000000000000000000000000000000000094
:100C60000000000000000000000000000000000084
:1016F00000000000000000000000000000000601E3
:1017000026014A010000060126014A0100004A01A3
:101710005D01880100005D01880100008801B801B9
:10172000880100005D014A0100008801B8018801BC
:1017300000005D01000006010000C4000000060179
:101740000000000000000000000000000000000099
:101750000000000000000000000000000000000089
:101760000000000000000000000000000000000079
:101770000000000000000000000000000000000069
:1022000000000000000000001003000000000000BB
:102210001003000000000000700300000000000038
:1022200070030000DC03000000000000DC0300007D
:102230001704000000000000170400001003000055
:10224000000000001003000000000000000000007B
:10225000000000000000000000000000000000007E
:10226000000000000000000000000000000000006E
:10227000000000000000000000000000000000005E
:10228000000000000000000000000000000000004E
:102D10000000000021000000000000000000000092
:102D200000000000000000000000000000000000A3
:102D30000000000021000000000000000000000072
:102D400000008801C4000000000000000000000036
:102D5000000000000000000000007B0000000000F8
:102D6000AF005D010000A50000000000930000001E
:102D7000830000000000000093000000000000003D
:102D8000A500000000000000AF0000000000C4002B
:102D900062006E008300A500C400F70026015D01FB
:102DA000B8010B029302100316044B021F06B7076B
:102DB0000000000000009300000000000000A500DB
:102DC00000000000AF00000000000000C400000090
:102DD00000000000DC00000000000000F700F70029
:102DE0000000930205014B02930000000501000062
:102DF0000000000026010000000049010000000062
:102E000000005D012E002E002E0088012E00000023
:102E10000000B8012E002E002E00ED010000000081
:102E200000000B02000000005D0131006800680036
:102E30006800680068006800680068006800680052
:102E40006800680068006800F700680068006800B3
:102E50006800680068006800680068004900520067
:102E600096047405E0065D012601680068006800AC
:102E70006800680068006800680068006800680012
:102E8000680068006800F700680068006800680073
:102E9000680068006800680049004E00570054044C
:102EA00074057D0654046800750000006800680021
:102EB0007500000068006800750000006800680088
:102EC0007500490041006800000068006800750056
:102ED00049002500680075000000490068002A02CA
:102EE00088014B028801B90031003A00B900310075
:102EF000B900410041003A003100B9002C00B9008E
:102F000031006800B90031003A00B900C400B900CE
:102F1000410041003A00B9003100B9002C00B9006D
:102F200031006800B9003100B9003100C40041002F
:102F300041003A00B9003100B9002C00B90031005D
:102F4000050105012601D2010B0231000B024100EF
:102F500041003A0010033100A403740574056800B1
:102F6000B90031003A00B900C4003100B90068006E
:102F7000B900B9005700AF005C00B900310068002B
:102F8000B90031003A00B9003100B9006800B90059
:102F900088015700AF005C00B90031006800B9003B
:102FA00031003A00B90031003100B90068002C004E
:102FB000B900B9002E00B9003100B900B900B9005C
:102FC000B900B900B900B900B900B900B900B90039
:102FD0006200B900B900B90041006800B9004100C1
:102FE000B900B900F700B90041003700B900050188
:102FF000B9002601B900DC006800B9004100B90041
:10300000B9004100B900BA02410037009302410003
:10301000B9004900B9004100B9004100B900B90048
:103020001003B900B90041002601B9000501B9003B
:10303000F700B900DC006800B9004100B900B90030
:1030400041009302B900410049014100B900260145
:10305000B9000B026800B9004100B900B900F700DF
:10306000B900B90041000501B9003100260137005F
:10307000B90041006800B900B900B9004100B900C9
:1030800088014100370093024100B9005D01B90099
:1030900026016800B9003A00B900B9006200B90021
:1030A000B90068003100B900B9004900B9006200F8
:1030B0006800B900B900B900B900B900B9006200F0
:1030C000B9006E004900B9004900B900B9004100DB
:1030D0000501B9004100B9004B02BA027003700348
:1030E000BA024B020501B9002601B900DC006800F4
:1030F000B9004100B9000B0241001003BA024100BF
:1031000037000B024100B900B90005016E00B9009B
:103110004100B9000B024B02BA0270037003BA02FD
:103120000B020501B900F700B900DC006800B90026
:103130004100B9000B0241005D017003BA024B026D
:103140004100B9002601B9000B026800B900410036
:10315000B9000B02880110031604410037000B026E
:103160003100B9003700B9006800B9004100B9006A
:103170000B024B02BA0270037003BA024B02410009
:10318000B900BA02B90026016800B9003A004B0242
:10319000B9003100BA02960493020B024100B90053
:1031A0004900B90062006800B900B900B900B9006F
:1031B000B900B9006200B900B900B900C400490003
:1031C000B900B900310068003100B900B900310020
:1031D000B9005D0168004901B9002601B900050187
:1031E000B90005016800B900B9006200B9005700D4
:1031F0005C006200680057002601B900B900490070
:10320000DC00AF00B9005D01B900B9003100B900C0
:103210005D0168004901B9002601B90005015C00A3
:103220008801680075006E0026015700B900620031
:1032300068004900B90062004900B9003100DC00B3
:103240006800B900B900B900B9002C00B900050147
:1032500068009302B900B9002C000B024B02680011
:103260009604B900E4024B022E00B9001003680076
:10327000B900B9002601B900B90057009300B900A0
:10328000A403B9005700B90010032601B900750066
:10329000B9004B02B900B900B9005D011501620027
:1032A00031009C00C400620062005D0131000B022D
:1032B0006E023100A40354041003B900B900B90030
:1032C000B900B900B900B900B900B90000000000A8
:1032D0007405DB03BA02ED010B02ED01B8018801B0
:1032E000B900B9004100B900ED01B80188010B0235
:1032F000ED01B8018801BA0293024B020B02BA0237
:1033000093024B020B02BA0293024B020B02BA0267
:103310003A004B02B900370088015D01D201B801C3
:1033200088015D01D201B80188015D01D201B801B7
:1033300088015D019F01D2019F0188019F01D20197
:10334000B900B900B9006800D2010B024B026E024D
:103350001003310068008300B9002900B900B900EA
:10336000B90034006800B900B900B900B900B9006B
:103370003F0331006800B9002900B9007B00B900A3
:10338000B8016800B9006E006E00B900B900B9005C
:103390003100B9006200B9002900B9005200B9003B
:1033A0002C00B9005700B900B9005C00A40331003B
:1033B000B9006200B9006200B9003100B9006200D2
:1033C000B9003100B9003100B9006200620031007B
:1033D00068008300B9002900B900B9003400680012
:1033E000B900B9005D01B900B9003F0331006800C0
:1033F000B900B9002900B9007B00B90034006800A9
:10340000B9006E006E00B900B9003100B900620069
:10341000B9002900B9005200B9002C00B9005700CA
:10342000B9002E00B9005C00A4033100B9006200AD
:10343000B9006200B9003100B801B9003100B9002B
:103440003100B900620049003100B9006E00B900D6
:103450006200B9006200B9006200B900620049016F
:10346000620088016200ED010B02B9004100B90061
:10347000B9001003B900B90041003700B9000501D7
:10348000B9002601B900DC006800B9004100B900AC
:10349000B9004100B900B900370093024100B900FA
:1034A0002601B90016046800B9004100B900B9004E
:1034B0001003B900B90041002601B9003100B9007C
:1034C0003700B900410068004100B900B90041006F
:1034D0004B025D014100370049014100B90026015E
:1034E000B9000B026800B9004100B900B9007B00C7
:1034F000B900B90041003700310026013700B9009A
:1035000049016800B9004100B900B9004100B900A3
:1035100088014100370093024100B900BA02B900A6
:103520003A006800B9003A00B9006200B900B90079
:1035300068002500B9002C00B9002E00B900310048
:1035400068002900B9002C00B9002E00B900310034
:10355000B9003700B9003A001F00570041000501CB
:10356000B9004100B9000B024B02BA0270037003AC
:1035700037000B020501B9002601B900DC00680024
:10358000B9004100B9000B02BA0270037003BA021D
:103590004B024100B9002601B90005016800B900DD
:1035A0004100B9000B0288011003160441003700E6
:1035B0000B023100B9003700DC006800B90041009F
:1035C000B9000B024B02BA0270037003BA024B023D
:1035D0004100B9002601B9000B026800B9004100A2
:1035E000B9000B02410010037003BA024B02310014
:1035F00026013700B90049016800B9004100B9004F
:103600000B02410010035D01410037000B02410035
:10361000B9004900B9003A002C0075002E00B9002D
:103620000B0293021003100393020B022C00B9004B
:103630002E00B900310068002900B9002C00B90043
:103640002E00B9003100B900B9002C00B9002E00DD
:10365000B90045000501E900D00045002A023F03FA
:103660007D0645005404BA02D00045000501E9007A
:10367000D0001F005D0137011F005D0137011501FA
:103680001F005D017B0015011F005D017B0015011E
:103690003A00E900D000B9003A00E900D000B900D2
:1036A0003A00E900D000B900E900D000B9003700C5
:1036B000DC00620068006E00DC003700B9006200C8
:1036C00068006E00B9001501DC00D000B9003700B9
:1036D000DC00620068006E003700B900620068001C
:1036E0006E00B9001501DC00D000B90045000000F3
:1036F000B900B900B900B900B900B9009F01B9001B
:10370000B900B900B900B900C400C4000000B90094
:10371000B900B900B900B900B900B900B900B900E1
:103720005D01B900B900C400C4008B000000B900FD
:10373000B900B900B900B900B900B900B900B900C1
:10374000B900B900B9001501B9000000B900B9000D
:10375000B900B900B900B9007500B900B900B900E5
:103760001501B900B900B9006E002A026E025404B6
:103770006E022A026E022A026E022A02DC0454043D
:10378000B900B900B90015015404B900B900B90075
:10379000B900B900B900150154046E022A026E0284
:1037A0003F03D201B9008B006E00000093000000BF
:1037B0002A02BA023F0300006E000000C400C400E9
:1037C0002A02BA027D06B900B900B900B900B900F1
:1037D0006E021003B900B900B900B900B900B90010
:1037E000BA0283009300B900B900B900B900B9006A
:1037F000B9006E000000000015014500150123000E
:103800004500000000000000000000000000000073
:1038100000000000000000000000000000000000A8
:103820000000000000000000000000000000000098
:103830000000000000000000000000000000000088
:1038400083000000000000000000000000000000F5
:103850000000000000000000000000000000000068
:103860000000000000000000000000000000000058
:1038700000004901000000002601000005010000D1
:10388000000000006E00000000000000C400000006
:1038900000000000000000000000000057007B0056
:1038A0009300AF00DC00050149018801ED014B02E6
:1038B0004901700396042601E0060501000000009E
:1038C00000000000000000000000C4000000000034
:1038D00000000000000000000501000000000000E2
:1038E0000000000000000000AF0000000000A50084
:1038F0001604000026010000100300000000000074
:1039000000000000000000000000000000000000B7
:10391000000000000000C4000000000000002E00B5
:103920002E00000000000501000000000000000063
:10393000000000007500620000000B020000410062
:10394000000068004100000000000000410000008D
:10395000000000004B0200000000250041000000B4
:10396000000000004100000049006800620068009B
:1039700068006200680000000000410000000000D4
:1039800000004100000000000000410000000000B5
:1039900000002601000000000000410000000000BF
:1039A0000000410049004E001604DC041F065200CE
:1039B00000000000000000004100000000000000C6
:1039C0004100000000000000410000004E004100E6
:1039D0006800750000004100000000006800160447
:1039E0000000620000006800490054040B024B0212
:1039F000F7006800B900B9006800B9006800B900B4
:103A00006800B900B9006800B9000000B900B90049
:103A10006800B900B900680031006800B9006800AA
:103A2000B9006800B9006800B90000006200B90080
:103A300068006200680062008300B90083007500BE
:103A400068006200680057000000C40026012601DB
:103A500031003A00B9000B0283000B02100310037F
:103A6000B9001003160416041F06B9006800B90057
:103A7000B90068003100C4006800B900680068003F
:103A8000B900B900B900B900C400B9006800B900B4
:103A9000B9006800DC006800B90068002601C400B5
:103AA000B900B900B900C400B9006800B900B90094
:103AB0006800DC00DC006800B9007405680068007C
:103AC000960468001F06B900B900B900B900B90032
:103AD000B900B900C400B900B9004900B9004900F3
:103AE0005700B9000501B9006800B9006800680016
:103AF000410068006800B9006800310068003700C4
:103B000000004100B9006800B90068006800B90011
:103B100068005D016800B9004901B9006800B9009A
:103B200016040B026800B900680068001003680002
:103B30006800680037006800310068003700000046
:103B40004100B9006800B90068006800B900B90018
:103B5000680068009302B90068004B020000160478
:103B6000B9006800B90068006800100368006800C8
:103B7000680037006800B900B900B9004901B90010
:103B8000B900680068006800B90068005D0168005D
:103B9000B900B900B9006800BA0200003A00B900E3
:103BA0006800B90068006800310000006800B900D2
:103BB000B90068006800B9000000B900B9006800E9
:103BC00068006800680068007500B9004900B90025
:103BD000B9004900B900620057000501680068009B
:103BE000B9006800880110031604410037000B0279
:103BF00031006800370000004100B9006800B900DA
:103C00006800B9009302B900BA0210039302490197
:103C10000B0268000000410068006800B9006800FD
:103C2000B90088011003160441002601B9003100D3
:103C30006800370000004100B9006800B900680062
:103C4000B900DB0370034100370049010B02680033
:103C50004B0200004100B9006800B9006800B900DB
:103C60007B00B900B90010039302B9000B02680091
:103C7000B9004901B9006800B9006800B900410005
:103C800010038801410037000B020B026800BA02E2
:103C900000003A00B90068007500B90068004B02E6
:103CA000B900B9003100B9004B026800B90000004A
:103CB000B900B90068006800680068006800750015
:103CC000B9008801000000008801B9006200DC0032
:103CD0005D01B900B900680068005D010000BA022A
:103CE000B900930268004B0268000B0200000B024F
:103CF000B90068006800B9006800B900B90088011F
:103D0000B900B900C40068007500B900B8016800C6
:103D1000680037016800680005010000BA02B900B8
:103D2000930268004B0268000B02B9001003B9004F
:103D3000B900B9004B02B9000000ED01B900B900AB
:103D40000000B900B9007500B900B801B9006800F9
:103D5000680068006800DC000B02BA02B900B90014
:103D600068006800B90016042601B9004B0268001B
:103D70009604B900B9000000F700B9007500000012
:103D800031006800750010031604A500A4033F036A
:103D90003F03B9005700AF0000003A0000004B029B
:103DA0000000000026013100680068008300B900AF
:103DB000B9003100880115019F01B900B900100355
:103DC00015011501880100006E000000410062002D
:103DD00000000000570000000000B7076200490023
:103DE000B900B80141006800B900410068006800EE
:103DF000B90068006800B900B900B900B900410015
:103E0000B9003A006800B900B900B900B900B900BA
:103E1000B9000501680075009302B900B900B90046
:103E2000D201AF00B9003700B900B9003700B900BE
:103E30000B020B026E00B9005200B9004100B9003C
:103E400034006800B900B900B900B9006800680022
:103E50006800B900B9006800B9003400B9007D06F7
:103E6000B900B9006800A50068007B006800BA02CC
:103E7000B9006E0068006200680075007D063F03AF
:103E8000B9006800A5006800B90068003400B900F6
:103E90006E00B900B900680075006200DB03000025
:103EA000DB030000DB030000DB030000DB0300009A
:103EB000DB032E000000DB03BA023F030000BA025E
:103EC0000000B9000000B9000000B9000000B9000E
:103ED0000000B90049006E00B9007D06B900B900C4
:103EE0006800A5007B006800BA02B9006E00680097
:103EF000B900680075007D063F03B90068006800DE
:103F0000A5006800B90068007405B9006E00B9002A
:103F1000B90068006200DB030000DB030000DB0384
:103F20000000DB030000DB030000DB032900A40327
:103F30002900DB03BA023F0300005D010000B90065
:103F400000005D0162000000B8012900B900000016
:103F50005D01B900B900000062000000B90049002D
:103F6000B8014900B90000005D01B9005D01B90068
:103F7000B801B9000B026800B90068006800880148
:103F80006800680068000B026800310068003700B4
:103F900000004100B9006800B90068006800B9007D
:103FA00068006800B9004901B90068004B020000D0
:103FB0000501B9006800B9006800680010036800D6
:103FC0006800680037006800B9006800B900DC00CC
:103FD000B900B900B90068006800B9002601F7000F
:103FE0006800B9009302B90068004B020000160493
:103FF000B9006800B9006800680010036800680034
:104000006800B900B900B900B90000004100B9006A
:104010006800B90068006800B90068005D016800C8
:10402000B900B900B9006800BA0226012601B9003A
:104030006800B9006800310000006800B90029007C
:104040006800B9006800B90000006200B900B9005A
:1040500068006E006800B900750075008801B9003D
:10406000000049006200B900050168006800B9005D
:104070006800B90088011003160441009302B900DA
:1040800031006800370000004100B9006800B90045
:104090006800B90010035D01410037000B020B02FC
:1040A00068004B0200004100B9006800B9006800D8
:1040B000B9001003B900B90010039604B900160442
:1040C0006800DB034100B9006800B9006800B9006E
:1040D00041001003F7004100370049010B0268005E
:1040E0004B0200004100B9006800B9006800B90047
:1040F0009302B900410005010B020B02B900B9009F
:1041000000004100B9006800B9006800B9009302DE
:10411000B900160410039302B9000B026800B9003D
:1041200026012601B900B9004B0268003100BA022D
:104130009604BA022900B9004B026800B9000000D9
:104140001003B90093026800BA026800E402750027
:10415000880188010000A4038801DB030000150129
:104160006800B900B9001501BA025404D0007D06F8
:104170000501E900B9001501B900B900B9007201E3
:104180005D01370172015D0137011501720168009F
:104190003701BA027201B9003701B9001501680090
:1041A000B900B9001501B900B900B90015016800DE
:1041B000B900B900B900B900B90015016800D00014
:1041C000B9001501B900D000B9001501DC00D0001C
:1041D000B900B900B900B900B90015016800D000F4
:1041E000B9001501D000B9001501DC00D000B900FC
:1041F000B900B9007D064807450000009300930010
:104200009300B90093009300B900B90093009300A4
:104210009300C400B900B90000009300B900B900D0
:10422000B900B900B900B900B900B900B9009300EC
:104230009C00B900B9008B0000009300930093002C
:10424000B90093008300B900B900B9008B008B005E
:10425000B900B9008B0000009300B9009300B900C9
:1042600093009300B900B90093009300B9008B004C
:104270006E00C4006E025404DC042A02DC04540400
:10428000DC045404DC0454046E022A02C4006E00F0
:104290002A02AF002A029300930093005404930073
:1042A0009300B9002A02DC045404DC049F01A40337
:1042B000C400000000000000000000005404740569
:1042C0007D06000000000000930000005404740507
:1042D0003F036E00B900B900B9002A02DC041F06D2
:1042E000B900B900B900B900C4002A0274053F033F
:1042F00093009300930093009300930093000000B9
:10430000000000002A0223002A02450015010000D7
:10431000000000000000000000000000000000009D
:10432000000000000000000000000000000000008D
:10433000000000000000000000000000000000007D
:104340000000000000000000000000000501000067
:10435000000000000000000000000000000000005D
:10436000000000000000000000000000000000004D
:10437000000000000000000000000000000000003D
:1043800000000000000000000B0200000000000020
:104390000000000000000000880100000000000094
:1043A00000000000000000006200000000000000AB
:1043B000000000000000BA0200000000BA02DB03A7
:1043C0009300260500001604000000000000000015
:1043D0000000000000008801000000000000000054
:1043E00000000000000000000000000000000000CD
:1043F00000000000DB030000000049010000000095
:10440000000000001F060000000000000000000087
:10441000000000000000000000000000000000009C
:104420000000100300000000000000000000000079
:10443000000000000000000000000000000000007C
:104440002601000000000000000000000000000045
:10445000000000000000000000000000000000005C
:1044600062000000000025000000250000000000A0
:10447000000000006800000068001F0600006800DF
:10448000000000000000000000000000000000002C
:1044900000000000000000000000000000006800B4
:1044A00000000000000000000000000000006800A4
:1044B000680068005700680075002A025D0100006E
:1044C00000000000000000000000000000000000EC
:1044D0000000000000000000490041004100000011
:1044E00000000000000000000000000000000000CC
:1044F00000004100000000009302D2014B020000C6
:1045000068006800C400680000006800B900680026
:1045100068000000750000006800000000006800EE
:1045200068000000B90000006800B90068000000E1
:104530006800000075000000B90000000000B9002C
:104540000000B900B90068006800B9000000B900B7
:104550000000B900000062006800B9005D015D0163
:10456000680062000501490083007500A403620031
:104570002C00960431000000000068006800000074
:10458000DC00DC0041000000000000006800680062
:1045900075000000DC000000000068006800C40036
:1045A000C400410000002601B900B9006800750090
:1045B0000000DC0000000000680068000000C4008B
:1045C000C400410000008300000000009300680068
:1045D000C40000006E000000000062000000000047
:1045E000B90000000000B9004900B9004100000016
:1045F0000501000000006800410010037B00B900C5
:10460000B90068000000B9008801B9000000B900D5
:104610000000000068004900000068000000BA02C5
:10462000B900680093026800880175000501B900AF
:104630000000680041000000F70000004100B900E0
:10464000B9000000B9008801B9000000B9000000FD
:104650000000680049000000680068004100B900DF
:104660009302680088014B02000041000000000036
:104670006800410000007B0000004100B900B90063
:10468000000068006800750000006800000041003C
:104690004900000068000000B900B900750068001A
:1046A00068000B02BA02000026010000000068004A
:1046B00041000000B900000041008801680041008D
:1046C0008801680000008B0000000000880149009C
:1046D000000088010000490088010000000041003E
:1046E0008801000000000501B900000068004100D9
:1046F0001003B900B90010039302B9000B0288013E
:10470000B9000000B900000000006800490068001E
:10471000B9006800F7006800B9009302B900880189
:1047200000001604B9000000680041006800100392
:10473000B900B90010033700680016048801DB03D4
:104740000000700300000000680049006800930248
:10475000F700100393029302B90088014B02000096
:10476000B900000000006800410068001003680004
:1047700068006800B9006800B90088017500410050
:10478000000000006800490068009302B9005D0164
:1047900010039302B900B9000B0249000000260182
:1047A00000000000B90068000B02620010036800FE
:1047B0004B026800B9008801680000008B0000000F
:1047C000000088014900000088010000490026011E
:1047D00000000000B90088010000B801DC00B90049
:1047E000680041000000DC000000B9000000B900D2
:1047F0000000B9000000B9000000310026014900A6
:1048000026016800DC007500F700F700490075001C
:104810008801AF00000005013100B9000000490126
:1048200041004900DC000000B9000000B9000000B0
:10483000B900000057000000620000006800680036
:10484000B9007500000088010000750000006800D4
:10485000680000000000700300000000000041003C
:104860000000B90074052C00000068000000410041
:104870007500B90016040000B90026057201680031
:1048800075000000F700000041000000B9000000C2
:104890000000B900160400005200AF00B90000008B
:1048A000B900680000000B02000041000000000099
:1048B00000001501B9001501150168006800E90044
:1048C0001501B9001501680068001501B900B900AB
:1048D00010030000000000000000000000000000C5
:1048E00041000000B90049002605B9006200B90086
:1048F0004100B9006800B9004100B80168000B022E
:10490000B9006800680068006800B9000000C400D1
:10491000B900680068006800680068006800BA02B2
:10492000B900B900B90068006800750000003700E0
:104930006800B90068006800B9006800B900680044
:10494000B9006800B9006800B9000000D000B900E3
:1049500068006800680068004B026E0241000B02AC
:104960006800B9006800B90000003F03000068005B
:1049700083005700000068007B0074050000680099
:104980006E0068002900620037017D060000830088
:104990005700000068007B00740500006800680094
:1049A000620000006200000062000000B900000028
:1049B00052000000B900000057000000B900A40335
:1049C0000000E4025D016E0200000B0200004100E5
:1049D0000000750000004100000075000000490063
:1049E0000000B90000003F0300006800830057008A
:1049F00068007B0074055D0168006E00620029009C
:104A0000620037017D06000083008300570000002C
:104A100068007B00BA020000680068006200B9000C
:104A2000000062000000B900000052000000B90060
:104A3000000057000000B9000000BA020000E402C4
:104A40005D016E020000B801000041000000B801E5
:104A5000B90000005D01000075000000B801000011
:104A60008B0000005D010000490000005D01250091
:104A700049000000B8012500B90049005D0162004D
:104A80006E000000680041000000100300004100BB
:104A9000B900B90000001003880116040000B90035
:104AA000000000006800490000006800BA024100F0
:104AB00068009302680088014B020000410000007A
:104AC0000000680041000000F70000004100B9004C
:104AD000B900050168008801750000006800B90090
:104AE00068004900000068004B02BA02B900750076
:104AF0009302680088014B020000410000000000A2
:104B000068004100F700880100004100B90068001A
:104B10006800680075000000B9000000000068002F
:104B20004900000068000000B900B9007500680085
:104B300068000B0249000000B90000000000680096
:104B40000000B900000041008801B90000006800C1
:104B5000880168000000B900000068008801B90001
:104B6000000068000000B900260100000000B90044
:104B7000B90000000501B9000000680041006800AC
:104B80001003B900B9001003B90068000B028801D6
:104B9000B9000000B900000000006800490068008A
:104BA000B900BA02100393024901B90088014B020F
:104BB00000001604000000006800410068001003B7
:104BC000680068006800930268000B028801B90061
:104BD000700300000000680049006800DB039302D6
:104BE000BA02100393029302B90088014B0200003D
:104BF000B90000000000680041006800B9006800CA
:104C000010033700B900B900680075000000B90052
:104C100000000000680049006800B9006800B900A1
:104C20006800B9006800B9000B027500000075004B
:104C300068006800B90000004B02B900B9006800C4
:104C40004B026800B900880168000000880100007C
:104C5000490188015D010000720100001003260176
:104C60000000D2012601ED0100008B00B9006800B0
:104C70006800B9000501E900B90015016800B90034
:104C80006800B90068007500000072016800B90092
:104C90007201B900B900B900E402B900B900BA0262
:104CA000B90068006E020000B900B9006800680031
:104CB000B9006800680068006E02B900680068000A
:104CC000680075000000BA02B900B900B900B90067
:104CD0006800B9006800E4026800B9006800680074
:104CE0006800750000003F03B900B900B900B900C1
:104CF000B900680070036800B900680068006800C7
:104D00003F03A40354040000B900B900B900000037
:104D1000B900B90093000000B900B900B900B900AA
:104D20003F03540400000000930093000000930030
:104D300093007201000093009300B90037016E00E8
:104D4000B90093000000B900B900B9000000B90033
:104D5000B9000000930093001501B9006E00B9007E
:104D60001501000000009300B9000000B900B9006F
:104D700093000000B900B900930015018B002A02CE
:104D8000DC04B900B900B900B900B900B900B90034
:104D9000B900B900B900B9001501150154046E003D
:104DA00000006E0254046E022A026E022A02930070
:104DB000B900B900B900B900B900B900230000007A
:104DC00000000000000000006E00100393000000CF
:104DD00000000000000000006E00C400930000000E
:104DE0000000930000005404B900B900C4006E0034
:104DF000C4009300B9005404B9007D060000B90056
:104E00006E00B900B900B900B90000000000000050
:104E10008B000000450015018B0000000000000021
:104E20000000000000000000000000000000000082
:104E30000000000000000000000000000000000072
:104E40000000000000000000000000000000000062
:104E50000000000000000000000000000000000052
:104E60000000000000000000000000000000000042
:104E70000000000000000000000000000000000032
:104E80000000000000000000000000000000000022
:104E90000000000000000000000000000000000012
:104EA0000000000000000000000000000000000002
:104EB00000000000000000000000000000000000F2
:104EC00000005D0100000000A50000000000740566
:104ED000000083000000000000000000000000004F
:104EE00000001003000000000000000000000000AF
:104EF00000000000000000000000000000000000B2
:104F0000B7070000000000000501000000000000DD
:104F1000DC000000000000000000000000000000B5
:104F20000000000000000000000000000000C400BD
:104F30000000000000000000000000000000000071
:104F4000000000000000000000000000BA0296040B
:104F50000000000000000000000000000000000051
:104F6000000000000000000000000000260100001A
:104F70000000000000000000000000000000000031
:104F8000000062004100000000000000000000007E
:104F90000000000000000000000000000000000011
:104FA00000000000000000000000410000000000C0
:104FB00000000000000000000000000000000000F1
:104FC0006800000000009F012A02000000000000AD
:104FD00000000000000000000000000000000000D1
:104FE00000000000000021000000000000000000A0
:104FF000000000000000930200000000000000001C
:1050000000009F019302BA0268000000C400410042
:1050100000008801000041000000B90041000000CC
:1050200000000000410000000000C4004900000032
:10503000680000004100000000000000490000007E
:10504000000000008B000000000068000000680005
:1050500068004100B90068000000680000007500A9
:105060000000C400B9006800620075008801C40037
:10507000B900B9000501E9001604C4009604B9009E
:105080001F0600000000000041000000C4000501F0
:1050900000000000000000004100000000000000CF
:1050A000100300000000000049003100050100006D
:1050B0000000880168006800000000000000100384
:1050C000000000000000490000000501050100008B
:1050D00000000B02000000004B02B90010030000AA
:1050E0000000000000000000000000005700000069
:1050F0000000B900B9000000B9000000B9000000CC
:105100000000880149008801B90068000B02000016
:10511000000068000B02750000006800000000003D
:105120000B02410000000B020000F70088010000A4
:10513000B90049000B02000000008B0000000B02C8
:10514000490000004100000000000B026800000060
:1051500068000B02750000006800000000000B02F0
:10516000410000008801930200008801B900490055
:105170000B0249000000B900000000000B024900CA
:1051800000001003000000008801680000004100DA
:1051900088010000000041000000B900410000004B
:1051A0008801000068000B020000490149008801E5
:1051B00049000000B900000000002601490000007D
:1051C00075000000000026010000B9002601000063
:1051D00000006800000000002601410000002601D8
:1051E00000004100260100000000880126010000A7
:1051F0000000B900000000008801490010036800A9
:1052000068006800B9006800B9000B027500000072
:105210006800000000000B0241004B0268007003B0
:105220001604B9006800930268000B0200000B022C
:10523000000000000B024900000010036800680035
:105240006800960400000B020B02B9000000B900D0
:10525000000000000B0241004B02B900BA026800D6
:10526000B900930268000B02490000008B000000A7
:1052700000000B0249004B02100370034100B9000B
:105280006800000068000B020000B9000000000088
:10529000880141000000B900680016046800B900E8
:1052A000680068008801B900000075000000000077
:1052B000680041000000B90000004100B900000092
:1052C00068002601000000006800000000002601C0
:1052D0004100000026010000410000000000000025
:1052E0004900260100000000050168000000490097
:1052F0000000050100006800000068000000680070
:10530000000075000000DC004B0249014B0249001F
:10531000B801AF00ED0126010000AF0062000000FF
:10532000000000005D0100000000260149000000AF
:10533000260100006800000068000000680000000E
:10534000B9000000370100000000620068000000A2
:1053500000002601000000000000490000000000DD
:1053600000002C0000000000000049000000750053
:105370000501B900000026050000490000000000FA
:105380002E00000068009302B900000070030000C6
:10539000B9000000000000006800000000004100AB
:1053A0005D0100000B0200004900000010035D01D8
:1053B0000000B9000000B900000000000000B900C2
:1053C0004900B900B9004100D0001501150149009C
:1053D00062002A02BA02B900680075008801000064
:1053E00000000000000000000000000000000000BD
:1053F0000000B9008801700393020000C40000009F
:1054000000006800490000008801C400000000009E
:1054100000004100000075000000E90000000000ED
:1054200000004900000000000000050100006800C5
:10543000680049004B020B020000DC00000068001D
:1054400041000000680000006800B900680000002A
:10545000680000007500000034000000000000003B
:1054600049000B02000000004B02340000006800FD
:105470000000750000003701000000000000B900C6
:105480000000000000000501000029002900410083
:10549000000029003F0337010000B900B9000000F7
:1054A00000000000BA02000000006E00680000006A
:1054B00000000000E402000075000000B9000000D8
:1054C00075000000B90000007500BA020000E40297
:1054D000BA02570000000B0200005C000000000050
:1054E00000005C00000000000000750000000000EB
:1054F00000003701000000000000B90000000000BB
:1055000005010000290029006800000029003F0370
:105510003701000000000000B90000000000B801E1
:105520000501000000006E00680075000000E40244
:10553000000075000000B900000075000000B9000F
:105540000000750000005C000000E402BA02570091
:1055500000000B020000490000000B0241000000A7
:105560000B020000410000000B0200004900000097
:10557000B8010000410000000B02000041000000E3
:105580000B022601490025000B02410068000000C3
:10559000880149000000F700000000000B026800CD
:1055A000000016040B021003000068000000000059
:1055B0000B02410000000B025D0141000000B90038
:1055C00049000B02490000000B02000000000B0222
:1055D000490000004100000000000B0268000000CC
:1055E00041000B0200000000410068000B02410076
:1055F000000088014901BA0288010000B900490091
:105600000B0249000000B900000000000B02490035
:1056100010034100000000008801B900410088012A
:105620000000000068000000000088014100000048
:105630008801000068000B02000049014900880150
:10564000B90000008B00000000002601000075007A
:105650000000000026016800000041002601000053
:1056600000008B0000000000260168000000880197
:1056700000004900000000000000410000000000A0
:10568000B900000000008801490000001003680014
:105690006800680068000000B9000B027500000097
:1056A0006800000000000B0241004B026800BA02D3
:1056B0006800B900930268000B02490000000B0269
:1056C000000000000B0249004B02F700700341008C
:1056D000B900B9000501B9000B027500B90000005E
:1056E00000000B024100000093029302BA0268001E
:1056F000B900930268000B02490000008B00000013
:1057000000000B0249004B0268007003680093021E
:1057100068006800880100000000680000000000C8
:10572000880141004B02680070036800B9007500F1
:1057300093026800880100000000B9000000260103
:1057400068000000620000006800B900B9000000B5
:105750006800260100000000B9000000B900260121
:10576000B9000000B9000000B90029000000B9002C
:105770000000B90000002A020000000000006800DC
:10578000B900B90068003F03B90068000000680074
:10579000000000000000B900B9006800B90068000E
:1057A00068006800E40200006800B90068000000BA
:1057B0006E0200002A0200000000000068000000E5
:1057C000000000001501000000003A000000000089
:1057D0000000BA020000680068006800000068006D
:1057E0000000E402B9006800000049000000000069
:1057F00000003F03000068006800680068000000C7
:105800007003B9006800000041000000B900B90051
:105810000000000000000000000000000000000088
:10582000D0000000000000000000B90048070000A0
:105830000000000000000000000000000000B900AF
:105840000000AF00B9000000B900B900C4008B002F
:1058500000000000000000000000B90093000000FC
:1058600000000000B90015018B0000007B00000063
:105870000000B900000000000000000075000000FA
:1058800000008B00B900C400C40054040000930061
:10589000B900B900B900B900B900B900B900B90040
:1058A000B900150115018B00B9005D010000DC0491
:1058B0002A02DC04B900DC0454041501B900B90063
:1058C000B900B900B900DC002300000000000000AE
:1058D000000000006E021F06C4000000000000006F
:1058E00000000000C4001003C4000000000000001D
:1058F0000000B900BA027D060000C40000000000EC
:105900000000B900C400930000009300B9009300A8
:105910009300930093000000000000004500000089
:105920008B00450045000000000000000000000062
:105930000000000000000000000000000000000067
:105940000000000000008605000000008300000049
:10595000720172010000A5007201B900000072011D
:10596000DC000000C400720172010000A50000000C
:105970000000830072016E0000005C005C0000000B
:105980005C006200000072018300720100007B0075
:10599000830000005C005C005C0000006200750099
:1059A0000000000000007B0000002601260100002E
:1059B00049010000000037013701370100007B007A
:1059C0002601260126014901370100002601260192
:1059D00000004901ED01D2012A026E022A0293025F
:1059E000E402E4023F0370037003DB03DC045404AD
:1059F000DC045404DB035404DB031003DB037003F7
:105A0000BA02ED01F700F70000006E02000000008E
:105A1000BA02F7000000DC045404F7000000F700AD
:105A2000DB030000F7007003F7000000BA022A024F
:105A300000002A022A026E0200000000F7000000A7
:105A4000F700F70000007B00F700C400DC005C00FA
:105A50008B00C4005C00C4008B006200930249010B
:105A60004901260126012601490149014901260172
:105A70002601490149014901260126012601A40305
:105A800049014901540426012601490149014901FE
:105A9000260126013F0349014901930226012601FF
:105AA00074055404DB03DC04DB037003DB037003C5
:105AB000DB0370031003260549017D0648077D06B8
:105AC000C7052605C7057D0600007D06C705000041
:105AD00000007B0000000000520026012601260184
:105AE00026010000BA022A02ED012A02ED01B801E6
:105AF000ED01B801ED01B8015D017405DC04DB03C3
:105B0000DC04DB0370035404700310037003100300
:105B1000B90000002601720149010000E402E4021C
:105B20002601E40210038B002601E402260126016F
:105B3000E40210034901A403490149014901160483
:105B40001604000016041604000000000000000007
:105B50000000000000000000000000000000000045
:105B60000000000000000000000000000000000035
:105B70000000000000000000000000000000000025
:105B80000000000000000000000000000000000015
:106450000000000000000000160400000000000022
:10646000000026050000C70500000000E00600004F
:106470001F060000000000002605000000001604B2
:10648000000070030000E402E4020000E4021003D4
:106490000000000000000000000000008300000079
:1064A000E402E402E40200001003A4030000000080
:1064B0000000DB0300003701260100005C00000043
:1064C0000000F700F700F7000000000037010000AF
:1064D00037015C00F70000005C00260100005C0052
:1064E0007B00ED01260126016E020000BA02F700D2
:1064F0000000F700F70074050000260126010000E7
:106500004901F700700326012601100300008B00EB
:106510003701370100005C0000000000F700370180
:106520000000F7007B003701000037015C0000002D
:1065300037015C003701000000007B000000F7001D
:10654000F7005C0000000000370100003701370150
:106550000000ED01370110037003C4002A0210038C
:10656000AF0010032A0288014901490100007B00A5
:1065700000003F030000000026010000260100008B
:10658000000049017B0026010000490100000000D5
:1065900026010000DB0300000000260100002601A8
:1065A0004901490100002601260100004901490175
:1065B000490126012601260149014901260126013A
:1065C00026014901C705490126013F03E4025200A3
:1065D000E4023F0300003F03E40200000000490121
:1065E000000000009F01000000007B000000000090
:1065F0008B0026012601000049012A020000260125
:106600002601880100008B0054042601260149015F
:106610000000410026012601000049018B00000016
:1066200072012601880100005200260100002601A7
:106630004901520000002601E40200002601490140
:1066400000004901000049010000830083000000B0
:1066500083008B000000000000000000000000002C
:10666000000000000000000000000000000000002A
:10667000000000000000000000000000000000001A
:10668000000000000000000000000000000000000A
:1066900000000000000000000000000000000000FA
:106F6000000000008300000000000000000083001B
:106F7000000083000000000000000000830000000B
:106F80000000000083000000000072010000720198
:106F90000000830072010000720183000000000005
:106FA00000000000000000000000000000000000E1
:106FB0000000000000000000000000000000410090
:106FC0000000F70037010000000000000000000092
:106FD0000000000000000000F7000000F7005C0067
:106FE000000000005C0037010000000000002601E6
:106FF0000000F700490100000000370100003701E0
:1070000037017B000000F700F70000005C0037014B
:1070100026010000F700490100007B00000000008D
:1070200000000000000000003701000000003701F0
:1070300000000000000000005C00000000005C0098
:1070400000000000000000000000370137010000D0
:1070500000000000000000000000000000008B00A5
:107060009C00DC0000001003F7000000BA02F700EB
:107070007B0057005200000000002601000049017B
:10708000000000007B000000000000000000000085
:107090000000000000004901000000007B0000002B
:1070A0004901000000007B000000000052000000C9
:1070B00000007B0000000000E900000000007B00F1
:1070C00000005404000010037B000000BA025200CC
:1070D00049013F037B0000000000930200004807C5
:1070E00000000000520000000000930200000000B9
:1070F0003F03000000002601000000000B0200001A
:107100006E020000930241000000E4020000490109
:107110000000100326010000540493020000DB036A
:107120000B02DB030000B80172010000B90072011C
:10713000C40000000000000000007B000000000010
:10714000000072012601000072015200000075006B
:107150000000000000000B020B0200000B020B02FB
:10716000000000000000000000000000000000001F
:10717000000000000000000000000000000000000F
:1071800000000000000000000000000000000000FF
:1071900000000000000000000000000000000000EF
:107A80000000000000000000830000000000000073
:107A900000000000000000000000000000000000E6
:107AA00000000000000000000000000000000000D6
:107AB00000000000000000000000000000000000C6
:107AC000000000000000000000007B00000000003B
:107AD000F7000000000000000000000000000000AF
:107AE0000000000000000000000000000000000096
:107AF0000000F700000000000000F7000000370160
:107B00005C0000000000000000003F0300000000D7
:107B100000003701370100005C0000005C0000003D
:107B200037015C00000000000000000000000000C1
:107B30000000000000000000000000000000000045
:107B40000000000000000000000000000000000035
:107B50000000000000000000000000000000000025
:107B6000000000000000000000002A026E02700306
:107B70000000AF00370100009C003701ED015D01FE
:107B8000F7000000000000000000520000000000AC
:107B900000000000000000000000000000000000E5
:107BA00000004901000000009F0100005200000099
:107BB0000000000000000000F70000000000A50029
:107BC00000000000DC040000000054040000490133
:107BD000000049010000000026019302E4020000B9
:107BE000A40300000000000000007B000000000073
:107BF0009F010000000000000000000000000000E5
:107C000000004B02000000000501000026010000FA
:107C100049010000000072010000700300008801AB
:107C200000000000000049010000000005012601DD
:107C30000000DC00B90000002601B90000000000CF
:107C40000000000000000000000000000000000034
:107C50007B000000260188010000D2010000000026
:107C60000000370137010000370149010000000022
:107C70000000000000000000000000000000000004
:107C800000000000000000000000000000000000F4
:107C900000000000000000000000000000000000E4
:107CA00000000000000000000000000000000000D4
:1085700000000000000000000101930293020000CF
:10858000930200000B0293020000100300000000A1
:10859000000088010000000000000B020000000045
:1085A0008801000000004A0100000000B80100003E
:1085B000EE010000D201B80100008801930210030F
:1085C000000070030000BA021003000093020000D4
:1085D0000B024B02EE01000000000B020000000045
:1085E0008801000000004A0100000000B8010000FE
:1085F000EE010000D201B8010000880193020000E2
:10860000100370030000BA02100300009302000080
:108610000B024B02EE0100000000060100001003F7
:10862000E402BA026E020000930200009F01B8014A
:108630000B020000B8010B024B0206010000100300
:10864000E402BA026E020000930200001704000068
:108650001704170400008801000006010000100341
:10866000E402BA026E020000930200009F01B8010A
:108670000B0200000000B8010B024B0200000000DA
:108680006E02000000004B02000000000B02000020
:1086900000008801880100000601000006010000BA
:1086A0001003E402BA026E020000930200009F0170
:1086B000B8010B020000B8010B024B0206010000DA
:1086C0001003E402BA026E020000930200001704D5
:1086D00000001704170400008801000006010000D4
:1086E0001003E402BA026E020000930200009F0130
:1086F000B8010B020000B8010B024B0200000000A1
:108700006E02000000004B02000000000B0200009F
:108710000000880188010000060100000B020B0226
:1087200000000B0200000B024B02000093020B0240
:108730000000B80188010000060100000B020B02D6
:1087400000000B0200000B024B02930288010000A4
:108750000000060100000000060100000B020B02F1
:1087600000000B0200000B024B020000000093020D
:108770000B020000B801880100000601000093020E
:1087800093020000930200000B029302000010030A
:1087900000000000000088010000000000000B0243
:1087A000000000008801000000004A0100000000F5
:1087B000B8010000EE010000D201B80100008801FC
:1087C00093020000100370030000BA0210030000BF
:1087D000930200000B024B02EE01000000000B02AE
:1087E000000000008801000000004A0100000000B5
:1087F000B8010000EE010000D201B80100008801BC
:1088000093020000100370030000BA02100300007E
:10881000930200000B024B02EE01000000009302E5
:108820000B0200008801000000009F010000B80159
:10883000BA020000BA02B801000006010000EE0111
:10884000000070037003700300001003BA0293026B
:108850000B020000B801880100000601000093022D
:108860000B02000088010000000000009F010000D2
:10887000B801BA020000BA02B80100000601000007
:10888000EE01BA020000BA02BA0293024B020000E3
:108890000B028801000088010601000000000000B2
:1088A00093020B0200008801000000009F010000FD
:1088B000B801BA020000BA02B801000006010000C7
:1088C000EE01700300007003700310030000BA0291
:1088D00093020B020000B8018801000006010000AD
:1088E00093020B0200008801000000009F010000BD
:1088F000B801BA020000BA02B80100000601000087
:10890000EE01BA020000BA02BA02930200004B0262
:108910000B02880100008801060100000000000031
:108920000B020B0200000B0200000B024B020000C6
:1089300093020B020000B80188010000060100004C
:108940000B020B0200000B0200000B024B02930211
:108950008801000000000601000000000601000080
:1089600000000B020B0200000B0200000B024B0286
:10897000000093020B020000B8018801000006010C
:108980000000930293020000930200000B02930286
:10899000000010030000000000008801000000003B
:1089A000000093020B0200008801000000009F01FC
:1089B0000000B801BA020000BA02B80100000601C6
:1089C0000000EE017003000070037003100300004C
:1089D000BA0293020B020000B801880100000601F0
:1089E000000093020B0200008801000000009F01BC
:1089F0000000B801BA020000BA02B8010000060186
:108A00000000EE01BA020000BA02BA0200009302AE
:108A10004B020B02880100008801060100000000E3
:108A20000000000000000000000000000000000046
:108A30000000000000000000000000000000000036
:108A40000000000000000000000000000000000026
:108A50000000000000000000000000000000000016
:109080000000000000000B020B0200000B020000B9
:10909000000000000000EE01000000000000F700EA
:1090A00000000000000000000000000000000000C0
:1090B00000000000000000000000000000000000B0
:1090C00000000000000000000000000000000000A0
:1090D0000000000000000000000000000000000090
:1090E0000000000000000000000000000000000080
:1090F0000000000000000000000000000000000070
:10910000000000000000000000000000000000005F
:10911000000000000000000000000000000000004F
:10912000000000000000000000000000000000003F
:10913000000000000B020000000000000000000022
:10914000000000000000000000000000000000001F
:10915000000000000B020000930200009302930243
:1091600000000000000000000000000000000000FF
:10917000000000000B0200000000000000000000E2
:109180000000000000000000000000009F0100003F
:1091900000008801000000004A01000000000000FB
:1091A00000000000000000000000000000000000BF
:1091B0000000000000000B020000000000000000A2
:1091C000000000000000000000000000000000009F
:1091D0000000000000000B02000093020000930258
:1091E00093020000000000000000000000000000EA
:1091F0000000000000000B02000000000000000062
:109200000000000000000000000000009F010000BE
:1092100000008801000000004A010000000000007A
:1092200000000000000000004A01000000000000F3
:10923000000000000000000000000000000000002E
:1092400000000000000000004A01000000000000D3
:10925000000000000000000000000000000000000E
:1092600000000000000000004A01000000000000B3
:1092700000000000000000000000000000000000EE
:10928000000000000000000000000B020B020000C4
:109290000B020000000000000000EE0100000000D2
:1092A0000000F700000000000000000000000000C7
:1092B00000000000000000000000000000000000AE
:1092C000000000000000000000000000000000009E
:1092D000000000000000000000000000000000008E
:1092E000000000000000000000000000000000007E
:1092F000000000000000000000000000000000006E
:10930000000000000000000000000000000000005D
:10931000000000000000000000000000000000004D
:10932000000000000000000000000000000000003D
:10933000000000000000000000000000000000002D
:109340000000000000000000000088010000BA02D8
:10935000BA02BA020000EE010000000000000000A6
:1093600000000000000000000000000000000000FD
:1093700000000000000000000000000000000000ED
:109380000000000000000000000000008801B8019B
:109390000000B801B80188015D0100004A01000029
:1093A00000000000000000000000000000000000BD
:1093B00000000000000000000000000000000000AD
:1093C0000000000000000000000000008801BA0258
:1093D0000000BA02BA02EE01000000000000000026
:1093E000000000000000000000000000000000007D
:1093F000000000000000000000000000000000006D
:109400000000000000000000000000008801B8011A
:109410000000B801B801880100005D014A010000A8
:109420000000000000000000000000004A010000F1
:10943000000000000000000000000000000000002C
:109440000000000000000000000000004A010000D1
:10945000000000000000000000000000000000000C
:1094600000000000000000000000000000004A01B1
:1094700000000000000000000000000000000000EC
:1094800000000000000000000000000000000B02CF
:109490000B0200000B020000000000000000EE01C3
:1094A000000000000000F7000000000000000000C5
:1094B00000000000000000000000000000000000AC
:1094C0000000000000000000000000000000880113
:1094D000BA020000BA02BA02EE0100000000000069
:1094E000000000000000000000000000000000007C
:1094F000000000000000000000000000000000006C
:1095000000000000000000000000000000008801D2
:10951000B8010000B801B801000088015D014A01EE
:10952000000000000000000000000000000000003B
:10953000000000000000000000000000000000002B
:10954000000000000000000000000000000000001B
:10955000000000000000000000000000000000000B
:10B1A00000000000000000000000530252000000F8
:10B1B0000000A50000000000ED01000000000B02EF
:10B1C000000000004B020000000093024B02000050
:10B1D0000B0200000000ED01000000006E00000006
:10B1E0000000DC0000000000B801000000000B02BD
:10B1F000000000006E0000000000DC000000000005
:10B200004B02000000000B0200000000680000007C
:10B210000000D00000000000ED01000000000B0263
:10B2200000000000520000000000A5000000000027
:10B23000520000000000A500000000006E000000A9
:10B240000000DC00000000006E0000000000DC00D8
:10B25000000000006E0000000000DC0000000000A4
:10B260007B0000000000830000000000930000004D
:10B270000000490000000000000000000000BA02C9
:10B280000000000070030000000070030000700365
:10B29000100300000000BA0200000000410000009E
:10B2A00000008300000000000000000000000B020E
:10B2B00000000000930200000000B80100008801B7
:10B2C0004B02000000000B02000000001F00000005
:10B2D00000007B0000000000ED01000000000B02F8
:10B2E00000000000520000000000A5000000000067
:10B2F000520000000000A500000000006E000000E9
:10B3000000000000DC00000000006E0000000000F3
:10B31000DC0000006E0000000000DC000000000007
:10B320006E0000000000000000000000000052005D
:10B3300000000000A500000000009F0100000000C8
:10B34000B80100000000ED010000000093024B0274
:10B350000000B801000000009F01000000006E0026
:10B3600000000000DC0000000000490100000000B7
:10B37000B801000000006E0000000000DC000000CA
:10B380000000ED0100000000B801000000009F0176
:10B39000000000004901000000009F0100000000C3
:10B3A000B80100000000520000000000A5000000ED
:10B3B00000000B02000000000000000000006E0012
:10B3C00000000000DC00000000006E000000000033
:10B3D000DC00000000006E0000000000DC00000047
:10B3E00000007B00000000008300000000009300CC
:10B3F0000000000049000000000000000000000004
:10B40000B801000000000B02000000000B02000069
:10B410000B02ED0100000000B80100000000410037
:10B420000000000083000000000000000000000099
:10B43000490100000000880100000000B801000080
:10B4400088015D01000000004901000000009F012B
:10B45000000000004901000000009F010000000002
:10B46000B80100000000520000000000A50000002C
:10B470000000520000000000A500000000006E0067
:10B48000000000000000DC00000000006E00000072
:10B490000000DC00000000006E0000000000DC0086
:10B4A000000000006E0000000000DC000000000052
:10B4B000DC0000000000490100000000DC0000008A
:10B4C0000000490100000000DC000000000049010C
:10B4D00000000000DC000000000049010000000046
:10B4E000F70000000000260100000000F700000047
:10B4F0000000260100000000F70000000000260107
:10B5000000000000F700000000002601000000001D
:10B51000DC0000000000490100000000DC00000029
:10B520000000490100000000DC00000000004901AB
:10B5300000000000DC0000000000490100000000E5
:10B54000D00000000000490100000000D000000011
:10B550000000490100000000D000000000000000D1
:10B5600000000000000000000000000000000000DB
:10B57000DC0000000000490100000000DC000000C9
:10B580000000490100000000DC000000000049014B
:10B5900000000000DC000000000049010000000085
:10B5A000F70000000000260100000000F700000086
:10B5B0000000260100000000F70000000000260146
:10B5C00000000000F700000000002601000000005D
:10B5D000DC0000000000490100000000DC00000069
:10B5E0000000490100000000DC00F7000000DC0062
:10B5F000F700DC00DC00DC000000F700DC00F700F6
:10B60000D00000000000490100000000D000000050
:10B6100000004901000000000000000000000000E0
:10B62000000000000000000000000000000000001A
:10B63000520000000000A50000000000ED01000025
:10B6400000000B02000000004B020000000093020B
:10B650004B0200000B0200000000ED0100000000A2
:10B660006E0000000000DC0000000000B8010000D7
:10B6700000000B02000000006E0000000000DC0073
:10B68000000000004B02000000000B020000000060
:10B69000680000000000D00000000000ED01000084
:10B6A00000000B0200000000520000000000A50096
:10B6B00000000000520000000000A5000000000093
:10B6C0006E00000000000000DC00000000006E00C2
:10B6D00000000000DC00000000006E000000000020
:10B6E000DC0000007B000000000083000000000080
:10B6F000930000000000000049000000000000006E
:10B7000000000000BA02000000007003000000000A
:10B71000700370030000100300000000BA02000074
:10B720000000410000000000830000000000000055
:10B73000000000000B020000000093020000000067
:10B74000B801880100004B02000000000B0200005D
:10B7500000001F00000000007B0000000000ED0161
:10B76000000000000B02000000005200000000007A
:10B77000A50000000000520000000000A50000002D
:10B7800000006E0000000000DC00000000006E0001
:10B7900000000000DC00000000006E00000000005F
:10B7A000DC00000000006E0000000000000000004F
:10B7B0000000520000000000A500000000009F01F2
:10B7C00000000000B80100000000ED0100000000D2
:10B7D00093024B020000B801000000009F0100002E
:10B7E00000006E0000000000DC00000000004901C5
:10B7F00000000000B801000000006E000000000022
:10B80000DC0000000000ED0100000000B8010000B5
:10B8100000009F01000000004901000000009F019E
:10B8200000000000B801000000005200000000000D
:10B83000A500000000000B02000000000000000056
:10B8400000006E00000000000000DC0000000000AE
:10B850006E0000000000DC00000000006E00000030
:10B860000000DC0000007B000000000083000000FE
:10B8700000009300000000000000490000000000EC
:10B88000000000000000B801000000000B020000F2
:10B8900000000B020B020000ED0100000000B801E7
:10B8A00000000000410000000000830000000000D4
:10B8B00000000000000049010000000088010000B5
:10B8C0000000B801880100005D010000000049018E
:10B8D000000000009F01000000004901000000007E
:10B8E0009F0100000000B8010000000052000000AD
:10B8F0000000A50000000000520000000000A500AC
:10B90000000000006E0000000000DC0000000000ED
:10B910006E0000000000DC00000000006E0000006F
:10B920000000DC00000000006E0000000000DC00F1
:10B9300000000000DC0000000000490100000000E1
:10B94000DC0000000000490100000000DC000000F5
:10B950000000490100000000DC0000000000490177
:10B9600000000000F70000000000260100000000B9
:10B97000F70000000000260100000000F7000000B2
:10B980000000260100000000F70000000000260172
:10B9900000000000DC000000000049010000000081
:10B9A000DC0000000000490100000000DC00000095
:10B9B0000000490100000000DC0000000000490117
:10B9C00000000000D000000000004901000000005D
:10B9D000D00000000000490100000000D00000007D
:10B9E0000000000000000000000000000000000057
:10B9F00000000000DC000000000049010000000021
:10BA0000DC0000000000490100000000DC00000034
:10BA10000000490100000000DC00000000004901B6
:10BA200000000000F70000000000260100000000F8
:10BA3000F70000000000260100000000F7000000F1
:10BA40000000260100000000F700000000002601B1
:10BA500000000000DC0000000000490100000000C0
:10BA6000DC0000000000490100000000DC000000D4
:10BA7000F700DC00F7000000DC00F700DC00F70056
:10BA8000DC00F700D00000000000490100000000C9
:10BA9000D00000000000490100000000000000008C
:10BAA0000000000000000000000000000000000096
:10BAB0000000000000000000000000000000000086
:10BAC0000000000000000000000000000000000076
:10BAD0000000000000000000000000000000000066
:10BCB00000000000000000009302000000000000EF
:10BCC00000000000520000000000A500000000007D
:10BCD000520000000000A50000000000520000001B
:10BCE0000000A50000000000B801000000000000F6
:10BCF000000000006E0000000000DC0000000000FA
:10BD00009302000000000000000000006E00000030
:10BD10000000DC0000000000ED0100000000000059
:10BD200000000000680000000000D00000000000DB
:10BD30004B02000000000000000000009302000021
:10BD400000000000000000000B02000000000000E6
:10BD500000000000B801000000000000000000002A
:10BD6000B80100000000000000000000000000001A
:10BD700000000000000000000000000000004B0276
:10BD8000000000000000000000004900000000006A
:10BD900000000000000049000000000062000000F8
:10BDA00000005700000000009302000000000000A7
:10BDB0000000000000000000000083000000000000
:10BDC0004100000000008300000000004900000066
:10BDD0000000410000000000ED0100000000000034
:10BDE000000000001F00000000007B0000000000B9
:10BDF0004B02000000000000000000009302000061
:10BE000000000000000000000B0200000000000025
:10BE1000000000000000B801000000000000000069
:10BE2000B801000000000000000000000000000059
:10BE300000000000000000000000ED010000000014
:10BE4000000000000000ED01000000000B020000F7
:10BE500000004B0200000000A500000000000B02E3
:10BE600000000000ED01000000004901000000009A
:10BE7000000000000000B801000000000B020000FC
:10BE800000000B02000000000000000000004B0258
:10BE9000000000000B0200000000ED0100000000A7
:10BEA000D000000000006800000000000B0200004D
:10BEB0000000ED01000000000000000000009302FF
:10BEC00000000000000000000000B80100000000B9
:10BED0000000000000004901000000000000000018
:10BEE0000000490100000000000000000000000008
:10BEF0000000000000000000000000000000000042
:10BF00005D0100000000000000000000BA02000017
:10BF10000000700300000000490000000000100352
:10BF200000000000BA0200000000880100000000CC
:10BF30000000000000000000000000000B020000F4
:10BF400000009302000000008300000000004B028C
:10BF5000000000000B0200000000ED0100000000E6
:10BF60007B0000000000ED01000000000B0200005B
:10BF70000000ED01000000000000000000000B02C6
:10BF800000000000000000000000B80100000000F8
:10BF90000000000000000000490100000000000057
:10BFA0000000000049010000000000000000000047
:10BFB000000000000000000000000000520000002F
:10BFC0000000000000000000000000000000000071
:10BFD0000000000041000000000000000000000020
:10BFE0000000000000000000000000004900000008
:10BFF0000000000000000000000000000000000041
:10C00000000000001F000000000000000000000011
:10C0100000000000000000000000000041000000DF
:10C020000000000000000000000000000000000010
:10C0300000000000370000000000000000000000C9
:10C0400000000000000000000000000034000000BC
:10C0500000000000000000000000000000000000E0
:10C06000000000001F0000000000000000000000B1
:10C07000000000000000000000000000520000006E
:10C0800000000000000000000000000000000000B0
:10C09000000000004100000000000000000000005F
:10C0A0000000000000000000000000004900000047
:10C0B0000000000000000000000000000000000080
:10C0C000000000001F000000000000000000000051
:10C0D000000000000000000000000000410000001F
:10C0E00000000000000000005200000000000000FE
:10C0F000000000006E000000000049010000000088
:10C10000F70000000000490100000000D00000001E
:10C11000000000000000000000000000000000001F
:10C12000000000000000000000000000000000000F
:10C13000000000000000000000000000930200006A
:10C140000000000000000000520000000000A500F8
:10C1500000000000520000000000A50000000000E8
:10C16000520000000000A50000000000B80100001F
:10C1700000000000000000006E0000000000DC0075
:10C18000000000009302000000000000000000001A
:10C190006E0000000000DC0000000000ED01000067
:10C1A0000000000000000000680000000000D00057
:10C1B000000000004B020000000000000000000032
:10C1C0009302000000000000000000000B020000CD
:10C1D00000000000000000000000B80100000000A6
:10C1E000000000000000B801000000000000000096
:10C1F000000000000000000000000000000000003F
:10C20000000000004B0200000000000000000000E1
:10C21000490000000000000000000000490000008C
:10C2200000006200000000005700000000009302C0
:10C2300000000000000000000000000000000000FE
:10C2400083000000000041000000000083000000A7
:10C250000000490000000000410000000000ED0166
:10C26000000000000000000000001F0000000000AF
:10C270007B00000000004B020000000000000000F6
:10C2800000009302000000000000000000000B020C
:10C2900000000000000000000000B80100000000E5
:10C2A000000000000000B8010000000000000000D5
:10C2B0000000000000000000000000000000ED0190
:10C2C00000000000000000000000ED010000000080
:10C2D0000B02000000004B0200000000A50000005F
:10C2E00000000B0200000000ED0100000000490109
:10C2F00000000000000000000000B8010000000085
:10C300000B02000000000B02000000000000000013
:10C3100000004B02000000000B0200000000ED01D5
:10C3200000000000D00000000000680000000000D5
:10C330000B0200000000ED01000000000000000002
:10C340000000930200000000000000000000B8019F
:10C350000000000000000000000000004901000093
:10C360000000000000000000490100000000000083
:10C3700000000000000000000000000000000000BD
:10C380000000000000005D0100000000000000004F
:10C390000000BA0200000000700300000000490025
:10C3A00000000000100300000000BA0200000000BE
:10C3B00088010000000000000000000000000000F4
:10C3C00000000B0200000000930200000000830048
:10C3D000000000004B02000000000B020000000003
:10C3E000ED01000000007B0000000000ED010000F6
:10C3F00000000B0200000000ED0100000000000042
:10C40000000000000B02000000000000000000001F
:10C41000B801000000000000000000004901000019
:10C4200000000000000000004901000000000000C2
:10C4300000000000000000000000000000000000FC
:10C44000520000000000000000000000000000009A
:10C45000000000000000000041000000000000009B
:10C4600000000000000000000000000000000000CC
:10C470004900000000000000000000000000000073
:10C4800000000000000000001F000000000000008D
:10C49000000000000000000000000000000000009C
:10C4A000410000000000000000000000000000004B
:10C4B0000000000000000000370000000000000045
:10C4C000000000000000000000000000000000006C
:10C4D0003400000000000000000000000000000028
:10C4E00000000000000000001F000000000000002D
:10C4F000000000000000000000000000000000003C
:10C5000052000000000000000000000000000000D9
:10C5100000000000000000004100000000000000DA
:10C52000000000000000000000000000000000000B
:10C5300049000000000000000000000000000000B2
:10C5400000000000000000001F00000000000000CC
:10C5500000000000000000000000000000000000DB
:10C560004100000000000000000000005200000038
:10C5700000000000000000006E0000000000490103
:10C5800000000000DC000000000049010000000085
:10C59000D0000000000000000000000000000000CB
:10C5A000000000000000000000000000000000008B
:10C5B000000000000000000000000000000000007B
:10C5C000000000000000000000000000000000006B
:10C5D000000000000000000000000000000000005B
:10C940000000000000009302000000000000000052
:10C950000000520000000000A5000000000052008E
:10C960000000000000000000000052000000000075
:10C97000A50000000000B801000000000000000059
:10C9800000006E0000000000DC00000000009302C8
:10C99000000000000000000000006E000000000029
:10C9A000DC00000000006800000000000000000043
:10C9B0000000000000000000D000000000004B025A
:10C9C0000000000000000000000052000000000015
:10C9D0000000000000000B0200000000000000004A
:10C9E0000000B80100000000000000000000B801D5
:10C9F0000000000000000000000000000000000037
:10CA00000000000000000000000000004B020000D9
:10CA100000000000000000004900000000000000CD
:10CA200000000000000000000000620000000000A4
:10CA3000570000000000930200000000000000000A
:10CA40000000000000000000830000000000410022
:10CA5000000000000000000000004900000000008D
:10CA60004100000000001F00000000000000000066
:10CA700000001F00000000007B00000000004B02CF
:10CA80000000000000000000000093020000000011
:10CA90000000000000000B02000000000000000089
:10CAA00000000000B80100000000000000000000CD
:10CAB000B8010000000000000000000000000000BD
:10CAC0000000000000000000A500000000000000C1
:10CAD0000000000000000000000000000000000056
:10CAE00083000000000000000000000000000000C3
:10CAF00000000000000000009300000000000000A3
:10CB00000000000000000000000000000000000025
:10CB10007B0000000000000000000000000000009A
:10CB20000000000000000000830000000000000082
:10CB300000000000000000000000000000000000F5
:10CB40006E00000000000000000000000000000077
:10CB5000000000000000000068000000000000006D
:10CB600000000000000000000000000000000000C5
:10CB70007B0000000000000000000000000000003A
:10CB80000000000000000000A50000000000000000
:10CB90000000000000000000000000000000000095
:10CBA0008300000000000000000000000000000002
:10CBB00000000000000000009300000000000000E2
:10CBC0000000000000000000000000000000000065
:10CBD0007B000000000000000000000000000000DA
:10CBE00000000000000000008300000000000000C2
:10CBF00000000000A5000000000000000000000090
:10CC0000DC00000000000000000000000000000048
:10CC100000000000000000006800000000000000AC
:10CC20000000000000000000000000000000000004
:10CC300000000000000000000000000000000000F4
:10CC400000000000000000000000000000000000E4
:10CC500000000000000000000000000000000000D4
:10CC600000000000000000000000000000000000C4
:10CC700000000000000000000000000000000000B4
:10CC800000000000000000000000000000000000A4
:10CC90000000000000000000000000000000000094
:10CCA0000000000000000000000000000000000084
:10CCB0000000000000000000000000000000000074
:10CCC0000000000000000000000000000000000064
:10CCD0000000000000000000000000000000000054
:10CCE0000000000000000000000000000000000044
:10CCF0000000000000000000000000000000000034
:10CD00000000000000000000000000000000000023
:10CD10000000000000000000000000000000000013
:10CD20000000000000000000000000000000000003
:10CD300000000000000000000000000000000000F3
:10CD400000000000000000000000000000000000E3
:10CD500000000000000000000000000000000000D3
:10CD600000000000000000000000000000000000C3
:10CD700000000000000000000000000000000000B3
:10CD800000000000000000000000000000000000A3
:10CD90000000000000000000000000000000000093
:10CDA0000000000000000000000000000000000083
:10CDB0000000000000000000000000000000000073
:10CDC00000000000000000000000930200000000CE
:10CDD000000000000000520000000000A50000005C
:10CDE000000052000000000000000000000052009F
:10CDF00000000000A50000000000B80100000000D5
:10CE00000000000000006E0000000000DC000000D8
:10CE100000009302000000000000000000006E000F
:10CE200000000000DC0000000000680000000000BE
:10CE3000000000000000000000000000D000000022
:10CE400000004B0200000000000000000000520043
:10CE5000000000000000000000000B0200000000C5
:10CE60000000000000000000B80100000000000009
:10CE700000000000B80100000000000000000000F9
:10CE800000000000000000000000000000000000A2
:10CE900000004B02000000000000000000004900FC
:10CEA0000000000000000000000000000000000082
:10CEB0006200000000005700000000009302000024
:10CEC00000000000000000000000000000008300DF
:10CED0000000000041000000000000000000000011
:10CEE0004900000000004100000000001F00000099
:10CEF00000000000000000001F00000000007B0098
:10CF0000000000004B0200000000000000000000D4
:10CF10009302000000000000000000000B0200006F
:10CF20000000000000000000B80100000000000048
:10CF300000000000B8010000000000000000000038
:10CF4000000000000000000000000000A50000003C
:10CF500000000000000000000000000000000000D1
:10CF6000000000008300000000000000000000003E
:10CF7000000000000000000000000000930000001E
:10CF800000000000000000000000000000000000A1
:10CF9000000000007B000000000000000000000016
