:100000000C94A8750C94C9750C94C9750C94C97599
:100010000C94C9750C94C9750C94C9750C94C97568
:100020000C94C9750C94C9750C94C9750C94C97558
:100030000C94C9750C94C9750C94C9750C94C97548
:100040000C94C9750C94C9750C94C9750C94C97538
:100050000C94C9750C9457770C94C9750C94C97598
:100060000C94C9750C94C9750C94C9750C94C97518
:100070000C94C9750C94C9750C94C9750C94C97508
:100080000C94C9750C94C9750C94C9750C94C975F8
:100090000C94C9750C94C9750C94C9750C94C975E8
:1000A0000C94C9750C94C9750C94C9750C94C975D8
:1000B0000C94C9750C94C9750C94C9750C94C975C8
:1000C0000C94C9750C94C9750C94C9750C94C975B8
:1000D0000C94C9750C94C9750C94C9750C94C975A8
:1000E0000C94C975BA027003BA02DC031003100342
:1000F000170470031704700397049704DC032705A3
:1001000017042705170417042705170427051704E4
:1001100027052705170427051704270517041704C3
:1001200027051704270517042705270500000000E9
:1001300000000000000000000000000000000000BF
:1001400000000000000000000000000000000000AF
:10015000000000000000000000000000000000009F
:10016000000000000000000000000000000000008F
:10017000000000000000000000000000000000007F
:10018000000000000000000000000000000000006F
:10019000000000000000000000000000000000005F
:1001A000000000000000000000000000000000004F
:1001B000000000000000000000000000000000003F
:1001C000000000000000000000000000000000002F
:1001D000000000000000000000000000000000001F
:1001E000000000000000000017047003700370039B
:1001F000000017041704DC03DC03000017041704D5
:10020000DC03DC03DC0310031003100310031003F2
:10021000100310031003100310037003700327056D
:10022000270597049704970417041704DC03DC03DD
:10023000DC0317041704DC03DC03DC0300001003F9
:100240001003100310031003100310031003100316
:100250001003100300001704700370037003000004
:100260001704DC03DC03DC03000017041704DC03C1
:10027000DC0300001003100310031003100310032D
:100280001003100310031003700370037003700356
:10029000BA02BA02BA02700370031003100310030B
:1002A000700370031003100310030B020B020B0208
:1002B0000B020B020B020B020B020B020B020B02D6
:1002C0000B02170417047003700370030000170477
:1002D000DC03DC03DC0300001704DC03DC03DC03C9
:1002E0000000100310031003100310031003100389
:1002F00010031003100370037003270527059704EC
:100300009704000017041704DC03DC03DC03170464
:100310001704DC03DC03DC031003100310031003D9
:100320001003100310031003100310031003000048
:100330001704170470037003700317041704DC0319
:10034000DC03DC0300001704DC03DC03DC03000037
:100350001003100310031003100310031003100305
:1003600010030000700370037003BA02BA02BA02ED
:10037000000070037003100310030000700370038B
:100380001003100310030B020B020B020B0293026B
:100390004B024B024B024B024B024B024B024B02F5
:1003A0004B024B024B024B024B024B024B024B02E5
:1003B0004B024B024B024B024B024B024B020B0215
:1003C0004B024B0293029302930293029302930215
:1003D0009302930293029302930293029302930275
:1003E0009302930293029302930293029302930265
:1003F000930293020B020B020B02930293026E0212
:100400006E026E026E026E026E026E026E026E026C
:100410006E026E026E026E026E026E026E026E025C
:100420006E026E026E026E026E020B020B026E0212
:100430006E024B024B024B024B024B024B0200007E
:100440004B024B024B024B024B024B0200002705B2
:1004500027052705270527057505270527052006F4
:1004600020062705270527051704170400000000AC
:1004700000000000000000000000170417047003D3
:100480007003000017041704DC03DC03DC0317040B
:100490001704DC03DC03DC03100310031003100358
:1004A0001003100310031003100310030000700367
:1004B0002705270597049704970417041704DC03FE
:1004C000DC03DC0300001704DC03DC03DC030000B6
:1004D0001003100310031003100310031003100384
:1004E000100310031003000017047003700370035F
:1004F000000017041704DC03DC03000017041704D2
:10050000DC03DC03DC0310031003100310031003EF
:100510001003100310031003100370037003700323
:100520007003BA02BA02BA02700370031003100318
:1005300010037003700310031003100300000B027C
:100540000B020B020B020B020B020B020B020B0243
:100550000B020B020000170470037003700300000D
:100560001704DC03DC03DC03000017041704DC03BE
:10057000DC0300001003100310031003100310032A
:1005800010031003100310037003700327052705E1
:1005900097049704970417041704DC03DC03DC03B7
:1005A00017041704DC03DC03DC031003100310033F
:1005B00010031003100310031003100310031003A3
:1005C000100317041704700370037003000017046E
:1005D000DC03DC03DC0300001704DC03DC03DC03C6
:1005E0000000100310031003100310031003100386
:1005F0001003100310037003700370037003BA023A
:10060000BA0200007003700310031003100370039C
:1006100070031003100310030B020B020B020B02FA
:1006200093024B024B024B024B024B024B024B021A
:100630004B024B024B024B024B024B024B024B0252
:100640004B024B024B024B024B024B024B024B0242
:100650000B024B024B02930293029302930293020A
:1006600093029302930293029302930293029302E2
:1006700093029302930293029302930293029302D2
:100680009302930293020B020B020B020B029302E2
:100690006E026E026E026E026E026E026E026E02DA
:1006A0006E026E026E026E026E026E026E026E02CA
:1006B0006E026E026E026E026E026E026E020B021D
:1006C0006E026E024B024B024B024B024B024B027C
:1006D00000004B024B024B024B024B024B0200004C
:1006E000270527052705270527057505750527050E
:1006F00020062006270527052705170417040000F4
:1007000000000000000000000000000000000000E9
:1007100000000000000000000000000000000000D9
:1007200000000000000000000000000000000000C9
:1007300000000000000000000000000000000000B9
:101080000000000000006E006E00DC00DC006E005E
:1010900075007500E900E9007B00F700F7008300A8
:1010A000000000000000000083000000830000003A
:1010B000000083000000830000000000000000002A
:1010C0008300000083000000000083000000830014
:1010D000000000000000000083000000830000000A
:1010E00000008300000083000000000000000000FA
:1010F00083008300830083006E006E006E00750025
:101100007500750075007B007B007B00830000008C
:1011100000008300000083000000000000000000C9
:1011200083000000830000000000830000008300B3
:1011300000000000000000008300000083000000A9
:101140000000830000008300000000000000000099
:101150008300000083000000000083000000830083
:101160000000000000000000830000008300000079
:10117000830093009300A500A5000000000000007C
:10118000AF000000AF0000000000AF000000AF00A3
:101190000000000000000000A5000000A500000005
:1011A0000000A50000008300830093009300A500C9
:1011B000AF000000AF0000000000AF000000AF0073
:1011C0000000000000000000AF000000A5000000CB
:1011D0000000A5000000A500000000000000830042
:1011E00093009300A500A5000000AF000000AF0031
:1011F0000000000000000000AF000000AF00000091
:101200000000A5000000A500000000000000000094
:10121000A5000000A50000000000A500000093004C
:101220000000000000000000930000009300000098
:101230000000930000009300000000000000000088
:1012400083000000830000000000830083009300FF
:101250009300A500A5000000AF000000AF00000053
:101260000000AF000000AF00000000000000000020
:10127000A5000000A50000000000A5000000A500DA
:101280000000830083009300A500A500AF000000CC
:101290000000AF000000AF000000000000000000F0
:1012A000AF000000AF0000000000A5000000A50096
:1012B0000000000000000000830083009300930002
:1012C000A500AF000000AF0000000000000000001B
:1012D000AF000000AF0000000000AF000000A5005C
:1012E0000000000000000000A5000000A5000000B4
:1012F0000000A5000000A5000000000000000000A4
:101300009300000093000000000093000000930091
:1013100000000000000000008300000083000000C7
:1013200000008300000083000000000000000000B7
:10133000750075007500750075006E006E006E001A
:101340006E006E00000062006200620062006200D7
:1013500057005700570057000000520000000000DF
:1013600049004900490000006E006E006E006E00EA
:1013700000007B007B007B007B000000830083007B
:1013800083008300830093009300930093009300F5
:10139000A500000000000000DC00DC000000D00020
:1013A000D000D000D000D000C400C400C400C400ED
:1013B000C400AF00AF00AF00AF00AF00AF009C00B3
:1013C0009C009C009C000000930000000000830033
:1013D000830083000000620062006200620000007F
:1013E000930093009300930000006200620062008B
:1013F00062006200C400C4005200A500A5005700AE
:101400005700AF00AF006200C400C400AF0000008E
:101410000000AF000000AF0000000000000000006E
:10142000AF000000AF0000000000A5000000A50014
:101430000000000000000000830083009300930080
:10144000A500AF000000AF00000000000000000099
:10145000AF000000AF0000000000AF000000A500DA
:101460000000000000000000A5000000A500000032
:10147000830093009300A500A50000000000000079
:10148000AF000000AF0000000000AF000000AF00A0
:101490000000000000000000A5000000A500000002
:1014A0000000A5000000A5000000000000000000F2
:1014B00093000000930000000000930000009300E0
:1014C0000000000000000000930000008300000006
:1014D0000000830000008300000000000000830083
:1014E00093009300A500A5000000AF000000AF002E
:1014F0000000000000000000AF000000AF0000008E
:101500000000A5000000A500000000000000000091
:10151000A5000000830083009300A500A500AF0094
:101520000000000000000000AF000000AF0000005D
:101530000000AF000000AF0000000000000000004D
:10154000A5000000A50000000000830083009300B8
:101550009300A500A5000000AF000000AF00000050
:101560000000AF000000AF0000000000000000001D
:10157000A5000000A50000000000A5000000A500D7
:101580000000000000000000A50000009300000023
:101590000000930000009300000000000000000025
:1015A000930000009300000000008300000083000F
:1015B0000000000000000000830000008300000025
:1015C00000007500750075007500750000006E0064
:1015D0006E006E006E000000620062006200620039
:1015E00062005700570057005700000052000000EB
:1015F000000049004900490000006E006E006E00C6
:101600006E0000007B007B007B007B007B00830082
:101610008300830083008300930093009300930072
:101620009300A500000000000000DC00DC000000CA
:10163000D000D000D000D000D000C400C400C4004E
:10164000C400C4000000AF00AF00AF00AF00AF00A7
:101650009C009C009C009C00000093000000000087
:101660008300830083000000620062006200620069
:10167000000093009300930093000000620062005A
:10168000620062006200C400C40052005200A50063
:1016900057005700AF00AF006200C400C400000054
:1016A000000000000000000000000000000000003A
:1016B000000000000000000000000000000000002A
:1016C000000000000000000000000000000000001A
:1016D000000000000000000000000000000000000A
:1020300000000000000000000000000000004A0155
:102040004A014A014A014A012601260126012601C8
:1020500026014A014A014A014A014A014A01260170
:1020600026012601260126014A014A014A012601CC
:102070002601260126015D015D015D015D015D0115
:102080004A014A014A014A014A0126012601260164
:102090002601260126012601260126012601260108
:1020A00026012601260126012601260126012601F8
:1020B0002601260126014A014A014A014A014A0134
:1020C0005D015D015D015D012601260126012601FC
:1020D00026014A014A014A014A014A015D015D01A6
:1020E0005D015D015D015D015D015D015D014A0113
:1020F0004A014A014A014A014A014A014A014A0188
:102100004A014A014A014A014A014A014A014A0177
:102110004A014A014A014A014A0100000000000048
:102120000B020B020000000000000B020B0200007B
:10213000000000000000000000000000EE01EE01C1
:10214000000000000000EE01EE01000000000000B1
:1021500000000000000000000B0200000000000072
:1021600000000B020B020000000000000000000055
:102170000000EE01EE010000000000000000EE0192
:1021800000000000000000000000000000000B0242
:102190000B020000000000000B020B020000000018
:1021A00000000000000000000000EE01EE01000051
:1021B00000000000EE01EE01000000000000000041
:1021C000000000000000B801000000000000000056
:1021D000B801000000000000000000000000000046
:1021E00088018801000000000000880188010000CB
:1021F0000000000000000000000000000B020B02C5
:102200000000000000000B020B02000000000000B4
:102210000000000000000000EE01000000000000CF
:102220000000EE01EE0100000000000000000000D0
:1022300000000B020B0200000000000000000B0277
:102240000000000000000000000000000000EE019F
:10225000EE01000000000000EE01EE0100000000B1
:10226000000000000000000000000B020B02000054
:10227000000000000B020B02000000000000000044
:10228000000000000000EE0100000000000000005F
:10229000EE0100000000000000000000000000004F
:1022A000B801B801000000000000B801B80100004A
:1022B000000000000000000000000000880188010C
:1022C00000000000000088018801000000000000FC
:1022D000A403A403A403A403A40370037003700362
:1022E0007003700370031003100310031003100336
:1022F000BA02BA02BA02BA02BA0293029302930273
:102300004B024B024B024B02B801B801B801B801B5
:10231000B801EE01EE01EE01EE01EE010B020B023F
:102320000B020B020B024B024B024B024B024B0205
:1023300093029302930293027003700370033F03AE
:102340003F033F033F033F03100310031003100339
:102350001003BA02BA02BA02BA02BA02BA026E0292
:102360006E026E026E026E024B024B024B020B02B9
:102370000B020B020B020B0210031003700370031D
:102380001003100310031003100370037003700395
:1023900000000000B801B801B801B801B801B801E7
:1023A000B801B801B801B801B801B80100000000D7
:1023B00000000B020B0200000000000000000B02F6
:1023C0000000000000000000000000000000EE011E
:1023D000EE01000000000000EE01EE010000000030
:1023E000000000000000000000000B020B020000D3
:1023F000000000000B020B020000000000000000C3
:10240000000000000000EE010000000000000000DD
:10241000EE010000000000000000000000000000CD
:102420000B020B020000000000000B020B02000078
:10243000000000000000000000000000EE01EE01BE
:10244000000000000000EE01EE01000000000000AE
:102450000000000000000000B801000000000000C3
:102460000000B801B80100000000000000000000FA
:1024700000008801880100000000000000008801C1
:1024800000000000000000000000000000000B023F
:102490000B020000000000000B020B020000000015
:1024A00000000000000000000000EE01EE0100004E
:1024B00000000000EE01EE0100000000000000003E
:1024C0000000000000000B020000000000000000FF
:1024D0000B020000000000000000000000000000EF
:1024E000EE01EE01000000000000EE01EE01000030
:1024F0000000000000000000000000000B020B02C2
:102500000000000000000B020B02000000000000B1
:102510000000000000000000EE01000000000000CC
:102520000000EE01EE0100000000000000000000CD
:102530000000B801B8010000000000000000B80170
:102540000000000000000000000000000000880102
:1025500088010000000000008801880100000000E0
:102560000000A403A403A403A403A403A40370030E
:102570007003700370037003100310031003100343
:102580001003BA02BA02BA02BA02BA029302930262
:1025900093024B024B024B024B02B801B801B80147
:1025A000B801B801EE01EE01EE01EE01EE010B0201
:1025B0000B020B020B020B024B024B024B024B02B3
:1025C0004B02930293029302930270037003700311
:1025D0003F033F033F033F033F0310031003100378
:1025E000100310031003BA02BA02BA02BA02BA0206
:1025F0006E026E026E026E026E024B024B024B02C4
:102600000B020B020B020B020B02100310037003F0
:102610007003100310031003100310037003700302
:10262000700300000000B801B801B801B801B8019A
:10263000B801B801B801B801B801B801B80100008B
:10264000000000000000000000000000000000008A
:10265000000000000000000000000000000000007A
:10266000000000000000000000000000000000006A
:10267000000000000000000000000000000000005A
:1030C000000000000000000017047003700370038C
:1030D000000017041704DC03DC03000017041704C6
:1030E000DC03DC03DC0310031003100310031003E4
:1030F000100310031003100310037003700327055F
:10310000270597049704970417041704DC03DC03CE
:10311000DC0317041704DC03DC03DC0300001003EA
:103120001003100310031003100310031003100307
:1031300010031003000017047003700370030000F5
:103140001704DC03DC03DC03000017041704DC03B2
:10315000DC0300001003100310031003100310031E
:103160001003100310031003700370037003700347
:10317000BA02BA02BA0270037003100310031003FC
:10318000700370031003100310030B020B020B02F9
:103190000B020B020B020B020B020B020B020B02C7
:1031A0000B02170417047003700370030000170468
:1031B000DC03DC03DC0300001704DC03DC03DC03BA
:1031C000000010031003100310031003100310037A
:1031D00010031003100370037003270527059704DD
:1031E0009704000017041704DC03DC03DC03170456
:1031F0001704DC03DC03DC031003100310031003CB
:103200001003100310031003100310031003000039
:103210001704170470037003700317041704DC030A
:10322000DC03DC0300001704DC03DC03DC03000028
:1032300010031003100310031003100310031003F6
:1032400010030000700370037003BA02BA02BA02DE
:10325000000070037003100310030000700370037C
:103260001003100310030B020B020B020B0293025C
:103270004B024B024B024B024B024B024B024B02E6
:103280004B024B024B024B024B024B024B024B02D6
:103290004B024B024B024B024B024B024B020B0206
:1032A0004B024B0293029302930293029302930206
:1032B0009302930293029302930293029302930266
:1032C0009302930293029302930293029302930256
:1032D000930293020B020B020B02930293026E0203
:1032E0006E026E026E026E026E026E026E026E025E
:1032F0006E026E026E026E026E026E026E026E024E
:103300006E026E026E026E026E020B020B026E0203
:103310006E024B024B024B024B024B024B0200006F
:103320004B024B024B024B024B024B0200002705A3
:1033300027052705270527057505270527052006E5
:10334000200627052705270517041704000000009D
:1033500000000000000000000000170417047003C4
:103360007003000017041704DC03DC03DC031704FC
:103370001704DC03DC03DC03100310031003100349
:103380001003100310031003100310030000700358
:103390002705270597049704970417041704DC03EF
:1033A000DC03DC0300001704DC03DC03DC030000A7
:1033B0001003100310031003100310031003100375
:1033C0001003100310030000170470037003700350
:1033D000000017041704DC03DC03000017041704C3
:1033E000DC03DC03DC0310031003100310031003E1
:1033F0001003100310031003100370037003700315
:103400007003BA02BA02BA02700370031003100309
:1034100010037003700310031003100300000B026D
:103420000B020B020B020B020B020B020B020B0234
:103430000B020B02000017047003700370030000FE
:103440001704DC03DC03DC03000017041704DC03AF
:10345000DC0300001003100310031003100310031B
:1034600010031003100310037003700327052705D2
:1034700097049704970417041704DC03DC03DC03A8
:1034800017041704DC03DC03DC0310031003100330
:103490001003100310031003100310031003100394
:1034A000100317041704700370037003000017045F
:1034B000DC03DC03DC0300001704DC03DC03DC03B7
:1034C0000000100310031003100310031003100377
:1034D0001003100310037003700370037003BA022B
:1034E000BA0200007003700310031003100370038E
:1034F00070031003100310030B020B020B020B02EC
:1035000093024B024B024B024B024B024B024B020B
:103510004B024B024B024B024B024B024B024B0243
:103520004B024B024B024B024B024B024B024B0233
:103530000B024B024B0293029302930293029302FB
:1035400093029302930293029302930293029302D3
:1035500093029302930293029302930293029302C3
:103560009302930293020B020B020B020B029302D3
:103570006E026E026E026E026E026E026E026E02CB
:103580006E026E026E026E026E026E026E026E02BB
:103590006E026E026E026E026E026E026E020B020E
:1035A0006E026E024B024B024B024B024B024B026D
:1035B00000004B024B024B024B024B024B0200003D
:1035C00027052705270527052705750575052705FF
:1035D00020062006270527052705170417040000E5
:1035E00000000000000000000000000000000000DB
:1035F00000000000000000000000000000000000CB
:1036000000000000000000000000000000000000BA
:1036100000000000000000000000000000000000AA
:103F60000000000001000300030003000300030041
:103F70000300030003000300030003000300070025
:103F80000500050005000500070005000700050005
:103F900005000700050007000500050005000500F5
:103FA00007000500070005000500070004000600E3
:103FB00004000400040004000600040006000400DD
:103FC00004000600040006000400040004000400CD
:103FD00006000600060006000600060006000600B1
:103FE00006000600060006000600060006000400A3
:103FF000040006000400060004000400040004009D
:104000000600040006000400040006000400060088
:10401000040004000400040006000400060004007C
:10402000040006000400060004000400040004006C
:104030000600040006000400040006000400060058
:10404000040004000400040006000400060004004C
:104050000600060006000600060000000000000042
:10406000060004000200000009000F000D000B0014
:1040700000000900090009000B0000000F000D00FE
:1040800009000B0009000F000F000B000B000B00D4
:104090000B0009000B0009000D000B0009000B00CC
:1040A00009000D000D0009000B0009000B000900BC
:1040B00009000F000D000B000900090000000F00AF
:1040C0000B000B000B000B0009000B0009000F0098
:1040D0000D000900000009000F000D000B0000009A
:1040E00009000B0009000B0000000D000D00090085
:1040F0000B0000000F000D0009000B0009000B0071
:104100000900090009000D000B0009000B0009005F
:104110000D000B0009000B0009000900090009004F
:104120000F000D000B00090009000F000F000B002D
:104130000B000B000B0009000B0009000F000D0025
:1041400009000B0009000F000D0009000000090024
:104150000B0009000B0000000D000B0009000B0014
:1041600000000F000F000B000B000B000B000900FC
:1041700009000F000D000B000900090009000D00E7
:104180000B0000000B00090009000B0009000F00E4
:104190000D000900090009000F000F000B000B00C3
:1041A0000B000B0009000B0009000D000D000000C2
:1041B0000B0009000F000D0009000B0009000B00A7
:1041C0000900090000000D000B0009000B000000B1
:1041D0000D000B0009000B0009000900090009008F
:1041E0000F0004000B00090009000F000D000B0078
:1041F00000000900090009000B0000000F000D007D
:1042000009000B0009000F000D000900090009005A
:104210000F000F000F000F000F000F000F000F0026
:104220000F000F000D000F000F000F000F000F0018
:104230000F000F000F000F000D000F000D000D000C
:104240000F000F000F000D000F000F000F000F00F8
:104250000D000F000F000F000F000D000F000F00EA
:104260000F000F000F000F000F000F000F000F00D6
:104270000F000D000D000D000F000F000D000F00CE
:104280000F000F000F000F000F000F000F000F00B6
:104290000F000F000F000F000F000F000F000F00A6
:1042A0000F000F000F000D000F000D000D000F009C
:1042B0000F000F000D000F000F000F000F00040093
:1042C0000F000F000F000F000D000F0006000F0081
:1042D0000B000B000F000F000F000F000F000F006E
:1042E0000F000F000F000F000F000F000200000072
:1042F00000000600040002000000090009000D0093
:104300000B0000000B00090009000B0009000F0062
:104310000D000900090009000F000F000B000B0041
:104320000B000B0009000B0009000D000400090040
:104330000B0009000F000D0009000B0009000B0025
:104340000900090000000D000B0009000B0000002F
:104350000F000B000B000B000B0009000900090007
:104360000F000D000B00000009000F000D000B00F6
:1043700000000900090009000B0000000F000D00FB
:1043800009000B0009000F000D00090009000900D9
:104390000B0009000B0009000D000B0009000B00C9
:1043A00009000D000D0009000B0009000B000900B9
:1043B00009000F000D000B000900090000000F00AC
:1043C0000B000B000B000B0009000B0009000F0095
:1043D0000D000900000009000F000D000B00000097
:1043E00009000B0009000B0000000D000D00090082
:1043F0000B0000000F000F000B000B000B000B0068
:104400000900090009000D000B0009000B0009005C
:104410000D000B0009000B0009000900090009004C
:104420000F000D000B00090009000F000F000B002A
:104430000B000B000B0009000B0009000F000D0022
:1044400009000B0009000F000D0009000000090021
:104450000B0009000B0000000D000B0009000B0011
:1044600000000D000D0009000B0009000B00090001
:1044700009000F000D000B000900090009000D00E4
:104480000B0000000B00090009000B0009000F00E1
:104490000D000900090009000F000D000B000900C4
:1044A00009000F000F000F000F000F000D000F009C
:1044B0000F000F000F000D000F000F000F000F0086
:1044C0000F000F000F000F000F000D000F000D0078
:1044D0000D000F000F000F000D000F000F000F0068
:1044E0000F000D000F000F000F000F000F000F0056
:1044F0000F000F000F000F000F000F000F000F0044
:104500000F000F000D000D000D000F000F000D003B
:104510000F000F000F000F000F000F000F000F0023
:104520000F000F000D000F000F000F000F000F0015
:104530000F000F000F000F000D000F000D000D0009
:104540000F000F000F000D000F000F000F000F00F5
:1045500004000F000F000F000F000D000F000600F9
:104560000F000B000B000F000F000F000F000F00DB
:104570000F000F000F000F000F000F000F000000D2
:10458000000000000000000000000000000000002B
:10459000000000000000000000000000000000001B
:1045A000000000000000000000000000000000000B
:1045B00000000000000000000000000000000000FB
:104F0000000000007D000E039302000093020000E9
:104F100000000000100300000000000088010000F5
:104F200000000B0200000000000000004A01000029
:104F30000000000000000000D201B80100000000E5
:104F40009302100370030000BA020000000000008A
:104F50000B024B02EE01000000000000000088017F
:104F60000000000000000000B8010000EE01000099
:104F70000000000088019302000000000000BA0257
:104F800010030000930200000000EE01000000008A
:104F9000000000000000BA026E0200009302000050
:104FA00000000B020000B8010B020000000010031B
:104FB000E402BA026E0200000000170400001704A9
:104FC000170400000000000000001003E4020000CD
:104FD0000000930200009F01B801000000000B02D6
:104FE0004B0200000000000000004B020000000027
:104FF0000B020000000000000000000000000000A4
:105000000000E402BA026E02000000000000B801D5
:105010000B020000B8010000000000001003E402D1
:10502000BA0200000000000017040000170400008E
:10503000000000000000000010030000000000005D
:10504000930200009F0100000000B8010B024B0218
:1050500000000000000000004B0200000000000003
:105060000000000000000000000000000000000040
:105070000B0200000B02000000000B020000B80150
:105080008801000000000B020B0200000B02000070
:10509000000093020000000000000000000000007B
:1050A00000000B020B02000000000B024B0200008C
:1050B00093020000000088010000000000000000D2
:1050C0000000930200000B029302000000000000A9
:1050D0000000000000000000000000000000880147
:1050E0000000000000000000B8010000EE01000018
:1050F0000000000088019302000000000000BA02D6
:1051000010030000930200000000EE010000000008
:105110000B0200000000000000004A010000000037
:105120000000EE010000D201B80100000000000004
:1051300010037003000000000000930200000B0247
:105140004B020000000093020B02000088010000E7
:1051500000000000B801BA020000000000000000DA
:105160000000EE017003700300000000000000006A
:105170009302000000008801000000000000000011
:1051800000008801000000009F01000000000000F6
:10519000BA02B801000000000000BA020000BA0222
:1051A000BA0293024B020B02000000000000000054
:1051B0000000000093020B020000000000009F01AD
:1051C0000000B801BA02000000000000000000006A
:1051D000EE01700370037003000000000000000087
:1051E0000000B8018801000000000000000000007D
:1051F00088010000000000000000BA020000BA02AE
:10520000B80100000000EE01BA020000BA0200007E
:1052100093024B020B02000000000000000000009F
:1052200000000B020B02000000000B024B0200000A
:105230009302000000008801000000000000000050
:1052400000000B0200000B024B0293020000000062
:10525000000000000000000000000B0200000B0234
:1052600000000000000093020B020000B8010000E3
:10527000000000009302930200000000000093026F
:10528000000010030000000000000000000000000B
:10529000930200000000000000009F0100000000D9
:1052A0000000BA02B8010000000000000000000089
:1052B000700370031003BA0200000B020000B80173
:1052C00088010000000093020B020000880100002A
:1052D00000000000B801BA02000000000000000059
:1052E0000000EE01BA020000000000000000000013
:1052F0000B020000000000000000000000000000A1
:10530000000000000000000000000000000000009D
:10531000000000000000000000000000000000008D
:10532000000000000000000000000000000000007D
:10533000000000000000000000000000000000006D
:105EA000000000000000000072010000720100000C
:105EB00000000000EE01000000000000880100006A
:105EC00000004A010000000000000000C4000000C3
:105ED00000000000000000001501060100000000A5
:105EE0008801EE010B020000B80100000000000074
:105EF0004A015D01260100000000000000000601CB
:105F00000000000000000000060100002601000063
:105F10000000000006018801000000000000B80138
:105F2000EE010000B80100000000260100000000A2
:105F30000000000000004B02EE0100000B02000018
:105F400000008801000006014A01000000009302E1
:105F50006E024B02EE0100000000BA020000BA021D
:105F6000BA02000000000000000093026E02000070
:105F700000000B0200004A015D01000000004A0120
:105F80005D0100000000000000005D010000000055
:105F90004A010000000000000000000000000000B6
:105FA00000006E024B02EE010000000000005D01E7
:105FB00088010000060100000000000093026E024C
:105FC0004B02000000000000BA020000BA0200000C
:105FD000000000000000000093020000000000002C
:105FE0000B0200004A010000000006014A015D01A9
:105FF00000000000000000005D0100000000000043
:106000000000000000000000000000000000000090
:106010009F0100009F01000000004A0100004A01AA
:106020000601000000009F019F0100009F01000089
:1060300000008801000000000000000000000000D7
:1060400000009F019F01000000009F01D20100009D
:1060500088010000000006010000000000000000B0
:1060600000007201000072017201000000000000D7
:106070000000880100000000000000000000060190
:1060800000000000000000000601000026010000E2
:106090000000000006018801000000000000B801B7
:1060A000EE010000B8010000000026010000000021
:1060B0004A010000000000000000C40000000000D1
:1060C000000026010000150106010000000000008C
:1060D000EE010B02000000000000B80100004A01C0
:1060E0005D01000000000B02B80100004A01000041
:1060F000000000005D010B02000000000000000035
:1061000000008801BA02BA0200000000000000008E
:106110000B02000000004A01000000000000000027
:1061200000004A01000000004A01000000000000D9
:106130000B025D010000000000004B0200004B025A
:106140004B020B02EE0188014A0100004A010601E0
:10615000000000000B02B8010000000000004A012E
:1061600000005D010B0200000000000000000000C4
:106170008801BA02BA02BA02000000000000000062
:1061800000005D014A010000000000000000000066
:106190004A0100000000000000000B0200000B029A
:1061A0005D010000000088014B0200004B0200006E
:1061B0000B02EE0188014A01000000000601000008
:1061C00000009F019F01000000009F01D20100001C
:1061D000880100000000060100000000000000002F
:1061E00000009F0100009F01D20188010000000013
:1061F000000000000000000000009F0100009F015F
:1062000000000000000088014A0100004A0100006F
:106210000000000072017201000000000000720125
:106220000000EE010000000000000000000000007F
:106230000B0200000000000000004A010000000006
:1062400000000B025D0100000000000000000000E3
:10625000BA02BA0293024B020000B80100005D01CD
:106260004A01000000000B02B80100004A010000D2
:10627000000000005D010B020000000000000000B3
:10628000000088014B020000000000000000000038
:10629000880100000000060100000000000000006E
:1062A00000000000000000000000000000000000EE
:1062B00000000000000000000000000000000000DE
:1062C00000000000000000000000000000000000CE
:1062D00000000000000000000000000000000000BE
:106E4000000000000000000093000000930000001C
:106E5000000000008801000000000000C4000000E5
:106E60000000C400000000000000000083000000DB
:106E70000000000000000000B900AF0000000000AA
:106E800006014A015D01000026010000000000002B
:106E9000DC00F700C4000000000000000000A500B6
:106EA0000000000000000000AF000000C40000006F
:106EB00000000000A50006010000000000002601FF
:106EC0004A010000060100000000C40000000000AC
:106ED0008300000000000000000006010000000028
:106EE0000000060106010000AF00000000000000E5
:106EF000A5000000000000000000100300001003C7
:106F0000100300000000830000000000C400000027
:106F100000000000AF000000000000000000AF0013
:106F200000008300000000000000E90000000000F5
:106F3000060100000000C400000083000000000003
:106F40000000C40000000000060100000000000076
:106F50000601060100000000000000000000A5007E
:106F600000000000000000001003000010030000FB
:106F70000000000083000000000000000000060187
:106F80000000AF000000000000000000AF000000A3
:106F90008300000000000000E90000000000000085
:106FA0000000C400C40000008300000000000000D6
:106FB0009C000000000000000000000000008300B2
:106FC0000000000000006800000000009C000000BD
:106FD00000000000C400000000000000000062008B
:106FE000000068000000000000000000D000000069
:106FF000C40000000000000000006200000000006B
:1070000000009300000093009300000000000000C7
:107010000000C40000000000000000000000A50007
:107020000000000000000000AF000000C4000000ED
:1070300000000000A500060100000000000026017D
:107040004A010000060100000000C400000000002A
:10705000C4000000000000000000830000000000E9
:107060000000C4000000B900AF00000000000000F4
:107070004A015D0100000000000006010000DC0084
:10708000F70000000000830000000000B9000000CD
:1070900000000000AF000000AF0000000000AF00E3
:1070A000000093000000000000000000F700000056
:1070B000C4000000000006010601C400000000003A
:1070C0000000B900C4000000060100000000AF008D
:1070D00000000601060100000000C4000000C4001A
:1070E000C400DC00F70006010000C40000008300BB
:1070F0000000000083000000000000000000060106
:107100000000AF000000000000000601AF0000001A
:10711000930000000000C4000000F7000000000021
:107120000000000006010601C4000000000000008D
:10713000B900C4000000000000000000AF00000023
:10714000060100000000C400C4000000C4000000EC
:10715000DC00F70006010000C4000000830000000E
:10716000000068000000000000000000D0000000E7
:10717000C4000000000000000000620000000000E9
:1071800000009C0000000000D00000000000000093
:1071900083000000000000000000000000009C00D0
:1071A000000000000000C400000000008300000098
:1071B0000000000093009300000000000000930016
:1071C0000000880100000000000000000000000036
:1071D000830000000000C400000006010000000061
:1071E0000000000006010601AF00000000000000E2
:1071F000AF00C4000000000000000000C400000058
:10720000060100000000830000000000B90000003B
:1072100000000000AF000000AF0000000000AF0061
:107220000000C400C40000000000000000000000D6
:1072300006010000000083000000000000000000C4
:10724000000000000000000000000000000000003E
:10725000000000000000000000000000000000002E
:10726000000000000000000000000000000000001E
:10727000000000000000000000000000000000000E
:107DE000000000000000000093000000930000006D
:107DF000000000008801000000000000C400000036
:107E00000000C4000000000000000000830000002B
:107E10000000000000000000B900AF0000000000FA
:107E200006014A015D01000026010000000000007B
:107E3000DC00F700C4000000000000000000A50006
:107E40000000000000000000AF000000C4000000BF
:107E500000000000A500060100000000000026014F
:107E60004A010000060100000000C40000000000FC
:107E70008300000000000000000006010000000078
:107E80000000060106010000AF0000000000000035
:107E9000A500000000000000000010030000100317
:107EA000100300000000830000000000C400000078
:107EB00000000000AF000000000000000000AF0064
:107EC00000008300000000000000E9000000000046
:107ED000060100000000C400000083000000000054
:107EE0000000C400000000000601000000000000C7
:107EF0000601060100000000000000000000A500CF
:107F0000000000000000000010030000100300004B
:107F100000000000830000000000000000000601D7
:107F20000000AF000000000000000000AF000000F3
:107F30008300000000000000E900000000000000D5
:107F40000000C400C4000000830000000000000026
:107F50009C00000000000000000000000000830002
:107F60000000000000006800000000009C0000000D
:107F700000000000C40000000000000000006200DB
:107F8000000068000000000000000000D0000000B9
:107F9000C4000000000000000000620000000000BB
:107FA0000000930000009300930000000000000018
:107FB0000000C40000000000000000000000A50058
:107FC0000000000000000000AF000000C40000003E
:107FD00000000000A50006010000000000002601CE
:107FE0004A010000060100000000C400000000007B
:107FF000C40000000000000000008300000000003A
:108000000000C4000000B900AF0000000000000044
:108010004A015D0100000000000006010000DC00D4
:10802000F70000000000830000000000B90000001D
:1080300000000000AF000000AF0000000000AF0033
:10804000000093000000000000000000F7000000A6
:10805000C4000000000006010601C400000000008A
:108060000000B900C4000000060100000000AF00DD
:1080700000000601060100000000C4000000C4006A
:10808000C400DC00F70006010000C400000083000B
:108090000000000083000000000000000000060156
:1080A0000000AF000000000000000601AF0000006B
:1080B000930000000000C4000000F7000000000072
:1080C0000000000006010601C400000000000000DE
:1080D000B900C4000000000000000000AF00000074
:1080E000060100000000C400C4000000C40000003D
:1080F000DC00F70006010000C4000000830000005F
:10810000000068000000000000000000D000000037
:10811000C400000000000000000062000000000039
:1081200000009C0000000000D000000000000000E3
:1081300083000000000000000000000000009C0020
:10814000000000000000C4000000000083000000E8
:108150000000000093009300000000000000930066
:108160000000880100000000000000000000000086
:10817000830000000000C4000000060100000000B1
:108180000000000006010601AF0000000000000032
:10819000AF00C4000000000000000000C4000000A8
:1081A000060100000000830000000000B90000008C
:1081B00000000000AF000000AF0000000000AF00B2
:1081C0000000C400C4000000000000000000000027
:1081D0000601000000008300000000000000000015
:1081E000000000000000000000000000000000008F
:1081F000000000000000000000000000000000007F
:10820000000000000000000000000000000000006E
:10821000000000000000000000000000000000005E
:108D800000000000000000000F0000000F000000C5
:108D9000000000000F000000000000000F000000B5
:108DA00000000F0000000000000000000F000000A5
:108DB00000000000000000000F000F000000000095
:108DC0000F000F000F0000000F0000000000000067
:108DD0000F000F000F0000000000000000000F0057
:108DE00000000000000000000F0000000F00000065
:108DF000000000000F000F000000000000000F0046
:108E00000F0000000F00000000000F000000000035
:108E10000C0000000000030003000C000300000031
:108E200000000F000C0003000F0000000000030012
:108E30000F0003000300000000000F0000000F00FF
:108E40000F00000000000C00000003000F000000F5
:108E5000000003000C0003000300000000000F00EE
:108E600003000C000000000000000F0000000000E4
:108E70000F00000000000C0000000C0000000000CB
:108E800000000F00030003000C00000000000300BE
:108E90000F000C00030000000000000003000F00A2
:108EA00003000000000000000F0000000F000000A1
:108EB000000000000C0000000300000000000C0097
:108EC00003000C0003000000000003000F0003007B
:108ED0000C000000000000000F0000000000000077
:108EE00000000C000C0000000C000000000000005E
:108EF0000F000000030000000000030000000F004E
:108F00000300000000000F00030000000F0000003D
:108F1000000003000C0000000000000000000C0036
:108F200000000F0003000000000003000F0000001D
:108F30000F0000000000030000000C000000000013
:108F400000000F0000000F000F00000000000000F4
:108F500000000E00000000000000000000000F00F4
:108F600000000000000000000F0000000F000000E3
:108F7000000000000F000F000000000000000F00C4
:108F80000F0000000F00000000000F0000000000B4
:108F90000F0000000000000000000F0000000000B3
:108FA00000000F0000000F000F0000000000000094
:108FB0000F000F000000000000000F0000000F0075
:108FC0000F00000000000F00030000000F00000071
:108FD000000000000F0003000C00000000000C0067
:108FE00000000F0003000300000000000C00000060
:108FF0000F00000000000F000C000C00000000003B
:1090000000000F000C0000000F00000000000C002A
:1090100003000F000C00000000000F0000000F0014
:109020000F000F000F000F0002000C0002000E00E6
:10903000000000000F0003000000000000000F000F
:1090400000000F000300000000000C000C000000F6
:109050000F00030003000F0000000C0000000000E0
:10906000000003000F000C000C00000000000000D6
:109070000F000C0000000000000003000C000300C3
:109080000F00000000000F000F0000000F000000A4
:109090000F000F000F0002000C0000000E00000087
:1090A00000000F0003000000000003000F0000009C
:1090B0000F0000000000030000000C000000000092
:1090C00000000F00000003000F000300000000007C
:1090D0000C000000000000000000030000000F0072
:1090E0000000000000000F00030000000F0000005F
:1090F000000000000F000F000000000000000F0043
:1091000000000F0000000000000000000000000050
:109110000F00000000000C0000000F000000000025
:10912000000003000F000C000C0000000000000015
:109130000F000F0003000300000003000C000300F9
:109140000F00000000000F00030000000F000000EF
:10915000000000000F0003000C00000000000C00E5
:1091600000000F000F0000000000000000000000E1
:109170000F00000000000E000000000000000000D2
:1091800000000000000000000000000000000000DF
:1091900000000000000000000000000000000000CF
:1091A00000000000000000000000000000000000BF
:1091B00000000000000000000000000000000000AF
:109D200000000000000000007D00F9019302930292
:109D300093029302EE01EE010B020B024B024B0267
:109D400093024B020B020B02EE01EE01B801B801C7
:109D5000B801B801B801B8010B020B0293029302DB
:109D6000930293024B024B020B020B02EE01EE0137
:109D7000EE01EE01EE01EE010B020B024B024B0273
:109D80004B024B0293029302930293020B020B02CB
:109D90000B020B02B801B801B801B801B801B80153
:109DA000B801B801B801B801B801B801000000005D
:109DB0004B024B024B024B02BA02BA027003700311
:109DC0007003700310031003BA02BA0293029302E5
:109DD00093029302930293020B020B0293029302EB
:109DE000930293024B024B020B020B02EE01EE01B7
:109DF000EE01EE01EE01EE010B020B024B024B02F3
:109E00004B024B0293029302930293020B020B024A
:109E10000B020B02B801B801B801B801B801B801D2
:109E2000B801B80100000000000000009302930296
:109E300093029302EE01EE010B020B024B024B0266
:109E400093024B020B020B02EE01EE01B801B801C6
:109E5000B801B801B801B8010B020B0293029302DA
:109E6000930293024B024B020B020B02EE01EE0136
:109E7000EE01EE01EE01EE010B020B024B024B0272
:109E80004B024B0293029302930293020B020B02CA
:109E90000B020B02B801B801B801B801B801B80152
:109EA000B801B801B801B801B801B801000000005C
:109EB0004B024B024B024B02BA02BA027003700310
:109EC0007003700310031003BA02BA0293029302E4
:109ED00093029302930293020B020B0293029302EA
:109EE000930293024B024B020B020B02EE01EE01B6
:109EF000EE01EE01EE01EE010B020B024B024B02F2
:109F00004B024B0293029302930293020B020B0249
:109F10000B020B02B801B801B801B801B801B801D1
:109F2000B801B80100000000000000004A014A0129
:109F30004A014A014A014A014A014A010601060151
:109F40000601060106010601060106012601260199
:109F5000260126012601260126012601F700F70029
:109F6000F700F700F700F700F700F7000601060119
:109F7000060106010601060106010601DC00DC00FF
:109F8000DC00DC00DC00DC00DC00DC00D000D00009
:109F9000D000D000D000D000D000D000F700F700F3
:109FA000F700F70000000000000000004A014A012D
:109FB0004A014A014A014A014A014A0106010601D1
:109FC0000601060106010601060106012601260119
:109FD000260126012601260126012601F700F700A9
:109FE000F700F700F700F700F700F7000601060199
:109FF000060106014A014A014A014A01B801B801B5
:10A00000B801B801B801B801B801B8019F019F01BA
:10A010009F019F019F019F019F019F010000000080
:10A020000000000000000000000000009302930206
:10A0300093029302EE01EE010B020B024B024B0264
:10A0400093024B020B020B02EE01EE01B801B801C4
:10A05000B801B801B801B8010B020B0293029302D8
:10A06000930293024B024B020B020B02EE01EE0134
:10A07000EE01EE01EE01EE010B020B024B024B0270
:10A080004B024B0293029302930293020B020B02C8
:10A090000B020B02B801B801B801B801B801B80150
:10A0A000B801B801B801B801B801B801000000005A
:10A0B0004B024B024B024B02BA02BA02700370030E
:10A0C0007003700310031003BA02BA0293029302E2
:10A0D00093029302930293020B020B0293029302E8
:10A0E000930293024B024B020B020B02EE01EE01B4
:10A0F000EE01EE01EE01EE010B020B024B024B02F0
:10A100004B024B0293029302930293020B020B0247
:10A110000B020B02B801B801B801B801B801B801CF
:10A12000B801B80100000000000000009302930293
:10A1300093029302EE01EE010B020B024B024B0263
:10A1400093024B020B020B02EE01EE01B801B801C3
:10A15000B801B801B801B8010B020B0293029302D7
:10A16000930293024B024B020B020B02EE01EE0133
:10A17000EE01EE01EE01EE010B020B024B024B026F
:10A180004B024B0293029302930293020B020B02C7
:10A190000B020B02B801B801B801B801B801B8014F
:10A1A000B801B801B801B801B801B8010000000059
:10A1B0004B024B024B024B02BA02BA02700370030D
:10A1C0007003700310031003BA02BA0293029302E1
:10A1D00093029302930293020B020B0293029302E7
:10A1E000930293024B024B020B020B02EE01EE01B3
:10A1F000EE01EE01EE01EE010B020B024B024B02EF
:10A200004B024B0293029302930293020B020B0246
:10A210000B020B02B801B801B801B801B801B801CE
:10A22000B801B801000000000000000000000000BC
:10A23000000000000000000000000000000000001E
:10A24000000000000000000000000000000000000E
:10A2500000000000000000000000000000000000FE
:10A2600000000000000000000000000000000000EE
:10ACC000000000000000000000000000EE01EE01A6
:10ACD000EE01EE019F019F01B801B801EE01EE0106
:10ACE000EE01EE01B801B8019F019F014A014A013E
:10ACF0004A014A014A014A01B801B8010B020B029C
:10AD00000B020B02EE01EE01B801B8019F019F0199
:10AD10004A014A019F019F01B801B801EE01EE010D
:10AD2000EE01EE010B020B020B020B02B801B8019F
:10AD3000B801B8014A014A014A014A014A014A01DF
:10AD40004A014A014A014A014A014A010000000041
:10AD50005D015D015D015D01B801B8010B020B02EF
:10AD60000B020B02EE01EE01B801B8018801880167
:10AD700088018801880188014A014A018801880107
:10AD8000B80188015D015D014A014A019F019F01EF
:10AD90004A014A019F019F01B801B801EE01EE018D
:10ADA0009F019F010B020B029F019F01B801B80197
:10ADB0004A014A014A014A014A014A014A014A013B
:10ADC0004A014A010000000000000000EE01EE010F
:10ADD000EE01EE019F019F01B801B801EE01EE0105
:10ADE000EE01EE01B801B8019F019F014A014A013D
:10ADF0004A014A014A014A01B801B8010B020B029B
:10AE00000B020B02EE01EE01B801B8019F019F0198
:10AE10004A014A019F019F01B801B801EE01EE010C
:10AE2000EE01EE010B020B020B020B02B801B8019E
:10AE3000B801B8014A014A014A014A014A014A01DE
:10AE40004A014A014A014A014A014A010000000040
:10AE50005D015D015D015D01B801B8010B020B02EE
:10AE60000B020B02EE01EE01B801B8018801880166
:10AE700088018801880188014A014A018801880106
:10AE8000B80188015D015D014A014A019F019F01EE
:10AE90004A014A019F019F01B801B801EE01EE018C
:10AEA0009F019F010B020B029F019F01B801B80196
:10AEB0004A014A014A014A014A014A014A014A013A
:10AEC0004A014A01000000000000000006010601DE
:10AED000060106010601060106010601DC00DC0090
:10AEE000DC00DC00DC00DC00DC00DC00F700F7004C
:10AEF000F700F700F700F700F700F700D000D000E8
:10AF0000D000D000D000D000D000D000DC00DC00A9
:10AF1000DC00DC00DC00DC00DC00DC00A500A500BF
:10AF2000A500A500A500A500A500A500A500A500F9
:10AF3000A500A500A500A500A500A500D000D00093
:10AF4000D000D00000000000000000000601060153
:10AF5000060106010601060106010601DC00DC000F
:10AF6000DC00DC00DC00DC00DC00DC00F700F700CB
:10AF7000F700F700F700F700F700F700D000D00067
:10AF8000D000D000D000D000D000D000DC00DC0029
:10AF9000DC00DC0006010601060106014A014A0147
:10AFA0004A014A014A014A014A014A012601260191
:10AFB00026012601260126012601260100000000A7
:10AFC000000000000000000000000000EE01EE01A3
:10AFD000EE01EE019F019F01B801B801EE01EE0103
:10AFE000EE01EE01B801B8019F019F014A014A013B
:10AFF0004A014A014A014A01B801B8010B020B0299
:10B000000B020B02EE01EE01B801B8019F019F0196
:10B010004A014A019F019F01B801B801EE01EE010A
:10B02000EE01EE010B020B020B020B02B801B8019C
:10B03000B801B8014A014A014A014A014A014A01DC
:10B040004A014A014A014A014A014A01000000003E
:10B050005D015D015D015D01B801B8010B020B02EC
:10B060000B020B02EE01EE01B801B8018801880164
:10B0700088018801880188014A014A018801880104
:10B08000B80188015D015D014A014A019F019F01EC
:10B090004A014A019F019F01B801B801EE01EE018A
:10B0A0009F019F010B020B029F019F01B801B80194
:10B0B0004A014A014A014A014A014A014A014A0138
:10B0C0004A014A010000000000000000EE01EE010C
:10B0D000EE01EE019F019F01B801B801EE01EE0102
:10B0E000EE01EE01B801B8019F019F014A014A013A
:10B0F0004A014A014A014A01B801B8010B020B0298
:10B100000B020B02EE01EE01B801B8019F019F0195
:10B110004A014A019F019F01B801B801EE01EE0109
:10B12000EE01EE010B020B020B020B02B801B8019B
:10B13000B801B8014A014A014A014A014A014A01DB
:10B140004A014A014A014A014A014A01000000003D
:10B150005D015D015D015D01B801B8010B020B02EB
:10B160000B020B02EE01EE01B801B8018801880163
:10B1700088018801880188014A014A018801880103
:10B18000B80188015D015D014A014A019F019F01EB
:10B190004A014A019F019F01B801B801EE01EE0189
:10B1A0009F019F010B020B029F019F01B801B80193
:10B1B0004A014A014A014A014A014A014A014A0137
:10B1C0004A014A01000000000000000000000000E9
:10B1D000000000000000000000000000000000006F
:10B1E000000000000000000000000000000000005F
:10B1F000000000000000000000000000000000004F
:10B20000000000000000000000000000000000003E
:10BC60000000000000000000000000005200520030
:10BC7000A500A50052005200A500A50052005200E8
:10BC8000A500A50052005200A500A5006E006E00A0
:10BC9000DC00DC006E006E00DC00DC006E006E007C
:10BCA000DC00DC006E006E00DC00DC006800680078
:10BCB000D000D00068006800D000D00052005200D0
:10BCC000A500A50052005200A500A5006E006E0060
:10BCD000DC00DC006E006E00DC00DC006E006E003C
:10BCE000DC00DC007B007B0083008300930093007A
:10BCF0004900490000000000490049000000000020
:10BD0000490049006E006E00570057004100410095
:10BD10008300830000000000830083004100410095
:10BD20006200620062006200000000007B007B0095
:10BD3000F700F70000000000F700F7000000000027
:10BD4000A500A50000000000D000D0006E006E002D
:10BD5000A500A5006E006E00A500A5006E006E0097
:10BD60006E006E0000000000000000005200520053
:10BD7000A500A50052005200A500A50052005200E7
:10BD8000A500A50052005200A500A5006E006E009F
:10BD9000DC00DC006E006E00DC00DC006E006E007B
:10BDA000DC00DC006E006E00DC00DC006800680077
:10BDB000D000D00068006800D000D00052005200CF
:10BDC000A500A50052005200A500A5006E006E005F
:10BDD000DC00DC006E006E00DC00DC006E006E003B
:10BDE000DC00DC007B007B00830083009300930079
:10BDF000490049000000000049004900000000001F
:10BE0000490049006E006E00570057004100410094
:10BE10008300830000000000830083004100410094
:10BE20006200620062006200000000007B007B0094
:10BE3000F700F70000000000F700F7000000000026
:10BE4000A500A50000000000D000D0006E006E002C
:10BE5000A500A5006E006E00A500A5006E006E0096
:10BE60006E006E000000000000000000DC00DC003E
:10BE70004A014A01DC00DC004A014A01DC00DC0026
:10BE80004A014A01DC00DC004A014A01D000D0002E
:10BE90004A014A01D000D0004A014A01D000D00036
:10BEA0004A014A01D000D0004A014A01DC00DC000E
:10BEB0004A014A01DC00DC004A014A01DC00DC00E6
:10BEC0004A014A01DC00DC004A014A01D000D000EE
:10BED0004A014A01D000D0004A014A010000000096
:10BEE000000000000000000000000000DC00DC009A
:10BEF0004A014A01DC00DC004A014A01DC00DC00A6
:10BF00004A014A01DC00DC004A014A01D000D000AD
:10BF10004A014A01D000D0004A014A01D000D000B5
:10BF20004A014A01D000D0004A014A01DC00DC008D
:10BF30004A014A01DC00DC004A014A01DC00DC0065
:10BF40004A014A01DC00DC004A014A01D000D0006D
:10BF50004A014A01D000D0004A014A010000000015
:10BF6000000000000000000000000000520052002D
:10BF7000A500A50052005200A500A50052005200E5
:10BF8000A500A50052005200A500A5006E006E009D
:10BF9000DC00DC006E006E00DC00DC006E006E0079
:10BFA000DC00DC006E006E00DC00DC006800680075
:10BFB000D000D00068006800D000D00052005200CD
:10BFC000A500A50052005200A500A5006E006E005D
:10BFD000DC00DC006E006E00DC00DC006E006E0039
:10BFE000DC00DC007B007B00830083009300930077
:10BFF000490049000000000049004900000000001D
:10C00000490049006E006E00570057004100410092
:10C010008300830000000000830083004100410092
:10C020006200620062006200000000007B007B0092
:10C03000F700F70000000000F700F7000000000024
:10C04000A500A50000000000D000D0006E006E002A
:10C05000A500A5006E006E00A500A5006E006E0094
:10C060006E006E0000000000000000005200520050
:10C07000A500A50052005200A500A50052005200E4
:10C08000A500A50052005200A500A5006E006E009C
:10C09000DC00DC006E006E00DC00DC006E006E0078
:10C0A000DC00DC006E006E00DC00DC006800680074
:10C0B000D000D00068006800D000D00052005200CC
:10C0C000A500A50052005200A500A5006E006E005C
:10C0D000DC00DC006E006E00DC00DC006E006E0038
:10C0E000DC00DC007B007B00830083009300930076
:10C0F000490049000000000049004900000000001C
:10C10000490049006E006E00570057004100410091
:10C110008300830000000000830083004100410091
:10C120006200620062006200000000007B007B0091
:10C13000F700F70000000000F700F7000000000023
:10C14000A500A50000000000D000D0006E006E0029
:10C15000A500A5006E006E00A500A5006E006E0093
:10C160006E006E00000000000000000000000000F3
:10C1700000000000000000000000000000000000BF
:10C1800000000000000000000000000000000000AF
:10C19000000000000000000000000000000000009F
:10C1A000000000000000000000000000000000008F
:10CC10005C005C00000000005C005C0000000000A4
:10CC20005C005C00000000005C005C000000000094
:10CC30005C005C00000000005C005C000000000084
:10CC40005C005C005C005C005C005C0000000000BC
:10CC50005C005C00000000005C005C000000000064
:10CC60005C005C00000000005C005C000000000054
:10CC70005C005C00000000005C005C000000000044
:10CC80005C005C005C005C005C005C00000000007C
:10CC90005C005C00000000005C005C000000000024
:10CCA0005C005C00000000005C005C000000000014
:10CCB0005C005C00000000005C005C000000000004
:10CCC0005C005C005C005C005C005C00000000003C
:10CCD0005C005C00000000005C005C0000000000E4
:10CCE0005C005C00000000005C005C0000000000D4
:10CCF0005C005C00000000005C005C0000000000C4
:10CD00005C005C005C005C005C005C0000000000FB
:10CD10005C005C00000000005C005C0000000000A3
:10CD20005C005C00000000005C005C000000000093
:10CD30005C005C00000000005C005C000000000083
:10CD40005C005C005C005C005C005C0000000000BB
:10CD50005C005C00000000005C005C000000000063
:10CD60005C005C00000000005C005C000000000053
:10CD70005C005C00000000005C005C000000000043
:10CD80005C005C005C005C005C005C00000000007B
:10CD90005C005C00000000005C005C000000000023
:10CDA0005C005C00000000005C005C000000000013
:10CDB0005C005C00000000005C005C000000000003
:10CDC0005C005C005C005C005C005C00000000003B
:10CDD0005C005C00000000005C005C0000000000E3
:10CDE0005C005C00000000005C005C0000000000D3
:10CDF0005C005C00000000005C005C0000000000C3
:10CE00005C005C005C005C005C005C0000000000FA
:10CE10005C005C00000000005C005C0000000000A2
:10CE20005C005C00000000005C005C000000000092
:10CE30005C005C00000000005C005C000000000082
:10CE40005C005C005C005C005C005C0000000000BA
:10CE50005C005C00000000005C005C000000000062
:10CE60005C005C00000000005C005C000000000052
:10CE70005C005C00000000005C005C000000000042
:10CE80005C005C005C005C005C005C00000000007A
:10CE90005C005C00000000005C005C000000000022
:10CEA0005C005C00000000005C005C000000000012
:10CEB0005C005C00000000005C005C000000000002
:10CEC0005C005C005C005C005C005C00000000003A
:10CED0005C005C00000000005C005C0000000000E2
:10CEE0005C005C00000000005C005C0000000000D2
:10CEF0005C005C00000000005C005C0000000000C2
:10CF00005C005C005C005C005C005C0000000000F9
:10CF10005C005C00000000005C005C0000000000A1
:10CF20005C005C00000000005C005C000000000091
:10CF30005C005C00000000005C005C000000000081
:10CF40005C005C005C005C005C005C0000000000B9
:10CF50005C005C00000000005C005C000000000061
:10CF60005C005C00000000005C005C000000000051
:10CF70005C005C00000000005C005C000000000041
:10CF80005C005C005C005C005C005C000000000079
:10CF90005C005C00000000005C005C000000000021
:10CFA0005C005C00000000005C005C000000000011
:10CFB0005C005C00000000005C005C000000000001
:10CFC0005C005C005C005C005C005C000000000039
:10CFD0005C005C00000000005C005C0000000000E1
:10CFE0005C005C00000000005C005C0000000000D1
:10CFF0005C005C00000000005C005C0000000000C1
:10D000005C005C005C005C005C005C0000000000F8
:10D010005C005C00000000005C005C0000000000A0
:10D020005C005C00000000005C005C000000000090
:10D030005C005C00000000005C005C000000000080
:10D040005C005C005C005C005C005C0000000000B8
:10D050005C005C00000000005C005C000000000060
:10D060005C005C00000000005C005C000000000050
:10D070005C005C00000000005C005C000000000040
:10D080005C005C005C005C005C005C000000000078
:10D090005C005C00000000005C005C000000000020
:10D0A0005C005C00000000005C005C000000000010
:10D0B0005C005C00000000005C005C000000000000
:10D0C0005C005C005C005C005C005C000000000038
:10D0D0005C005C00000000005C005C0000000000E0
:10D0E0005C005C00000000005C005C0000000000D0
:10D0F0005C005C00000000005C005C0000000000C0
:10D100005C005C005C005C005C005C0000000000F7
:10D11000000000000000000000000000000000000F
:10D1200000000000000000000000000000000000FF
:10D1300000000000000000000000000000000000EF
:10D1400000000000000000000000000000000000DF
:10DBA0000000000000000000000000000700070067
:10DBB0000F000F00070007000F000F00070007000D
:10DBC0000F000F00070007000F000F0007000700FD
:10DBD0000F000F00070007000F000F0007000700ED
:10DBE0000F000F000F000F000F000F0007000700CD
:10DBF0000F000F00070007000F000F0007000700CD
:10DC00000F000F00070007000F000F0007000700BC
:10DC10000F000F00070007000F000F0007000700AC
:10DC20000F000F000F000F000F000F000400040092
:10DC30000F000F00030003000F000F00030003009C
:10DC40000F000F00070007000F000F00070007007C
:10DC50000F000F00030003000F000F000700070074
:10DC60000F000F000F000F000B000B000700070054
:10DC70000F000F00030003000F000F00030003005C
:10DC80000F000F00030003000F000F000700070044
:10DC90000F000F00070007000F000F00070007002C
:10DCA0000F000F0008000800080008000700070028
:10DCB0000F000F00070007000F000F00070007000C
:10DCC0000F000F00070007000F000F0007000700FC
:10DCD0000F000F00070007000F000F0007000700EC
:10DCE0000F000F000F000F000F000F0007000700CC
:10DCF0000F000F00070007000F000F0007000700CC
:10DD00000F000F00070007000F000F0007000700BB
:10DD10000F000F00070007000F000F0007000700AB
:10DD20000F000F000F000F000F000F000400040091
:10DD30000F000F00030003000F000F00030003009B
:10DD40000F000F00070007000F000F00070007007B
:10DD50000F000F00030003000F000F000700070073
:10DD60000F000F000F000F000B000B000700070053
:10DD70000F000F00030003000F000F00030003005B
:10DD80000F000F00030003000F000F000700070043
:10DD90000F000F00070007000F000F00070007002B
:10DDA0000F000F0008000800080008000700070027
:10DDB0000F000F00070007000F000F00070007000B
:10DDC0000F000F00070007000F000F0007000700FB
:10DDD0000F000F00070007000F000F0007000700EB
:10DDE0000F000F000F000F000F000F0007000700CB
:10DDF0000F000F00070007000F000F0007000700CB
:10DE00000F000F00070007000F000F0007000700BA
:10DE10000F000F00070007000F000F0003000300B2
:10DE20000B000B00080008000800080007000700AE
:10DE30000F000F00070007000F000F00070007008A
:10DE40000F000F00070007000F000F00070007007A
:10DE50000F000F00070007000F000F00070007006A
:10DE60000F000F000F000F000F000F00070007004A
:10DE70000F000F00070007000F000F00070007004A
:10DE80000F000F00070007000F000F00070007003A
:10DE90000F000F00070007000F000F000000000038
:10DEA0000800080008000800080008000700070034
:10DEB0000F000F00070007000F000F00070007000A
:10DEC0000F000F00070007000F000F0007000700FA
:10DED0000F000F00070007000F000F0007000700EA
:10DEE0000F000F000F000F000F000F0007000700CA
:10DEF0000F000F00070007000F000F0007000700CA
:10DF00000F000F00070007000F000F0007000700B9
:10DF10000F000F00070007000F000F0007000700A9
:10DF20000F000F000F000F000F000F00040004008F
:10DF30000F000F00030003000F000F000300030099
:10DF40000F000F00070007000F000F000700070079
:10DF50000F000F00030003000F000F000700070071
:10DF60000F000F000F000F000B000B000700070051
:10DF70000F000F00030003000F000F000300030059
:10DF80000F000F00030003000F000F000700070041
:10DF90000F000F00070007000F000F000700070029
:10DFA0000F000F0008000800080008000700070025
:10DFB0000F000F00070007000F000F000700070009
:10DFC0000F000F00070007000F000F0007000700F9
:10DFD0000F000F00070007000F000F0007000700E9
:10DFE0000F000F000F000F000F000F0007000700C9
:10DFF0000F000F00070007000F000F0007000700C9
:10E000000F000F00070007000F000F0007000700B8
:10E010000F000F00070007000F000F0007000700A8
:10E020000F000F000F000F000F000F00040004008E
:10E030000F000F00030003000F000F000300030098
:10E040000F000F00070007000F000F000700070078
:10E050000F000F00030003000F000F000700070070
:10E060000F000F000F000F000B000B000700070050
:10E070000F000F00030003000F000F000300030058
:10E080000F000F00030003000F000F000700070040
:10E090000F000F00070007000F000F000700070028
:10E0A0000F000F0008000800080008000000000032
:10E0B0000000000000000000000000000000000060
:10E0C0000000000000000000000000000000000050
:10E0D0000000000000000000000000000000000040
:10E0E0000000000000000000000000000000000030
:10EB40000000000000000000000000006B008102D7
:10EB500011241FBECFEFD1E2DEBFCDBF00E00CBF5E
:10EB600012E0A0E0B2E0E4E1FBEF00E00BBF02C086
:10EB700007900D92A833B107D9F722E0A8E3B2E0DD
:10EB800001C01D92AB33B207E1F70E94CC7B0C941D
:10EB9000887D0C94000010928900109288001092D9
:10EBA000800010929900109298001092900010929C
:10EBB000A9001092A8001092A000109229011092B2
:10EBC000280110922001089541E061E080E00E9458
:10EBD000627840E061E080E00E947A78EEE6F0E062
:10EBE00080818260808384E687BD089540E061E093
:10EBF00080E00E94047920E041E061E081E00E9431
:10EC00001C7920E040E060E081E00E943D79259A97
:10EC1000109287001092860010928900109288004E
:10EC2000089540E061E080E00E945E7920E041E0EC
:10EC300061E081E00E94767920E040E060E081E0E0
:10EC40000E9497796B9A10929700109296001092FA
:10EC5000990010929800089540E061E080E00E94E1
:10EC6000B87920E041E061E081E00E94D07920E0C5
:10EC700040E060E081E00E94F179E1E0F1E0808134
:10EC8000886080831092A7001092A6001092A900BD
:10EC90001092A800089540E061E080E00E94127A9E
:10ECA00020E041E061E081E00E942A7A20E040E03B
:10ECB00060E081E00E944B7AEAE0F1E080818860C8
:10ECC0008083109227011092260110922901109240
:10ECD000280108950E94F6750E9411760E942C76F4
:10ECE0000C944B76CF939C01C62F892BE9F46111CC
:10ECF00006C01092890010928800CF91089561306B
:10ED000029F41092990010929800F7CF623029F4FC
:10ED10001092A9001092A800F0CF633071F7109202
:10ED2000290110922801E9CF64E0220F331F6A9570
:10ED3000E1F750E040E060E074E284EF90E00E9490
:10ED40000C7C21503109C1110BC0309387002093F6
:10ED50008600369527953093890020938800CDCF83
:10ED6000C13059F43093970020939600369527953B
:10ED70003093990020939800C0CFC23059F430935B
:10ED8000A7002093A600369527953093A9002093DD
:10ED9000A800B3CFC33009F0B0CF30932701209340
:10EDA0002601369527953093290120932801A5CF78
:10EDB000AF92BF92CF92DF92EF92FF920F931F9389
:10EDC000CF93DF93EC018B010E946A76C801880F14
:10EDD000991FFE01E80FF91FA590B490FC01E056C1
:10EDE000F04FEC0FFD1FC590D490FC01E05CF04E9D
:10EDF000EC0FFD1FE590F490FC01E052F14DEC0F9B
:10EE0000FD1FC591D491C8010E94497880E092E02D
:10EE10000E94B17760E0C5010E94727684E092E0C2
:10EE20000E94B177C5010E94497881E092E00E947A
:10EE3000B17761E0C6010E94727689E092E00E949B
:10EE4000B177C6010E94497881E092E00E94B177D3
:10EE500062E0C7010E9472768EE092E00E94B17774
:10EE6000C7010E94497881E092E00E94B17763E097
:10EE7000CE010E94727683E192E00E94B177CE01CA
:10EE80000E94497881E092E00E94B17710923902A5
:10EE9000109238021092B200DF91CF911F910F9122
:10EEA000FF90EF90DF90CF90BF90AF9008951F92AA
:10EEB0000F920FB60F9211240BB60F922F933F9320
:10EEC0004F935F936F937F938F939F93AF93BF9372
:10EED000EF93FF93809138029091390201969093BD
:10EEE00039028093380280913802909139028C3235
:10EEF000914059F4109239021092380288E192E060
:10EF00000E94B17781E080933A02FF91EF91BF9127
:10EF1000AF919F918F917F916F915F914F913F91B1
:10EF20002F910F900BBE0F900FBE0F901F90189552
:10EF30001092C50088E08093C4008093C10086E0F1
:10EF40008093C20008959091C00095FFFCCF8093FC
:10EF5000C60008958091C00087FFFCCF8091C60055
:10EF60000895CF93DF93EC018991811103C0DF9164
:10EF7000CF9108950E94A377F7CFAF92BF92CF921F
:10EF8000DF92EF92FF920F931F93CF93DF9300D006
:10EF90000F920F92CDB7DEB79C01892B91F480E3DD
:10EFA0000F900F900F900F900F90DF91CF911F91C6
:10EFB0000F91FF90EF90DF90CF90BF90AF900C94A7
:10EFC000A377CE0101967C016C01F0E0E0E08AE0DD
:10EFD000A82EB12C3196C901B5010E94F87B805D45
:10EFE000D6018D936D01C9019B010A9798F78F0196
:10EFF0000E0D1F1DF80182918F010E94A3770E153F
:10F000001F05C1F70F900F900F900F900F90DF9199
:10F01000CF911F910F91FF90EF90DF90CF90BF9015
:10F02000AF9008951F93CF93DF93CDB7DEB760976E
:10F030000FB6F894DEBF0FBECDBF182F80E1E7E218
:10F04000F2E0DE01119601900D928A95E1F7E12F31
:10F05000E295EF7081E090E08C0F9D1F8E0F911D67
:10F06000FC0180810E94A377E12FEF7081E090E0A6
:10F070008C0F9D1F8E0F911DFC01808160960FB635
:10F08000F894DEBF0FBECDBFDF91CF911F910C94DE
:10F09000A377CF93DF93EC0197FF06C08DE20E9428
:10F0A000A377D195C195D109CE01DF91CF910C9471
:10F0B000BD77CF93C82F892F0E9412788C2FCF91C4
:10F0C0000C941278CF93DF93D62FC42F42E0682F91
:10F0D00085E490E00E94977A41E06D2F85E490E00E
:10F0E0000E94977A40E06C2F85E490E0DF91CF9109
:10F0F0000C94977ACF93DF93C82FD62F642F40E0DC
:10F1000084E490E00E94977A41E06D2F84E490E0DF
:10F110000E94977A43E06C2F85E490E0DF91CF91D5
:10F120000C94977A1F93CF93DF93162FD42FC22F6F
:10F1300047E0682F84E490E00E94977A46E0612FD0
:10F1400084E490E00E94977A45E06D2F84E490E09B
:10F150000E94977A44E06C2F84E490E0DF91CF9195
:10F160001F910C94977ACF93DF93D62FC42F40E052
:10F17000682F81EB90E00E94977A41E06D2F81EB40
:10F1800090E00E94977A42E06C2F81EB90E0DF9153
:10F19000CF910C94977ACF93DF93C82FD62F642FFB
:10F1A00040E080EB90E00E94977A41E06D2F80EB89
:10F1B00090E00E94977A43E06C2F81EB90E0DF9122
:10F1C000CF910C94977A1F93CF93DF93162FD42F60
:10F1D000C22F47E0682F80EB90E00E94977A46E0CC
:10F1E000612F80EB90E00E94977A45E06D2F80EBD5
:10F1F00090E00E94977A44E06C2F80EB90E0DF91E2
:10F20000CF911F910C94977ACF93DF93D62FC42F71
:10F2100042E0682F81E890E00E94977A41E06D2FEC
:10F2200081E890E00E94977A40E06C2F81E890E0BE
:10F23000DF91CF910C94977A1F93CF93DF93C82FD0
:10F24000D62F142F622F40E080E890E00E94977A3A
:10F2500041E0612F80E890E00E94977A43E06D2FB3
:10F2600081E890E00E94977A44E06C2F81E890E07A
:10F27000DF91CF911F910C94977A1F93CF93DF93D7
:10F28000162FD42FC22F47E0682F80E890E00E940D
:10F29000977A46E0612F80E890E00E94977A45E0F7
:10F2A0006D2F80E890E00E94977A44E06C2F80E810
:10F2B00090E0DF91CF911F910C94977ACF93DF93D9
:10F2C000D62FC42F42E0682F81E990E00E94977A00
:10F2D00041E06D2F81E990E00E94977A40E06C2F29
:10F2E00081E990E0DF91CF910C94977A1F93CF93AF
:10F2F000DF93C82FD62F142F622F40E080E990E0D3
:10F300000E94977A41E0612F80E990E00E94977A0D
:10F3100043E06D2F81E990E00E94977A44E06C2FE2
:10F3200081E990E0DF91CF911F910C94977A1F9320
:10F33000CF93DF93162FD42FC22F47E0682F80E999
:10F3400090E00E94977A46E0612F80E990E00E9469
:10F35000977A45E06D2F80E990E00E94977A44E02B
:10F360006C2F80E990E0DF91CF911F910C94977AF8
:10F37000CF93DF93D62FC42F42E0682F81EA90E02D
:10F380000E94977A41E06D2F81EA90E00E94977A7F
:10F3900040E06C2F81EA90E0DF91CF910C94977A56
:10F3A0001F93CF93DF93C82FD62F142F622F40E0E7
:10F3B00080EA90E00E94977A41E0612F80EA90E035
:10F3C0000E94977A43E06D2F81EA90E00E94977A3D
:10F3D00044E06C2F81EA90E0DF91CF911F910C9473
:10F3E000977A1F93CF93DF93162FD42FC22F47E026
:10F3F000682F80EA90E00E94977A46E0612F80EAC9
:10F4000090E00E94977A45E06D2F80EA90E00E949C
:10F41000977A44E06C2F80EA90E0DF91CF911F91C2
:10F420000C94977ACF93DF93D62FC42F42E0682FA6
:10F4300081E291E00E94977A41E06D2F81E291E0B4
:10F440000E94977A40E06C2F81E291E0DF91CF91AA
:10F450000C94977A1F93CF93DF93C82FD62F142F36
:10F46000622F40E080E291E00E94977A41E0612FB4
:10F4700080E291E00E94977A43E06D2F81E291E073
:10F480000E94977A44E06C2F81E291E0DF91CF9166
:10F490001F910C94977A1F93CF93DF93162FD42F3D
:10F4A000C22F47E0682F80E291E00E94977A46E001
:10F4B000612F80E291E00E94977A45E06D2F80E213
:10F4C00091E00E94977A44E06C2F80E291E0DF9116
:10F4D000CF911F910C94977AFC0181E090E001C0DC
:10F4E000880F6A95EAF780830895FC01808121E006
:10F4F00030E001C0220F6A95EAF7822780830895E1
:10F50000FC01808121E030E001C0220F6A95EAF71A
:10F51000822B80830895FC01208181E090E001C06E
:10F52000880F6A95EAF78095822380830895FC010D
:10F53000662351F0808121E030E001C0220F4A951E
:10F54000EAF7822B80830895642F0C948B7AFC0158
:10F55000808121E030E001C0220F6A95EAF7822322
:10F5600081700895FC01108208950F931F93CF932B
:10F57000DF9300D00F920F92CDB7DEB749835A8345
:10F580006B837C838D83E981FA81002349F080813C
:10F5900041E050E001C0440F6A95EAF7842B808374
:10F5A000112351F080819C8141E050E001C0440F63
:10F5B0009A95EAF7842B8083222351F080819D81E4
:10F5C00021E030E001C0220F9A95EAF7822B808378
:10F5D0000F900F900F900F900F90DF91CF911F9190
:10F5E0000F910895CF93DF9300D00F920F92CDB774
:10F5F000DEB749835A836B837C838D83E981FA81EB
:10F600004081262F81E090E0BC0102C0660F771F89
:10F610002A95E2F79B0120952423208340812C81A9
:10F62000BC0102C0660F771F2A95E2F79B01209567
:10F630002423208320813D8101C0880F3A95EAF779
:10F640008095822380830F900F900F900F900F90E2
:10F65000DF91CF9108959FE9980F9A3110F480526D
:10F6600008959FEB980F9A3108F4805E089590ED0D
:10F67000980F9A3038F09FE9980F81E0963018F093
:10F6800080E0089581E00895982F80ED890F8A30F9
:10F6900030F08FE9890F863050F489EA890F82951E
:10F6A000807F90ED960F9A3020F4890F089580E0C6
