:100000000C9472000C948B000C948B000C948B005D
:100010000C948B000C948B000C948B000C948B0034
:100020000C948B000C948B000C948B000C948B0024
:100030000C948B000C948B000C948B000C948B0014
:100040000C948B000C948B000C948B000C948B0004
:100050000C948B000C948B000C948B000C948B00F4
:100060000C948B000C948B000C948B000C948B00E4
:100070000C948B000C948B000C948B000C948B00D4
:100080000C948B000C948B000C948B000C948B00C4
:100090000C948B000C948B000C948B000C948B00B4
:1000A0000C948B000C948B000C948B000C948B00A4
:1000B0000C948B000C948B000C948B000C948B0094
:1000C0000C948B000C948B000C948B000C948B0084
:1000D0000C948B000C948B000C948B000C948B0074
:1000E0000C948B0011241FBECFEFD1E2DEBFCDBF39
:1000F00000E00CBF12E0A0E0B2E0EEE6F3E000E0CA
:100100000BBF02C007900D92A031B107D9F70E9432
:1001100022010C94B5010C940000CF92DF92EF9273
:10012000FF920F931F93CF93DF93FC01A081B181C6
:100130002C91328181E090E001C0880F3A95EAF776
:10014000809582238C93442309F452C0DB01EB0198
:10015000219641508E01040F111D41E050E06D9138
:1001600070E030E020E01AC0888194817A0101C0FB
:10017000EE0C9A95EAF78E298883C081D181888117
:1001800093817A0101C0EE0C9A95EAF78E29888353
:1001900000002F5F3F4F2830310531F1C081D18100
:1001A000F88083816A0102C0CC0CDD1C8A95E2F7DD
:1001B000C60180958F218883CB01022E02C09595C0
:1001C00087950A94E2F7C081D18180FDCDCFF88078
:1001D00084816A0102C0CC0CDD1C8A95E2F7C6015D
:1001E00080958F218883C9CF0A171B0709F0B7CFE5
:1001F000A081B1818C91928121E030E001C0220F79
:100200009A95EAF7822B8C93DF91CF911F910F91F2
:10021000FF90EF90DF90CF90089581B1856581B90F
:1002200087B18A7A87B9EAE0F1E080818A7A8083AF
:1002300012B888B1856588B9EBE0F1E08081856509
:1002400080830895CF93DF93CDB7DEB760970FB665
:10025000F894DEBF0FBECDBF0E940D018FEF8D87DA
:100260008E878F87888B80E090E0DC0190E0A0E0B3
:10027000B0E089879A87AB87BC8781E090E0A0E0F7
:10028000B0E091E0A1E0B1E08D839E83AF83B887B9
:1002900081E090E0A0E0B0E091E0A1E0B1E08983EE
:1002A0009A83AB83BC8344E0BE01635F7F4F80E0F1
:1002B00092E00E948D002FEF87EA91E62150804066
:1002C0009040E1F700C0000086B180748D8386B154
:1002D00080718E8386B184708F8386B181708887A8
:1002E00080910901807489838091090180718A83DA
:1002F0008091090184708B838091090181708C83C6
:100300009D8181E0911180E089879E8181E091113A
:1003100080E08A879F8181E0911180E08B879885BA
:1003200081E0911180E08C87898190E8811190E0D3
:100330008985892B89878A8190E8811190E08A8557
:10034000892B8A878B8190E8811190E08B85892B9E
:100350008B878C8190E8811190E08C85892B8C872C
:0E03600044E0BE01675F7F4FA2CFF894FFCF4D
:10036E002200000204C0F9A4B0999282F880900095
:00000001FF
