:100000000C9472000C948B000C948B000C948B005D
:100010000C948B000C948B000C948B000C948B0034
:100020000C948B000C948B000C948B000C948B0024
:100030000C948B000C948B000C948B000C948B0014
:100040000C948B000C948B000C948B000C948B0004
:100050000C948B000C948B000C948B000C948B00F4
:100060000C948B000C948B000C948B000C948B00E4
:100070000C948B000C948B000C948B000C948B00D4
:100080000C948B000C948B000C948B000C948B00C4
:100090000C948B000C948B000C948B000C948B00B4
:1000A0000C948B000C948B000C948B000C948B00A4
:1000B0000C948B000C948B000C948B000C948B0094
:1000C0000C948B000C948B000C948B000C948B0084
:1000D0000C948B000C948B000C948B000C948B0074
:1000E0000C948B0011241FBECFEFD1E2DEBFCDBF39
:1000F00000E00CBF12E0A0E0B2E0E2EAF2E000E0D3
:100100000BBF02C007900D92A630B107D9F70E942D
:1001100012010C944F010C940000CF92DF92EF92E9
:10012000FF920F931F93CF93DF93FC01A081B181C6
:100130002C91328181E090E001C0880F3A95EAF776
:10014000809582238C93442309F452C0DB01EB0198
:10015000219641508E01040F111D41E050E06D9138
:1001600070E030E020E01AC0888194817A0101C0FB
:10017000EE0C9A95EAF78E298883C081D181888117
:1001800093817A0101C0EE0C9A95EAF78E29888353
:1001900000002F5F3F4F2830310531F1C081D18100
:1001A000F88083816A0102C0CC0CDD1C8A95E2F7DD
:1001B000C60180958F218883CB01022E02C09595C0
:1001C00087950A94E2F7C081D18180FDCDCFF88078
:1001D00084816A0102C0CC0CDD1C8A95E2F7C6015D
:1001E00080958F218883C9CF0A171B0709F0B7CFE5
:1001F000A081B1818C91928121E030E001C0220F79
:100200009A95EAF7822B8C93DF91CF911F910F91F2
:10021000FF90EF90DF90CF90089581B1856581B90F
:1002200012B80895CF93DF9300D000D01F921F9291
:10023000CDB7DEB781B1856581B912B880E18F8312
:1002400080EC888780E28D8389EF8E8380E48B83C6
:1002500082E88C8380E8898382E98A8342E0BE0158
:10026000695F7F4F80E092E00E948D0042E0BE0116
:100270006B5F7F4F80E092E00E948D0042E0BE0104
:100280006D5F7F4F80E092E00E948D0042E0BE01F2
:100290006F5F7F4F80E092E00E948D00DFCFF89487
:0202A000FFCF8E
:0602A2002200000204002E
:00000001FF
