:100000000C94BE580C94DF580C94DF580C94DF58B5
:100010000C94DF580C94DF580C94DF580C94DF5884
:100020000C94DF580C94DF580C94DF580C94DF5874
:100030000C94DF580C94DF580C94DF580C94DF5864
:100040000C94DF580C94DF580C94DF580C94DF5854
:100050000C94DF580C94325A0C94DF580C94DF58EF
:100060000C94DF580C94DF580C94DF580C94DF5834
:100070000C94DF580C94DF580C94DF580C94DF5824
:100080000C94DF580C94DF580C94DF580C94DF5814
:100090000C94DF580C94DF580C94DF580C94DF5804
:1000A0000C94DF580C94DF580C94DF580C94DF58F4
:1000B0000C94DF580C94DF580C94DF580C94DF58E4
:1000C0000C94DF580C94DF580C94DF580C94DF58D4
:1000D0000C94DF580C94DF580C94DF580C94DF58C4
:1000E0000C94DF5800000000000000000000000039
:1000F0000000D201D201D201D201D201D20100000E
:100100000000D201D201D201D201D201D2010000FD
:100110000000D201D201D201D2010000D201D201ED
:10012000D201D201D201000000000000D201D201B0
:10013000D201D201D201D201D201D201D201D20127
:1001400000005D0100005D015D015D015D010000D9
:100150005D015D0100005D01D201D201D20100000C
:100160005D015D015D015D010000D201D2010B0264
:100170004B02BA02BA02BA02BA02BA02BA02BA020E
:100180000000BA02BA02BA02E4023F03A403A403C5
:10019000A403A403A403A403A403A403A403A40327
:1001A000A4033F03E4023F030000E402E402BA02B6
:1001B000BA02BA02BA02BA02BA02BA02BA02BA025F
:1001C0006E026E026E020000E402E402E402E40247
:1001D000E402E402BA02BA026E022A022A022A02E7
:1001E000BA02BA02BA02BA02BA02BA02BA026E027B
:1001F0006E022A020B020B020B029302930293027D
:100200009302930293029302100310031003BA02A5
:10021000000000005D015D015D0100005D015D0108
:100220005D015D0100005D01D201D20100005D01B0
:100230005D015D015D015D010000D201D2010000A0
:100240006E02BA02BA02BA02BA02BA02BA02BA021A
:100250000000BA020000BA02E4023F03A403A403B0
:10026000A403A403A403A403A403A403A403A40356
:100270005504550455041704170400007003700357
:1002800070037003700370030000BA02BA02BA026E
:10029000E402E402E402E402E402E402E402000014
:1002A00000000000A403A403A40370037003000073
:1002B000BA02BA02BA02BA02BA02BA020000BA021A
:1002C000BA02BA02E402E402E402E402E402E40252
:1002D0000000000000000000A403A403A4037003B6
:1002E00070030000BA02BA02BA02BA02BA02BA0233
:1002F000BA024B024B024B026E026E026E026E029B
:100300006E026E020000000000000000E402E40241
:10031000E402BA02BA0200002A022A022A022A02CF
:100320002A022A022A02D201D201D2010B020000C3
:100330004B0293029302930293029302930293025D
:10034000100310031003BA025D015D015D0100009E
:1003500000005D0100005D0100005D015D01000025
:10036000000000000000000000000000000000008D
:10037000000000000000000000000000000000007D
:10038000000000000000000000000000000000006D
:10039000000000000000000000000000000000005D
:1008C000000026012601260126012601260100003E
:1008D000000026012601260126010601060100006E
:1008E00000000601060106010601000000000601E5
:1008F00006010601150100000000000015011501A8
:100900001501150115011501150115011501150137
:100910001501DC000000DC00DC00DC00DC00000075
:10092000DC00DC000000DC002601260126010000BE
:1009300026012601060126010000260126013701B5
:100940005D012A002A002A00D2010B024B026E022E
:10095000BA02BA02BA022A00D2010B022A022A0201
:100960002A0272012A00D2010B022A022A022A025A
:100970002A020B02D2012A0200002A002A002A00C1
:100980002A0072012A0000002A002A0072012A00AF
:100990007201720172010000000000002A00D20101
:1009A000D201D2012A002A007201000000005D017C
:1009B00000000000000072012A002A002A007201D3
:1009C00072015D014A014A014A014A014A014A0194
:1009D0005D0100000000B801D201D2010B02B80194
:1009E00000000000DC00DC00DC000000DC00DC00BB
:1009F000DC00DC000000DC002601260100002601EE
:100A0000260126010601260100002601260100001C
:100A100088012A002A002A00D2010B024B026E0232
:100A2000BA02BA02BA022A00D2010B022A022A0230
:100A30002A022A022A022A022A022A022A022A0256
:100A40009302930293026E026E0200000B020B02ED
:100A50000B020B020B020B020000B801B801B80137
:100A6000EE01EE01EE01EE01EE01EE01EE010000FD
:100A7000000000002A022A022A020B020B020000D8
:100A8000B801B801B801B801B801B8010000B80157
:100A9000B801B801EE01EE01EE01EE01EE01EE014A
:100AA00000000000000000002A022A022A020B02B5
:100AB0000B020000B801B801B801B801B801B801D3
:100AC000B801B801B801B801720172017201720176
:100AD000720172010000000000000000EE01EE0152
:100AE000EE01D201D20100005D015D015D015D01F9
:100AF0005D015D015D011501150115014A014A0104
:100B00004A014A014A014A01000000000000B80100
:100B1000D2010B020B02B801DC00DC00DC0000009B
:100B20000000DC000000DC000000DC00DC00000055
:100B300000000000000000000000000000000000B5
:100B400000000000000000000000000000000000A5
:100B50000000000000000000000000000000000095
:100B60000000000000000000000000000000000085
:101090000000750075000000000075007500750007
:1010A0007500000075007500750068006800680034
:1010B0000000000068006800680068000000680028
:1010C000680068005C005C005C000000000000003C
:1010D0005C005C005C0000005C005C005C005C008C
:1010E0005C000000000057000000000057000000F6
:1010F0000000620062006E00750000000000000049
:10110000000000006800750000000000750000008D
:101110000000680000000000000000000000000067
:101120006800000000006800000000005C00000093
:10113000000000000000000000005C000000000053
:101140005C00000000008B008B00000000008B00A2
:101150008B007B008B00000000008B008B000000E8
:101160007B007B00000000007B007B0075007B00A3
:10117000000000007B007B007B0075007500000014
:1011800075007500750068007500000000007500AE
:1011900075007500830083000000830083008300D6
:1011A0007500830000000000830083008300570067
:1011B000000000005700570000000000570000002A
:1011C0000000620062006E00750000000000750003
:1011D00075000000000075000000000075000000B0
:1011E00000006800000000006800680000000000C7
:1011F0006800000000006800000000005C000000C3
:1012000000005C005C00000000005C0000000000CA
:101210005C0000000000570000000000570057006D
:101220004E004E0057000000000057000000000074
:10123000520075008B00A500E900150100004A016D
:10124000000000000000000000005D010000000040
:101250005700570057000000570000000000000032
:1012600000000000520075008B00A500E900150188
:101270004A014A01000000000000000000005D017A
:1012800000000000570057005700570057000000AB
:1012900000000000000000007B00000000007B0058
:1012A0007B0075007B007B00000000000000000058
:1012B0007B00750000000000750075006800750077
:1012C0000000000000000000000075008300000026
:1012D0000000830083008300830000000000000002
:1012E00000000000830057000000000057000000CD
:1012F0000000000057000000000062006E006E0059
:1013000000000000000000000000000000000000DD
:1013100000000000000000000000000000000000CD
:1013200000000000000000000000000000000000BD
:1013300000000000000000000000000000000000AD
:1018600000004900490000000000000000000000E6
:1018700000000000490049004900490049004900B2
:10188000000000000000000000000000000049000F
:1018900049004900490049004900000000000000DB
:1018A0000000000000000000490049004900490014
:1018B0000000000000004900000000004900000096
:1018C000000049000000490049000000000000003D
:1018D000000000004900490000000000490000002D
:1018E00000004900000000000000000000000000AF
:1018F000490000000000490000000000490000000D
:10190000000000000000000000004900000000008E
:101910004900000000004900000000000000000035
:101920000000000049000000000049000000000025
:101930004900000000000000000000000000490015
:101940000000000049000000000049000000000005
:1019500049000000000000004900000000004900AC
:1019600000000000490000000000490000000000E5
:10197000000049000000000049000000000049008C
:1019800000000000490000000000000049000000C5
:10199000000049000000000049000000000049006C
:1019A000490000000000490000000000490000005C
:1019B000000049000000000049004900000000004C
:1019C000490000000000490000000000490000003C
:1019D000000049004900000000004900000000002C
:1019E00049000000000049000000000049004900D3
:1019F000490000004900000000004900000000000C
:101A00004900000000004900490049000000490069
:101A10000000000049000000000049000000000034
:101A20004900490049000000490000000000490049
:101A30000000000049000000000049004900490082
:101A40004900490000000000490000000000490072
:101A50000000000049004900490049004900000019
:101A6000000049000000000049000000000049009B
:101A700049004900490049000000000049000000F9
:101A800000004900000000004900490049004900E9
:101A900000000000000049000000000049000000B4
:101AA0000000490049004900490000000000000012
:101AB0004900000000004900000000004900490002
:101AC000490049000000000000004900000000003B
:101AD0000000000000000000000000000000000006
:101AE00000000000000000000000000000000000F6
:101AF00000000000000000000000000000000000E6
:101B000000000000000000000000000000000000D5
:102020000000000002020303070704040302020287
:1020300002020C00030707070401020202020C0C53
:10204000000303070707030202020206030002035C
:10205000030200030204020203030003030202005E
:1020600003020303020303030303030E0303020338
:102070000302030303030303020303020303020433
:102080000303070707020103020703020703000512
:1020900005070203030207070D05030D05050702E7
:1020A0000303020707020703020707070D010302E4
:1020B00007070200000207030002030302040702ED
:1020C00003000202030302000302000302030302EF
:1020D0000203030E030202030302030302020303CB
:1020E00002030302030302030002020207020300C9
:1020F000020303020707020202030C00000B0303A2
:10210000020300020202030203000B03030207079B
:102110000202020C0C00000B030302030002020285
:10212000020203030B03030203030202020C0C006E
:10213000000B0307020300020202020303030B0366
:10214000070202030202020D0101030B030702034F
:10215000030208080B04030002070400000000004B
:10216000000000000000000000000000000000006F
:10217000000000000000000000000000000000005F
:10218000000000000000000000000000000000004F
:10219000000000000000000000000000000000003F
:102400000000000000000000000000002C013F015F
:1024100002000000000000000000000000000000BA
:1024200000000000000000000000000000000000AC
:10243000000000000000000000000000000000009C
:10244000000000000000000000000000000000008C
:10245000000000000000000000000000000000007C
:10435000000000000000000000000000000001005C
:10436000000000000000000100000000000000004C
:10437000000001000000000000000000000000003C
:10438000000000000000000000000000000000002D
:10439000000000000000000000000000000000001D
:1043A000000000000000000000000000000000000D
:1043B00000000000000000000000000000000000FD
:10473000000000000000000000000000D00727007B
:1047400000000000000000000000000C00000C3C15
:10475000000C3CEF0C3CEF8F3CEF8F00EF8F00CF55
:104760008F00CF9F00CF9FF1CF9FF1E39FF1E30038
:10477000F1E300FFE300FF1800FF1818FF1818FF0F
:104780001818FF0018FF00FFFF00FFDB00FFDBDB56
:10479000FFDBDBC3DBDBC300DBC300FFC300FFDCED
:1047A00000FFDCD6FFDCD663DCD66300D663007E78
:1047B000C3007EC3007EC3C37EC3C37EC3C37E006B
:1047C000C37E00007E00000000000000000000002A
:1047D0000C3CEF8FCF9FF1E3FF1818FFFFDBDBC32B
:1047E000FFDCD6637EC3C37E00000000BA02700304
:1047F000BA02DC03100310031704700317047003DC
:1048000097049704DC0327051704270517041704EA
:10481000270517042705170427052705170427056B
:10482000170427051704170427051704270517047D
:104830002705270500000000000000000000000020
:104840000000000000000000000000000000000068
:104850000000000000000000000000000000000058
:104860000000000000000000000000000000000048
:104870000000000000000000000000000000000038
:104880000000000000000000000000000000000028
:104890000000000000000000000000000000000018
:1048A0000000000000000000000000000000000008
:1048B00000000000000000000000000000000000F8
:1048C00000000000000000000000000000000000E8
:1048D00000000000000000000000000000000000D8
:1048E00000000000000000000000000000000000C8
:1048F0001704700370037003000017041704DC032F
:10490000DC03000017041704DC03DC03DC031003E2
:1049100010031003100310031003100310031003FF
:104920001003700370032705270597049704970465
:1049300017041704DC03DC03DC0317041704DC038F
:10494000DC03DC030000100310031003100310034A
:1049500010031003100310031003100300001704CA
:1049600070037003700300001704DC03DC03DC0336
:10497000000017041704DC03DC030000100310031D
:10498000100310031003100310031003100310038F
:104990007003700370037003BA02BA02BA027003A4
:1049A000700310031003100370037003100310034F
:1049B00010030B020B020B020B020B020B020B0289
:1049C0000B020B020B020B020B02170417047003FD
:1049D0007003700300001704DC03DC03DC03000039
:1049E0001704DC03DC03DC030000100310031003D6
:1049F00010031003100310031003100310037003BF
:104A0000700327052705970497040000170417046F
:104A1000DC03DC03DC0317041704DC03DC03DC0326
:104A200010031003100310031003100310031003EE
:104A30001003100310030000170417047003700321
:104A4000700317041704DC03DC03DC030000170405
:104A5000DC03DC03DC03000010031003100310036D
:104A60001003100310031003100300007003700301
:104A70007003BA02BA02BA02000070037003100396
:104A800010030000700370031003100310030B02E7
:104A90000B020B020B0293024B024B024B024B0226
:104AA0004B024B024B024B024B024B024B024B029E
:104AB0004B024B024B024B024B024B024B024B028E
:104AC0004B024B024B020B024B024B02930293022E
:104AD000930293029302930293029302930293022E
:104AE000930293029302930293029302930293021E
:104AF0009302930293029302930293020B020B021E
:104B00000B02930293026E026E026E026E026E023E
:104B10006E026E026E026E026E026E026E026E0215
:104B20006E026E026E026E026E026E026E026E0205
:104B30006E020B020B026E026E024B024B024B0224
:104B40004B024B024B0200004B024B024B024B024A
:104B50004B024B02000027052705270527052705DF
:104B600075052705270520062006270527052705A3
:104B700017041704000000000000000000000000FF
:104B800000001704170470037003000017041704D3
:104B9000DC03DC03DC0317041704DC03DC03DC03A5
:104BA000100310031003100310031003100310036D
:104BB00010031003000070032705270597049704CE
:104BC000970417041704DC03DC03DC03000017045C
:104BD000DC03DC03DC0300001003100310031003EC
:104BE0001003100310031003100310031003000040
:104BF0001704700370037003000017041704DC032C
:104C0000DC03000017041704DC03DC03DC031003DF
:104C100010031003100310031003100310031003FC
:104C200010037003700370037003BA02BA02BA0271
:104C3000700370031003100310037003700310035C
:104C40001003100300000B020B020B020B020B02FD
:104C50000B020B020B020B020B020B0200001704EB
:104C600070037003700300001704DC03DC03DC0333
:104C7000000017041704DC03DC030000100310031A
:104C8000100310031003100310031003100310038C
:104C900070037003270527059704970497041704EA
:104CA0001704DC03DC03DC0317041704DC03DC0358
:104CB000DC03100310031003100310031003100390
:104CC00010031003100310031003170417047003DC
:104CD0007003700300001704DC03DC03DC03000036
:104CE0001704DC03DC03DC030000100310031003D3
:104CF00010031003100310031003100310037003BC
:104D0000700370037003BA02BA02000070037003EC
:104D1000100310031003700370031003100310033B
:104D20000B020B020B020B0293024B024B024B02D3
:104D30004B024B024B024B024B024B024B024B020B
:104D40004B024B024B024B024B024B024B024B02FB
:104D50004B024B024B024B020B024B024B029302E3
:104D6000930293029302930293029302930293029B
:104D7000930293029302930293029302930293028B
:104D800093029302930293029302930293020B0203
:104D90000B020B020B0293026E026E026E026E0297
:104DA0006E026E026E026E026E026E026E026E0283
:104DB0006E026E026E026E026E026E026E026E0273
:104DC0006E026E026E020B026E026E024B024B020C
:104DD0004B024B024B024B0200004B024B024B02B8
:104DE0004B024B024B02000027052705270527052C
:104DF00027057505750527052006200627052705C3
:104E00002705170417040000000000000000000040
:104E10000000000000000000000000000000000092
:104E20000000000000000000000000000000000082
:104E30000000000000000000000000000000000072
:104E40000000000000000000000000000000000062
:104E50000000000000000000000000000000000052
:104E60000000000000000000000000000000000042
:104E70000000000000000000000000000000000032
:104E80000000000000000000000000000000000022
:104E90000000000000000000000000000000000012
:104EA0000000000000000000000000000000000002
:104EB00000000000000000000000000000000000F2
:104EC00000000000000000000000000000000000E2
:104ED00000000000000000000000000000000000D2
:104EE00000000000000000000000000000000000C2
:104EF00000000000000000000000000000000000B2
:104F000000000000000000000000000000000000A1
:104F10000000000000000000000000000000000091
:104F20000000000000000000000000000000000081
:104F30000000000000000000000000000000000071
:104F40000000000000000000000000000000000061
:104F50000000000000000000000000000000000051
:104F60000000000000000000000000000000000041
:104F70000000000000000000000000000000000031
:104F80000000000000000000000000000000000021
:104F90000000000000000000000000000000000011
:104FA0000000000000000000000000000000000001
:104FB00000000000000000000000000000006E0083
:104FC0006E00DC00DC006E0075007500E900E90091
:104FD0007B00F700F70083000000000000000000E5
:104FE00083000000830000000000830000008300B5
:104FF00000000000000000008300000083000000AB
:10500000000083000000830000000000000000009A
:105010008300000083000000000083000000830084
:105020000000000000000000830083008300830074
:105030006E006E006E0075007500750075007B00D7
:105040007B007B00830000000000830000008300E1
:10505000000000000000000083000000830000004A
:10506000000083000000830000000000000000003A
:105070008300000083000000000083000000830024
:10508000000000000000000083000000830000001A
:10509000000083000000830000000000000000000A
:1050A0008300000083000000830093009300A500AC
:1050B000A500000000000000AF000000AF000000ED
:1050C0000000AF000000AF00000000000000000082
:1050D000A5000000A50000000000A500000083005E
:1050E000830093009300A500AF000000AF00000014
:1050F0000000AF000000AF00000000000000000052
:10510000AF000000A50000000000A5000000A50001
:10511000000000000000830093009300A500A5009C
:105120000000AF000000AF00000000000000000021
:10513000AF000000AF0000000000A5000000A500C7
:105140000000000000000000A5000000A500000015
:105150000000A50000009300000000000000000017
:1051600093000000930000000000930000009300F3
:105170000000000000000000830000008300000029
:1051800000008300830093009300A500A5000000A9
:10519000AF000000AF0000000000AF000000AF0053
:1051A0000000000000000000A5000000A5000000B5
:1051B0000000A5000000A50000008300830093000C
:1051C000A500A500AF0000000000AF000000AF0088
:1051D0000000000000000000AF000000AF00000071
:1051E0000000A5000000A500000000000000000075
:1051F0008300830093009300A500AF000000AF0080
:105200000000000000000000AF000000AF00000040
:105210000000AF000000A50000000000000000003A
:10522000A5000000A50000000000A5000000A500EA
:105230000000000000000000930000009300000048
:105240000000930000009300000000000000000038
:105250008300000083000000000083000000830042
:10526000000000000000000075007500750075006A
:1052700075006E006E006E006E006E000000620031
:10528000620062006200620057005700570057003A
:1052900000005200000000004900490049000000E1
:1052A0006E006E006E006E0000007B007B007B00D5
:1052B0007B00000083008300830083008300930051
:1052C0009300930093009300A500000000000000ED
:1052D000DC00DC000000D000D000D000D000D00006
:1052E000C400C400C400C400C400AF00AF00AF00DD
:1052F000AF00AF00AF009C009C009C009C00000031
:10530000930000000000830083008300000062001F
:10531000620062006200000093009300930093001B
:10532000000062006200620062006200C400C4000B
:105330005200A500A50057005700AF00AF00620063
:10534000C400C400AF0000000000AF000000AF00C8
:105350000000000000000000AF000000AF000000EF
:105360000000A5000000A5000000000000000000F3
:105370008300830093009300A500AF000000AF00FE
:105380000000000000000000AF000000AF000000BF
:105390000000AF000000A5000000000000000000B9
:1053A000A5000000A5000000830093009300A50065
:1053B000A500000000000000AF000000AF000000EA
:1053C0000000AF000000AF0000000000000000007F
:1053D000A5000000A50000000000A5000000A50039
:1053E0000000000000000000930000009300000097
:1053F0000000930000009300000000000000000087
:105400009300000083000000000083000000830080
:10541000000000000000830093009300A500A50099
:105420000000AF000000AF0000000000000000001E
:10543000AF000000AF0000000000A5000000A500C4
:105440000000000000000000A500000083008300B1
:105450009300A500A500AF000000000000000000C0
:10546000AF000000AF0000000000AF000000AF0080
:105470000000000000000000A5000000A5000000E2
:1054800000008300830093009300A500A5000000A6
:10549000AF000000AF0000000000AF000000AF0050
:1054A0000000000000000000A5000000A5000000B2
:1054B0000000A5000000A5000000000000000000A2
:1054C000A50000009300000000009300000093007E
:1054D00000000000000000009300000093000000A6
:1054E00000008300000083000000000000000000B6
:1054F0008300000083000000000075007500750047
:105500007500750000006E006E006E006E000000F9
:10551000620062006200620062005700570057009C
:1055200057000000520000000000490049004900F7
:1055300000006E006E006E006E0000007B007B00BD
:105540007B007B007B00830083008300830083005B
:1055500093009300930093009300A50000000000C7
:105560000000DC00DC000000D000D000D000D00043
:10557000D000C400C400C400C400C4000000AF00D8
:10558000AF00AF00AF00AF009C009C009C009C00EF
:1055900000009300000000008300830083000000EF
:1055A00062006200620062000000930093009300BA
:1055B0009300000062006200620062006200C400AA
:1055C000C40052005200A50057005700AF00AF00C2
:1055D0006200C400C40000000000000000000000E1
:1055E00000000000000000000000000000000000BB
:1055F00000000000000000000000000000000000AB
:10560000000000000000000000000000000000009A
:10561000000000000000000000000000000000008A
:10562000000000000000000000000000000000007A
:10563000000000000000000000000000000000006A
:10564000000000000000000000000000000000005A
:10565000000000000000000000000000000000004A
:10566000000000000000000000000000000000003A
:10567000000000000000000000000000000000002A
:10568000000000000000000000000000000000001A
:10569000000000000000000000000000000000000A
:1056A00000000000000000000000000000000000FA
:1056B00000000000000000000000000000000000EA
:1056C00000000000000000000000000000000000DA
:1056D00000000000000000000000000000000000CA
:1056E00000000000000000000000000000000000BA
:1056F00000000000000000000000000000000000AA
:105700000000000000000000000000000000000099
:105710000000000000000000000000000000000089
:105720000000000000000000000000000000000079
:105730000000000000000000000000000000000069
:105740000000000000000000000000000000000059
:105750000000000000000000000000000000000049
:105760000000000000000000000000000000000039
:105770000000000000000000000000000000000029
:105780000000000000000000000000000000000019
:105790000000000000000000000000000000000009
:1057A0000000000000004A014A014A014A014A0182
:1057B000260126012601260126014A014A014A0145
:1057C0004A014A014A012601260126012601260135
:1057D0004A014A014A0126012601260126015D01EE
:1057E0005D015D015D015D014A014A014A014A0115
:1057F0004A0126012601260126012601260126014D
:105800002601260126012601260126012601260160
:1058100026012601260126012601260126014A012C
:105820004A014A014A014A015D015D015D015D01D4
:10583000260126012601260126014A014A014A01C4
:105840004A014A015D015D015D015D015D015D018E
:105850005D015D015D014A014A014A014A014A01B7
:105860004A014A014A014A014A014A014A014A01E0
:105870004A014A014A014A014A014A014A014A01D0
:105880004A010000000000000B020B0200000000B3
:1058900000000B020B0200000000000000000000EE
:1058A00000000000EE01EE01000000000000EE012B
:1058B000EE010000000000000000000000000000F9
:1058C0000B0200000000000000000B020B020000B1
:1058D00000000000000000000000EE01EE010000EA
:1058E000000000000000EE010000000000000000C9
:1058F0000000000000000B020B020000000000008E
:105900000B020B020000000000000000000000007D
:105910000000EE01EE01000000000000EE01EE01CB
:105920000000000000000000000000000000B801BE
:105930000000000000000000B801000000000000AE
:105940000000000000000000880188010000000045
:105950000000880188010000000000000000000035
:10596000000000000B020B020000000000000B0210
:105970000B0200000000000000000000000000001A
:10598000EE010000000000000000EE01EE0100004A
:10599000000000000000000000000B020B020000ED
:1059A0000000000000000B020000000000000000EA
:1059B000000000000000EE01EE0100000000000009
:1059C000EE01EE01000000000000000000000000F9
:1059D00000000B020B020000000000000B020B0293
:1059E0000000000000000000000000000000EE01C8
:1059F0000000000000000000EE01000000000000B8
:105A00000000000000000000B801B8010000000024
:105A10000000B801B8010000000000000000000014
:105A200000000000880188010000000000008801DB
:105A30008801000000000000A403A403A403A40341
:105A4000A4037003700370037003700370031003EA
:105A50001003100310031003BA02BA02BA02BA020A
:105A6000BA029302930293024B024B024B024B0287
:105A7000B801B801B801B801B801EE01EE01EE01BC
:105A8000EE01EE010B020B020B020B020B024B02AA
:105A90004B024B024B024B0293029302930293027E
:105AA0007003700370033F033F033F033F033F0353
:105AB00010031003100310031003BA02BA02BA0253
:105AC000BA02BA02BA026E026E026E026E026E0272
:105AD0004B024B024B020B020B020B020B020B029E
:105AE000100310037003700310031003100310035E
:105AF000100370037003700300000000B801B801C8
:105B0000B801B801B801B801B801B801B801B801CD
:105B1000B801B8010000000000000B020B020000F9
:105B20000000000000000B02000000000000000068
:105B3000000000000000EE01EE0100000000000087
:105B4000EE01EE0100000000000000000000000077
:105B500000000B020B020000000000000B020B0211
:105B60000000000000000000000000000000EE0146
:105B70000000000000000000EE0100000000000036
:105B800000000000000000000B020B0200000000FB
:105B900000000B020B0200000000000000000000EB
:105BA00000000000EE01EE01000000000000EE0128
:105BB000EE010000000000000000000000000000F6
:105BC000B8010000000000000000B801B8010000AA
:105BD00000000000000000000000880188010000B3
:105BE000000000000000880100000000000000002C
:105BF0000000000000000B020B020000000000008B
:105C00000B020B020000000000000000000000007A
:105C10000000EE01EE01000000000000EE01EE01C8
:105C200000000000000000000000000000000B0267
:105C300000000000000000000B0200000000000057
:105C40000000000000000000EE01EE010000000076
:105C50000000EE01EE010000000000000000000066
:105C6000000000000B020B020000000000000B020D
:105C70000B02000000000000000000000000000017
:105C8000EE010000000000000000EE01EE01000047
:105C900000000000000000000000B801B801000092
:105CA000000000000000B80100000000000000003B
:105CB00000000000000088018801000000000000D2
:105CC00088018801000000000000A403A403A403CD
:105CD000A403A403A4037003700370037003700390
:105CE00010031003100310031003BA02BA02BA0221
:105CF000BA02BA029302930293024B024B024B0286
:105D00004B02B801B801B801B801B801EE01EE01CB
:105D1000EE01EE01EE010B020B020B020B020B0275
:105D20004B024B024B024B024B0293029302930233
:105D300093027003700370033F033F033F033F036D
:105D40003F03100310031003100310031003BA02E3
:105D5000BA02BA02BA02BA026E026E026E026E0293
:105D60006E024B024B024B020B020B020B020B02A8
:105D70000B021003100370037003100310031003D1
:105D80001003100370037003700300000000B801DB
:105D9000B801B801B801B801B801B801B801B8013B
:105DA000B801B801B80100000000000000000000C8
:105DB00000000000000000000000000000000000E3
:105DC00000000000000000000000000000000000D3
:105DD00000000000000000000000000000000000C3
:105DE00000000000000000000000000000000000B3
:106060001704700370037003000017041704DC03A7
:10607000DC03000017041704DC03DC03DC0310035B
:106080001003100310031003100310031003100378
:1060900010037003700327052705970497049704DE
:1060A00017041704DC03DC03DC0317041704DC0308
:1060B000DC03DC03000010031003100310031003C3
:1060C0001003100310031003100310030000170443
:1060D00070037003700300001704DC03DC03DC03AF
:1060E000000017041704DC03DC0300001003100396
:1060F0001003100310031003100310031003100308
:106100007003700370037003BA02BA02BA0270031C
:1061100070031003100310037003700310031003C7
:1061200010030B020B020B020B020B020B020B0201
:106130000B020B020B020B020B0217041704700375
:106140007003700300001704DC03DC03DC030000B1
:106150001704DC03DC03DC0300001003100310034E
:106160001003100310031003100310031003700337
:1061700070032705270597049704000017041704E8
:10618000DC03DC03DC0317041704DC03DC03DC039F
:106190001003100310031003100310031003100367
:1061A000100310031003000017041704700370039A
:1061B000700317041704DC03DC03DC03000017047E
:1061C000DC03DC03DC0300001003100310031003E6
:1061D000100310031003100310030000700370037A
:1061E0007003BA02BA02BA0200007003700310030F
:1061F00010030000700370031003100310030B0260
:106200000B020B020B0293024B024B024B024B029E
:106210004B024B024B024B024B024B024B024B0216
:106220004B024B024B024B024B024B024B024B0206
:106230004B024B024B020B024B024B0293029302A6
:1062400093029302930293029302930293029302A6
:106250009302930293029302930293029302930296
:106260009302930293029302930293020B020B0296
:106270000B02930293026E026E026E026E026E02B7
:106280006E026E026E026E026E026E026E026E028E
:106290006E026E026E026E026E026E026E026E027E
:1062A0006E020B020B026E026E024B024B024B029D
:1062B0004B024B024B0200004B024B024B024B02C3
:1062C0004B024B0200002705270527052705270558
:1062D000750527052705200620062705270527051C
:1062E0001704170400000000000000000000000078
:1062F000000017041704700370030000170417044C
:10630000DC03DC03DC0317041704DC03DC03DC031D
:1063100010031003100310031003100310031003E5
:106320001003100300007003270527059704970446
:10633000970417041704DC03DC03DC0300001704D4
:10634000DC03DC03DC030000100310031003100364
:1063500010031003100310031003100310030000B8
:106360001704700370037003000017041704DC03A4
:10637000DC03000017041704DC03DC03DC03100358
:106380001003100310031003100310031003100375
:1063900010037003700370037003BA02BA02BA02EA
:1063A00070037003100310031003700370031003D5
:1063B0001003100300000B020B020B020B020B0276
:1063C0000B020B020B020B020B020B020000170464
:1063D00070037003700300001704DC03DC03DC03AC
:1063E000000017041704DC03DC0300001003100393
:1063F0001003100310031003100310031003100305
:106400007003700327052705970497049704170462
:106410001704DC03DC03DC0317041704DC03DC03D0
:10642000DC03100310031003100310031003100308
:106430001003100310031003100317041704700354
:106440007003700300001704DC03DC03DC030000AE
:106450001704DC03DC03DC0300001003100310034B
:106460001003100310031003100310031003700334
:10647000700370037003BA02BA0200007003700365
:1064800010031003100370037003100310031003B4
:106490000B020B020B020B0293024B024B024B024C
:1064A0004B024B024B024B024B024B024B024B0284
:1064B0004B024B024B024B024B024B024B024B0274
:1064C0004B024B024B024B020B024B024B0293025C
:1064D0009302930293029302930293029302930214
:1064E0009302930293029302930293029302930204
:1064F00093029302930293029302930293020B027C
:106500000B020B020B0293026E026E026E026E020F
:106510006E026E026E026E026E026E026E026E02FB
:106520006E026E026E026E026E026E026E026E02EB
:106530006E026E026E020B026E026E024B024B0284
:106540004B024B024B024B0200004B024B024B0230
:106550004B024B024B0200002705270527052705A4
:10656000270575057505270520062006270527053B
:1065700027051704170400000000000000000000B9
:10658000000000000000000000000000000000000B
:1065900000000000000000000000000000000000FB
:1065A00000000000000000000000000000000000EB
:1065B00000000000000000000000000000000000DB
:1065C00000000000000000000000000000000000CB
:1065D00000000000000000000000000000000000BB
:1065E00000000000000000000000000000000000AB
:1065F000000000000000000000000000000000009B
:10660000000000000000000000000000000000008A
:10661000000000000000000000000000000000007A
:10662000000000000000000000000000000000006A
:10663000000000000000000000000000000000005A
:10664000000000000000000000000000000000004A
:10665000000000000000000000000000000000003A
:10666000000000000000000000000000000000002A
:10667000000000000000000000000000000000001A
:10668000000000000000000000000000000000000A
:1066900000000000000000000000000000000000FA
:1066A00000000000000000000000000000000000EA
:1066B00000000000000000000000000000000000DA
:1066C00000000000000000000000000000000000CA
:1066D00000000000000000000000000000000000BA
:1066E00000000000000000000000000000000000AA
:1066F000000000000000000000000000000000009A
:106700000000000000000000000000000000000089
:106710000000000000000000000000000000000079
:10672000000000000000000000000000010303035F
:106730000303030303030303030705050505070517
:1067400007050507050705050505070507050507ED
:1067500004060404040406040604040604060404EF
:1067600004040606060606060606060606060606CD
:1067700006040406040604040404060406040406CD
:1067800004060404040406040604040604060404BF
:1067900004040604060404060406040404040604AF
:1067A0000604060606060600000006040200090F9D
:1067B0000D0B000909090B000F0D090B090F0F0B39
:1067C0000B0B0B090B090D0B090B090D0D090B091F
:1067D0000B09090F0D0B0909000F0B0B0B0B090B14
:1067E000090F0D0900090F0D0B00090B090B000D16
:1067F0000D090B000F0D090B090B0909090D0B09F8
:106800000B090D0B090B090909090F0D0B09090FDC
:106810000F0B0B0B0B090B090F0D090B090F0D09C2
:1068200000090B090B000D0B090B000F0F0B0B0BD5
:106830000B09090F0D0B0909090D0B000B09090BB9
:10684000090F0D0909090F0F0B0B0B0B090B090D94
:106850000D000B090F0D090B090B0909000D0B09A0
:106860000B000D0B090B090909090F040B09090F8E
:106870000D0B000909090B000F0D090B090F0D097C
:1068800009090F0F0F0F0F0F0F0F0F0F0D0F0F0F26
:106890000F0F0F0F0F0F0D0F0D0D0F0F0F0D0F0F10
:1068A0000F0F0D0F0F0F0F0D0F0F0F0F0F0F0F0FFC
:1068B0000F0F0F0D0D0D0F0F0D0F0F0F0F0F0F0FF0
:1068C0000F0F0F0F0F0F0F0F0F0F0F0F0F0D0F0DDC
:1068D0000D0F0F0F0D0F0F0F0F040F0F0F0F0D0FD9
:1068E000060F0B0B0F0F0F0F0F0F0F0F0F0F0F0FC9
:1068F0000200000604020009090D0B000B09090B38
:10690000090F0D0909090F0F0B0B0B0B090B090DD3
:1069100004090B090F0D090B090B0909000D0B09DF
:106920000B000F0B0B0B0B0909090F0D0B00090FC7
:106930000D0B000909090B000F0D090B090F0D09BB
:1069400009090B090B090D0B090B090D0D090B09A1
:106950000B09090F0D0B0909000F0B0B0B0B090B92
:10696000090F0D0900090F0D0B00090B090B000D94
:106970000D090B000F0F0B0B0B0B0909090D0B0970
:106980000B090D0B090B090909090F0D0B09090F5B
:106990000F0B0B0B0B090B090F0D090B090F0D0941
:1069A00000090B090B000D0B090B000D0D090B095C
:1069B0000B09090F0D0B0909090D0B000B09090B38
:1069C000090F0D0909090F0D0B09090F0F0F0F0F03
:1069D0000D0F0F0F0F0D0F0F0F0F0F0F0F0F0F0DCD
:1069E0000F0D0D0F0F0F0D0F0F0F0F0D0F0F0F0FBF
:1069F0000F0F0F0F0F0F0F0F0F0F0F0F0D0D0D0FAD
:106A00000F0D0F0F0F0F0F0F0F0F0F0F0D0F0F0F9A
:106A10000F0F0F0F0F0F0D0F0D0D0F0F0F0D0F0F8E
:106A20000F0F040F0F0F0F0D0F060F0B0B0F0F0F94
:106A30000F0F0F0F0F0F0F0F0F00000000000000CF
:106A40000000000000000000000000000000000046
:106A50000000000000000000000000000000000036
:106A60000000000000000000000000000000000026
:106A70000000000000000000000000000000000016
:106A80000000000000000000000000000000000006
:106A900000000000000000000000000000000000F6
:106AA00000000000000000000000000000000000E6
:106AB00000000000000000000000000000000000D6
:106AC00000000000000000000000000000000000C6
:106AD00000000000000000000000000000000000B6
:106AE00000000000000000000000000000000000A6
:106AF0000000000000000000000000000000000096
:106B00000000000000000000000000000000000085
:106B1000000000002C010E0302000000930293020B
:106B20009302930200000B020B02930293021003E4
:106B3000100310031003000000000000000000001C
:106B400000000B020B020B02880100000000000095
:106B50004A014A010000B801B801B801EE01000085
:106B6000D201B801B801B801880193029302100361
:106B7000700370037003BA021003000093029302C3
:106B800093020B024B02EE01EE01EE01EE010B024D
:106B90000B020B0288010000000000004A014A01BC
:106BA0000000B801B801B801EE010000D201B8013F
:106BB000B801B801880193029302100370037003B7
:106BC0007003BA02100300009302930293020B02B7
:106BD0004B02EE01EE01EE01EE0100000000100399
:106BE000E402BA02BA026E026E02930200009F0132
:106BF0009F01B8010B020000B8010B020B024B020F
:106C0000000000001003E4020000BA026E026E02EF
:106C1000930200001704170417041704170417043D
:106C2000170417040000000000001003E402E4024F
:106C3000BA026E026E029302000000009F01B801CA
:106C40000B020000B8010B020B024B020000000017
:106C50006E026E026E0200004B024B024B020B02F0
:106C60000B020B020B0200000000000000000000FD
:106C70000000000000001003E402E402BA026E0209
:106C80006E029302000000009F01B8010B02000099
:106C9000B801B8010B024B02000000001003000015
:106CA000E402BA026E026E029302000000001704B2
:106CB0001704170417041704170417040000000032
:106CC000000010031003E402BA026E026E02930287
:106CD000000000009F01B8010B020000B801B801DC
:106CE0000B024B02000000006E026E026E020000FA
:106CF0004B024B024B024B020B020B020B020B022C
:106D0000000000000000000000000B020B020B025C
:106D10000B020B0200000B024B024B024B029302D0
:106D20000B020B02B801880188018801880100006C
:106D30000B020B020B020B020B0200000B024B02B8
:106D40009302930200000000000000000000000019
:106D50000000000000000B020B020B020B020B02F2
:106D600000000B024B024B024B0293020B020B0280
:106D7000B80188018801880188010000930293020C
:106D800093029302930200000B0293029302930278
:106D900010031003100310030000000000000000A7
:106DA00000000B020B020B020B0288010000000026
:106DB0004A014A014A010000B801B801EE01EE01A2
:106DC0000000D201B801B801880188019302930242
:106DD000100370037003BA02BA021003000093029A
:106DE00093020B020B024B02EE01EE01EE010B02CD
:106DF0000B020B020B0288010000000000004A0198
:106E00004A010000B801B801EE01EE010000D20114
:106E1000B801B8018801880193029302100370033E
:106E200070037003BA021003000093029302000083
:106E30000B024B02EE01EE01EE01930293020B02F4
:106E40000B0288010000000000009F019F01B801B3
:106E5000BA02BA02BA02BA02B801B801B801B8015E
:106E60000000EE01700370037003700370031003E1
:106E70001003BA0293020B020B020B02B801880145
:106E8000880188018801000093020B020B0288012F
:106E90000000000000009F019F01B801BA02BA0281
:106EA000BA02BA02B801B801B801B8010000EE0197
:106EB000BA02BA02BA02BA02BA02930293024B02AF
:106EC0000B020B020B020B0200000000000000008E
:106ED0000000000093020B020B028801000000007A
:106EE00000009F019F01B801BA02BA02BA02BA02B9
:106EF000B801B801B801B8010000EE01000070034C
:106F000070037003700310031003BA0293020B02A4
:106F10000B020B02B801880188018801880100007A
:106F200093020B020B0288010000000000009F0189
:106F30009F01B801BA02BA02BA02BA02B801B80196
:106F4000B801B8010000EE01BA02BA02BA02BA02F0
:106F5000BA02930293024B020B020B020B020B02CA
:106F60000000000000000000000000000B020B0207
:106F70000B020B020B0200000B024B024B029302AE
:106F800093020B020B02B801880188018801880175
:106F900000000B020B020B020B020B0200000B02A3
:106FA0004B029302000000000000000000000000FF
:106FB00000000000000000000B020B020B020000AA
:106FC0000B0200000B024B024B02930293020B02D6
:106FD0000B02B80188018801880188010000930232
:106FE000930293029302930200000B029302930216
:106FF0000000100310031003100300000000000045
:107000000000000093020B020B020B02880100003B
:1070100000009F019F019F01B801BA02BA02BA02A3
:10702000B801B801B801B8010000EE01EE0170032B
:1070300070037003700370031003BA02BA02930264
:107040000B020B02B8018801880188018801000049
:1070500093020B020B020B028801000000009F014B
:107060009F019F01B801BA02BA02BA02B801B80181
:10707000B801B8010000EE01BA02BA02BA02BA02BF
:10708000BA02BA02930200004B020B020B020B027F
:107090000B02000000000000000000000B020B02C9
:1070A0000B020B028801000000004A014A014A015C
:1070B0000000B801B801EE0100000000D201B801E3
:1070C000B8018801880193029302100370037003D2
:1070D000BA02BA0210030000930293020B020B02E1
:1070E0004B02EE01EE01EE010B020B020B020B0252
:1070F0008801000000004A014A014A010000B8016D
:10710000B801EE01EE010000D201B801B8010000A3
:10711000000000000000000000000000000000006F
:10712000000000000000000000000000000000005F
:10713000000000000000000000000000000000004F
:10714000000000000000000000000000000000003F
:10715000000000000000000000000000000000002F
:10716000000000000000000000000000000000001F
:10717000000000000000000000000000000000000F
:1071800000000000000000000000000000000000FF
:1071900000000000000000000000000000000000EF
:1071A00000000000000000000000000000000000DF
:1071B00000000000000000000000000000000000CF
:1071C00000000000000000000000000000000000BF
:1071D00000000000000000000000000000000000AF
:1071E000000000000000000000000000000000009F
:1071F000000000000000000000000000000000008F
:10720000000000000000000000000000000000007E
:10721000000000000000000000000000000000006E
:10722000000000000000000000000000000000005E
:10723000000000000000000000000000000000004E
:10724000000000000000000000000000000000003E
:10725000000000000000000000000000000000002E
:10726000000000000000000000000000000000001E
:10727000000000000000000000000000000000000E
:1072800000000000000000000000000000000000FE
:1072900000000000000000000000000000000000EE
:1072A00000000000000000000000000000000000DE
:1072B00000000000000000000000000000000000CE
:1072C00000000000000000000000000000000000BE
:1072D00000000000000000000000000000000000AE
:1072E00000000000000000000000000072017201B8
:1072F0007201720100007201720172017201EE01ED
:10730000EE01EE01EE01000088018801880188018C
:1073100000004A014A014A01060100000000000085
:10732000C400C40000000601060106012601000099
:107330001501060106010601060188018801EE011A
:107340000B020B020B02B801EE010000B801B801FC
:10735000B8014A015D0126012601260126014A01E4
:107360004A014A010601000000000000C400C400F8
:1073700000000601060106012601000015010601B4
:1073800006010601060188018801EE010B020B02CD
:107390000B02B801EE010000B801B801B8014A01C2
:1073A0005D0126012601260126010000000093024E
:1073B0006E024B024B02EE01EE010B0200004A018D
:1073C0004A015D018801000006014A014A015D0190
:1073D0000000000093026E0200004B02EE01EE017D
:1073E0000B020000BA02BA02BA02BA02BA02BA0228
:1073F000BA02BA0200000000000093026E026E02A0
:107400004B02EE01EE010B02000000004A015D019B
:107410008801000006014A014A015D0100000000E8
:107420009F019F019F0100005D015D015D014A0117
:107430004A014A014A01000000000000000000006B
:1074400000000000000093026E026E024B02EE018B
:10745000EE010B02000000004A015D0188010000FE
:10746000060106014A015D010000000093020000D0
:107470006E024B02EE01EE010B0200000000BA02A8
:10748000BA02BA02BA02BA02BA02BA020000000094
:107490000000930293026E024B02EE01EE010B021A
:1074A000000000004A015D0188010000060106019C
:1074B0004A015D01000000009F019F019F01000043
:1074C0005D015D015D015D014A014A014A014A0118
:1074D000000000000000000000009F019F019F01CC
:1074E0009F019F0100009F01D201D201D2018801BA
:1074F0004A014A014A01060106010601060100008F
:107500009F019F019F019F019F0100009F01D201E8
:107510008801880100000000000000000000000059
:107520000000000000009F019F019F019F019F013B
:1075300000009F01D201D201D20188014A014A0113
:107540004A010601060106010601000072017201EE
:107550007201720172010000720172017201720106
:10756000EE01EE01EE01EE010000880188018801C4
:1075700088014A014A014A014A010601000000004F
:10758000C400C400C4000000060106012601260153
:1075900000001501060106010601060188018801A7
:1075A000EE010B020B02B801B801EE010000B801B8
:1075B000B8014A014A015D012601260126014A015E
:1075C0004A014A014A010601000000000000C4000F
:1075D000C400000006010601260126010000150175
:1075E000060106010601060188018801EE010B0271
:1075F0000B020B02B801EE010000B801B801000057
:107600004A015D012601260126010B020B02B80189
:10761000B8014A010000000000004A014A015D0172
:107620000B020B020B020B025D015D015D015D01AE
:1076300000008801BA02BA02BA02BA02BA02930280
:1076400093024B020B02B801B801B8015D014A0177
:107650004A014A014A0100000B02B801B8014A017F
:107660000000000000004A014A015D010B020B020C
:107670000B020B025D015D015D015D0100008801EF
:107680004B024B024B024B024B020B020B02EE0170
:1076900088014A014A014A014A0106010601060120
:1076A000060100000B02B801B8014A010000000009
:1076B00000004A014A015D010B020B020B020B02A2
:1076C0005D015D015D015D01000088010000BA02FD
:1076D000BA02BA02BA02930293024B020B02B80139
:1076E000B801B8015D014A014A014A014A0100009E
:1076F0000B02B801B8014A010000000000004A0175
:107700004A015D010B020B020B020B025D015D01E0
:107710005D015D01000088014B024B024B024B02F0
:107720004B020B020B02EE01880100004A014A01E4
:107730004A01060106010601060100009F019F01A2
:107740009F019F019F0100009F01D201D20188018A
:1077500088014A014A014A010601060106010601A3
:1077600000009F019F019F019F019F0100009F0159
:10777000D2018801000000000000000000000000AD
:1077800000000000000000009F019F019F01000019
:107790009F0100009F01D201D201880188014A01A6
:1077A0004A014A01060106010601060100007201B4
:1077B00072017201720172010000720172017201A4
:1077C0000000EE01EE01EE01EE0188018801880162
:1077D000880100000B02B801B801B8014A0100009D
:1077E00000004A014A014A015D010B020B020B0233
:1077F0005D015D015D015D01000088018801BA0243
:10780000BA02BA02BA02BA0293024B024B020B024C
:10781000B801B8015D014A014A014A014A0100006C
:107820000B02B801B801B8014A01000000004A018A
:107830004A014A015D010B020B020B025D015D0171
:107840005D015D01000088014B024B024B024B02BF
:107850004B024B020B020000EE0188014A014A0173
:107860004A01060106010601060100004A014A011B
:107870004A014A01060100000000C400C400C4001F
:1078800000000601060126010000000015010601A6
:1078900006010601060188018801EE010B020B02B8
:1078A000B801B801EE010000B801B8014A014A016F
:1078B0005D012601260126014A014A014A014A01C9
:1078C000060100000000C400C400C400000006015E
:1078D000060126012601000015010601060100002F
:1078E0000000000000000000000000000000000098
:1078F0000000000000000000000000000000000088
:107900000000000000000000000000000000000077
:107910000000000000000000000000000000000067
:107920000000000000000000000000000000000057
:107930000000000000000000000000000000000047
:107940000000000000000000000000000000000037
:107950000000000000000000000000000000000027
:107960000000000000000000000000000000000017
:107970000000000000000000000000000000000007
:1079800000000000000000000000000000000000F7
:1079900000000000000000000000000000000000E7
:1079A00000000000000000000000000000000000D7
:1079B00000000000000000000000000000000000C7
:1079C00000000000000000000000000000000000B7
:1079D00000000000000000000000000000000000A7
:1079E0000000000000000000000000000000000097
:1079F0000000000000000000000000000000000087
:107A00000000000000000000000000000000000076
:107A10000000000000000000000000000000000066
:107A20000000000000000000000000000000000056
:107A30000000000000000000000000000000000046
:107A40000000000000000000000000000000000036
:107A50000000000000000000000000000000000026
:107A60000000000000000000000000000000000016
:107A70000000000000000000000000000000000006
:107A800000000000000000000000000000000000F6
:107A900000000000000000000000000000000000E6
:107AA00000000000000000000000000000000000D6
:107AB00000000000000000000000000093009300A0
:107AC00093009300000093009300930093008801BB
:107AD0008801880188010000C400C400C400C400FB
:107AE0000000C400C400C400A500000000000000A5
:107AF000830083000000AF00AF00AF00C4000000AF
:107B0000B900AF00AF00AF00A500060106014A01B1
:107B10005D015D015D0126014A01000006010601CB
:107B20000601DC00F700C400C400C400C400C400A7
:107B3000C400C400A5000000000000008300830012
:107B40000000AF00AF00AF00C4000000B900AF00FC
:107B5000AF00AF00A500060106014A015D015D010D
:107B60005D0126014A010000060106010601DC0054
:107B7000F700C400C400C400C40083008300830075
:107B8000C40000000000000006010601AF00AF00C5
:107B9000AF00AF00060106010601AF00AF00AF0065
:107BA000830083008300A500000000000000C400E3
:107BB000060100001003100310031003100310034C
:107BC000C400C400C400830083008300C400C40058
:107BD0000000000006010601AF00AF00AF00AF00DB
:107BE000060106010601AF00AF00AF00830083006D
:107BF000D000D000D0000000E900E900E900060153
:107C0000060106010601C400C400C4000000830090
:107C10008300830083008300C400C40000000000D0
:107C200006010601AF00AF00AF00AF00060106017C
:107C300006010601AF00AF0083008300830000004F
:107C4000A50000000000C4000601000000001003B1
:107C500010031003100310031003C400C4008300BA
:107C6000830083008300C4000000000006010601B9
:107C70000000AF00AF00AF000601060106010601DB
:107C8000AF00AF0083008300D000D000D000000020
:107C9000E900E900E900E900060106010601C40067
:107CA000C400C400C400830083006800680068004A
:107CB00068009C0000000000D000D000D000C4008C
:107CC000C400C400830000000000000062006200E5
:107CD00068006800680068009C0000000000D00098
:107CE000D000D000C400C400C40083000000000025
:107CF00000006200620068006800680068009C0084
:107D000000000000D000D000D000C400C400C400B7
:107D100083000000000000006200620093009300F6
:107D2000930093009300000093009300930093004E
:107D300088018801880188010000C400C400C400D3
:107D4000C400C400C400C400C400A50000000000BA
:107D50008300830083000000AF00AF00C400C400B4
:107D60000000B900AF00AF00A500A50006010601A4
:107D70004A015D015D01260126014A01000006015C
:107D80000601DC00DC00F700C400C400C400C4002D
:107D9000C400C400C400A50000000000000083006F
:107DA00083000000AF00AF00C400C4000000B900B1
:107DB000AF00AF00A500A500060106014A015D0164
:107DC0005D015D0126014A01000006010601000077
:107DD000DC00F700C400C400C400830083008300FB
:107DE0008300B900C400C400C40006010601AF004E
:107DF000AF00AF00AF00AF0006010601AF00AF005B
:107E00000000930093009300AF00C400C400C400BE
:107E1000F700F700C400C400C400C400C400060199
:107E20000601C400C400C400830083008300B900BD
:107E3000C400C400C40006010601AF00AF00AF00DB
:107E4000AF00AF0006010601AF00AF00AF00C400F5
:107E5000C400C400C400C400C400DC00DC00F7009F
:107E6000060106010000C400C400830083008300F3
:107E700083000000830083008300B900C400C400B5
:107E8000C40006010601AF00AF00AF00AF00AF00B5
:107E900006010601AF00AF00AF009300930093000E
:107EA000AF00C400C400C400F700F700C400C40061
:107EB000C400C400C40006010601C400C400C4001C
:107EC000830083008300B9000000C400C4000601E1
:107ED0000601AF00AF00AF00AF00AF000601060122
:107EE000AF00AF00AF00C400C400C400C400C400B1
:107EF000C400DC00DC00F700060106010601C40036
:107F0000C4008300830083008300000068006800D1
:107F100068009C009C0000000000D000D000C4005D
:107F2000C400C400C4008300000000000000620020
:107F300062006800680068009C009C00000000006F
:107F4000D000D000C400C400C400C40083000000FE
:107F50000000000062006200680068006800000025
:107F60009C0000000000D000D000C400C400C40089
:107F7000C400830000000000000062006200930063
:107F800093009300930093000000930093009300EC
:107F900000008801880188018801C400C400C40071
:107FA000C40000008300830083008300B900C40084
:107FB000C400060106010601AF00AF00AF00AF002C
:107FC000060100000601AF00AF009300930093008C
:107FD0009300AF00C400C400F700F700F700C4002E
:107FE000C400C400C400060106010601C400C400A8
:107FF0008300830083008300B900C400C40006012D
:1080000006010601AF00AF00AF00AF000601060198
:108010000601AF00AF00C400C400C400C400C40027
:10802000C400C400DC000000F70006010601C40023
:10803000C40083008300830083000000C400C400E8
:10804000C400C400A500000000008300830083007A
:108050000000AF00AF00C40000000000B900AF0096
:10806000AF00A500A500060106014A015D015D0102
:10807000260126014A01000006010601DC00DC00A1
:10808000F700C400C400C400C400C400C400C4009D
:10809000A500000000008300830083000000AF0003
:1080A000AF00C400C4000000B900AF00AF00000082
:1080B00000000000000000000000000000000000C0
:1080C00000000000000000000000000000000000B0
:1080D00000000000000000000000000000000000A0
:1080E0000000000000000000000000000000000090
:108A50000000000000000000000000000003000310
:108A600008030003000300030008000600060003DB
:108A700000030008080800030803000300080003BF
:108A800000030003000300030003000800030003C9
:108A900000030003000300030008080800030803A4
:108AA00000030008000300030003000300030003A9
:108AB00000080003000300030003000C0C03000384
:108AC000000300030C030003000C000300030C0C64
:108AD0000003000300030008000300030003000379
:108AE0000C0C0C030003000300030C0C0003000C2F
:108AF000000300030C0C0003000800030003000344
:108B0000000C0C0C000C0C0C0C0300030003000305
:108B10000C0C0003000C000300030C0C0008000305
:108B20000003000808030003000300030C0C0C03FF
:108B3000000300030003000C0003000C000300030B
:108B40000C0C0003000800030003000300030C0CDE
:108B50000C0C0403000300030803000300030003DC
:108B600000030003000C00030003000800030003DF
:108B70000C0C0C0C0808080C0C0300030003080381
:108B800000030003000300030003000C00030003C4
:108B900000080003000300030003080600060003AA
:108BA0000003000308080003000800030003080393
:108BB0000003000300030003000300030803000395
:108BC000000300030003000300030808000300087B
:108BD0000003000308030003000300030003000375
:108BE0000003080300080003000300030003000360
:108BF0000C0C0C030003000300030003000300033C
:108C0000000300030003000300030003000300034C
:108C1000000C000300030C0C0C0300030003000312
:108C2000000300030C030003000300030003000320
:108C30000303000600060008000300030C0C0C03ED
:108C4000000300030003000300030C030C030003F4
:108C5000000300030003000300030003000C0003F3
:108C60000003000C0C0300030003000300030003D7
:108C70000C030003000300030003000500030606C5
:108C800000060008000300030008000300030003BF
:108C90000003000303030C030003000308030003A5
:108CA0000C0C0C0C0C0808080C0C0003000000084D
:108CB0000003000300030003000300030C03000390
:108CC0000003080300030003000300060006000879
:108CD00000030003000C0C03000300030003000367
:108CE0000003040300030003000300030003000368
:108CF00000030003000C00030003000C0C0300033E
:108D000000030003000300030C030003000300033F
:108D1000000800030003000600060008000300032B
:108D20000008080300030803000300080003000311
:108D30000003000300030003000800030003000316
:108D400000030003000300080803000308030003F6
:108D50000008000300000000000000000000000008
:108D60000000000000000000000000000000000003
:108D700000000000000000000000000000000000F3
:108D800000000000000000000000000000000000E3
:108D900000000000000000000000000000000000D3
:108DA00000000000000000000000000000000000C3
:108DB00000000000000000000000000000000000B3
:108DC00000000000000000000000000000000000A3
:108DD0000000000000000000000000000000000093
:108DE0000000000000000000000000000000000083
:108DF0000000000000000000000000000000000073
:108E00000000000000000000000000000000000062
:108E10000000000000000000000000000000000052
:108E20000000000000000000000000000000000042
:108E30000000000000000000000000000000000032
:108E4000000000002C01FA020200010000000000F6
:108E50000000000000000000000093029302930253
:108E60009302EE01EE010B020B024B024B02930246
:108E70004B020B020B02EE01EE01B801B801B80182
:108E8000B801B801B8010B020B02930293029302DE
:108E900093024B024B020B020B02EE01EE01EE01BC
:108EA000EE01EE01EE010B020B024B024B024B02F4
:108EB0004B0293029302930293020B020B020B02EA
:108EC0000B02B801B801B801B801B801B801B80186
:108ED000B801B801B801B801B801000000004B02A8
:108EE0004B024B024B02BA02BA02700370037003CA
:108EF000700310031003BA02BA02930293029302A2
:108F00009302930293020B020B02930293029302C9
:108F100093024B024B020B020B02EE01EE01EE013B
:108F2000EE01EE01EE010B020B024B024B024B0273
:108F30004B0293029302930293020B020B020B0269
:108F40000B02B801B801B801B801B801B801B80105
:108F5000B801000000000000000093029302930299
:108F60009302EE01EE010B020B024B024B02930245
:108F70004B020B020B02EE01EE01B801B801B80181
:108F8000B801B801B8010B020B02930293029302DD
:108F900093024B024B020B020B02EE01EE01EE01BB
:108FA000EE01EE01EE010B020B024B024B024B02F3
:108FB0004B0293029302930293020B020B020B02E9
:108FC0000B02B801B801B801B801B801B801B80185
:108FD000B801B801B801B801B801000000004B02A7
:108FE0004B024B024B02BA02BA02700370037003C9
:108FF000700310031003BA02BA02930293029302A1
:109000009302930293020B020B02930293029302C8
:1090100093024B024B020B020B02EE01EE01EE013A
:10902000EE01EE01EE010B020B024B024B024B0272
:109030004B0293029302930293020B020B020B0268
:109040000B02B801B801B801B801B801B801B80104
:10905000B80100000000000000004A014A014A0176
:109060004A014A014A014A014A0106010601060174
:109070000601060106010601060126012601260158
:1090800026012601260126012601F700F700F70038
:10909000F700F700F700F700F700060106010601E8
:1090A00006010601060106010601DC00DC00DC0009
:1090B000DC00DC00DC00DC00DC00D000D000D000F4
:1090C000D000D000D000D000D000F700F700F700AB
:1090D000F70000000000000000004A014A014A01B8
:1090E0004A014A014A014A014A01060106010601F4
:1090F00006010601060106010601260126012601D8
:1091000026012601260126012601F700F700F700B7
:10911000F700F700F700F700F70006010601060167
:1091200006014A014A014A014A01B801B801B801E1
:10913000B801B801B801B801B8019F019F019F01B2
:109140009F019F019F019F019F01000000000000FF
:109150000000000000000000000093029302930250
:109160009302EE01EE010B020B024B024B02930243
:109170004B020B020B02EE01EE01B801B801B8017F
:10918000B801B801B8010B020B02930293029302DB
:1091900093024B024B020B020B02EE01EE01EE01B9
:1091A000EE01EE01EE010B020B024B024B024B02F1
:1091B0004B0293029302930293020B020B020B02E7
:1091C0000B02B801B801B801B801B801B801B80183
:1091D000B801B801B801B801B801000000004B02A5
:1091E0004B024B024B02BA02BA02700370037003C7
:1091F000700310031003BA02BA029302930293029F
:109200009302930293020B020B02930293029302C6
:1092100093024B024B020B020B02EE01EE01EE0138
:10922000EE01EE01EE010B020B024B024B024B0270
:109230004B0293029302930293020B020B020B0266
:109240000B02B801B801B801B801B801B801B80102
:10925000B801000000000000000093029302930296
:109260009302EE01EE010B020B024B024B02930242
:109270004B020B020B02EE01EE01B801B801B8017E
:10928000B801B801B8010B020B02930293029302DA
:1092900093024B024B020B020B02EE01EE01EE01B8
:1092A000EE01EE01EE010B020B024B024B024B02F0
:1092B0004B0293029302930293020B020B020B02E6
:1092C0000B02B801B801B801B801B801B801B80182
:1092D000B801B801B801B801B801000000004B02A4
:1092E0004B024B024B02BA02BA02700370037003C6
:1092F000700310031003BA02BA029302930293029E
:109300009302930293020B020B02930293029302C5
:1093100093024B024B020B020B02EE01EE01EE0137
:10932000EE01EE01EE010B020B024B024B024B026F
:109330004B0293029302930293020B020B020B0265
:109340000B02B801B801B801B801B801B801B80101
:10935000B801000000000000000000000000000054
:1093600000000000000000000000000000000000FD
:1093700000000000000000000000000000000000ED
:1093800000000000000000000000000000000000DD
:1093900000000000000000000000000000000000CD
:1096200000000000000000000000EE01EE01EE016D
:10963000EE019F019F01B801B801EE01EE01EE01BC
:10964000EE01B801B8019F019F014A014A014A0198
:109650004A014A014A01B801B8010B020B020B0290
:109660000B02EE01EE01B801B8019F019F014A0112
:109670004A019F019F01B801B801EE01EE01EE0120
:10968000EE010B020B020B020B02B801B801B8018C
:10969000B8014A014A014A014A014A014A014A0104
:1096A0004A014A014A014A014A01000000005D01E5
:1096B0005D015D015D01B801B8010B020B020B02F7
:1096C0000B02EE01EE01B801B801880188018801A2
:1096D0008801880188014A014A0188018801B8018E
:1096E00088015D015D014A014A019F019F014A0114
:1096F0004A019F019F01B801B801EE01EE019F01EF
:109700009F010B020B029F019F01B801B8014A01A2
:109710004A014A014A014A014A014A014A014A01F1
:109720004A010000000000000000EE01EE01EE0121
:10973000EE019F019F01B801B801EE01EE01EE01BB
:10974000EE01B801B8019F019F014A014A014A0197
:109750004A014A014A01B801B8010B020B020B028F
:109760000B02EE01EE01B801B8019F019F014A0111
:109770004A019F019F01B801B801EE01EE01EE011F
:10978000EE010B020B020B020B02B801B801B8018B
:10979000B8014A014A014A014A014A014A014A0103
:1097A0004A014A014A014A014A01000000005D01E4
:1097B0005D015D015D01B801B8010B020B020B02F6
:1097C0000B02EE01EE01B801B801880188018801A1
:1097D0008801880188014A014A0188018801B8018D
:1097E00088015D015D014A014A019F019F014A0113
:1097F0004A019F019F01B801B801EE01EE019F01EE
:109800009F010B020B029F019F01B801B8014A01A1
:109810004A014A014A014A014A014A014A014A01F0
:109820004A010000000000000000060106010601D8
:1098300006010601060106010601DC00DC00DC0071
:10984000DC00DC00DC00DC00DC00F700F700F700E7
:10985000F700F700F700F700F700D000D000D000C5
:10986000D000D000D000D000D000DC00DC00DC0054
:10987000DC00DC00DC00DC00DC00A500A500A500AD
:10988000A500A500A500A500A500A500A500A500B0
:10989000A500A500A500A500A500D000D000D0001F
:1098A000D0000000000000000000060106010601D3
:1098B00006010601060106010601DC00DC00DC00F1
:1098C000DC00DC00DC00DC00DC00F700F700F70067
:1098D000F700F700F700F700F700D000D000D00045
:1098E000D000D000D000D000D000DC00DC00DC00D4
:1098F000DC0006010601060106014A014A014A018F
:109900004A014A014A014A014A012601260126016B
:109910002601260126012601260100000000000084
:1099200000000000000000000000EE01EE01EE016A
:10993000EE019F019F01B801B801EE01EE01EE01B9
:10994000EE01B801B8019F019F014A014A014A0195
:109950004A014A014A01B801B8010B020B020B028D
:109960000B02EE01EE01B801B8019F019F014A010F
:109970004A019F019F01B801B801EE01EE01EE011D
:10998000EE010B020B020B020B02B801B801B80189
:10999000B8014A014A014A014A014A014A014A0101
:1099A0004A014A014A014A014A01000000005D01E2
:1099B0005D015D015D01B801B8010B020B020B02F4
:1099C0000B02EE01EE01B801B8018801880188019F
:1099D0008801880188014A014A0188018801B8018B
:1099E00088015D015D014A014A019F019F014A0111
:1099F0004A019F019F01B801B801EE01EE019F01EC
:109A00009F010B020B029F019F01B801B8014A019F
:109A10004A014A014A014A014A014A014A014A01EE
:109A20004A010000000000000000EE01EE01EE011E
:109A3000EE019F019F01B801B801EE01EE01EE01B8
:109A4000EE01B801B8019F019F014A014A014A0194
:109A50004A014A014A01B801B8010B020B020B028C
:109A60000B02EE01EE01B801B8019F019F014A010E
:109A70004A019F019F01B801B801EE01EE01EE011C
:109A8000EE010B020B020B020B02B801B801B80188
:109A9000B8014A014A014A014A014A014A014A0100
:109AA0004A014A014A014A014A01000000005D01E1
:109AB0005D015D015D01B801B8010B020B020B02F3
:109AC0000B02EE01EE01B801B8018801880188019E
:109AD0008801880188014A014A0188018801B8018A
:109AE00088015D015D014A014A019F019F014A0110
:109AF0004A019F019F01B801B801EE01EE019F01EB
:109B00009F010B020B029F019F01B801B8014A019E
:109B10004A014A014A014A014A014A014A014A01ED
:109B20004A010000000000000000000000000000EA
:109B30000000000000000000000000000000000025
:109B40000000000000000000000000000000000015
:109B50000000000000000000000000000000000005
:109B600000000000000000000000000000000000F5
:109DF0000000000000000000000052005200A5001A
:109E0000A50052005200A500A50052005200A50076
:109E1000A50052005200A500A5006E006E00DC00F7
:109E2000DC006E006E00DC00DC006E006E00DC000A
:109E3000DC006E006E00DC00DC0068006800D00012
:109E4000D00068006800D000D00052005200A50089
:109E5000A50052005200A500A5006E006E00DC00B7
:109E6000DC006E006E00DC00DC006E006E00DC00CA
:109E7000DC007B007B00830083009300930049009B
:109E800049000000000049004900000000004900AE
:109E900049006E006E0057005700410041008300EA
:109EA0008300000000008300830041004100620045
:109EB000620062006200000000007B007B00F7008F
:109EC000F70000000000F700F70000000000A50008
:109ED000A50000000000D000D0006E006E00A500BC
:109EE000A5006E006E00A500A5006E006E006E005D
:109EF0006E00000000000000000052005200A500AB
:109F0000A50052005200A500A50052005200A50075
:109F1000A50052005200A500A5006E006E00DC00F6
:109F2000DC006E006E00DC00DC006E006E00DC0009
:109F3000DC006E006E00DC00DC0068006800D00011
:109F4000D00068006800D000D00052005200A50088
:109F5000A50052005200A500A5006E006E00DC00B6
:109F6000DC006E006E00DC00DC006E006E00DC00C9
:109F7000DC007B007B00830083009300930049009A
:109F800049000000000049004900000000004900AD
:109F900049006E006E0057005700410041008300E9
:109FA0008300000000008300830041004100620044
:109FB000620062006200000000007B007B00F7008E
:109FC000F70000000000F700F70000000000A50007
:109FD000A50000000000D000D0006E006E00A500BB
:109FE000A5006E006E00A500A5006E006E006E005C
:109FF0006E000000000000000000DC00DC004A01F0
:10A000004A01DC00DC004A014A01DC00DC004A01B4
:10A010004A01DC00DC004A014A01D000D0004A01BC
:10A020004A01D000D0004A014A01D000D0004A01C4
:10A030004A01D000D0004A014A01DC00DC004A019C
:10A040004A01DC00DC004A014A01DC00DC004A0174
:10A050004A01DC00DC004A014A01D000D0004A017C
:10A060004A01D000D0004A014A010000000000006F
:10A0700000000000000000000000DC00DC004A01DD
:10A080004A01DC00DC004A014A01DC00DC004A0134
:10A090004A01DC00DC004A014A01D000D0004A013C
:10A0A0004A01D000D0004A014A01D000D0004A0144
:10A0B0004A01D000D0004A014A01DC00DC004A011C
:10A0C0004A01DC00DC004A014A01DC00DC004A01F4
:10A0D0004A01DC00DC004A014A01D000D0004A01FC
:10A0E0004A01D000D0004A014A01000000000000EF
:10A0F0000000000000000000000052005200A50017
:10A10000A50052005200A500A50052005200A50073
:10A11000A50052005200A500A5006E006E00DC00F4
:10A12000DC006E006E00DC00DC006E006E00DC0007
:10A13000DC006E006E00DC00DC0068006800D0000F
:10A14000D00068006800D000D00052005200A50086
:10A15000A50052005200A500A5006E006E00DC00B4
:10A16000DC006E006E00DC00DC006E006E00DC00C7
:10A17000DC007B007B008300830093009300490098
:10A1800049000000000049004900000000004900AB
:10A1900049006E006E0057005700410041008300E7
:10A1A0008300000000008300830041004100620042
:10A1B000620062006200000000007B007B00F7008C
:10A1C000F70000000000F700F70000000000A50005
:10A1D000A50000000000D000D0006E006E00A500B9
:10A1E000A5006E006E00A500A5006E006E006E005A
:10A1F0006E00000000000000000052005200A500A8
:10A20000A50052005200A500A50052005200A50072
:10A21000A50052005200A500A5006E006E00DC00F3
:10A22000DC006E006E00DC00DC006E006E00DC0006
:10A23000DC006E006E00DC00DC0068006800D0000E
:10A24000D00068006800D000D00052005200A50085
:10A25000A50052005200A500A5006E006E00DC00B3
:10A26000DC006E006E00DC00DC006E006E00DC00C6
:10A27000DC007B007B008300830093009300490097
:10A2800049000000000049004900000000004900AA
:10A2900049006E006E0057005700410041008300E6
:10A2A0008300000000008300830041004100620041
:10A2B000620062006200000000007B007B00F7008B
:10A2C000F70000000000F700F70000000000A50004
:10A2D000A50000000000D000D0006E006E00A500B8
:10A2E000A5006E006E00A500A5006E006E006E0059
:10A2F0006E000000000000000000000000000000F0
:10A30000000000000000000000000000000000004D
:10A31000000000000000000000000000000000003D
:10A32000000000000000000000000000000000002D
:10A33000000000000000000000000000000000001D
:10A5C00000000000000000000000000000005C002F
:10A5D0005C00000000005C005C00000000005C000B
:10A5E0005C00000000005C005C00000000005C00FB
:10A5F0005C00000000005C005C00000000005C00EB
:10A600005C005C005C005C005C00000000005C0022
:10A610005C00000000005C005C00000000005C00CA
:10A620005C00000000005C005C00000000005C00BA
:10A630005C00000000005C005C00000000005C00AA
:10A640005C005C005C005C005C00000000005C00E2
:10A650005C00000000005C005C00000000005C008A
:10A660005C00000000005C005C00000000005C007A
:10A670005C00000000005C005C00000000005C006A
:10A680005C005C005C005C005C00000000005C00A2
:10A690005C00000000005C005C00000000005C004A
:10A6A0005C00000000005C005C00000000005C003A
:10A6B0005C00000000005C005C00000000005C002A
:10A6C0005C005C005C005C005C00000000005C0062
:10A6D0005C00000000005C005C00000000005C000A
:10A6E0005C00000000005C005C00000000005C00FA
:10A6F0005C00000000005C005C00000000005C00EA
:10A700005C005C005C005C005C00000000005C0021
:10A710005C00000000005C005C00000000005C00C9
:10A720005C00000000005C005C00000000005C00B9
:10A730005C00000000005C005C00000000005C00A9
:10A740005C005C005C005C005C00000000005C00E1
:10A750005C00000000005C005C00000000005C0089
