:100000000C9408120C9429120C9429120C942912A5
:100010000C9429120C9429120C9429120C94291274
:100020000C9429120C9429120C9429120C94291264
:100030000C9429120C9429120C9429120C94291254
:100040000C9429120C9429120C9429120C94291244
:100050000C9429120C947A130C9429120C942912E2
:100060000C9429120C9429120C9429120C94291224
:100070000C9429120C9429120C9429120C94291214
:100080000C9429120C9429120C9429120C94291204
:100090000C9429120C9429120C9429120C942912F4
:1000A0000C9429120C9429120C9429120C942912E4
:1000B0000C9429120C9429120C9429120C942912D4
:1000C0000C9429120C9429120C9429120C942912C4
:1000D0000C9429120C9429120C9429120C942912B4
:1000E0000C9429129302930293029302EE01EE0103
:1000F0000B020B024B024B0293024B020B020B0250
:10010000EE01EE01B801B801B801B801B801B801BB
:100110000B020B0293029302930293024B024B02D7
:100120000B020B02EE01EE01EE01EE01EE01EE011B
:100130000B020B024B024B024B024B029302930247
:10014000930293020B020B020B020B02B801B801DF
:10015000B801B801B801B801B801B801B801B801D7
:10016000B801B801000000004B024B024B024B02E9
:10017000BA02BA0270037003700370031003100315
:10018000BA02BA0293029302930293029302930279
:100190000B020B0293029302930293024B024B0257
:1001A0000B020B02EE01EE01EE01EE01EE01EE019B
:1001B0000B020B024B024B024B024B0293029302C7
:1001C000930293020B020B020B020B02B801B8015F
:1001D000B801B801B801B801B801B80100000000C9
:1001E000000000009302930293029302EE01EE01DD
:1001F0000B020B024B024B0293024B020B020B024F
:10020000EE01EE01B801B801B801B801B801B801BA
:100210000B020B0293029302930293024B024B02D6
:100220000B020B02EE01EE01EE01EE01EE01EE011A
:100230000B020B024B024B024B024B029302930246
:10024000930293020B020B020B020B02B801B801DE
:10025000B801B801B801B801B801B801B801B801D6
:10026000B801B801000000004B024B024B024B02E8
:10027000BA02BA0270037003700370031003100314
:10028000BA02BA0293029302930293029302930278
:100290000B020B0293029302930293024B024B0256
:1002A0000B020B02EE01EE01EE01EE01EE01EE019A
:1002B0000B020B024B024B024B024B0293029302C6
:1002C000930293020B020B020B020B02B801B8015E
:1002D000B801B801B801B801B801B80100000000C8
:1002E000000000004A014A014A014A014A014A014C
:1002F0004A014A010601060106010601060106013E
:1003000006010601260126012601260126012601F5
:1003100026012601F700F700F700F700F700F700C5
:10032000F700F700060106010601060106010601B5
:1003300006010601DC00DC00DC00DC00DC00DC0087
:10034000DC00DC00D000D000D000D000D000D00015
:10035000D000D000F700F700F700F7000000000021
:10036000000000004A014A014A014A014A014A01CB
:100370004A014A01060106010601060106010601BD
:100380000601060126012601260126012601260175
:1003900026012601F700F700F700F700F700F70045
:1003A000F700F70006010601060106014A014A01AD
:1003B0004A014A01B801B801B801B801B801B80151
:1003C000B801B8019F019F019F019F019F019F01FB
:1003D0009F019F01000000000000000000000000DD
:1003E000000000009302930293029302EE01EE01DB
:1003F0000B020B024B024B0293024B020B020B024D
:10040000EE01EE01B801B801B801B801B801B801B8
:100410000B020B0293029302930293024B024B02D4
:100420000B020B02EE01EE01EE01EE01EE01EE0118
:100430000B020B024B024B024B024B029302930244
:10044000930293020B020B020B020B02B801B801DC
:10045000B801B801B801B801B801B801B801B801D4
:10046000B801B801000000004B024B024B024B02E6
:10047000BA02BA0270037003700370031003100312
:10048000BA02BA0293029302930293029302930276
:100490000B020B0293029302930293024B024B0254
:1004A0000B020B02EE01EE01EE01EE01EE01EE0198
:1004B0000B020B024B024B024B024B0293029302C4
:1004C000930293020B020B020B020B02B801B8015C
:1004D000B801B801B801B801B801B80100000000C6
:1004E000000000009302930293029302EE01EE01DA
:1004F0000B020B024B024B0293024B020B020B024C
:10050000EE01EE01B801B801B801B801B801B801B7
:100510000B020B0293029302930293024B024B02D3
:100520000B020B02EE01EE01EE01EE01EE01EE0117
:100530000B020B024B024B024B024B029302930243
:10054000930293020B020B020B020B02B801B801DB
:10055000B801B801B801B801B801B801B801B801D3
:10056000B801B801000000004B024B024B024B02E5
:10057000BA02BA0270037003700370031003100311
:10058000BA02BA0293029302930293029302930275
:100590000B020B0293029302930293024B024B0253
:1005A0000B020B02EE01EE01EE01EE01EE01EE0197
:1005B0000B020B024B024B024B024B0293029302C3
:1005C000930293020B020B020B020B02B801B8015B
:1005D000B801B801B801B801B801B80100000000C5
:1005E000000000000000000000000000000000000B
:1005F00000000000000000000000000000000000FB
:1006000000000000000000000000000000000000EA
:1006100000000000000000000000000000000000DA
:1008B00000000000EE01EE01EE01EE019F019F013C
:1008C000B801B801EE01EE01EE01EE01B801B80188
:1008D0009F019F014A014A014A014A014A014A0116
:1008E000B801B8010B020B020B020B02EE01EE0184
:1008F000B801B8019F019F014A014A019F019F0170
:10090000B801B801EE01EE01EE01EE010B020B029F
:100910000B020B02B801B801B801B8014A014A0143
:100920004A014A014A014A014A014A014A014A016F
:100930004A014A01000000005D015D015D015D01A9
:10094000B801B8010B020B020B020B02EE01EE0123
:10095000B801B801880188018801880188018801EF
:100960004A014A0188018801B80188015D015D01E1
:100970004A014A019F019F014A014A019F019F01CB
:10098000B801B801EE01EE019F019F010B020B02BD
:100990009F019F01B801B8014A014A014A014A0179
:1009A0004A014A014A014A014A014A010000000085
:1009B00000000000EE01EE01EE01EE019F019F013B
:1009C000B801B801EE01EE01EE01EE01B801B80187
:1009D0009F019F014A014A014A014A014A014A0115
:1009E000B801B8010B020B020B020B02EE01EE0183
:1009F000B801B8019F019F014A014A019F019F016F
:100A0000B801B801EE01EE01EE01EE010B020B029E
:100A10000B020B02B801B801B801B8014A014A0142
:100A20004A014A014A014A014A014A014A014A016E
:100A30004A014A01000000005D015D015D015D01A8
:100A4000B801B8010B020B020B020B02EE01EE0122
:100A5000B801B801880188018801880188018801EE
:100A60004A014A0188018801B80188015D015D01E0
:100A70004A014A019F019F014A014A019F019F01CA
:100A8000B801B801EE01EE019F019F010B020B02BC
:100A90009F019F01B801B8014A014A014A014A0178
:100AA0004A014A014A014A014A014A010000000084
:100AB000000000000601060106010601060106010C
:100AC00006010601DC00DC00DC00DC00DC00DC00F0
:100AD000DC00DC00F700F700F700F700F700F70094
:100AE000F700F700D000D000D000D000D000D00038
:100AF000D000D000DC00DC00DC00DC00DC00DC002E
:100B0000DC00DC00A500A500A500A500A500A5004F
:100B1000A500A500A500A500A500A500A500A500AD
:100B2000A500A500D000D000D000D000000000003B
:100B3000000000000601060106010601060106018B
:100B400006010601DC00DC00DC00DC00DC00DC006F
:100B5000DC00DC00F700F700F700F700F700F70013
:100B6000F700F700D000D000D000D000D000D000B7
:100B7000D000D000DC00DC00DC00DC000601060157
:100B8000060106014A014A014A014A014A014A0195
:100B90004A014A01260126012601260126012601D5
:100BA00026012601000000000000000000000000F7
:100BB00000000000EE01EE01EE01EE019F019F0139
:100BC000B801B801EE01EE01EE01EE01B801B80185
:100BD0009F019F014A014A014A014A014A014A0113
:100BE000B801B8010B020B020B020B02EE01EE0181
:100BF000B801B8019F019F014A014A019F019F016D
:100C0000B801B801EE01EE01EE01EE010B020B029C
:100C10000B020B02B801B801B801B8014A014A0140
:100C20004A014A014A014A014A014A014A014A016C
:100C30004A014A01000000005D015D015D015D01A6
:100C4000B801B8010B020B020B020B02EE01EE0120
:100C5000B801B801880188018801880188018801EC
:100C60004A014A0188018801B80188015D015D01DE
:100C70004A014A019F019F014A014A019F019F01C8
:100C8000B801B801EE01EE019F019F010B020B02BA
:100C90009F019F01B801B8014A014A014A014A0176
:100CA0004A014A014A014A014A014A010000000082
:100CB00000000000EE01EE01EE01EE019F019F0138
:100CC000B801B801EE01EE01EE01EE01B801B80184
:100CD0009F019F014A014A014A014A014A014A0112
:100CE000B801B8010B020B020B020B02EE01EE0180
:100CF000B801B8019F019F014A014A019F019F016C
:100D0000B801B801EE01EE01EE01EE010B020B029B
:100D10000B020B02B801B801B801B8014A014A013F
:100D20004A014A014A014A014A014A014A014A016B
:100D30004A014A01000000005D015D015D015D01A5
:100D4000B801B8010B020B020B020B02EE01EE011F
:100D5000B801B801880188018801880188018801EB
:100D60004A014A0188018801B80188015D015D01DD
:100D70004A014A019F019F014A014A019F019F01C7
:100D8000B801B801EE01EE019F019F010B020B02B9
:100D90009F019F01B801B8014A014A014A014A0175
:100DA0004A014A014A014A014A014A010000000081
:100DB0000000000000000000000000000000000033
:100DC0000000000000000000000000000000000023
:100DD0000000000000000000000000000000000013
:100DE0000000000000000000000000000000000003
:101080000000000052005200A500A50052005200CE
:10109000A500A50052005200A500A5005200520074
:1010A000A500A5006E006E00DC00DC006E006E0086
:1010B000DC00DC006E006E00DC00DC006E006E0008
:1010C000DC00DC0068006800D000D0006800680028
:1010D000D000D00052005200A500A50052005200DE
:1010E000A500A5006E006E00DC00DC006E006E0046
:1010F000DC00DC006E006E00DC00DC007B007B00AE
:101100008300830093009300490049000000000021
:101110004900490000000000490049006E006E00CF
:101120005700570041004100830083000000000089
:10113000830083004100410062006200620062009F
:10114000000000007B007B00F700F70000000000BB
:10115000F700F70000000000A500A5000000000057
:10116000D000D0006E006E00A500A5006E006E00DD
:10117000A500A5006E006E006E006E00000000006D
:101180000000000052005200A500A50052005200CD
:10119000A500A50052005200A500A5005200520073
:1011A000A500A5006E006E00DC00DC006E006E0085
:1011B000DC00DC006E006E00DC00DC006E006E0007
:1011C000DC00DC0068006800D000D0006800680027
:1011D000D000D00052005200A500A50052005200DD
:1011E000A500A5006E006E00DC00DC006E006E0045
:1011F000DC00DC006E006E00DC00DC007B007B00AD
:101200008300830093009300490049000000000020
:101210004900490000000000490049006E006E00CE
:101220005700570041004100830083000000000088
:10123000830083004100410062006200620062009E
:10124000000000007B007B00F700F70000000000BA
:10125000F700F70000000000A500A5000000000056
:10126000D000D0006E006E00A500A5006E006E00DC
:10127000A500A5006E006E006E006E00000000006C
:1012800000000000DC00DC004A014A01DC00DC0058
:101290004A014A01DC00DC004A014A01DC00DC00B2
:1012A0004A014A01D000D0004A014A01D000D000D2
:1012B0004A014A01D000D0004A014A01D000D000C2
:1012C0004A014A01DC00DC004A014A01DC00DC0082
:1012D0004A014A01DC00DC004A014A01DC00DC0072
:1012E0004A014A01D000D0004A014A01D000D00092
:1012F0004A014A0100000000000000000000000058
:1013000000000000DC00DC004A014A01DC00DC00D7
:101310004A014A01DC00DC004A014A01DC00DC0031
:101320004A014A01D000D0004A014A01D000D00051
:101330004A014A01D000D0004A014A01D000D00041
:101340004A014A01DC00DC004A014A01DC00DC0001
:101350004A014A01DC00DC004A014A01DC00DC00F1
:101360004A014A01D000D0004A014A01D000D00011
:101370004A014A01000000000000000000000000D7
:101380000000000052005200A500A50052005200CB
:10139000A500A50052005200A500A5005200520071
:1013A000A500A5006E006E00DC00DC006E006E0083
:1013B000DC00DC006E006E00DC00DC006E006E0005
:1013C000DC00DC0068006800D000D0006800680025
:1013D000D000D00052005200A500A50052005200DB
:1013E000A500A5006E006E00DC00DC006E006E0043
:1013F000DC00DC006E006E00DC00DC007B007B00AB
:10140000830083009300930049004900000000001E
:101410004900490000000000490049006E006E00CC
:101420005700570041004100830083000000000086
:10143000830083004100410062006200620062009C
:10144000000000007B007B00F700F70000000000B8
:10145000F700F70000000000A500A5000000000054
:10146000D000D0006E006E00A500A5006E006E00DA
:10147000A500A5006E006E006E006E00000000006A
:101480000000000052005200A500A50052005200CA
:10149000A500A50052005200A500A5005200520070
:1014A000A500A5006E006E00DC00DC006E006E0082
:1014B000DC00DC006E006E00DC00DC006E006E0004
:1014C000DC00DC0068006800D000D0006800680024
:1014D000D000D00052005200A500A50052005200DA
:1014E000A500A5006E006E00DC00DC006E006E0042
:1014F000DC00DC006E006E00DC00DC007B007B00AA
:10150000830083009300930049004900000000001D
:101510004900490000000000490049006E006E00CB
:101520005700570041004100830083000000000085
:10153000830083004100410062006200620062009B
:10154000000000007B007B00F700F70000000000B7
:10155000F700F70000000000A500A5000000000053
:10156000D000D0006E006E00A500A5006E006E00D9
:10157000A500A5006E006E006E006E000000000069
:10158000000000000000000000000000000000005B
:10159000000000000000000000000000000000004B
:1015A000000000000000000000000000000000003B
:1015B000000000000000000000000000000000002B
:1018500000000000000000005C005C0000000000D0
:101860005C005C00000000005C005C000000000008
:101870005C005C00000000005C005C0000000000F8
:101880005C005C00000000005C005C005C005C0030
:101890005C005C00000000005C005C0000000000D8
:1018A0005C005C00000000005C005C0000000000C8
:1018B0005C005C00000000005C005C0000000000B8
:1018C0005C005C00000000005C005C005C005C00F0
:1018D0005C005C00000000005C005C000000000098
:1018E0005C005C00000000005C005C000000000088
:1018F0005C005C00000000005C005C000000000078
:101900005C005C00000000005C005C005C005C00AF
:101910005C005C00000000005C005C000000000057
:101920005C005C00000000005C005C000000000047
:101930005C005C00000000005C005C000000000037
:101940005C005C00000000005C005C005C005C006F
:101950005C005C00000000005C005C000000000017
:101960005C005C00000000005C005C000000000007
:101970005C005C00000000005C005C0000000000F7
:101980005C005C00000000005C005C005C005C002F
:101990005C005C00000000005C005C0000000000D7
:1019A0005C005C00000000005C005C0000000000C7
:1019B0005C005C00000000005C005C0000000000B7
:1019C0005C005C00000000005C005C005C005C00EF
:1019D0005C005C00000000005C005C000000000097
:1019E0005C005C00000000005C005C000000000087
:1019F0005C005C00000000005C005C000000000077
:101A00005C005C00000000005C005C005C005C00AE
:101A10005C005C00000000005C005C000000000056
:101A20005C005C00000000005C005C000000000046
:101A30005C005C00000000005C005C000000000036
:101A40005C005C00000000005C005C005C005C006E
:101A50005C005C00000000005C005C000000000016
:101A60005C005C00000000005C005C000000000006
:101A70005C005C00000000005C005C0000000000F6
:101A80005C005C00000000005C005C005C005C002E
:101A90005C005C00000000005C005C0000000000D6
:101AA0005C005C00000000005C005C0000000000C6
:101AB0005C005C00000000005C005C0000000000B6
:101AC0005C005C00000000005C005C005C005C00EE
:101AD0005C005C00000000005C005C000000000096
:101AE0005C005C00000000005C005C000000000086
:101AF0005C005C00000000005C005C000000000076
:101B00005C005C00000000005C005C005C005C00AD
:101B10005C005C00000000005C005C000000000055
:101B20005C005C00000000005C005C000000000045
:101B30005C005C00000000005C005C000000000035
:101B40005C005C00000000005C005C005C005C006D
:101B50005C005C00000000005C005C000000000015
:101B60005C005C00000000005C005C000000000005
:101B70005C005C00000000005C005C0000000000F5
:101B80005C005C00000000005C005C005C005C002D
:101B90005C005C00000000005C005C0000000000D5
:101BA0005C005C00000000005C005C0000000000C5
:101BB0005C005C00000000005C005C0000000000B5
:101BC0005C005C00000000005C005C005C005C00ED
:101BD0005C005C00000000005C005C000000000095
:101BE0005C005C00000000005C005C000000000085
:101BF0005C005C00000000005C005C000000000075
:101C00005C005C00000000005C005C005C005C00AC
:101C10005C005C00000000005C005C000000000054
:101C20005C005C00000000005C005C000000000044
:101C30005C005C00000000005C005C000000000034
:101C40005C005C00000000005C005C005C005C006C
:101C50005C005C00000000005C005C000000000014
:101C60005C005C00000000005C005C000000000004
:101C70005C005C00000000005C005C0000000000F4
:101C80005C005C00000000005C005C005C005C002C
:101C90005C005C00000000005C005C0000000000D4
:101CA0005C005C00000000005C005C0000000000C4
:101CB0005C005C00000000005C005C0000000000B4
:101CC0005C005C00000000005C005C005C005C00EC
:101CD0005C005C00000000005C005C000000000094
:101CE0005C005C00000000005C005C000000000084
:101CF0005C005C00000000005C005C000000000074
:101D00005C005C00000000005C005C005C005C00AB
:101D10005C005C00000000005C005C000000000053
:101D20005C005C00000000005C005C000000000043
:101D30005C005C00000000005C005C000000000033
:101D40005C005C00000000005C005C005C005C006B
:101D50005C005C00000000000000000000000000CB
:101D60000000000000000000000000000000000073
:101D70000000000000000000000000000000000063
:101D80000000000000000000000000000000000053
:101D90000000000000000000000000000000000043
:10202000000000000808010108080101080801017A
:102030000808010108080101080801010808010158
:102040000101010108080101080801010808010156
:102050000808010108080101080801010808010138
:102060000101010104040101030301010303010152
:102070000808010108080101030301010808010122
:1020800001010B0B08080101030301010303010116
:102090000303010108080101080801010808010102
:1020A00008080808080801010808010108080101DA
:1020B00008080101080801010808010108080101D8
:1020C00001010101080801010808010108080101D6
:1020D00008080101080801010808010108080101B8
:1020E00001010101040401010303010103030101D2
:1020F00008080101080801010303010108080101A2
:1021000001010B0B08080101030301010303010195
:102110000303010108080101080801010808010181
:102120000808080808080101080801010808010159
:102130000808010108080101080801010808010157
:102140000101010108080101080801010808010155
:1021500008080101080801010808010103030B0B2D
:102160000808080808080101080801010808010119
:102170000808010108080101080801010808010117
:102180000101010108080101080801010808010115
:1021900008080101080801010808010100000808F9
:1021A00008080808080801010808010108080101D9
:1021B00008080101080801010808010108080101D7
:1021C00001010101080801010808010108080101D5
:1021D00008080101080801010808010108080101B7
:1021E00001010101040401010303010103030101D1
:1021F00008080101080801010303010108080101A1
:1022000001010B0B08080101030301010303010194
:102210000303010108080101080801010808010180
:102220000808080808080101080801010808010158
:102230000808010108080101080801010808010156
:102240000101010108080101080801010808010154
:102250000808010108080101080801010808010136
:102260000101010104040101030301010303010150
:102270000808010108080101030301010808010120
:1022800001010B0B08080101030301010303010114
:102290000303010108080101080801010808010100
:1022A000080808080000000000000000000000000E
:1022B000000000000000000000000000000000001E
:1022C000000000000000000000000000000000000E
:1022D00000000000000000000000000000000000FE
:1022E00000000000000000000000000000000000EE
:1022F00000000000000000000000000000000000DE
:1023000000000000000000000000000000000000CD
:1023100000000000000000000000000000000000BD
:1023200000000000000000000000000000000000AD
:10233000000000000000000000000000000000009D
:10234000000000000000000000000000000000008D
:10235000000000000000000000000000000000007D
:10236000000000000000000000000000000000006D
:10237000000000000000000000000000000000005D
:10238000000000000000000000000000000000004D
:10239000000000000000000000000000000000003D
:1023A000000000000000000000000000000000002D
:1023B000000000000000000000000000000000001D
:1023C000000000000000000000000000000000000D
:1023D00000000000000000000000000000000000FD
:1023E00000000000000000000000000000000000ED
:1023F00000000000000000000000000000000000DD
:102400000000000000000000000000002C0181021C
:1024100011241FBECFEFD1E2DEBFCDBF00E00CBF65
:1024200012E0A0E0B2E0EAECF2E300E00BBF02C091
:1024300007900D92A630B107D9F722E0A6E0B2E0EE
:1024400001C01D92AA31B207E1F70E94EB180C946B
:1024500063190C940000FC01DB019C012C5F3F4FD1
:1024600090818C91981307C031961196E217F3076B
:10247000B9F781E0089580E00895109289001092E4
:10248000880010928000109299001092980010928B
:1024900090001092A9001092A8001092A000109233
:1024A000290110922801109220010895CF93C62F80
:1024B000009779F46623E9F1613009F440C0623095
:1024C00009F458C0633099F510922901109228013F
:1024D0002EC082959295907F9827807F98279C01A7
:1024E00050E040E060E074E284EF90E00E94411927
:1024F00021503109CC2389F0C13031F1C23079F15A
:10250000C330A9F4309327012093260136952795EF
:1025100030932901209328010AC03093870020932B
:102520008600369527953093890020938800CF91B7
:1025300008951092890010928800CF91089510920A
:10254000990010929800F3CF309397002093960053
:10255000369527953093990020939800E8CF3093D3
:10256000A7002093A600369527953093A9002093C5
:10257000A800DDCF1092A9001092A800D8CF0F9329
:102580001F93CF93DF93EC018B010E946616000F1F
:10259000111FFE01E00FF11F259134912115310526
:1025A00009F068C01092890010928800F801E05389
:1025B000F84FEC0FFD1F259134912115310509F0DD
:1025C00074C01092990010929800F801E056F04FF4
:1025D000EC0FFD1F259134912115310509F480C0C0
:1025E00022953295307F3227207F322750E040E01D
:1025F00060E074E284EF90E00E94411921503109BB
:102600003093A7002093A600369527953093A90014
:102610002093A800F801E059F84EEC0FFD1F25911A
:1026200034912115310509F460C022953295307F2F
:102630003227207F322750E040E060E074E284EFF0
:1026400090E00E94411921503109309327012093D5
:102650002601369527953093290120932801109261
:102660001902109218021092B200DF91CF911F91BF
:102670000F91089522953295307F3227207F32279F
:1026800050E040E060E074E284EF90E00E94411985
:102690002150310930938700209386003695279585
:1026A000309389002093880081CF22953295307F26
:1026B0003227207F322750E040E060E074E284EF70
:1026C00090E00E94411921503109309397002093E6
:1026D000960036952795309399002093980075CFF2
:1026E0001092A9001092A80095CF10922901109283
:1026F0002801B5CF1F920F920FB60F9211242F937E
:102700003F934F935F938F939F9380911802909183
:1027100019020196909319028093180220911802D1
:10272000309119028091060290910702281739070B
:10273000A1F12091060230910702409118025091B8
:102740001902C901880F991F820F931F96958795CB
:10275000969587958417950791F080910602909140
:102760000702209118023091190296958795969547
:1027700087958217930731F41092000203C082E01C
:10278000809300029F918F915F914F913F912F9184
:102790000F900FBE0F901F90189510921902109273
:1027A000180283E080930002EDCFCF92DF92EF9288
:1027B000FF920F931F93CF93DF93CDB7DEB72E9782
:1027C0000FB6F894DEBF0FBECDBF6C01FC01E65D15
:1027D000FC4DE590F4901E861D86FC01E85DFC4DE5
:1027E0008591949190930702809306021C861B8624
:1027F0001A8619868FEF90E0A0E0B0E09FEFAFEF70
:10280000BFEF8D839E83AF83B88719821A821B82A4
:102810001C8283E08093000211E001E005C08091FA
:102820000002823008F098C08D859E85E816F90672
:1028300008F4B2C086B186FB882780F9812780938F
:10284000140286B18295817081278093150286B12A
:1028500082FB882780F981278093160286B18095B4
:102860008170809317028091090186FB882780F987
:1028700081278093100280910901829581708127C0
:10288000809311028091090182FB882780F98127BA
:1028900080931202809109018095817080931302C8
:1028A00080910002833009F486C08091000281117A
:1028B000B6CF998180910C029813C7C09A818091FC
:1028C0000D029813C2C09B8180910E029813BDC067
:1028D0003C8120910F0291E080E0321390E0292F9B
:1028E000382F8B859C85820F931F9C878B878981CE
:1028F000909108029813A6C09A81809109029813BA
:10290000A1C09B8180910A0298139CC03C812091B8
:102910000B0291E080E0321390E0292F382F898557
:102920009A85820F931F9A87898710920C021092C2
:102930000D0210920E0210920F02109208021092D5
:10294000090210920A0210920B0200930002809179
:102950000002823008F468CF90E080E0FC01EC5E79
:10296000FD4F3081FC01E45FFD4F2081232B20834C
:10297000FC01E05FFD4F3081FC01E85FFD4F2081ED
:10298000232B208301968430910541F78D859E8508
:10299000E816F90608F04ECF2E960FB6F894DEBF73
:1029A0000FBECDBFDF91CF911F910F91FF90EF90A0
:1029B000DF90CF9008958D81817089838E818170A1
:1029C0008A838F8181708B83888581708C836D85EC
:1029D0007E85C6010E94BF12ED85FE85E05CF04E4B
:1029E000EC0DFD1DE491F0E090E080E09F01082EE9
:1029F00002C0359527950A94E2F7A5E0B0E0AC0F48
:102A0000BD1FA80FB91F20FF19C02C912695206863
:102A10002C9301968430910549F744E0BE016B5F29
:102A20007F4F81E092E00E9428158D859E8501965A
:102A30009E878D8784E080930002F1CE2C912695AD
:102A40002C93E7CF30E020E06ACF30E020E049CFA0
:102A5000CF92DF92EF92FF920F931F93CF93DF936A
:102A6000FC013281A081B1812C9181E090E002C013
:102A7000880F991F3A95E2F78095909582238C9361
:102A8000442309F454C06B0141508B010F5F1F4F69
:102A9000040F111D61E070E0E601A881B0E090E054
:102AA00080E018C028817B0101C0EE0C3A95EAF75E
:102AB0002E2928833381C081D18128817B0101C0E7
:102AC000EE0C3A95EAF72E2928830000019688300B
:102AD000910531F13381C081D1812881AB0102C0E0
:102AE000440F551F3A95E2F74095509524232883CB
:102AF0009D01082E02C0359527950A94E2F734818E
:102B0000C081D18120FDCECF2881AB0102C0440F0E
:102B1000551F3A95E2F74095509524232883CACF54
:102B2000DFEFCD1ADD0AC016D10609F0B5CF9281CC
:102B30000190F081E02D808121E030E001C0220F82
:102B40009A95EAF7822B8083DF91CF911F910F91A5
:102B5000FF90EF90DF90CF900895CF93DF9300D058
:102B60001F92CDB7DEB719821A821B821C8244E005
:102B7000BE016F5F7F4F81E092E00E9428150F90A9
:102B80000F900F900F90DF91CF910895CF93DF9327
:102B900000D01F92CDB7DEB78FEF89838A838B83F6
:102BA0008C8344E0BE016F5F7F4F81E092E00E9422
:102BB00028150F900F900F900F90DF91CF910895EF
:102BC00041E061E080E00E94971640E061E080E033
:102BD0000E94AF16EEE6F0E080818260808384E69A
:102BE00087BD089540E061E080E00E94391720E051
:102BF00041E061E081E00E94511720E040E060E0A8
:102C000081E00E947217259A109287001092860028
:102C10001092890010928800089540E061E080E001
:102C20000E94931720E041E061E081E00E94AB1731
:102C300020E040E060E081E00E94CC176B9A1092A7
:102C400097001092960010929900109298000895A3
:102C500040E061E080E00E94ED1720E041E061E0AB
:102C600081E00E94051820E040E060E081E00E94E1
:102C70002618E1E0F1E08081886080831092A7004F
:102C80001092A6001092A9001092A800089540E0AA
:102C900061E080E00E94471820E041E061E081E0CF
:102CA0000E945F1820E040E060E081E00E94801810
:102CB000EAE0F1E080818860808310922701109221
:102CC0002601109229011092280108950E94F21500
:102CD0000E940D160E9428160C944716219A259AD8
:102CE0006B9AE1E0F1E0808188608083EAE0F1E0C6
:102CF00080818860808381B1856581B987B18A7A56
:102D000087B980818A7A808312B888B1856588B94D
:102D1000EBE0F1E08081856580830E94E0150E94F0
:102D2000F2150E940D160E9428160C944716CF9398
:102D3000DF93D62FC42F42E0682F85E490E00E94F5
:102D4000CC1841E06D2F85E490E00E94CC1840E063
:102D50006C2F85E490E0DF91CF910C94CC18CF9349
:102D6000DF93C82FD62F642F40E084E490E00E94C8
:102D7000CC1841E06D2F84E490E00E94CC1843E031
:102D80006C2F85E490E0DF91CF910C94CC181F93C9
:102D9000CF93DF93162FD42FC22F47E0682F84E400
:102DA00090E00E94CC1846E0612F84E490E00E94FD
:102DB000CC1845E06D2F84E490E00E94CC1844E0EC
:102DC0006C2F84E490E0DF91CF911F910C94CC188C
:102DD000CF93DF93D62FC42F40E0682F81EB90E094
:102DE0000E94CC1841E06D2F81EB90E00E94CC183E
:102DF00042E06C2F81EB90E0DF91CF910C94CC18E6
:102E0000CF93DF93C82FD62F642F40E080EB90E064
:102E10000E94CC1841E06D2F80EB90E00E94CC180E
:102E200043E06C2F81EB90E0DF91CF910C94CC18B4
:102E30001F93CF93DF93162FD42FC22F47E0682F15
:102E400080EB90E00E94CC1846E0612F80EB90E090
:102E50000E94CC1845E06D2F80EB90E00E94CC18CA
:102E600044E06C2F80EB90E0DF91CF911F910C94A8
:102E7000CC18CF93DF93D62FC42F42E0682F81E880
:102E800090E00E94CC1841E06D2F81E890E00E9414
:102E9000CC1840E06C2F81E890E0DF91CF910C944A
:102EA000CC181F93CF93DF93C82FD62F142F40E059
:102EB000622F80E890E00E94CC1841E0612F80E80A
:102EC00090E00E94CC1843E06D2F81E890E00E94D2
:102ED000CC1844E06C2F81E890E0DF91CF911F91F6
:102EE0000C94CC181F93CF93DF93162FD42FC22F9F
:102EF00047E0682F80E890E00E94CC1846E0612F00
:102F000080E890E00E94CC1845E06D2F80E890E0CA
:102F10000E94CC1844E06C2F80E890E0DF91CF91C4
:102F20001F910C94CC18CF93DF93D62FC42F42E07F
:102F3000682F81E990E00E94CC1841E06D2F81E973
:102F400090E00E94CC1840E06C2F81E990E0DF9186
:102F5000CF910C94CC181F93CF93DF93C82FD62F0B
:102F6000142F40E0622F80E990E00E94CC1841E0ED
:102F7000612F80E990E00E94CC1843E06D2F81E939
:102F800090E00E94CC1844E06C2F81E990E0DF9142
:102F9000CF911F910C94CC181F93CF93DF93162FD2
:102FA000D42FC22F47E0682F80E990E00E94CC1810
:102FB00046E0612F80E990E00E94CC1845E06D2F3B
:102FC00080E990E00E94CC1844E06C2F80E990E00A
:102FD000DF91CF911F910C94CC18CF93DF93D62F14
:102FE000C42F42E0682F81EA90E00E94CC1841E0B3
:102FF0006D2F81EA90E00E94CC1840E06C2F81EAAE
:1030000090E0DF91CF910C94CC181F93CF93DF9376
:10301000C82FD62F142F40E0622F80EA90E00E9444
:10302000CC1841E0612F80EA90E00E94CC1843E088
:103030006D2F81EA90E00E94CC1844E06C2F81EA69
:1030400090E0DF91CF911F910C94CC181F93CF93F8
:10305000DF93162FD42FC22F47E0682F80EA90E02D
:103060000E94CC1846E0612F80EA90E00E94CC18C4
:1030700045E06D2F80EA90E00E94CC1844E06C2F70
:1030800080EA90E0DF91CF911F910C94CC18CF9300
:10309000DF93D62FC42F42E0682F81E291E00E9497
:1030A000CC1841E06D2F81E291E00E94CC1840E005
:1030B0006C2F81E291E0DF91CF910C94CC181F939B
:1030C000CF93DF93C82FD62F142F40E0622F80E2DA
:1030D00091E00E94CC1841E0612F80E291E00E94D3
:1030E000CC1843E06D2F81E291E00E94CC1844E0BF
:1030F0006C2F81E291E0DF91CF911F910C94CC185D
:103100001F93CF93DF93162FD42FC22F47E0682F42
:1031100080E291E00E94CC1846E0612F80E291E0CD
:103120000E94CC1845E06D2F80E291E00E94CC18FF
:1031300044E06C2F80E291E0DF91CF911F910C94DD
:10314000CC1821E030E001C0220F6A95EAF7FC01BB
:1031500020830895FC01908121E030E001C0220F1E
:103160006A95EAF7922790830895FC01908121E007
:1031700030E001C0220F6A95EAF7922B9083089500
:10318000FC01408121E030E001C0220F6A95EAF79E
:10319000209524232083089521E030E001C0220FF0
:1031A0004A95EAF7FC013081611104C02095232380
:1031B00020830895232B20830895FC01808121E042
:1031C00030E001C0220F6A95EAF7822381700895EA
:1031D000FC011082089578940E946E160E94AD152D
:1031E0000E94C615C1E009C02FEF87E893E1215086
:1031F00080409040E1F700C0000086B186FB882740
:1032000080F98C278093140286B1829581708C2777
:103210008093150286B182FB882780F98C278093E2
:10322000160286B180958170809317028091090102
:1032300086FB882780F98C278093100280910901F2
:10324000829581708C27809311028091090182FB05
:10325000882780F98C27809312028091090180953C
:1032600081708093130280911402882309F4BCCFEB
:1032700084EE90E00E94D5130E94AD150E94C61501
:10328000B3CFA1E21A2EAA1BBB1BFD010DC0AA1FC2
:10329000BB1FEE1FFF1FA217B307E407F50720F0BF
:1032A000A21BB30BE40BF50B661F771F881F991F3A
:1032B0001A9469F760957095809590959B01AC0183
:0A32C000BD01CF010895F894FFCF7F
:0632CA00032200000204D3
:00000001FF
