:100000000C9434350C9455350C9455350C94553569
:100010000C9455350C9455350C9455350C94553538
:100020000C9455350C9455350C9455350C94553528
:100030000C9455350C9455350C9455350C94553518
:100040000C9455350C9455350C9455350C94553508
:100050000C9455350C94AA360C9455350C945535A2
:100060000C9455350C9455350C9455350C945535E8
:100070000C9455350C9455350C9455350C945535D8
:100080000C9455350C9455350C9455350C945535C8
:100090000C9455350C9455350C9455350C945535B8
:1000A0000C9455350C9455350C9455350C945535A8
:1000B0000C9455350C9455350C9455350C94553598
:1000C0000C9455350C9455350C9455350C94553588
:1000D0000C9455350C9455350C9455350C94553578
:1000E0000C945535BA027003BA02DC0310031003F6
:1000F000170470031704700397049704DC032705A3
:1001000017042705170417042705170427051704E4
:1001100027052705170427051704270517041704C3
:1001200027051704270517042705270500000000E9
:1001300000000000000000000000000000000000BF
:1001400000000000000000000000000000000000AF
:10015000000000000000000000000000000000009F
:10016000000000000000000000000000000000008F
:10017000000000000000000000000000000000007F
:10018000000000000000000000000000000000006F
:10019000000000000000000000000000000000005F
:1001A000000000000000000000000000000000004F
:1001B000000000000000000000000000000000003F
:1001C000000000000000000000000000000000002F
:1001D000000000000000000000000000000000001F
:1001E000000000000000000017047003700370039B
:1001F000000017041704DC03DC03000017041704D5
:10020000DC03DC03DC0310031003100310031003F2
:10021000100310031003100310037003700327056D
:10022000270597049704970417041704DC03DC03DD
:10023000DC0317041704DC03DC03DC0300001003F9
:100240001003100310031003100310031003100316
:100250001003100300001704700370037003000004
:100260001704DC03DC03DC03000017041704DC03C1
:10027000DC0300001003100310031003100310032D
:100280001003100310031003700370037003700356
:10029000BA02BA02BA02700370031003100310030B
:1002A000700370031003100310030B020B020B0208
:1002B0000B020B020B020B020B020B020B020B02D6
:1002C0000B02170417047003700370030000170477
:1002D000DC03DC03DC0300001704DC03DC03DC03C9
:1002E0000000100310031003100310031003100389
:1002F00010031003100370037003270527059704EC
:100300009704000017041704DC03DC03DC03170464
:100310001704DC03DC03DC031003100310031003D9
:100320001003100310031003100310031003000048
:100330001704170470037003700317041704DC0319
:10034000DC03DC0300001704DC03DC03DC03000037
:100350001003100310031003100310031003100305
:1003600010030000700370037003BA02BA02BA02ED
:10037000000070037003100310030000700370038B
:100380001003100310030B020B020B020B0293026B
:100390004B024B024B024B024B024B024B024B02F5
:1003A0004B024B024B024B024B024B024B024B02E5
:1003B0004B024B024B024B024B024B024B020B0215
:1003C0004B024B0293029302930293029302930215
:1003D0009302930293029302930293029302930275
:1003E0009302930293029302930293029302930265
:1003F000930293020B020B020B02930293026E0212
:100400006E026E026E026E026E026E026E026E026C
:100410006E026E026E026E026E026E026E026E025C
:100420006E026E026E026E026E020B020B026E0212
:100430006E024B024B024B024B024B024B0200007E
:100440004B024B024B024B024B024B0200002705B2
:1004500027052705270527057505270527052006F4
:1004600020062705270527051704170400000000AC
:1004700000000000000000000000170417047003D3
:100480007003000017041704DC03DC03DC0317040B
:100490001704DC03DC03DC03100310031003100358
:1004A0001003100310031003100310030000700367
:1004B0002705270597049704970417041704DC03FE
:1004C000DC03DC0300001704DC03DC03DC030000B6
:1004D0001003100310031003100310031003100384
:1004E000100310031003000017047003700370035F
:1004F000000017041704DC03DC03000017041704D2
:10050000DC03DC03DC0310031003100310031003EF
:100510001003100310031003100370037003700323
:100520007003BA02BA02BA02700370031003100318
:1005300010037003700310031003100300000B027C
:100540000B020B020B020B020B020B020B020B0243
:100550000B020B020000170470037003700300000D
:100560001704DC03DC03DC03000017041704DC03BE
:10057000DC0300001003100310031003100310032A
:1005800010031003100310037003700327052705E1
:1005900097049704970417041704DC03DC03DC03B7
:1005A00017041704DC03DC03DC031003100310033F
:1005B00010031003100310031003100310031003A3
:1005C000100317041704700370037003000017046E
:1005D000DC03DC03DC0300001704DC03DC03DC03C6
:1005E0000000100310031003100310031003100386
:1005F0001003100310037003700370037003BA023A
:10060000BA0200007003700310031003100370039C
:1006100070031003100310030B020B020B020B02FA
:1006200093024B024B024B024B024B024B024B021A
:100630004B024B024B024B024B024B024B024B0252
:100640004B024B024B024B024B024B024B024B0242
:100650000B024B024B02930293029302930293020A
:1006600093029302930293029302930293029302E2
:1006700093029302930293029302930293029302D2
:100680009302930293020B020B020B020B029302E2
:100690006E026E026E026E026E026E026E026E02DA
:1006A0006E026E026E026E026E026E026E026E02CA
:1006B0006E026E026E026E026E026E026E020B021D
:1006C0006E026E024B024B024B024B024B024B027C
:1006D00000004B024B024B024B024B024B0200004C
:1006E000270527052705270527057505750527050E
:1006F00020062006270527052705170417040000F4
:1007000000000000000000000000000000000000E9
:1007100000000000000000000000000000000000D9
:1007200000000000000000000000000000000000C9
:1007300000000000000000000000000000000000B9
:1007400000000000000000000000000000000000A9
:100750000000000000000000000000000000000099
:100760000000000000000000000000000000000089
:100770000000000000000000000000000000000079
:100780000000000000000000000000000000000069
:100790000000000000000000000000000000000059
:1007A0000000000000000000000000000000000049
:1007B0000000000000000000000000000000000039
:1007C0000000000000000000000000000000000029
:1007D0000000000000000000000000000000000019
:1007E0000000000000000000000000000000000009
:1007F00000000000000000000000000000000000F9
:1008000000000000000000000000000000000000E8
:1008100000000000000000000000000000000000D8
:1008200000000000000000000000000000000000C8
:1008300000000000000000000000000000000000B8
:1008400000000000000000000000000000000000A8
:100850000000000000000000000000000000000098
:100860000000000000000000000000000000000088
:100870000000000000000000000000000000000078
:100880000000000000000000000000000000000068
:100890000000000000000000000000000000000058
:1008A0000000000000000000000000000000000048
:1008B0000000000000006E006E00DC00DC006E0036
:1008C00075007500E900E9007B00F700F700830080
:1008D0000000000000000000830000008300000012
:1008E0000000830000008300000000000000000002
:1008F00083000000830000000000830000008300EC
:1009000000000000000000008300000083000000E1
:1009100000008300000083000000000000000000D1
:1009200083008300830083006E006E006E007500FC
:100930007500750075007B007B007B008300000064
:1009400000008300000083000000000000000000A1
:10095000830000008300000000008300000083008B
:100960000000000000000000830000008300000081
:100970000000830000008300000000000000000071
:10098000830000008300000000008300000083005B
:100990000000000000000000830000008300000051
:1009A000830093009300A500A50000000000000054
:1009B000AF000000AF0000000000AF000000AF007B
:1009C0000000000000000000A5000000A5000000DD
:1009D0000000A50000008300830093009300A500A1
:1009E000AF000000AF0000000000AF000000AF004B
:1009F0000000000000000000AF000000A5000000A3
:100A00000000A5000000A500000000000000830019
:100A100093009300A500A5000000AF000000AF0008
:100A20000000000000000000AF000000AF00000068
:100A30000000A5000000A50000000000000000006C
:100A4000A5000000A50000000000A5000000930024
:100A50000000000000000000930000009300000070
:100A60000000930000009300000000000000000060
:100A700083000000830000000000830083009300D7
:100A80009300A500A5000000AF000000AF0000002B
:100A90000000AF000000AF000000000000000000F8
:100AA000A5000000A50000000000A5000000A500B2
:100AB0000000830083009300A500A500AF000000A4
:100AC0000000AF000000AF000000000000000000C8
:100AD000AF000000AF0000000000A5000000A5006E
:100AE00000000000000000008300830093009300DA
:100AF000A500AF000000AF000000000000000000F3
:100B0000AF000000AF0000000000AF000000A50033
:100B10000000000000000000A5000000A50000008B
:100B20000000A5000000A50000000000000000007B
:100B30009300000093000000000093000000930069
:100B4000000000000000000083000000830000009F
:100B5000000083000000830000000000000000008F
:100B6000750075007500750075006E006E006E00F2
:100B70006E006E00000062006200620062006200AF
:100B800057005700570057000000520000000000B7
:100B900049004900490000006E006E006E006E00C2
:100BA00000007B007B007B007B0000008300830053
:100BB00083008300830093009300930093009300CD
:100BC000A500000000000000DC00DC000000D000F8
:100BD000D000D000D000D000C400C400C400C400C5
:100BE000C400AF00AF00AF00AF00AF00AF009C008B
:100BF0009C009C009C00000093000000000083000B
:100C00008300830000006200620062006200000056
:100C10009300930093009300000062006200620062
:100C200062006200C400C4005200A500A500570085
:100C30005700AF00AF006200C400C400AF00000066
:100C40000000AF000000AF00000000000000000046
:100C5000AF000000AF0000000000A5000000A500EC
:100C60000000000000000000830083009300930058
:100C7000A500AF000000AF00000000000000000071
:100C8000AF000000AF0000000000AF000000A500B2
:100C90000000000000000000A5000000A50000000A
:100CA000830093009300A500A50000000000000051
:100CB000AF000000AF0000000000AF000000AF0078
:100CC0000000000000000000A5000000A5000000DA
:100CD0000000A5000000A5000000000000000000CA
:100CE00093000000930000000000930000009300B8
:100CF00000000000000000009300000083000000DE
:100D0000000083000000830000000000000083005A
:100D100093009300A500A5000000AF000000AF0005
:100D20000000000000000000AF000000AF00000065
:100D30000000A5000000A500000000000000000069
:100D4000A5000000830083009300A500A500AF006C
:100D50000000000000000000AF000000AF00000035
:100D60000000AF000000AF00000000000000000025
:100D7000A5000000A5000000000083008300930090
:100D80009300A500A5000000AF000000AF00000028
:100D90000000AF000000AF000000000000000000F5
:100DA000A5000000A50000000000A5000000A500AF
:100DB0000000000000000000A500000093000000FB
:100DC00000009300000093000000000000000000FD
:100DD00093000000930000000000830000008300E7
:100DE00000000000000000008300000083000000FD
:100DF00000007500750075007500750000006E003C
:100E00006E006E006E000000620062006200620010
:100E100062005700570057005700000052000000C2
:100E2000000049004900490000006E006E006E009D
:100E30006E0000007B007B007B007B007B0083005A
:100E4000830083008300830093009300930093004A
:100E50009300A500000000000000DC00DC000000A2
:100E6000D000D000D000D000D000C400C400C40026
:100E7000C400C4000000AF00AF00AF00AF00AF007F
:100E80009C009C009C009C0000009300000000005F
:100E90008300830083000000620062006200620041
:100EA0000000930093009300930000006200620032
:100EB000620062006200C400C40052005200A5003B
:100EC00057005700AF00AF006200C400C40000002C
:100ED0000000000000000000000000000000000012
:100EE0000000000000000000000000000000000002
:100EF00000000000000000000000000000000000F2
:100F000000000000000000000000000000000000E1
:100F100000000000000000000000000000000000D1
:100F200000000000000000000000000000000000C1
:100F300000000000000000000000000000000000B1
:100F400000000000000000000000000000000000A1
:100F50000000000000000000000000000000000091
:100F60000000000000000000000000000000000081
:100F70000000000000000000000000000000000071
:100F80000000000000000000000000000000000061
:100F90000000000000000000000000000000000051
:100FA0000000000000000000000000000000000041
:100FB0000000000000000000000000000000000031
:100FC0000000000000000000000000000000000021
:100FD0000000000000000000000000000000000011
:100FE0000000000000000000000000000000000001
:100FF00000000000000000000000000000000000F1
:1010000000000000000000000000000000000000E0
:1010100000000000000000000000000000000000D0
:1010200000000000000000000000000000000000C0
:1010300000000000000000000000000000000000B0
:1010400000000000000000000000000000000000A0
:101050000000000000000000000000000000000090
:101060000000000000000000000000000000000080
:101070000000000000000000000000000000000070
:101080000000000000000000000000000000000060
:1010900000000000000000000000000000004A0105
:1010A0004A014A014A014A01260126012601260178
:1010B00026014A014A014A014A014A014A01260120
:1010C00026012601260126014A014A014A0126017C
:1010D0002601260126015D015D015D015D015D01C5
:1010E0004A014A014A014A014A0126012601260114
:1010F00026012601260126012601260126012601B8
:1011000026012601260126012601260126012601A7
:101110002601260126014A014A014A014A014A01E3
:101120005D015D015D015D012601260126012601AB
:1011300026014A014A014A014A014A015D015D0155
:101140005D015D015D015D015D015D015D014A01C2
:101150004A014A014A014A014A014A014A014A0137
:101160004A014A014A014A014A014A014A014A0127
:101170004A014A014A014A014A01000000000000F8
:101180000B020B020000000000000B020B0200002B
:10119000000000000000000000000000EE01EE0171
:1011A000000000000000EE01EE0100000000000061
:1011B00000000000000000000B0200000000000022
:1011C00000000B020B020000000000000000000005
:1011D0000000EE01EE010000000000000000EE0142
:1011E00000000000000000000000000000000B02F2
:1011F0000B020000000000000B020B0200000000C8
:1012000000000000000000000000EE01EE01000000
:1012100000000000EE01EE010000000000000000F0
:10122000000000000000B801000000000000000005
:10123000B8010000000000000000000000000000F5
:10124000880188010000000000008801880100007A
:101250000000000000000000000000000B020B0274
:101260000000000000000B020B0200000000000064
:101270000000000000000000EE010000000000007F
:101280000000EE01EE010000000000000000000080
:1012900000000B020B0200000000000000000B0227
:1012A0000000000000000000000000000000EE014F
:1012B000EE01000000000000EE01EE010000000061
:1012C000000000000000000000000B020B02000004
:1012D000000000000B020B020000000000000000F4
:1012E000000000000000EE0100000000000000000F
:1012F000EE010000000000000000000000000000FF
:10130000B801B801000000000000B801B8010000F9
:1013100000000000000000000000000088018801BB
:1013200000000000000088018801000000000000AB
:10133000A403A403A403A403A40370037003700311
:1013400070037003700310031003100310031003E5
:10135000BA02BA02BA02BA02BA0293029302930222
:101360004B024B024B024B02B801B801B801B80165
:10137000B801EE01EE01EE01EE01EE010B020B02EF
:101380000B020B020B024B024B024B024B024B02B5
:1013900093029302930293027003700370033F035E
:1013A0003F033F033F033F031003100310031003E9
:1013B0001003BA02BA02BA02BA02BA02BA026E0242
:1013C0006E026E026E026E024B024B024B020B0269
:1013D0000B020B020B020B021003100370037003CD
:1013E0001003100310031003100370037003700345
:1013F00000000000B801B801B801B801B801B80197
:10140000B801B801B801B801B801B8010000000086
:1014100000000B020B0200000000000000000B02A5
:101420000000000000000000000000000000EE01CD
:10143000EE01000000000000EE01EE0100000000DF
:10144000000000000000000000000B020B02000082
:10145000000000000B020B02000000000000000072
:10146000000000000000EE0100000000000000008D
:10147000EE0100000000000000000000000000007D
:101480000B020B020000000000000B020B02000028
:10149000000000000000000000000000EE01EE016E
:1014A000000000000000EE01EE010000000000005E
:1014B0000000000000000000B80100000000000073
:1014C0000000B801B80100000000000000000000AA
:1014D0000000880188010000000000000000880171
:1014E00000000000000000000000000000000B02EF
:1014F0000B020000000000000B020B0200000000C5
:1015000000000000000000000000EE01EE010000FD
:1015100000000000EE01EE010000000000000000ED
:101520000000000000000B020000000000000000AE
:101530000B0200000000000000000000000000009E
:10154000EE01EE01000000000000EE01EE010000DF
:101550000000000000000000000000000B020B0271
:101560000000000000000B020B0200000000000061
:101570000000000000000000EE010000000000007C
:101580000000EE01EE01000000000000000000007D
:101590000000B801B8010000000000000000B80120
:1015A00000000000000000000000000000008801B2
:1015B0008801000000000000880188010000000090
:1015C0000000A403A403A403A403A403A4037003BE
:1015D00070037003700370031003100310031003F3
:1015E0001003BA02BA02BA02BA02BA029302930212
:1015F00093024B024B024B024B02B801B801B801F7
:10160000B801B801EE01EE01EE01EE01EE010B02B0
:101610000B020B020B020B024B024B024B024B0262
:101620004B029302930293029302700370037003C0
:101630003F033F033F033F033F0310031003100327
:10164000100310031003BA02BA02BA02BA02BA02B5
:101650006E026E026E026E026E024B024B024B0273
:101660000B020B020B020B020B02100310037003A0
:1016700070031003100310031003100370037003B2
:10168000700300000000B801B801B801B801B8014A
:10169000B801B801B801B801B801B801B80100003B
:1016A000000000000000000000000000000000003A
:1016B000000000000000000000000000000000002A
:1016C000000000000000000000000000000000001A
:1016D000000000000000000000000000000000000A
:101950000000000000000000170470037003700313
:10196000000017041704DC03DC030000170417044D
:10197000DC03DC03DC03100310031003100310036B
:1019800010031003100310031003700370032705E6
:10199000270597049704970417041704DC03DC0356
:1019A000DC0317041704DC03DC03DC030000100372
:1019B000100310031003100310031003100310038F
:1019C000100310030000170470037003700300007D
:1019D0001704DC03DC03DC03000017041704DC033A
:1019E000DC030000100310031003100310031003A6
:1019F00010031003100310037003700370037003CF
:101A0000BA02BA02BA027003700310031003100383
:101A1000700370031003100310030B020B020B0280
:101A20000B020B020B020B020B020B020B020B024E
:101A30000B021704170470037003700300001704EF
:101A4000DC03DC03DC0300001704DC03DC03DC0341
:101A50000000100310031003100310031003100301
:101A60001003100310037003700327052705970464
:101A70009704000017041704DC03DC03DC031704DD
:101A80001704DC03DC03DC03100310031003100352
:101A900010031003100310031003100310030000C1
:101AA0001704170470037003700317041704DC0392
:101AB000DC03DC0300001704DC03DC03DC030000B0
:101AC000100310031003100310031003100310037E
:101AD00010030000700370037003BA02BA02BA0266
:101AE0000000700370031003100300007003700304
:101AF0001003100310030B020B020B020B029302E4
:101B00004B024B024B024B024B024B024B024B026D
:101B10004B024B024B024B024B024B024B024B025D
:101B20004B024B024B024B024B024B024B020B028D
:101B30004B024B029302930293029302930293028D
:101B400093029302930293029302930293029302ED
:101B500093029302930293029302930293029302DD
:101B6000930293020B020B020B02930293026E028A
:101B70006E026E026E026E026E026E026E026E02E5
:101B80006E026E026E026E026E026E026E026E02D5
:101B90006E026E026E026E026E020B020B026E028B
:101BA0006E024B024B024B024B024B024B020000F7
:101BB0004B024B024B024B024B024B02000027052B
:101BC000270527052705270575052705270520066D
:101BD0002006270527052705170417040000000025
:101BE000000000000000000000001704170470034C
:101BF0007003000017041704DC03DC03DC03170484
:101C00001704DC03DC03DC031003100310031003D0
:101C100010031003100310031003100300007003DF
:101C20002705270597049704970417041704DC0376
:101C3000DC03DC0300001704DC03DC03DC0300002E
:101C400010031003100310031003100310031003FC
:101C500010031003100300001704700370037003D7
:101C6000000017041704DC03DC030000170417044A
:101C7000DC03DC03DC031003100310031003100368
:101C8000100310031003100310037003700370039C
:101C90007003BA02BA02BA02700370031003100391
:101CA00010037003700310031003100300000B02F5
:101CB0000B020B020B020B020B020B020B020B02BC
:101CC0000B020B0200001704700370037003000086
:101CD0001704DC03DC03DC03000017041704DC0337
:101CE000DC030000100310031003100310031003A3
:101CF000100310031003100370037003270527055A
:101D000097049704970417041704DC03DC03DC032F
:101D100017041704DC03DC03DC03100310031003B7
:101D2000100310031003100310031003100310031B
:101D300010031704170470037003700300001704E6
:101D4000DC03DC03DC0300001704DC03DC03DC033E
:101D500000001003100310031003100310031003FE
:101D60001003100310037003700370037003BA02B2
:101D7000BA02000070037003100310031003700315
:101D800070031003100310030B020B020B020B0273
:101D900093024B024B024B024B024B024B024B0293
:101DA0004B024B024B024B024B024B024B024B02CB
:101DB0004B024B024B024B024B024B024B024B02BB
:101DC0000B024B024B029302930293029302930283
:101DD000930293029302930293029302930293025B
:101DE000930293029302930293029302930293024B
:101DF0009302930293020B020B020B020B0293025B
:101E00006E026E026E026E026E026E026E026E0252
:101E10006E026E026E026E026E026E026E026E0242
:101E20006E026E026E026E026E026E026E020B0295
:101E30006E026E024B024B024B024B024B024B02F4
:101E400000004B024B024B024B024B024B020000C4
:101E50002705270527052705270575057505270586
:101E6000200620062705270527051704170400006C
:101E70000000000000000000000000000000000062
:101E80000000000000000000000000000000000052
:101E90000000000000000000000000000000000042
:101EA0000000000000000000000000000000000032
:101EB0000000000000000000000000000000000022
:101EC0000000000000000000000000000000000012
:101ED0000000000000000000000000000000000002
:101EE00000000000000000000000000000000000F2
:101EF00000000000000000000000000000000000E2
:101F000000000000000000000000000000000000D1
:101F100000000000000000000000000000000000C1
:101F200000000000000000000000000000000000B1
:101F300000000000000000000000000000000000A1
:101F40000000000000000000000000000000000091
:101F50000000000000000000000000000000000081
:101F60000000000000000000000000000000000071
:101F70000000000000000000000000000000000061
:101F80000000000000000000000000000000000051
:101F90000000000000000000000000000000000041
:101FA0000000000000000000000000000000000031
:101FB0000000000000000000000000000000000021
:101FC0000000000000000000000000000000000011
:101FD0000000000000000000000000000000000001
:101FE00000000000000000000000000000000000F1
:101FF00000000000000000000000000000000000E1
:1020000000000000000000000000000000000000D0
:1020100000000000000000000000000000000000C0
:10202000000000000103030303030303030303038E
:102030000307050505050705070505070507050548
:10204000050507050705050704060404040406043E
:10205000060404060406040404040606060606062E
:10206000060606060606060606040406040604041A
:102070000404060406040406040604040404060416
:102080000604040604060404040406040604040604
:1020900004060404040406040604060606060600F4
:1020A000000006040200090F0D0B000909090B00CE
:1020B0000F0D090B090F0F0B0B0B0B090B090D0B68
:1020C000090B090D0D090B090B09090F0D0B090966
:1020D000000F0B0B0B0B090B090F0D0900090F0D5E
:1020E0000B00090B090B000D0D090B000F0D090B5F
:1020F000090B0909090D0B090B090D0B090B09093E
:1021000009090F0D0B09090F0F0B0B0B0B090B091D
:102110000F0D090B090F0D0900090B090B000D0B21
:10212000090B000F0F0B0B0B0B09090F0D0B090906
:10213000090D0B000B09090B090F0D0909090F0FF8
:102140000B0B0B0B090B090D0D000B090F0D090BE8
:10215000090B0909000D0B090B000D0B090B0909EF
:1021600009090F040B09090F0D0B000909090B00E0
:102170000F0D090B090F0D0909090F0F0F0F0F0F95
:102180000F0F0F0F0D0F0F0F0F0F0F0F0F0F0D0F63
:102190000D0D0F0F0F0D0F0F0F0F0D0F0F0F0F0D59
:1021A0000F0F0F0F0F0F0F0F0F0F0F0D0D0D0F0F45
:1021B0000D0F0F0F0F0F0F0F0F0F0F0F0F0F0F0F31
:1021C0000F0F0F0F0F0D0F0D0D0F0F0F0D0F0F0F27
:1021D0000F040F0F0F0F0D0F060F0B0B0F0F0F0F2D
:1021E0000F0F0F0F0F0F0F0F020000060402000960
:1021F000090D0B000B09090B090F0D0909090F0F38
:102200000B0B0B0B090B090D04090B090F0D090B27
:10221000090B0909000D0B090B000F0B0B0B0B0928
:1022200009090F0D0B00090F0D0B000909090B001F
:102230000F0D090B090F0D0909090B090B090D0BEE
:10224000090B090D0D090B090B09090F0D0B0909E4
:10225000000F0B0B0B0B090B090F0D0900090F0DDC
:102260000B00090B090B000D0D090B000F0F0B0BD9
:102270000B0B0909090D0B090B090D0B090B0909BA
:1022800009090F0D0B09090F0F0B0B0B0B090B099C
:102290000F0D090B090F0D0900090B090B000D0BA0
:1022A000090B000D0D090B090B09090F0D0B09098D
:1022B000090D0B000B09090B090F0D0909090F0D79
:1022C0000B09090F0F0F0F0F0D0F0F0F0F0D0F0F32
:1022D0000F0F0F0F0F0F0F0D0F0D0D0F0F0F0D0F16
:1022E0000F0F0F0D0F0F0F0F0F0F0F0F0F0F0F0F00
:1022F0000F0F0F0F0D0D0D0F0F0D0F0F0F0F0F0FF6
:102300000F0F0F0F0D0F0F0F0F0F0F0F0F0F0D0FE1
:102310000D0D0F0F0F0D0F0F0F0F040F0F0F0F0DE0
:102320000F060F0B0B0F0F0F0F0F0F0F0F0F0F0FCE
:102330000F0000000000000000000000000000008E
:10234000000000000000000000000000000000008D
:10235000000000000000000000000000000000007D
:10236000000000000000000000000000000000006D
:10237000000000000000000000000000000000005D
:10238000000000000000000000000000000000004D
:10239000000000000000000000000000000000003D
:1023A000000000000000000000000000000000002D
:1023B000000000000000000000000000000000001D
:1023C000000000000000000000000000000000000D
:1023D00000000000000000000000000000000000FD
:1023E00000000000000000000000000000000000ED
:1023F00000000000000000000000000000000000DD
:102400000000000000000000000000002C010E038E
:10241000930200009302000000000000100300007F
:10242000000000008801000000000B020000000016
:10243000000000004A010000000000000000000051
:10244000D201B801000000009302100370030000E5
:10245000BA020000000000000B024B02EE01000077
:1024600000000000000088010000000000000000E3
:10247000B8010000EE010000000000008801930296
:10248000000000000000BA021003000093020000E8
:102490000000EE0100000000000000000000BA0291
:1024A0006E0200009302000000000B020000B80161
:1024B0000B02000000001003E402BA026E020000EA
:1024C00000001704000017041704000000000000BB
:1024D00000001003E40200000000930200009F01CE
:1024E000B801000000000B024B02000000000000D9
:1024F00000004B02000000000B0200000000000082
:1025000000000000000000000000E402BA026E02B9
:10251000000000000000B8010B020000B80100003C
:10252000000000001003E402BA02000000000000F6
:102530001704000017040000000000000000000065
:102540001003000000000000930200009F01000043
:102550000000B8010B024B02000000000000000068
:102560004B0200000000000000000000000000001E
:1025700000000000000000000B0200000B02000041
:1025800000000B020000B8018801000000000B02EF
:102590000B0200000B02000000009302000000008C
:1025A000000000000000000000000B020B02000011
:1025B00000000B024B0200009302000000008801A3
:1025C00000000000000000000000930200000B0269
:1025D0009302000000000000000000000000000066
:1025E0000000000000008801000000000000000062
:1025F000B8010000EE010000000000008801930215
:10260000000000000000BA02100300009302000066
:102610000000EE01000000000B02000000000000BE
:1026200000004A01000000000000EE010000D2019D
:10263000B80100000000000010037003000000005B
:102640000000930200000B024B0200000000930206
:102650000B0200008801000000000000B801BA026F
:1026600000000000000000000000EE017003700395
:10267000000000000000000093020000000088013C
:1026800000000000000000000000880100000000C1
:102690009F01000000000000BA02B8010000000025
:1026A0000000BA020000BA02BA0293024B020B0207
:1026B00000000000000000000000000093020B0278
:1026C0000000000000009F010000B801BA020000F5
:1026D0000000000000000000EE01700370037003B2
:1026E00000000000000000000000B80188010000A8
:1026F0000000000000000000880100000000000051
:102700000000BA020000BA02B80100000000EE01A9
:10271000BA020000BA02000093024B020B02000052
:10272000000000000000000000000B020B0200008F
:1027300000000B024B020000930200000000880121
:10274000000000000000000000000B0200000B026F
:102750004B02930200000000000000000000000097
:1027600000000B0200000B020000000000009302BA
:102770000B020000B8010000000000009302930269
:1027800000000000000093020000100300000000A1
:1027900000000000000000009302000000000000A4
:1027A00000009F01000000000000BA02B801000014
:1027B0000000000000000000700370031003BA0264
:1027C00000000B020000B801880100000000930225
:1027D0000B0200008801000000000000B801BA02EE
:1027E00000000000000000000000EE01BA0200003E
:1027F00000000000000000000B02000000000000CC
:1028000000000000000000000000000000000000C8
:1028100000000000000000000000000000000000B8
:1028200000000000000000000000000000000000A8
:102830000000000000000000000000000000000098
:102BE000720100007201000000000000EE01000010
:102BF000000000008801000000004A010000000001
:102C000000000000C4000000000000000000000000
:102C100015010601000000008801EE010B02000012
:102C2000B8010000000000004A015D01260100001B
:102C3000000000000000060100000000000000008D
:102C400006010000260100000000000006018801C6
:102C5000000000000000B801EE010000B801000013
:102C600000002601000000000000000000004B02F0
:102C7000EE0100000B0200000000880100000601C8
:102C80004A010000000093026E024B02EE010000B8
:102C90000000BA020000BA02BA0200000000000000
:102CA000000093026E02000000000B0200004A01C7
:102CB0005D01000000004A015D010000000000000D
:102CC00000005D01000000004A010000000000005B
:102CD000000000000000000000006E024B02EE0148
:102CE0000000000000005D018801000006010000F6
:102CF0000000000093026E024B0200000000000082
:102D0000BA020000BA02000000000000000000004B
:102D100093020000000000000B0200004A010000C6
:102D2000000006014A015D010000000000000000F3
:102D30005D01000000000000000000000000000035
:102D400000000000000000009F0100009F01000043
:102D500000004A0100004A010601000000009F0136
:102D60009F0100009F01000000008801000000009A
:102D7000000000000000000000009F019F01000013
:102D800000009F01D2010000880100000000060140
:102D9000000000000000000000007201000072014D
:102DA0007201000000000000000088010000000027
:102DB000000000000000060100000000000000000C
:102DC0000601000026010000000000000601880145
:102DD000000000000000B801EE010000B801000092
:102DE00000002601000000004A0100000000000071
:102DF0000000C400000000000000260100001501D2
:102E00000601000000000000EE010B0200000000BF
:102E10000000B80100004A015D01000000000B0243
:102E2000B80100004A010000000000005D010B0233
:102E3000000000000000000000008801BA02BA0291
:102E400000000000000000000B02000000004A012A
:102E5000000000000000000000004A010000000027
:102E60004A010000000000000B025D0100000000AC
:102E700000004B0200004B024B020B02EE018801E6
:102E80004A0100004A010601000000000B02B801DF
:102E90000000000000004A0100005D010B0200007C
:102EA00000000000000000008801BA02BA02BA0265
:102EB000000000000000000000005D014A01000069
:102EC00000000000000000004A01000000000000B7
:102ED00000000B0200000B025D01000000008801F1
:102EE0004B0200004B0200000B02EE0188014A0178
:102EF000000000000601000000009F019F0100008B
:102F000000009F01D20100008801000000000601BE
:102F1000000000000000000000009F0100009F0171
:102F2000D201880100000000000000000000000045
:102F300000009F0100009F010000000000008801C8
:102F40004A0100004A010000000000007201720105
:102F500000000000000072010000EE01000000000F
:102F600000000000000000000B0200000000000054
:102F700000004A010000000000000B025D0100009B
:102F80000000000000000000BA02BA0293024B02E7
:102F90000000B80100005D014A01000000000B02C2
:102FA000B80100004A010000000000005D010B02B2
:102FB0000000000000000000000088014B0200003B
:102FC0000000000000000000880100000000060171
:102FD00000000000000000000000000000000000F1
:102FE00000000000000000000000000000000000E1
:102FF00000000000000000000000000000000000D1
:1030000000000000000000000000000000000000C0
:1033B000930000009300000000000000880100005E
:1033C00000000000C40000000000C4000000000075
:1033D000000000008300000000000000000000006A
:1033E000B900AF000000000006014A015D010000C5
:1033F0002601000000000000DC00F700C40000000F
:10340000000000000000A500000000000000000017
:10341000AF000000C400000000000000A50006018D
:1034200000000000000026014A0100000601000023
:103430000000C40000000000830000000000000045
:103440000000060100000000000006010601000067
:10345000AF00000000000000A50000000000000018
:1034600000001003000010031003000000008300A0
:1034700000000000C400000000000000AF000000D9
:10348000000000000000AF0000008300000000000A
:103490000000E90000000000060100000000C40078
:1034A00000008300000000000000C40000000000D5
:1034B00006010000000000000601060100000000F7
:1034C000000000000000A500000000000000000057
:1034D0001003000010030000000000008300000043
:1034E00000000000000006010000AF000000000026
:1034F00000000000AF00000083000000000000009A
:10350000E9000000000000000000C400C40000004A
:1035100083000000000000009C000000000000008C
:1035200000000000000083000000000000006800B0
:10353000000000009C00000000000000C40000002B
:1035400000000000000062000000680000000000B1
:1035500000000000D0000000C400000000000000D7
:1035600000006200000000000000930000009300D3
:1035700093000000000000000000C40000000000F4
:10358000000000000000A500000000000000000096
:10359000AF000000C400000000000000A50006010C
:1035A00000000000000026014A01000006010000A2
:1035B0000000C40000000000C40000000000000083
:1035C00000008300000000000000C4000000B900FB
:1035D000AF000000000000004A015D010000000093
:1035E000000006010000DC00F7000000000083007E
:1035F00000000000B900000000000000AF00000063
:10360000AF0000000000AF000000930000000000C9
:1036100000000000F7000000C400000000000601E8
:103620000601C400000000000000B900C400000052
:10363000060100000000AF000000060106010000C6
:103640000000C4000000C400C400DC00F700060154
:103650000000C400000083000000000083000000A0
:1036600000000000000006010000AF0000000000A4
:1036700000000601AF000000930000000000C4003D
:103680000000F70000000000000000000601060135
:10369000C400000000000000B900C40000000000E9
:1036A00000000000AF000000060100000000C400A0
:1036B000C4000000C4000000DC00F70006010000A8
:1036C000C40000008300000000006800000000004B
:1036D00000000000D0000000C40000000000000056
:1036E000000062000000000000009C0000000000DC
:1036F000D000000000000000830000000000000077
:103700000000000000009C00000000000000C40059
:103710000000000083000000000000009300930000
:10372000000000000000930000008801000000007D
:103730000000000000000000830000000000C40042
:103740000000060100000000000000000601060164
:10375000AF00000000000000AF00C4000000000047
:1037600000000000C400000006010000000083000B
:1037700000000000B900000000000000AF000000E1
:10378000AF0000000000AF000000C400C400000053
:10379000000000000000000006010000000083009F
:1037A0000000000000000000000000000000000019
:1037B0000000000000000000000000000000000009
:1037C00000000000000000000000000000000000F9
:1037D00000000000000000000000000000000000E9
:103B80009300000093000000000000008801000086
:103B900000000000C40000000000C400000000009D
:103BA0000000000083000000000000000000000092
:103BB000B900AF000000000006014A015D010000ED
:103BC0002601000000000000DC00F700C400000037
:103BD000000000000000A500000000000000000040
:103BE000AF000000C400000000000000A5000601B6
:103BF00000000000000026014A010000060100004C
:103C00000000C4000000000083000000000000006D
:103C1000000006010000000000000601060100008F
:103C2000AF00000000000000A50000000000000040
:103C300000001003000010031003000000008300C8
:103C400000000000C400000000000000AF00000001
:103C5000000000000000AF00000083000000000032
:103C60000000E90000000000060100000000C400A0
:103C700000008300000000000000C40000000000FD
:103C8000060100000000000006010601000000001F
:103C9000000000000000A50000000000000000007F
:103CA000100300001003000000000000830000006B
:103CB00000000000000006010000AF00000000004E
:103CC00000000000AF0000008300000000000000C2
:103CD000E9000000000000000000C400C400000073
:103CE00083000000000000009C00000000000000B5
:103CF00000000000000083000000000000006800D9
:103D0000000000009C00000000000000C400000053
:103D100000000000000062000000680000000000D9
:103D200000000000D0000000C400000000000000FF
:103D300000006200000000000000930000009300FB
:103D400093000000000000000000C400000000001C
:103D5000000000000000A5000000000000000000BE
:103D6000AF000000C400000000000000A500060134
:103D700000000000000026014A01000006010000CA
:103D80000000C40000000000C400000000000000AB
:103D900000008300000000000000C4000000B90023
:103DA000AF000000000000004A015D0100000000BB
:103DB000000006010000DC00F700000000008300A6
:103DC00000000000B900000000000000AF0000008B
:103DD000AF0000000000AF000000930000000000F2
:103DE00000000000F7000000C40000000000060111
:103DF0000601C400000000000000B900C40000007B
:103E0000060100000000AF000000060106010000EE
:103E10000000C4000000C400C400DC00F70006017C
:103E20000000C400000083000000000083000000C8
:103E300000000000000006010000AF0000000000CC
:103E400000000601AF000000930000000000C40065
:103E50000000F7000000000000000000060106015D
:103E6000C400000000000000B900C4000000000011
:103E700000000000AF000000060100000000C400C8
:103E8000C4000000C4000000DC00F70006010000D0
:103E9000C400000083000000000068000000000073
:103EA00000000000D0000000C4000000000000007E
:103EB000000062000000000000009C000000000004
:103EC000D00000000000000083000000000000009F
:103ED0000000000000009C00000000000000C40082
:103EE0000000000083000000000000009300930029
:103EF00000000000000093000000880100000000A6
:103F00000000000000000000830000000000C4006A
:103F1000000006010000000000000000060106018C
:103F2000AF00000000000000AF00C400000000006F
:103F300000000000C4000000060100000000830033
:103F400000000000B900000000000000AF00000009
:103F5000AF0000000000AF000000C400C40000007B
:103F600000000000000000000601000000008300C7
:103F70000000000000000000000000000000000041
:103F80000000000000000000000000000000000031
:103F90000000000000000000000000000000000021
:103FA0000000000000000000000000000000000011
:104350000F000F0000000F0000000F00000F000012
:1043600000000F00000000000F0F00000F0F0F00F3
:104370000F0000000F0F0F000000000F00000000F2
:104380000F000F0000000F0F0000000F0F000F00C4
:10439000000F00000C000003030C0300000F0C03CF
:1043A0000F0000030F030300000F000F0F00000CAD
:1043B00000030F0000030C030300000F030C0000B8
:1043C000000F00000F00000C000C0000000F0303A2
:1043D0000C0000030F0C03000000030F030000009B
:1043E0000F000F0000000C000300000C030C030082
:1043F00000030F030C0000000F000000000C0C0075
:104400000C0000000F0003000003000F0300000F6A
:1044100003000F0000030C000000000C000F03005D
:1044200000030F000F000003000C0000000F000F3E
:104430000F000000000E00000000000F0000000050
:104440000F000F0000000F0F0000000F0F000F0003
:10445000000F00000F000000000F0000000F000F11
:104460000F0000000F0F0000000F000F0F00000FE3
:1044700003000F0000000F030C00000C000F0303EB
:1044800000000C000F00000F0C0C0000000F0C00CF
:104490000F00000C030F0C00000F000F0F0F0F0F89
:1044A000020C020E00000F030000000F000F0300BB
:1044B000000C0C000F03030F000C000000030F0C96
:1044C0000C0000000F0C000000030C030F00000F95
:1044D0000F000F000F0F0F020C000E00000F030063
:1044E00000030F000F000003000C0000000F00038A
:1044F0000F0300000C0000000003000F0000000F7D
:1045000003000F0000000F0F0000000F000F00005D
:10451000000000000F00000C000F000000030F0C53
:104520000C0000000F0F030300030C030F00000F2B
:1045300003000F0000000F030C00000C000F0F0021
:10454000000000000F00000E00000000000000004E
:10455000000000000000000000000000000000005B
:10456000000000000000000000000000000000004B
:10457000000000000000000000000000000000003B
:10458000000000000000000000000000000000002B
:10459000000000000000000000000000000000001B
:1045A000000000000000000000000000000000000B
:1045B00000000000000000000000000000000000FB
:1045C00000000000000000000000000000000000EB
:1045D00000000000000000000000000000000000DB
:1045E00000000000000000000000000000000000CB
:1045F00000000000000000000000000000000000BB
:1046000000000000000000000000000000000000AA
:10461000000000000000000000000000000000009A
:10462000000000000000000000000000000000008A
:10463000000000000000000000000000000000007A
:10464000000000000000000000000000000000006A
:10465000000000000000000000000000000000005A
:10466000000000000000000000000000000000004A
:10467000000000000000000000000000000000003A
:10468000000000000000000000000000000000002A
:10469000000000000000000000000000000000001A
:1046A000000000000000000000000000000000000A
:1046B00000000000000000000000000000000000FA
:1046C00000000000000000000000000000000000EA
:1046D00000000000000000000000000000000000DA
:1046E00000000000000000000000000000000000CA
:1046F00000000000000000000000000000000000BA
:1047000000000000000000000000000000000000A9
:104710000000000000000000000000000000000099
:104720000000000000000000000000000000000089
:1047300000000000000000002C01F9010000000052
:1047400000000000000000000000930293029302AA
:104750009302EE01EE010B020B024B024B0293029D
:104760004B020B020B02EE01EE01B801B801B801D9
:10477000B801B801B8010B020B0293029302930235
:1047800093024B024B020B020B02EE01EE01EE0113
:10479000EE01EE01EE010B020B024B024B024B024B
:1047A0004B0293029302930293020B020B020B0241
:1047B0000B02B801B801B801B801B801B801B801DD
:1047C000B801B801B801B801B801000000004B02FF
:1047D0004B024B024B02BA02BA0270037003700321
:1047E000700310031003BA02BA02930293029302F9
:1047F0009302930293020B020B0293029302930221
:1048000093024B024B020B020B02EE01EE01EE0192
:10481000EE01EE01EE010B020B024B024B024B02CA
:104820004B0293029302930293020B020B020B02C0
:104830000B02B801B801B801B801B801B801B8015C
:10484000B8010000000000000000930293029302F0
:104850009302EE01EE010B020B024B024B0293029C
:104860004B020B020B02EE01EE01B801B801B801D8
:10487000B801B801B8010B020B0293029302930234
:1048800093024B024B020B020B02EE01EE01EE0112
:10489000EE01EE01EE010B020B024B024B024B024A
:1048A0004B0293029302930293020B020B020B0240
:1048B0000B02B801B801B801B801B801B801B801DC
:1048C000B801B801B801B801B801000000004B02FE
:1048D0004B024B024B02BA02BA0270037003700320
:1048E000700310031003BA02BA02930293029302F8
:1048F0009302930293020B020B0293029302930220
:1049000093024B024B020B020B02EE01EE01EE0191
:10491000EE01EE01EE010B020B024B024B024B02C9
:104920004B0293029302930293020B020B020B02BF
:104930000B02B801B801B801B801B801B801B8015B
:10494000B80100000000000000004A014A014A01CD
:104950004A014A014A014A014A01060106010601CB
:1049600006010601060106010601260126012601AF
:1049700026012601260126012601F700F700F7008F
:10498000F700F700F700F700F7000601060106013F
:1049900006010601060106010601DC00DC00DC0060
:1049A000DC00DC00DC00DC00DC00D000D000D0004B
:1049B000D000D000D000D000D000F700F700F70002
:1049C000F70000000000000000004A014A014A010F
:1049D0004A014A014A014A014A010601060106014B
:1049E000060106010601060106012601260126012F
:1049F00026012601260126012601F700F700F7000F
:104A0000F700F700F700F700F700060106010601BE
:104A100006014A014A014A014A01B801B801B80138
:104A2000B801B801B801B801B8019F019F019F0109
:104A30009F019F019F019F019F0100000000000056
:104A400000000000000000000000930293029302A7
:104A50009302EE01EE010B020B024B024B0293029A
:104A60004B020B020B02EE01EE01B801B801B801D6
:104A7000B801B801B8010B020B0293029302930232
:104A800093024B024B020B020B02EE01EE01EE0110
:104A9000EE01EE01EE010B020B024B024B024B0248
:104AA0004B0293029302930293020B020B020B023E
:104AB0000B02B801B801B801B801B801B801B801DA
:104AC000B801B801B801B801B801000000004B02FC
:104AD0004B024B024B02BA02BA027003700370031E
:104AE000700310031003BA02BA02930293029302F6
:104AF0009302930293020B020B029302930293021E
:104B000093024B024B020B020B02EE01EE01EE018F
:104B1000EE01EE01EE010B020B024B024B024B02C7
:104B20004B0293029302930293020B020B020B02BD
:104B30000B02B801B801B801B801B801B801B80159
:104B4000B8010000000000000000930293029302ED
:104B50009302EE01EE010B020B024B024B02930299
:104B60004B020B020B02EE01EE01B801B801B801D5
:104B7000B801B801B8010B020B0293029302930231
:104B800093024B024B020B020B02EE01EE01EE010F
:104B9000EE01EE01EE010B020B024B024B024B0247
:104BA0004B0293029302930293020B020B020B023D
:104BB0000B02B801B801B801B801B801B801B801D9
:104BC000B801B801B801B801B801000000004B02FB
:104BD0004B024B024B02BA02BA027003700370031D
:104BE000700310031003BA02BA02930293029302F5
:104BF0009302930293020B020B029302930293021D
:104C000093024B024B020B020B02EE01EE01EE018E
:104C1000EE01EE01EE010B020B024B024B024B02C6
:104C20004B0293029302930293020B020B020B02BC
:104C30000B02B801B801B801B801B801B801B80158
:104C4000B8010000000000000000000000000000AB
:104C50000000000000000000000000000000000054
:104C60000000000000000000000000000000000044
:104C70000000000000000000000000000000000034
:104C80000000000000000000000000000000000024
:104F100000000000000000000000EE01EE01EE01C4
:104F2000EE019F019F01B801B801EE01EE01EE0113
:104F3000EE01B801B8019F019F014A014A014A01EF
:104F40004A014A014A01B801B8010B020B020B02E7
:104F50000B02EE01EE01B801B8019F019F014A0169
:104F60004A019F019F01B801B801EE01EE01EE0177
:104F7000EE010B020B020B020B02B801B801B801E3
:104F8000B8014A014A014A014A014A014A014A015B
:104F90004A014A014A014A014A01000000005D013C
:104FA0005D015D015D01B801B8010B020B020B024E
:104FB0000B02EE01EE01B801B801880188018801F9
:104FC0008801880188014A014A0188018801B801E5
:104FD00088015D015D014A014A019F019F014A016B
:104FE0004A019F019F01B801B801EE01EE019F0146
:104FF0009F010B020B029F019F01B801B8014A01FA
:105000004A014A014A014A014A014A014A014A0148
:105010004A010000000000000000EE01EE01EE0178
:10502000EE019F019F01B801B801EE01EE01EE0112
:10503000EE01B801B8019F019F014A014A014A01EE
:105040004A014A014A01B801B8010B020B020B02E6
:105050000B02EE01EE01B801B8019F019F014A0168
:105060004A019F019F01B801B801EE01EE01EE0176
:10507000EE010B020B020B020B02B801B801B801E2
:10508000B8014A014A014A014A014A014A014A015A
:105090004A014A014A014A014A01000000005D013B
:1050A0005D015D015D01B801B8010B020B020B024D
:1050B0000B02EE01EE01B801B801880188018801F8
:1050C0008801880188014A014A0188018801B801E4
:1050D00088015D015D014A014A019F019F014A016A
:1050E0004A019F019F01B801B801EE01EE019F0145
:1050F0009F010B020B029F019F01B801B8014A01F9
:105100004A014A014A014A014A014A014A014A0147
:105110004A0100000000000000000601060106012F
:1051200006010601060106010601DC00DC00DC00C8
:10513000DC00DC00DC00DC00DC00F700F700F7003E
:10514000F700F700F700F700F700D000D000D0001C
:10515000D000D000D000D000D000DC00DC00DC00AB
:10516000DC00DC00DC00DC00DC00A500A500A50004
:10517000A500A500A500A500A500A500A500A50007
:10518000A500A500A500A500A500D000D000D00076
:10519000D00000000000000000000601060106012A
:1051A00006010601060106010601DC00DC00DC0048
:1051B000DC00DC00DC00DC00DC00F700F700F700BE
:1051C000F700F700F700F700F700D000D000D0009C
:1051D000D000D000D000D000D000DC00DC00DC002B
:1051E000DC0006010601060106014A014A014A01E6
:1051F0004A014A014A014A014A01260126012601C3
:1052000026012601260126012601000000000000DB
:1052100000000000000000000000EE01EE01EE01C1
:10522000EE019F019F01B801B801EE01EE01EE0110
:10523000EE01B801B8019F019F014A014A014A01EC
:105240004A014A014A01B801B8010B020B020B02E4
:105250000B02EE01EE01B801B8019F019F014A0166
:105260004A019F019F01B801B801EE01EE01EE0174
:10527000EE010B020B020B020B02B801B801B801E0
:10528000B8014A014A014A014A014A014A014A0158
:105290004A014A014A014A014A01000000005D0139
:1052A0005D015D015D01B801B8010B020B020B024B
:1052B0000B02EE01EE01B801B801880188018801F6
:1052C0008801880188014A014A0188018801B801E2
:1052D00088015D015D014A014A019F019F014A0168
:1052E0004A019F019F01B801B801EE01EE019F0143
:1052F0009F010B020B029F019F01B801B8014A01F7
:105300004A014A014A014A014A014A014A014A0145
:105310004A010000000000000000EE01EE01EE0175
:10532000EE019F019F01B801B801EE01EE01EE010F
:10533000EE01B801B8019F019F014A014A014A01EB
:105340004A014A014A01B801B8010B020B020B02E3
:105350000B02EE01EE01B801B8019F019F014A0165
:105360004A019F019F01B801B801EE01EE01EE0173
:10537000EE010B020B020B020B02B801B801B801DF
:10538000B8014A014A014A014A014A014A014A0157
:105390004A014A014A014A014A01000000005D0138
:1053A0005D015D015D01B801B8010B020B020B024A
:1053B0000B02EE01EE01B801B801880188018801F5
:1053C0008801880188014A014A0188018801B801E1
:1053D00088015D015D014A014A019F019F014A0167
:1053E0004A019F019F01B801B801EE01EE019F0142
:1053F0009F010B020B029F019F01B801B8014A01F6
:105400004A014A014A014A014A014A014A014A0144
:105410004A01000000000000000000000000000041
:10542000000000000000000000000000000000007C
:10543000000000000000000000000000000000006C
:10544000000000000000000000000000000000005C
:10545000000000000000000000000000000000004C
:1056E0000000000000000000000052005200A50071
:1056F000A50052005200A500A50052005200A500CE
:10570000A50052005200A500A5006E006E00DC004E
:10571000DC006E006E00DC00DC006E006E00DC0061
:10572000DC006E006E00DC00DC0068006800D00069
:10573000D00068006800D000D00052005200A500E0
:10574000A50052005200A500A5006E006E00DC000E
:10575000DC006E006E00DC00DC006E006E00DC0021
:10576000DC007B007B0083008300930093004900F2
:105770004900000000004900490000000000490005
:1057800049006E006E005700570041004100830041
:10579000830000000000830083004100410062009C
:1057A000620062006200000000007B007B00F700E6
:1057B000F70000000000F700F70000000000A5005F
:1057C000A50000000000D000D0006E006E00A50013
:1057D000A5006E006E00A500A5006E006E006E00B4
:1057E0006E00000000000000000052005200A50002
:1057F000A50052005200A500A50052005200A500CD
:10580000A50052005200A500A5006E006E00DC004D
:10581000DC006E006E00DC00DC006E006E00DC0060
:10582000DC006E006E00DC00DC0068006800D00068
:10583000D00068006800D000D00052005200A500DF
:10584000A50052005200A500A5006E006E00DC000D
:10585000DC006E006E00DC00DC006E006E00DC0020
:10586000DC007B007B0083008300930093004900F1
:105870004900000000004900490000000000490004
:1058800049006E006E005700570041004100830040
:10589000830000000000830083004100410062009B
:1058A000620062006200000000007B007B00F700E5
:1058B000F70000000000F700F70000000000A5005E
:1058C000A50000000000D000D0006E006E00A50012
:1058D000A5006E006E00A500A5006E006E006E00B3
:1058E0006E000000000000000000DC00DC004A0147
:1058F0004A01DC00DC004A014A01DC00DC004A010C
:105900004A01DC00DC004A014A01D000D0004A0113
:105910004A01D000D0004A014A01D000D0004A011B
:105920004A01D000D0004A014A01DC00DC004A01F3
:105930004A01DC00DC004A014A01DC00DC004A01CB
:105940004A01DC00DC004A014A01D000D0004A01D3
:105950004A01D000D0004A014A01000000000000C6
:1059600000000000000000000000DC00DC004A0134
:105970004A01DC00DC004A014A01DC00DC004A018B
:105980004A01DC00DC004A014A01D000D0004A0193
:105990004A01D000D0004A014A01D000D0004A019B
:1059A0004A01D000D0004A014A01DC00DC004A0173
:1059B0004A01DC00DC004A014A01DC00DC004A014B
:1059C0004A01DC00DC004A014A01D000D0004A0153
:1059D0004A01D000D0004A014A0100000000000046
:1059E0000000000000000000000052005200A5006E
:1059F000A50052005200A500A50052005200A500CB
:105A0000A50052005200A500A5006E006E00DC004B
:105A1000DC006E006E00DC00DC006E006E00DC005E
:105A2000DC006E006E00DC00DC0068006800D00066
:105A3000D00068006800D000D00052005200A500DD
:105A4000A50052005200A500A5006E006E00DC000B
:105A5000DC006E006E00DC00DC006E006E00DC001E
:105A6000DC007B007B0083008300930093004900EF
:105A70004900000000004900490000000000490002
:105A800049006E006E00570057004100410083003E
:105A90008300000000008300830041004100620099
:105AA000620062006200000000007B007B00F700E3
:105AB000F70000000000F700F70000000000A5005C
:105AC000A50000000000D000D0006E006E00A50010
:105AD000A5006E006E00A500A5006E006E006E00B1
:105AE0006E00000000000000000052005200A500FF
:105AF000A50052005200A500A50052005200A500CA
:105B0000A50052005200A500A5006E006E00DC004A
:105B1000DC006E006E00DC00DC006E006E00DC005D
:105B2000DC006E006E00DC00DC0068006800D00065
:105B3000D00068006800D000D00052005200A500DC
:105B4000A50052005200A500A5006E006E00DC000A
:105B5000DC006E006E00DC00DC006E006E00DC001D
:105B6000DC007B007B0083008300930093004900EE
:105B70004900000000004900490000000000490001
:105B800049006E006E00570057004100410083003D
:105B90008300000000008300830041004100620098
:105BA000620062006200000000007B007B00F700E2
:105BB000F70000000000F700F70000000000A5005B
:105BC000A50000000000D000D0006E006E00A5000F
:105BD000A5006E006E00A500A5006E006E006E00B0
:105BE0006E00000000000000000000000000000047
:105BF00000000000000000000000000000000000A5
:105C00000000000000000000000000000000000094
:105C10000000000000000000000000000000000084
:105C20000000000000000000000000000000000074
:105EB00000000000000000000000000000005C0086
:105EC0005C00000000005C005C00000000005C0062
:105ED0005C00000000005C005C00000000005C0052
:105EE0005C00000000005C005C00000000005C0042
:105EF0005C005C005C005C005C00000000005C007A
:105F00005C00000000005C005C00000000005C0021
:105F10005C00000000005C005C00000000005C0011
:105F20005C00000000005C005C00000000005C0001
:105F30005C005C005C005C005C00000000005C0039
:105F40005C00000000005C005C00000000005C00E1
:105F50005C00000000005C005C00000000005C00D1
:105F60005C00000000005C005C00000000005C00C1
:105F70005C005C005C005C005C00000000005C00F9
:105F80005C00000000005C005C00000000005C00A1
:105F90005C00000000005C005C00000000005C0091
:105FA0005C00000000005C005C00000000005C0081
:105FB0005C005C005C005C005C00000000005C00B9
:105FC0005C00000000005C005C00000000005C0061
:105FD0005C00000000005C005C00000000005C0051
:105FE0005C00000000005C005C00000000005C0041
:105FF0005C005C005C005C005C00000000005C0079
:106000005C00000000005C005C00000000005C0020
:106010005C00000000005C005C00000000005C0010
:106020005C00000000005C005C00000000005C0000
:106030005C005C005C005C005C00000000005C0038
:106040005C00000000005C005C00000000005C00E0
:106050005C00000000005C005C00000000005C00D0
:106060005C00000000005C005C00000000005C00C0
:106070005C005C005C005C005C00000000005C00F8
:106080005C00000000005C005C00000000005C00A0
:106090005C00000000005C005C00000000005C0090
:1060A0005C00000000005C005C00000000005C0080
:1060B0005C005C005C005C005C00000000005C00B8
:1060C0005C00000000005C005C00000000005C0060
:1060D0005C00000000005C005C00000000005C0050
:1060E0005C00000000005C005C00000000005C0040
:1060F0005C005C005C005C005C00000000005C0078
:106100005C00000000005C005C00000000005C001F
:106110005C00000000005C005C00000000005C000F
:106120005C00000000005C005C00000000005C00FF
:106130005C005C005C005C005C00000000005C0037
:106140005C00000000005C005C00000000005C00DF
:106150005C00000000005C005C00000000005C00CF
:106160005C00000000005C005C00000000005C00BF
:106170005C005C005C005C005C00000000005C00F7
:106180005C00000000005C005C00000000005C009F
:106190005C00000000005C005C00000000005C008F
:1061A0005C00000000005C005C00000000005C007F
:1061B0005C005C005C005C005C00000000005C00B7
:1061C0005C00000000005C005C00000000005C005F
:1061D0005C00000000005C005C00000000005C004F
:1061E0005C00000000005C005C00000000005C003F
:1061F0005C005C005C005C005C00000000005C0077
:106200005C00000000005C005C00000000005C001E
:106210005C00000000005C005C00000000005C000E
:106220005C00000000005C005C00000000005C00FE
:106230005C005C005C005C005C00000000005C0036
:106240005C00000000005C005C00000000005C00DE
:106250005C00000000005C005C00000000005C00CE
:106260005C00000000005C005C00000000005C00BE
:106270005C005C005C005C005C00000000005C00F6
:106280005C00000000005C005C00000000005C009E
:106290005C00000000005C005C00000000005C008E
:1062A0005C00000000005C005C00000000005C007E
:1062B0005C005C005C005C005C00000000005C00B6
:1062C0005C00000000005C005C00000000005C005E
:1062D0005C00000000005C005C00000000005C004E
:1062E0005C00000000005C005C00000000005C003E
:1062F0005C005C005C005C005C00000000005C0076
:106300005C00000000005C005C00000000005C001D
:106310005C00000000005C005C00000000005C000D
:106320005C00000000005C005C00000000005C00FD
:106330005C005C005C005C005C00000000005C0035
:106340005C00000000005C005C00000000005C00DD
:106350005C00000000005C005C00000000005C00CD
:106360005C00000000005C005C00000000005C00BD
:106370005C005C005C005C005C00000000005C00F5
:106380005C00000000005C005C00000000005C009D
:106390005C00000000005C005C00000000005C008D
:1063A0005C00000000005C005C00000000005C007D
:1063B0005C005C005C005C005C0000000000000011
:1063C00000000000000000000000000000000000CD
:1063D00000000000000000000000000000000000BD
:1063E00000000000000000000000000000000000AD
:1063F000000000000000000000000000000000009D
:106670000000000000000000000000000808010108
:1066800008080101080801010808010108080101C2
:1066900008080101080801010101010108080101C0
:1066A00008080101080801010808010108080101A2
:1066B00008080101080801010101010104040101A8
:1066C0000303010103030101080801010808010196
:1066D000030301010808010101010B0B0808010176
:1066E0000303010103030101030301010808010180
:1066F0000808010108080101080808080808010144
:106700000808010108080101080801010808010141
:10671000080801010808010101010101080801013F
:106720000808010108080101080801010808010121
:106730000808010108080101010101010404010127
:106740000303010103030101080801010808010115
:10675000030301010808010101010B0B08080101F5
:1067600003030101030301010303010108080101FF
:1067700008080101080801010808080808080101C3
:1067800008080101080801010808010108080101C1
:1067900008080101080801010101010108080101BF
:1067A00008080101080801010808010108080101A1
:1067B0000808010103030B0B080808080808010179
:1067C0000808010108080101080801010808010181
:1067D000080801010808010101010101080801017F
:1067E0000808010108080101080801010808010161
:1067F0000808010100000808080808080808010145
:106800000808010108080101080801010808010140
:10681000080801010808010101010101080801013E
:106820000808010108080101080801010808010120
:106830000808010108080101010101010404010126
:106840000303010103030101080801010808010114
:10685000030301010808010101010B0B08080101F4
:1068600003030101030301010303010108080101FE
:1068700008080101080801010808080808080101C2
:1068800008080101080801010808010108080101C0
:1068900008080101080801010101010108080101BE
:1068A00008080101080801010808010108080101A0
:1068B00008080101080801010101010104040101A6
:1068C0000303010103030101080801010808010194
:1068D000030301010808010101010B0B0808010174
:1068E000030301010303010103030101080801017E
:1068F0000808010108080101080808080000000054
:106900000000000000000000000000000000000087
:106910000000000000000000000000000000000077
:106920000000000000000000000000000000000067
:106930000000000000000000000000000000000057
:106940000000000000000000000000000000000047
:106950000000000000000000000000000000000037
:106960000000000000000000000000000000000027
:106970000000000000000000000000000000000017
:106980000000000000000000000000000000000007
:1069900000000000000000000000000000000000F7
:1069A00000000000000000000000000000000000E7
:1069B00000000000000000000000000000000000D7
:1069C00000000000000000000000000000000000C7
:1069D00000000000000000000000000000000000B7
:1069E00000000000000000000000000000000000A7
:1069F0000000000000000000000000000000000097
:106A00000000000000000000000000000000000086
:106A10000000000000000000000000000000000076
:106A20000000000000000000000000000000000066
:106A30000000000000000000000000000000000056
:106A40000000000000000000000000000000000046
:106A50000000000000000000000000000000000036
:106A600000000000E803880211241FBECFEFD1E22E
:106A7000DEBFCDBF00E00CBF12E0A0E0B2E0E2E676
:106A8000FAE700E00BBF02C007900D92A630B107F5
:106A9000D9F722E0A6E0B2E001C01D92AA31B20708
:106AA000E1F70E947A3C0C942F3D0C940000FC010D
:106AB000DB01AC014C5F5F4F80E020819C9129138A
:106AC0000AC09081911181E031961196E417F50783
:106AD000A1F78F5F089580E00895109289001092C9
:106AE00088001092800010929900109298001092E5
:106AF00090001092A9001092A8001092A00010928D
:106B0000290110922801109220010895CF93C62FD9
:106B1000009779F46623E9F1613009F440C06230EE
:106B200009F458C0633099F5109229011092280198
:106B30002EC082959295907F9827807F98279C0100
:106B400050E040E060E074E284EF90E00E94FE3CA0
:106B500021503109CC2389F0C13031F1C23079F1B3
:106B6000C330A9F430932701209326013695279549
:106B700030932901209328010AC030938700209385
:106B80008600369527953093890020938800CF9111
:106B900008951092890010928800CF910895109264
:106BA000990010929800F3CF3093970020939600AD
:106BB000369527953093990020939800E8CF30932D
:106BC000A7002093A600369527953093A90020931F
:106BD000A800DDCF1092A9001092A800D8CF0F9383
:106BE0001F93CF93DF93EC018B010E94F339000FC9
:106BF000111FFE01E00FF11F259134912115310580
:106C000009F068C01092890010928800F801E053E2
:106C1000F84FEC0FFD1F259134912115310509F036
:106C200074C01092990010929800F801E056F04F4D
:106C3000EC0FFD1F259134912115310509F480C019
:106C400022953295307F3227207F322750E040E076
:106C500060E074E284EF90E00E94FE3C2150310934
:106C60003093A7002093A600369527953093A9006E
:106C70002093A800F801E059F84EEC0FFD1F259174
:106C800034912115310509F460C022953295307F89
:106C90003227207F322750E040E060E074E284EF4A
:106CA00090E00E94FE3C215031093093270120934F
:106CB00026013695279530932901209328011092BB
:106CC0001902109218021092B200DF91CF911F9119
:106CD0000F91089522953295307F3227207F3227F9
:106CE00050E040E060E074E284EF90E00E94FE3CFF
:106CF00021503109309387002093860036952795DF
:106D0000309389002093880081CF22953295307F7F
:106D10003227207F322750E040E060E074E284EFC9
:106D200090E00E94FE3C215031093093970020935F
:106D3000960036952795309399002093980075CF4B
:106D40001092A9001092A80095CF109229011092DC
:106D50002801B5CF1F920F920FB60F9211242F93D7
:106D60003F934F935F936F937F938F939F93AF93D3
:106D7000BF93809118029091190201969093190285
:106D80008093180220911802309119028091060216
:106D9000909107022817390709F44AC0209106028A
:106DA000309107024091180250911902C901880FD1
:106DB000991F820F931F96958795969587958417AF
:106DC000950721F1209106023091070240911802A7
:106DD00050911902ABEABAEA0E94203D9695879538
:106DE000969587958417950759F1809106029091A1
:106DF0000702209118023091190296958795821703
:106E0000930739F485B1837F85B903C082E080930D
:106E10000002BF91AF919F918F917F916F915F9190
:106E20004F913F912F910F900FBE0F901F9018958B
:106E3000109219021092180283E080930002E9CFA9
:106E400010920002E6CFCF92DF92EF92FF920F9363
:106E50001F93CF93DF93CDB7DEB762970FB6F89449
:106E6000DEBF0FBECDBF6C01FC01E65DFC4DE590C1
:106E7000F4901A8A198AFC01E85DFC4D8591949181
:106E80009093070280930602188A1F861E861D862D
:106E900019861A861B861C861D821E821F821886F2
:106EA00083E0809300020E943A3911E001E005C0BE
:106EB00080910002823008F099C089899A89E81689
:106EC000F90608F4B3C086B186FB882780F98127CC
:106ED0008093140286B18295817081278093150278
:106EE00086B182FB882780F981278093160286B1BC
:106EF00080958170809317028091090186FB882715
:106F000080F9812780931002809109018295817018
:106F10008127809311028091090182FB882780F9E3
:106F2000812780931202809109018095817080935E
:106F3000130280910002833009F4B2C080910002F4
:106F40008111B6CF90E080E040E0E5E0F0E0EC0FAA
:106F5000FD1FE80FF91F3081DC01A45FBD4F2C91AC
:106F60003213FAC02081211141E00196843091054D
:106F700061F74F5F90E080E050E0E5E0F0E0EC0F7B
:106F8000FD1FE80FF91F3081DC01A85FBD4F2C9178
:106F90003213D7C02081211151E001968430910530
:106FA00061F75F5F423009F4C2C0523009F42A9A97
:106FB0004111C1C08D859E8501969E878D87009366
:106FC000000210920C0210920D0210920E0210920A
:106FD0000F02109208021092090210920A021092F7
:106FE0000B0280910002823008F467CF90E080E0CD
:106FF000FC01EC5EFD4F3081FC01E45FFD4F208120
:10700000232B2083FC01E05FFD4F3081FC01E85F12
:10701000FD4F2081232B208301968430910541F779
:1070200089899A89E816F90608F04DCF4F85588965
:10703000ED85FE852FEF249FC001259F900D112423
:10704000B7010E94EA3C69831A821B822E9FC0010D
:107050002F9F900D1124B7010E94EA3C6C8344E0FD
:10706000BE016F5F7F4F81E092E00E94B5382AEA4F
:1070700036EE86E991E02150304080409040D9F7CB
:10708000000062960FB6F894DEBF0FBECDBFDF9151
:10709000CF911F910F91FF90EF90DF90CF900895C7
:1070A000898581708D838A8581708E838B858170BF
:1070B0008F838C858170888769897A89C6010E944F
:1070C000EF35E989FA89E05CF04EEC0DFD1DE491A5
:1070D000F0E090E080E09F01082E02C035952795F2
:1070E0000A94E2F7A9E0B0E0AC0FBD1FA80FB91FEA
:1070F00020FF19C02C91269520682C93019684308E
:10710000910549F744E0BE01675F7F4F81E092E05F
:107110000E94B53889899A8901969A8B898B84E077
:1071200080930002C5CE2C9126952C93E7CF2B9A05
:10713000523009F42A9A8F8598890196988B8F8707
:1071400039CF423059F0442309F439CF8F859889DB
:107150000196988B8F8733CF40E00CCF2B9A8F8589
:1071600098890196988B8F872ACFCF92DF92EF92E2
:10717000FF920F931F93CF93DF93FC013281A08185
:10718000B1812C9181E090E002C0880F991F3A955F
:10719000E2F78095909582238C93442309F454C0A0
:1071A0006B0141508B010F5F1F4F040F111D61E0F8
:1071B00070E0E601A881B0E090E080E018C028818E
:1071C0007B0101C0EE0C3A95EAF72E292883338122
:1071D000C081D18128817B0101C0EE0C3A95EAF78C
:1071E0002E292883000001968830910531F13381E2
:1071F000C081D1812881AB0102C0440F551F3A954F
:10720000E2F740955095242328839D01082E02C063
:10721000359527950A94E2F73481C081D18120FD0C
:10722000CECF2881AB0102C0440F551F3A95E2F73B
:107230004095509524232883CACFDFEFCD1ADD0A6D
:10724000C016D10609F0B5CF92810190F081E02DF2
:10725000808121E030E001C0220F9A95EAF7822B6D
:107260008083DF91CF911F910F91FF90EF90DF907E
:10727000CF900895CF93DF9300D01F92CDB7DEB7A4
:1072800019821A821B821C8244E0BE016F5F7F4F0D
:1072900081E092E00E94B5380F900F900F900F9010
:1072A000DF91CF910895CF93DF9300D01F92CDB798
:1072B000DEB78FEF89838A838B838C8344E0BE01A2
:1072C0006F5F7F4F81E092E00E94B5380F900F9082
:1072D0000F900F90DF91CF91089541E061E080E041
:1072E0000E94263A40E061E080E00E943E3AEEE6ED
:1072F000F0E080818260808384E687BD089540E06D
:1073000061E080E00E94C83A20E041E061E081E075
:107310000E94E03A20E040E060E081E00E94013B12
:10732000259A109287001092860010928900109280
:107330008800089540E061E080E00E94223B20E068
:1073400041E061E081E00E943A3B20E040E060E003
:1073500081E00E945B3B6B9A10929700109296001E
:107360001092990010929800089540E061E080E04A
:107370000E947C3B20E041E061E081E00E94943B80
:1073800020E040E060E081E00E94B53BE1E0F1E018
:107390008081886080831092A7001092A6001092CE
:1073A000A9001092A800089540E061E080E00E94EA
:1073B000D63B20E041E061E081E00E94EE3B20E02E
:1073C00040E060E081E00E940F3CEAE0F1E0808173
:1073D0008860808310922701109226011092290163
:1073E0001092280108950E947F390E949A390E94C4
:1073F000B5390C94D439219A259A6B9AE1E0F1E0E1
:10740000808188608083EAE0F1E080818860808309
:1074100081B1856581B987B18A7A87B980818A7A95
:10742000808312B888B1856588B9EBE0F1E080818E
:1074300085658083229A239A0E946D390E947F3944
:107440000E949A390E94B5390C94D439CF93DF93B6
:10745000D62FC42F42E0682F85E490E00E945B3C69
:1074600041E06D2F85E490E00E945B3C40E06C2F92
:1074700085E490E0DF91CF910C945B3CCF93DF9358
:10748000C82FD62F642F40E084E490E00E945B3C3C
:1074900041E06D2F84E490E00E945B3C43E06C2F60
:1074A00085E490E0DF91CF910C945B3C1F93CF93E8
:1074B000DF93162FD42FC22F47E0682F84E490E08B
:1074C0000E945B3C46E0612F84E490E00E945B3CBC
:1074D00045E06D2F84E490E00E945B3C44E06C2F1B
:1074E00084E490E0DF91CF911F910C945B3CCF93AB
:1074F000DF93D62FC42F40E0682F81EB90E00E94ED
:107500005B3C41E06D2F81EB90E00E945B3C42E0F0
:107510006C2F81EB90E0DF91CF910C945B3CCF938B
:10752000DF93C82FD62F642F40E080EB90E00E94BD
:107530005B3C41E06D2F80EB90E00E945B3C43E0C0
:107540006C2F81EB90E0DF91CF910C945B3C1F930B
:10755000CF93DF93162FD42FC22F47E0682F80EBF5
:1075600090E00E945B3C46E0612F80EB90E00E943F
:107570005B3C45E06D2F80EB90E00E945B3C44E07B
:107580006C2F80EB90E0DF91CF911F910C945B3CCE
:10759000CF93DF93D62FC42F42E0682F81E890E08D
:1075A0000E945B3C41E06D2F81E890E00E945B3CD3
:1075B00040E06C2F81E890E0DF91CF910C945B3C30
