:100000000C9434000C9449000C9449000C94490061
:100010000C9449000C9449000C9449000C9449003C
:100020000C9449000C9449000C9449000C9449002C
:100030000C9449000C9449000C9449000C9449001C
:100040000C9449000C9449000C9449000C9449000C
:100050000C9449000C9449000C9449000C944900FC
:100060000C9449000C94490011241FBECFEFD8E036
:10007000DEBFCDBF14E0A0E0B1E0ECEFFAE002C0DB
:1000800005900D92A63BB107D9F70E9471030C941D
:100090007C050C940000CF93DF93EC0161E271E0EA
:1000A0000E947305892B09F423C164E271E0CE013B
:1000B0000E947305892B09F41EC167E271E0CE012D
:1000C0000E947305892B09F419C16AE271E0CE011F
:1000D0000E947305892B09F414C16DE271E0CE0111
:1000E0000E947305892B09F40FC160E371E0CE0112
:1000F0000E947305892B09F40AC163E371E0CE0104
:100100000E947305892B09F405C166E371E0CE01F5
:100110000E947305892B09F400C169E371E0CE01E7
:100120000E947305892B09F4FBC06CE371E0CE01DA
:100130000E947305892B09F4F6C06FE371E0CE01CC
:100140000E947305892B09F4F1C062E471E0CE01CD
:100150000E947305892B09F4ECC065E471E0CE01BF
:100160000E947305892B09F4E7C068E471E0CE01B1
:100170000E947305892B09F4E2C06BE471E0CE01A3
:100180000E947305892B09F4DDC06EE471E0CE0195
:100190000E947305892B09F4D8C061E571E0CE0196
:1001A0000E947305892B09F4D3C064E571E0CE0188
:1001B0000E947305892B09F4CEC067E571E0CE017A
:1001C0000E947305892B09F4C9C06AE571E0CE016C
:1001D0000E947305892B09F4C4C06DE571E0CE015E
:1001E0000E947305892B09F4BFC060E671E0CE015F
:1001F0000E947305892B09F4BAC063E671E0CE0151
:100200000E947305892B09F4B5C066E671E0CE0142
:100210000E947305892B09F4B0C069E671E0CE0134
:100220000E947305892B09F4ABC06CE671E0CE0126
:100230000E947305892B09F4A6C06FE671E0CE0118
:100240000E947305892B09F4A1C062E771E0CE0119
:100250000E947305892B09F49CC065E771E0CE010B
:100260000E947305892B09F497C068E771E0CE01FD
:100270000E947305892B09F492C06BE771E0CE01EF
:100280000E947305892B09F48DC06EE771E0CE01E1
:100290000E947305892B09F488C061E871E0CE01E2
:1002A0000E947305892B09F483C064E871E0CE01D4
:1002B0000E947305892B09F47EC067E871E0CE01C6
:1002C0000E947305892B09F479C06AE871E0CE01B8
:1002D0000E947305892B09F474C06DE871E0CE01AA
:1002E0000E947305892B09F46FC080E090E06EC016
:1002F00083E890E06BC08BE890E068C083E990E011
:1003000065C08CE990E062C085EA90E05FC08FEA4A
:1003100090E05CC089EB90E059C084EC90E056C05E
:1003200080ED90E053C08CED90E050C089EE90E0FD
:100330004DC087EF90E04AC085E091E047C085E17D
:1003400091E044C086E291E041C087E391E03EC085
:1003500089E491E03BC08DE591E038C082E791E00F
:1003600035C088E891E032C08FE991E02FC088EB7A
:1003700091E02CC082ED91E029C08DEE91E026C085
:100380008BE092E023C08AE292E020C08BE492E00E
:100390001DC08EE692E01AC083E992E017C08AEB96
:1003A00092E014C084EE92E011C080E193E00EC0B0
:1003B0008FE393E00BC080E793E008C084EA93E00A
:1003C00005C08BED93E002C086E194E0DF91CF9110
:1003D00008950F931F93CF93DF938C01C0E0D0E07B
:1003E0002196CE010E94580380E991E00E94D2023A
:1003F000F801808191810E94DE0284E991E00E94EF
:10040000D202F801828193810E94DE0282EA91E0A9
:100410000E94D2020C5F1F4FC434D10509F7DF914F
:10042000CF911F910F9108958F929F92AF92BF929B
:10043000CF92DF92EF92FF920F931F93CF93DF93B0
:1004400000D01F92CDB7DEB75B017C016C0182E169
:10045000C80ED11C96E9892E912CF70101911191BA
:100460007F01F8018081898381818A831B82CE018B
:1004700001960E944B009C01F801349640E050E048
:1004800091919923A1F09C37D9F3983569F4DA0159
:10049000AA0FBB1FAA0FBB1FAA0DBB1D13969C92D0
:1004A0008E9212972D933C934F5F5F4FE9CFEC14E0
:1004B000FD0499F60F900F900F90DF91CF911F914F
:1004C0000F91FF90EF90DF90CF90BF90AF909F90F3
:1004D0008F900895CF93DF93EB01009721F4299833
:1004E0002197F1F717C09C0140E050E060E472E40E
:1004F0008FE090E00E94D80380E090E052E08C17FB
:100500009D0741F045B1452745B9F9013197F1F70C
:100510000196F5CFDF91CF910895CF92DF92EF92C0
:10052000FF926B017C010E948604072E000C880B51
:10053000990B0E94BE049B01AC01C701B6010E9449
:10054000190420E030E040E05FE30E944A0587FDA7
:1005500006C0C701B6010E948D046F5F04C0C701C9
:10056000B6010E948D04862FFF90EF90DF90CF9010
:1005700008951092C50088E08093C4008093C10064
:1005800086E08093C20008959091C00095FFFCCF53
:100590008093C60008958091C00087FFFCCF8091B2
:1005A000C6000895CF93DF93EC018991882319F059
:1005B0000E94C402FACFDF91CF910895EF92FF928B
:1005C0000F931F93CF93DF9300D000D01F92CDB72E
:1005D000DEB7009771F480E30F900F900F900F90AB
:1005E0000F90DF91CF911F910F91FF90EF900C949E
:1005F000C4029E012F5F3F4F7901F9012AE030E0EC
:100600008F010E191F09B9010E94C403805D8193F7
:10061000CB010097A9F70F5F1F4F0E0D1F1DE016AE
:10062000F10631F0F80182918F010E94C402F7CFE8
:100630000F900F900F900F900F90DF91CF911F911F
:100640000F91FF90EF9008951F93CF93DF93CDB755
:10065000DEB760970FB6F894DEBF0FBECDBF182F80
:1006600080E1E0E1F1E0DE01119601900D928A95C2
:10067000E1F7812F82958F70E1E0F0E0EC0FFD1F34
:10068000E80FF11D80810E94C4021F70E1E0F0E0DC
:10069000EC0FFD1FE10FF11D808160960FB6F894FD
:1006A000DEBF0FBECDBFDF91CF911F910C94C4026E
:1006B000CF93DF93EC0197FF06C08DE20E94C40246
:1006C000D195C195D109CE01DF91CF910C94DE0275
:1006D000CF93C82F892F0E9424038C2FCF910C9485
:1006E0002403CF93DF93CDB7DEB7C052D1400FB60E
:1006F000F894DEBF0FBECDBF219A0E94B9027E01E1
:100700002FEEE21A2EEFF20A80E1E0E0F1E0D701ED
:1007100001900D928A95E1F7CE0101966C0180E17E
:1007200091E0F6019C01119221503040E1F788EAF6
:1007300091E00E94D20285EC91E00E94D202B601C3
:10074000C7010E94140284ED91E00E94D20286014A
:10075000F80162817381660F771F8081918197FD17
:100760000196959587950E946A020C5F1F4FE016CF
:10077000F10671F7FFEF23ED30E3F15020403040F8
:10078000E1F700C00000E3CFAA1BBB1B51E107C08B
:10079000AA1FBB1FA617B70710F0A61BB70B881F11
:1007A000991F5A95A9F780959095BC01CD010895A0
:1007B000052E97FB1EF400940E94EF0357FD07D00F
:1007C0000E94F70307FC03D04EF40C94EF035095FE
:1007D0004095309521953F4F4F4F5F4F089590952D
:1007E0008095709561957F4F8F4F9F4F0895A1E23F
:1007F0001A2EAA1BBB1BFD010DC0AA1FBB1FEE1F9B
:10080000FF1FA217B307E407F50720F0A21BB30BE5
:10081000E40BF50B661F771F881F991F1A9469F761
:1008200060957095809590959B01AC01BD01CF01BD
:1008300008955058BB27AA270E9431040C94100534
:100840000E94020538F00E94090520F039F49F3F0C
:1008500019F426F40C94FF040EF4E095E7FB0C94D5
:10086000F904E92F0E94210558F3BA1762077307AC
:100870008407950720F079F4A6F50C9443050EF44F
:10088000E0950B2EBA2FA02D0B01B90190010C01A0
:10089000CA01A0011124FF27591B99F0593F50F4B8
:1008A000503E68F11A16F040A22F232F342F442710
:1008B000585FF3CF469537952795A795F040539508
:1008C000C9F77EF41F16BA0B620B730B840BBAF0D8
:1008D0009150A1F0FF0FBB1F661F771F881FC2F743
:1008E0000EC0BA0F621F731F841F48F48795779557
:1008F0006795B795F7959E3F08F0B0CF9395880F11
:1009000008F09927EE0F9795879508950E948D041A
:100910006894B1110C94440508950E94290588F04B
:100920009F5798F0B92F9927B751B0F0E1F0660FB3
:10093000771F881F991F1AF0BA95C9F714C0B130F4
:1009400091F00E944305B1E008950C944305672F90
:10095000782F8827B85F39F0B93FCCF38695779523
:100960006795B395D9F73EF490958095709561950C
:100970007F4F8F4F9F4F0895E89409C097FB3EF437
:1009800090958095709561957F4F8F4F9F4F9923DC
:10099000A9F0F92F96E9BB279395F695879577955A
:1009A0006795B795F111F8CFFAF4BB0F11F460FF1A
:1009B0001BC06F5F7F4F8F4F9F4F16C0882311F072
:1009C00096E911C0772321F09EE8872F762F05C086
:1009D000662371F096E8862F70E060E02AF09A9521
:1009E000660F771F881FDAF7880F9695879597F916
:1009F000089597F99F6780E870E060E008959FEFA1
:100A000080EC089500240A941616170618060906A5
:100A1000089500240A941216130614060506089574
:100A2000092E0394000C11F4882352F0BB0F40F4FC
:100A3000BF2B11F460FF04C06F5F7F4F8F4F9F4F3C
:100A4000089557FD9058440F551F59F05F3F71F0BE
:100A50004795880F97FB991F61F09F3F79F0879525
:100A60000895121613061406551FF2CF4695F1DFAE
:100A700008C0161617061806991FF1CF869571053E
:100A8000610508940895E894BB2766277727CB0172
:100A900097F908950E944F0508F48FEF0895990F74
:100AA0000008550FAA0BE0E8FEEF16161706E80738
:100AB000F907C0F012161306E407F50798F0621B59
:100AC000730B840B950B39F40A2661F0232B242B2E
:100AD000252B21F408950A2609F4A140A6958FEF4D
:100AE000811D811D0895FB01DC018D91019080190C
:0C0AF0000110D9F3990B0895F894FFCF82
:100AFC00E5013F029902F3024D03A70301045B04D5
:100B0C003031323334353637383941424344454637
:100B1C000043330063330044330064330045330037
:100B2C0046330066330047330067330041330061BE
:100B3C0033004233004334006334004434006434E3
:100B4C0000453400463400663400473400673400F6
:100B5C0041340061340042340043350063350044B5
:100B6C00350064350045350046350066350047359F
:100B7C0000673500413500613500423500433600D1
:100B8C00202D200020487A2C20447572C3A9653A88
:100B9C002000206D730D0A004C656374757265201E
:100BAC006465206C6120706172746974696F6E2E5B
:100BBC002E2E0D0A006265666F726520706172736D
:100BCC00650D0A00506172746974696F6E206C75E2
:100BDC00653A0D0A004135207C2D2D2D2D7C2D2DB7
:100BEC002D2D7C2D2D2D2D7C2D2D2D2D7C2D2D2D3C
:100BFC002D7C2D2D2D2D7C2D2D2D2D7C2D2D2D2D2C
:100C0C007C2D2D2D2D7C582D2D2D7C2D2D2D2D7CA1
:100C1C002D2D2D2D7C2D2D2D2D7C2D2D2D2D7C2D0B
:100C2C002D2D2D7C2D2D2D2D7C2D2D2D2D7C00470E
:100C3C0035207C2D2D2D2D7C2D2D2D2D7C2D2D2DF0
:100C4C002D7C2D2D2D2D7C2D2D2D2D7C2D2D2D2DDB
:100C5C007C2D2D2D2D7C2D2D2D2D7C2D2D2D2D7C7C
:100C6C002D2D582D7C2D2D2D2D7C2D2D2D2D7C2D90
:100C7C002D2D2D7C2D2D2D2D7C2D2D2D2D7C2D2DAB
:100C8C002D2D7C2D2D2D2D7C004635207C2D2D2DB4
:100C9C002D7C2D2D2D2D7C2D2D2D2D7C2D2D2D2D8B
:100CAC007C2D2D2D2D7C2D2D2D2D7C2D2D2D2D7C2C
:100CBC002D2D2D2D7C2D2D2D587C2D2D2D587C2D15
:100CCC002D2D2D7C2D2D2D2D7C2D2D2D2D7C2D2D5B
:100CDC002D2D7C2D2D2D2D7C2D2D2D2D7C2D2D2D4B
:100CEC002D7C004535207C582D2D2D7C2D2D2D2D2A
:100CFC007C2D2D2D2D7C582D2D2D7C2D2D2D2D7CB1
:100D0C002D2D582D7C2D2D2D2D7C2D2D2D2D7C2DEF
:100D1C002D2D2D7C2D2D2D2D7C582D2D2D7C582DB4
:100D2C002D2D7C2D2D2D2D7C2D2D582D7C2D2D2DCF
:100D3C002D7C2D2D2D2D7C2D2D2D2D7C0044352005
:100D4C007C2D2D2D2D7C582D2D2D7C2D2D2D2D7C60
:100D5C002D2D582D7C2D2D2D2D7C582D2D2D7C2D74
:100D6C002D2D2D7C2D2D2D2D7C2D582D2D7C2D2D8F
:100D7C002D2D7C2D2D2D2D7C2D2D582D7C2D2D2D7F
:100D8C002D7C582D2D2D7C2D2D2D2D7C2D2D2D2D6F
:100D9C007C2D2D2D2D7C004335207C2D2D2D587C2C
:100DAC002D2D582D7C2D2D2D587C2D2D2D587C2DF9
:100DBC002D2D587C2D2D2D2D7C582D2D2D7C2D2D14
:100DCC002D2D7C2D2D2D2D7C2D2D2D2D7C2D2D2D5A
:100DDC00587C2D2D2D587C2D2D2D587C2D2D2D2DC9
:100DEC007C582D2D2D7C2D2D2D2D7C2D2D2D2D7CC0
:100DFC00004234207C2D2D582D7C2D2D2D587C2DF2
:100E0C002D2D2D7C2D2D2D2D7C582D2D2D7C2D2DEE
:100E1C002D2D7C2D2D2D2D7C2D2D2D2D7C2D2D2D09
:100E2C002D7C2D2D2D2D7C2D2D2D2D7C2D2D2D2DF9
:100E3C007C582D582D7C2D2D2D2D7C2D2D2D2D7C44
:100E4C002D2D2D2D7C2D2D2D2D7C004134207C2DF8
:100E5C002D2D2D7C2D2D2D2D7C582D582D7C2D2D73
:100E6C002D2D7C2D2D2D2D7C2D2D2D2D7C2D2D588E
:100E7C002D7C582D2D2D7C2D2D2D2D7C2D2D2D2D7E
:100E8C007C2D2D2D2D7C2D2D2D2D7C2D2D2D2D7C4A
:100E9C002D2D2D2D7C2D2D2D2D7C582D2D2D7C5833
:060EAC002D2D2D7C00003D
:00000001FF
