:100000000C943A000C9457000C9457000C94570031
:100010000C9457000C9457000C9457000C94570004
:100020000C9457000C9457000C9457000C945700F4
:100030000C9457000C9457000C9457000C945700E4
:100040000C9457000C9457000C9457000C945700D4
:100050000C9457000C9457000C9457000C945700C4
:100060000C9457000C9457006364696E6F7073753D
:1000700078585B0011241FBECFEFD8E0DEBFCDBFA4
:1000800014E0A0E0B1E0EAE4F3E102C005900D92D3
:10009000A43EB107D9F724E0A4EEB4E001C01D925C
:1000A000A63EB207E1F70E94BE030C94A3090C948C
:1000B0000000CF93DF93EC0163E374E00E9401063C
:1000C000892B09F423C166E374E0CE010E94010686
:1000D000892B09F41EC169E374E0CE010E94010678
:1000E000892B09F419C16CE374E0CE010E9401066A
:1000F000892B09F414C16FE374E0CE010E9401065C
:10010000892B09F40FC162E474E0CE010E9401065C
:10011000892B09F40AC165E474E0CE010E9401064E
:10012000892B09F405C168E474E0CE010E94010640
:10013000892B09F400C16BE474E0CE010E94010632
:10014000892B09F4FBC06EE474E0CE010E94010625
:10015000892B09F4F6C061E574E0CE010E94010626
:10016000892B09F4F1C064E574E0CE010E94010618
:10017000892B09F4ECC067E574E0CE010E9401060A
:10018000892B09F4E7C06AE574E0CE010E940106FC
:10019000892B09F4E2C06DE574E0CE010E940106EE
:1001A000892B09F4DDC060E674E0CE010E940106EF
:1001B000892B09F4D8C063E674E0CE010E940106E1
:1001C000892B09F4D3C066E674E0CE010E940106D3
:1001D000892B09F4CEC069E674E0CE010E940106C5
:1001E000892B09F4C9C06CE674E0CE010E940106B7
:1001F000892B09F4C4C06FE674E0CE010E940106A9
:10020000892B09F4BFC062E774E0CE010E940106A9
:10021000892B09F4BAC065E774E0CE010E9401069B
:10022000892B09F4B5C068E774E0CE010E9401068D
:10023000892B09F4B0C06BE774E0CE010E9401067F
:10024000892B09F4ABC06EE774E0CE010E94010671
:10025000892B09F4A6C061E874E0CE010E94010672
:10026000892B09F4A1C064E874E0CE010E94010664
:10027000892B09F49CC067E874E0CE010E94010656
:10028000892B09F497C06AE874E0CE010E94010648
:10029000892B09F492C06DE874E0CE010E9401063A
:1002A000892B09F48DC060E974E0CE010E9401063B
:1002B000892B09F488C063E974E0CE010E9401062D
:1002C000892B09F483C066E974E0CE010E9401061F
:1002D000892B09F47EC069E974E0CE010E94010611
:1002E000892B09F479C06CE974E0CE010E94010603
:1002F000892B09F474C06FE974E0CE010E940106F5
:10030000892B09F46FC080E090E06EC083E890E034
:100310006BC08BE890E068C083E990E065C08CE931
:1003200090E062C085EA90E05FC08FEA90E05CC038
:1003300089EB90E059C084EC90E056C080ED90E0ED
:1003400053C08CED90E050C089EE90E04DC087EF37
:1003500090E04AC085E091E047C085E191E044C06B
:1003600086E291E041C087E391E03EC089E491E0FC
:100370003BC08DE591E038C082E791E035C088E868
:1003800091E032C08FE991E02FC088EB91E02CC062
:1003900082ED91E029C08DEE91E026C08BE092E0E5
:1003A00023C08AE292E020C08BE492E01DC08EE67A
:1003B00092E01AC083E992E017C08AEB92E014C081
:1003C00084EE92E011C080E193E00EC08FE393E0F1
:1003D0000BC080E793E008C084EA93E005C08BED92
:1003E00093E002C086E194E0DF91CF9108952F92CF
:1003F0003F924F925F926F927F928F929F92AF92B5
:10040000BF92CF92DF92EF92FF920F931F93CF9301
:10041000DF9300D000D0CDB7DEB72B012DB63EB6AE
:10042000FC0101900020E9F79F01281B390B4DB713
:100430005EB7421B530B0FB6F8945EBF0FBE4DBFA5
:100440000DB71EB70F5F1F4FBC01C8010E940A06FF
:100450006FEC74E0C8010E94F1056FEC74E080E07D
:1004600090E00E94F1058C01E12CF12CCE01019667
:100470006C018AEF682E712C0115110509F45AC020
:1004800050E9E516F10409F455C0DF92CF92E2EA93
:10049000F4E0FF93EF931F930F930E943806C60179
:1004A0000E9459004C0188EA94E00E941F03C60193
:1004B0000E941F0382EB94E00E941F0366EA74E02F
:1004C000C80104960E94F10582010E0D1F1D0F90B8
:1004D0000F900F900F900F900F90A12CB12C0097C0
:1004E000F1F024E0A216B104D1F068E570E00E94BA
:1004F000F605F801892B19F09182808202C01182E1
:1005000010827382628266EA74E080E090E00E946A
:10051000F105FFEFAF1ABF0A0C5F1F4FE0CF6FEC82
:1005200074E080E090E00E94F1058C0140E1E40E6F
:10053000F11CA2CF0FB6F8943EBE0FBE2DBE0F9099
:100540000F900F900F90DF91CF911F910F91FF901F
:10055000EF90DF90CF90BF90AF909F908F907F9063
:100560006F905F904F903F902F900895CF93DF93BF
:10057000EB01009721F429982197F1F718C09C010D
:1005800040E050E060E472E48FE090E00E945604A6
:1005900080E090E08C179D0751F0299AF90131977E
:1005A000F1F72998F9013197F1F70196F3CFDF912F
:1005B000CF910895CF92DF92EF92FF926B017C0171
:1005C0000E940405072E000C880B990B0E943C0525
:1005D0009B01AC01C701B6010E94970420E030E006
:1005E00040E05FE30E94C80587FD06C0C701B60171
:1005F0000E940B056F5F04C0C701B6010E940B0586
:10060000862FFF90EF90DF90CF9008951092C50055
:1006100088E08093C4008093C10086E08093C2008C
:1006200008959091C00095FFFCCF8093C600089577
:100630008091C00087FFFCCF8091C6000895CF93C2
:10064000DF93EC018991882319F00E941103FACFFE
:10065000DF91CF910895EF92FF920F931F93CF9365
:10066000DF9300D000D01F92CDB7DEB7009771F4B2
:1006700080E30F900F900F900F900F90DF91CF912C
:100680001F910F91FF90EF900C9411039E012F5F2B
:100690003F4F7901F9012AE030E08F010E191F095F
:1006A000B9010E944204805D8193CB010097A9F7B4
:1006B0000F5F1F4F0E0D1F1DE016F10631F0F80100
:1006C00082918F010E941103F7CF0F900F900F902E
:1006D0000F900F90DF91CF911F910F91FF90EF90AE
:1006E00008951F93CF93DF93CDB7DEB760970FB612
:1006F000F894DEBF0FBECDBF182F80E1E2E2F4E038
:10070000DE01119601900D928A95E1F7812F829575
:100710008F70E1E0F0E0EC0FFD1FE80FF11D80812C
:100720000E9411031F70E1E0F0E0EC0FFD1FE10FEC
:10073000F11D808160960FB6F894DEBF0FBECDBF6D
:10074000DF91CF911F910C941103CF93DF93EC01B4
:1007500097FF06C08DE20E941103D195C195D10982
:10076000CE01DF91CF910C942B03CF93C82F892F0B
:100770000E9471038C2FCF910C947103AF92BF92A2
:10078000CF92DF92EF92FF920F931F93CF93DF935D
:10079000CDB7DEB7C059D1090FB6F894DEBF0FBE92
:1007A000CDBF219A0E94060388EB94E00E941F03AC
:1007B00084E090E00E942B038E010F5F1F4F80E9C1
:1007C000F80111928A95E9F7B80180E091E00E9462
:1007D000F70180EC94E00E941F035E01F1E9AF0E87
:1007E000B11C7801C12CD12CF70180819181892B1A
:1007F00031F18BEA94E00E941F03F701808191811F
:100800000E942B0381ED94E00E941F03F701828177
:1008100093810E942B038FED94E00E941F03F70148
:1008200062817381808191810E94B602FFEF21EE87
:1008300084E0F15020408040E1F700C000009FEFCD
:10084000C91AD90AE4E0EE0EF11CF4E0CF16D10487
:1008500059F6005F1F4F0A151B0519F680E090E05E
:10086000C057DF4F0FB6F894DEBF0FBECDBFDF918C
:10087000CF911F910F91FF90EF90DF90CF90BF909D
:10088000AF900895AA1BBB1B51E107C0AA1FBB1F55
:10089000A617B70710F0A61BB70B881F991F5A950C
:1008A000A9F780959095BC01CD010895052E97FB81
:1008B0001EF400940E946D0457FD07D00E94750439
:1008C00007FC03D04EF40C946D0450954095309580
:1008D00021953F4F4F4F5F4F0895909580957095AC
:1008E00061957F4F8F4F9F4F0895A1E21A2EAA1B4B
:1008F000BB1BFD010DC0AA1FBB1FEE1FFF1FA217D0
:10090000B307E407F50720F0A21BB30BE40BF50BCC
:10091000661F771F881F991F1A9469F76095709555
:10092000809590959B01AC01BD01CF010895505871
:10093000BB27AA270E94AF040C948E050E94800555
:1009400038F00E94870520F039F49F3F19F426F40F
:100950000C947D050EF4E095E7FB0C947705E92FE8
:100960000E949F0558F3BA1762077307840795071B
:1009700020F079F4A6F50C94C1050EF4E0950B2E49
:10098000BA2FA02D0B01B90190010C01CA01A001E1
:100990001124FF27591B99F0593F50F4503E68F13C
:1009A0001A16F040A22F232F342F4427585FF3CF7D
:1009B000469537952795A795F0405395C9F77EF44E
:1009C0001F16BA0B620B730B840BBAF09150A1F097
:1009D000FF0FBB1F661F771F881FC2F70EC0BA0F1D
:1009E000621F731F841F48F4879577956795B795A5
:1009F000F7959E3F08F0B0CF9395880F08F09927A0
:100A0000EE0F9795879508950E940B056894B11194
:100A10000C94C20508950E94A70588F09F5798F08E
:100A2000B92F9927B751B0F0E1F0660F771F881FF3
:100A3000991F1AF0BA95C9F714C0B13091F00E940D
:100A4000C105B1E008950C94C105672F782F882760
:100A5000B85F39F0B93FCCF3869577956795B39534
:100A6000D9F73EF490958095709561957F4F8F4FA3
:100A70009F4F0895E89409C097FB3EF490958095A8
:100A8000709561957F4F8F4F9F4F9923A9F0F92F54
:100A900096E9BB279395F695879577956795B795D2
:100AA000F111F8CFFAF4BB0F11F460FF1BC06F5FB8
:100AB0007F4F8F4F9F4F16C0882311F096E911C0CA
:100AC000772321F09EE8872F762F05C0662371F0EB
:100AD00096E8862F70E060E02AF09A95660F771FFF
:100AE000881FDAF7880F9695879597F9089597F9F3
:100AF0009F6780E870E060E008959FEF80EC0895C4
:100B000000240A94161617061806090608950024EC
:100B10000A9412161306140605060895092E039466
:100B2000000C11F4882352F0BB0F40F4BF2B11F4DA
:100B300060FF04C06F5F7F4F8F4F9F4F089557FD39
:100B40009058440F551F59F05F3F71F04795880F3B
:100B500097FB991F61F09F3F79F0879508951216D2
:100B600013061406551FF2CF4695F1DF08C016167E
:100B700017061806991FF1CF86957105610508942F
:100B80000895E894BB2766277727CB0197F9089546
:100B90000E94CD0508F48FEF0895990F0008550FB6
:100BA000AA0BE0E8FEEF16161706E807F907C0F0F3
:100BB00012161306E407F50798F0621B730B840BFB
:100BC000950B39F40A2661F0232B242B252B21F4D5
:100BD00008950A2609F4A140A6958FEF811D811D75
:100BE000089544EE54E00E9411060895FC0181919D
:100BF000861721F08823D9F7992708953197CF01D7
:100C00000895FB01DC018D91019080190110D9F349
:100C1000990B0895FB01DC0101900D920020E1F792
:100C20000895FA01A191B081009719F41097E1F0AD
:100C3000CD01DC01CD010D90002011F4C00113C0E5
:100C4000FB012191222319F02015D9F7F3CFFB01E5
:100C50002191201519F41E92119606C02223C1F786
:100C60000D900020A1F7D001FA01A193B08308955F
:100C7000AEE0B0E0EEE3F6E00C947C0985E08C8316
:100C80008B899C899A838983AE01495E5F4F6D8908
:100C90007E89CE0101960E94ED072E96E2E00C942B
:100CA000980920FD09C0FC0123FD05C022FF02C0F8
:100CB0007383628351834083089544FD17C046FDCA
:100CC00017C0AB01BC01DA01FB01AA0FBB1FEE1F6D
:100CD000FF1F1094D1F74A0F5B1F6E1F7F1FCB01C0
:100CE000BA01660F771F881F991F09C033E001C042
:100CF00034E0660F771F881F991F3150D1F7620FBC
:100D0000711D811D911D08950F931F93CF93DF9344
:100D10008C01C8010E941209EC0197FD08C00E94D5
:100D2000FE08892BB1F7B801CE010E945009CE010F
:100D3000DF91CF911F910F9108958F929F92AF9263
:100D4000BF92EF92FF920F931F93CF93DF938C018B
:100D5000D62F7A01B22E0E9412099C0133272B3222
:100D6000310531F02D32310561F48B2D8068B82EBC
:100D7000D15011F480E068C0C8010E94120997FDAB
:100D8000F9CFCB2DCD7F2B2D207309F58033F9F4CE
:100D9000AA24AA94AD0E09F443C0C8010E94120906
:100DA00097FD3EC09C012F7D33272835310549F43E
:100DB000C264D250A9F1C8010E94120997FF07C06E
:100DC0002FC0B6FE02C0C26001C0C261DA2D812C04
:100DD000912C540120ED280F283080F0C4FF04C06E
:100DE000B8010E94500919C02A3040F0C6FFF8CF60
:100DF0002F7D3FEE320F363098F727504C2FC5012C
:100E0000B4010E945D064B015C01C260D15059F0F3
:100E1000C8010E94120997FFDDCFC1FD04C0AACF0F
:100E2000812C912C5401C7FF08C0B094A0949094D9
:100E30008094811C911CA11CB11C2C2FB501A40114
:100E4000C7010E94510681E0DF91CF911F910F9160
:100E5000FF90EF90BF90AF909F908F900895A0E289
:100E6000B0E0E5E3F7E00C946F095C01962E7A019F
:100E7000F9018E010F5F1F4F680180E2D8011D92BA
:100E80008A95E9F7D50113968C9080E090E0612C6B
:100E9000712C30E061E070E083FC259183FE2191AC
:100EA0008F01522E211103C080E090E092C02E35B8
:100EB00011F4009751F1432F50E0481759073CF4C3
:100EC0002D3559F12D3219F4772009F103C077201F
:100ED00009F46AC0452D469546954695D601A40F5E
:100EE000B11D452D47708B0102C0000F111F4A959F
:100EF000E2F7A8015C91452B4C93651459F0561408
:100F000010F45394E7CF5A94E5CF31E004C077242E
:100F1000739401C0712C0196BFCF772019F08E8198
:100F200080628E83311103C08824839417C0F60138
:100F30009E012F5D3F4F8081809581932E173F0743
:100F4000D1F7F2CFE114F10429F0D7018C93F70126
:100F500031967F019A94812C9920F9F0C5010E9465
:100F6000120997FD18C0FC01FF2723E0F595E795CE
:100F70002A95E1F7EC0DFD1D208130E0AC014770B2
:100F8000552702C0359527954A95E2F720FDDACF1F
:100F9000B5010E945009811087CFE114F10411F0CE
:100FA000D7011C92C80115C0422F4695469546951B
:100FB000D601A40FB11D422F47708B0102C0000F54
:100FC000111F4A95E2F7A8015C91452B4C93622EC4
:100FD000A2CFA096EFE00C948B09A0E0B0E0E3EF85
:100FE000F7E00C946F096C01EB015A01FC011782C8
:100FF0001682512CF601E380FE01E3FC8591E3FEAD
:101000008191182FEF01882309F4EEC090E00E942F
:10101000FE08892B21F0C6010E948406EBCF153211
:1010200041F4FE01E3FC1591E3FE1191EF0115324D
:1010300081F4C6010E94120997FDD4C0412F50E0EF
:101040009C01332724173507A9F2B6010E945009E5
:10105000CBC01A3239F4E3FC1591E3FE1191EF0194
:1010600001E001C000E0F12C20ED210F2A3080F4D6
:1010700002606F2D70E080E090E040E20E945D062B
:10108000F62EFE01E3FC1591E3FE1191EF01ECCF8A
:1010900001FF03C0F11003C0A7C0FF24FA94183663
:1010A00019F01C3651F010C0FE01E3FC1591E3FE6F
:1010B0001191EF01183641F408600460FE01E3FC71
:1010C0001591E3FE1191EF01112309F48DC0612FF9
:1010D00070E088E690E00E940709892B09F484C03B
:1010E00000FD07C0F50180809180C50102965C017A
:1010F00002C0812C912C1E3651F4F6014681578195
:1011000060E070E0202FC4010E94510673CF1336B7
:10111000A9F401FD02C0FF24F394C6010E94120944
:1011200097FD60C08114910429F0F4018083C4010B
:1011300001964C01FA94F110F0CF50C01B3559F4D0
:101140009E01A4016F2DC6010E942F07EC01892B7F
:1011500009F044C03EC0C6010E94840697FD42C00B
:101160001F3661F128F4143639F1193651F128C0CF
:10117000133771F0153701F123C08114910429F060
:10118000F4016082C40101964C01FA94FF2071F0D1
:10119000C6010E9412093C0197FD08C00E94FE088A
:1011A000892B59F3B601C3010E945009811491049F
:1011B000A9F0F401108212C0006203C0006101C0F6
:1011C0000064202FA4016F2DC6010E949D0681118D
:1011D00005C0F6018381807329F406C000FD0ACFA3
:1011E000539408CF552019F0852D90E002C08FEF61
:1011F0009FEFCDB7DEB7EFE00C948B0991110C9403
:101200006909803219F089508550C8F70895FC01AA
:101210000590061621F00020D9F7C00108953197F6
:10122000CF010895CF93DF93EC012B8120FF33C0D2
:1012300026FF0AC02F7B2B838E819F8101969F837F
:101240008E838A8190E029C022FF0FC0E881F98156
:101250008081082E000C990B009719F420622B83D3
:101260001AC03196F983E8830EC0EA85FB8509959B
:1012700097FF09C02B81019611F080E201C080E147
:10128000822B8B8308C02E813F812F5F3F4F3F838E
:101290002E83992702C08FEF9FEFDF91CF910895A2
:1012A000FB01238120FF12C026FD10C08F3F3FEFBE
:1012B000930761F082832F7D206423832681378109
:1012C0002150310937832683992708958FEF9FEFA7
:1012D00008959927882708952F923F924F925F9201
:1012E0006F927F928F929F92AF92BF92CF92DF9236
:1012F000EF92FF920F931F93CF93DF93CDB7DEB79B
:10130000CA1BDB0B0FB6F894DEBF0FBECDBF09942E
:101310002A88398848885F846E847D848C849B8485
:10132000AA84B984C884DF80EE80FD800C811B8193
:10133000AA81B981CE0FD11D0FB6F894DEBF0FBEC2
:0A134000CDBFED010895F894FFCF32
:10134A00546574726973203A322020202033202099
:10135A002020342020202035202020203620202044
:10136A00203720202020382020202039202020202B
:10137A0031302020203131202020313220202031EC
:10138A0033202020313420202031352020203136CE
:10139A000A4535207C2D2D2D2D7C2D2D2D2D7C2D96
:1013AA002D2D2D7C2D2D2D2D7C2D2D2D2D7C2D2D76
:1013BA002D2D7C2D2D2D2D7C2D2D2D2D7C2D2D2D66
:1013CA002D7C2D2D582D7C2D2D2D2D7C2D2D2D2D2B
:1013DA007C2D2D2D2D7C2D2D2D2D7C2D2D2D2D7CF7
:1013EA000A6635207C2D2D2D2D7C2D2D2D2D7C2D25
:1013FA002D2D2D7C2D2D2D2D7C2D2D2D2D7C2D2D26
:10140A002D2D7C2D2D2D2D7C2D2D2D2D7C2D2D2D15
:10141A002D7C582D2D2D7C2D2D2D2D7C2D2D2D2DDA
:10142A007C2D2D2D2D7C2D2D2D2D7C2D2D2D2D7CA6
:10143A000A4435207C2D2D2D2D7C2D2D2D2D7C2DF6
:10144A002D2D2D7C2D2D2D2D7C2D2D2D2D7C2D2DD5
:10145A002D2D7C2D2D2D2D7C2D2D2D2D7C2D2D2DC5
:10146A00587C2D2D2D587C2D2D2D2D7C2D2D2D2D5F
:10147A007C2D2D2D2D7C2D2D2D2D7C2D2D2D2D7C56
:10148A000A4335207C2D2D2D2D7C2D2D2D2D7C2DA7
:10149A002D2D2D7C2D2D2D2D7C2D2D2D2D7C2D2D85
:1014AA002D2D7C2D2D2D2D7C2D2D2D2D7C2D2D2D75
:1014BA002D7C2D2D2D2D7C582D582D7C2D2D2D2D0F
:1014CA007C2D2D2D2D7C2D2D2D2D7C2D2D2D2D7C06
:1014DA000A6335207C582D2D2D7C2D2D2D2D7C2D0C
:1014EA002D2D2D7C582D2D2D7C2D2D2D2D7C2D2D0A
:1014FA00582D7C2D2D2D2D7C2D2D2D2D7C2D2D2DFA
:10150A002D7C2D2D2D2D7C2D2D2D2D7C2D2D2D2D14
:10151A007C2D2D582D7C2D2D2D2D7C2D2D2D2D7C8A
:10152A000A4234207C2D2D2D2D7C58582D2D7C2DB2
:10153A002D2D2D7C2D2D582D7C2D2D2D2D7C582D8E
:10154A002D2D7C2D2D2D2D7C2D2D2D2D7C2D582DA9
:10155A002D7C2D2D2D2D7C2D2D2D2D7C2D2D2D2DC4
:10156A007C582D2D2D7C2D2D2D2D7C2D2D2D2D7C3A
:10157A000A4134207C2D2D2D587C2D2D582D7C2D63
:10158A002D2D587C2D2D2D587C2D2D2D587C2D2D13
:10159A002D2D7C582D2D2D7C2D2D2D2D7C2D2D2D59
:1015AA002D7C2D2D2D2D7C2D2D2D587C2D2D2D581E
:1015BA007C2D2D2D2D7C582D2D2D7C2D2D2D2D7CEA
:1015CA000A6734207C2D2D582D7C2D2D2D587C2DED
:1015DA002D2D2D7C2D2D2D2D7C582D582D7C2D2DEE
:1015EA002D2D7C2D2D2D2D7C2D2D2D2D7C2D2D2D34
:1015FA002D7C2D2D2D2D7C2D2D2D2D7C582D582DCE
:10160A007C2D2D2D2D7C2D2D2D2D7C2D2D2D2D7CC4
:10161A000A6634207C2D2D2D2D7C2D2D2D2D7C58C8
:10162A002D582D7C2D2D2D2D7C2D2D2D2D7C2D2DC8
:10163A002D2D7C2D2D582D7C582D2D2D7C2D2D2D8D
:10164A002D7C2D2D2D2D7C2D2D2D2D7C2D2D2D2DD3
:10165A007C2D2D2D2D7C2D2D582D7C582D2D2D7C1E
:10166A000A0030313233343536373839414243444F
:10167A004546004333006333004433006433004576
:10168A003300463300663300473300673300413383
:10169A0000613300423300433400633400443400B1
:1016AA006434004534004634006634004734006729
:1016BA00340041340061340042340043350063355C
:1016CA00004435006435004535004635006635006E
:1016DA004735006735004135006135004235004322
:1016EA003600253373207C005F5F5F4E6F74653A66
:1016FA0020005F5F5F0D0A0048454C4C4F0D0A0001
:10170A00506172746974696F6E206C75653A0D0A5E
:10171A000020487A2C20447572C3A9653A2000201B
:04172A006D730A00D1
:00000001FF
