:100000000C9434000C9449000C9449000C94490061
:100010000C9449000C9449000C9449000C9449003C
:100020000C9449000C9449000C9449000C9449002C
:100030000C9449000C9449000C9449000C9449001C
:100040000C9449000C9449000C9449000C9449000C
:100050000C9449000C9449000C9449000C944900FC
:100060000C9449000C94490011241FBECFEFD8E036
:10007000DEBFCDBF11E0A0E0B1E0E4E1F7E002C0F7
:1000800005900D92A03AB107D9F70E94A7010C94F0
:1000900088030C940000CF93DF93EB01009729F4C1
:1000A000D695C7952197F1F721C09C0140E050E01B
:1000B00060E472E48FE090E00E94ED0165E0629FF1
:1000C000C001639F900D11249695879520E030E044
:1000D000C217D30759F0299AFC013197F1F72998F3
:1000E000FC013197F1F72F5F3F4FF2CFDF91CF91B6
:1000F000089521E030E001C0220F6A95EAF7FC0183
:1001000020830895FC01408121E030E001C0220FEE
:100110006A95EAF7242720830895FC01408121E0B5
:1001200030E001C0220F6A95EAF7242B208308955E
:10013000FC01908121E030E001C0220F6A95EAF7CE
:100140002095292320830895662359F0FC015081CE
:1001500021E030E001C0220F4A95EAF7252B2083E9
:100160000895642F0C949800FC01208181E090E0B8
:1001700001C0880F6A95EAF7822381700895FC0117
:10018000108208950F931F93CF93DF9300D000D078
:100190001F92CDB7DEB749835A836B837C838D83EF
:1001A000E981FA81002349F0308181E090E001C0CB
:1001B000880F6A95EAF7832B8083112359F03081E9
:1001C00081E090E00C8002C0880F991F0A94E2F74A
:1001D000832B8083222359F0208181E090E00D80E1
:1001E00002C0880F991F0A94E2F7822B80830F9038
:1001F0000F900F900F900F90DF91CF911F910F9163
:100200000895CF93DF9300D000D01F92CDB7DEB713
:1002100049835A836B837C838D83E981FA813081A2
:1002200081E090E0AC0101C0440F6A95EAF7242F09
:100230002095232320833081AC0101C0440F7A959F
:10024000EAF7242F20952323208320810D8002C0EC
:10025000880F991F0A94E2F78095822380830F907C
:100260000F900F900F900F90DF91CF9108959FE91D
:10027000980F9A3110F4805208959FEB980F9A319D
:1002800008F4805E089590ED980F9A3038F09FE959
:10029000980F81E0963018F080E0089581E008958D
:1002A00090ED980F9A3040F09FE9980F963018F42F
:1002B00099EA980F01C090E0892F8295807F90ED98
:1002C000960F9A3010F4890F08959FE9960F963093
:1002D00010F46755860F0895CF92DF92EF92FF9248
:1002E0006B017C010E949B02072E000C880B990B6E
:1002F0000E94D3029B01AC01C701B6010E942E02ED
:1003000020E030E040E05FE30E945F0387FD06C02D
:10031000C701B6010E94A2026F5F04C0C701B60107
:100320000E94A202862FFF90EF90DF90CF90089559
:100330009C0180E0F901E80FF11D9081992311F0F3
:100340008F5FF8CF0895559A569A539A0895CF9390
:10035000DF93CDB7DEB7C05AD1090FB6F894DEBF30
:100360000FBECDBF219A8E010F5A1F4F80E5E0E0EE
:10037000F1E0D80101900D928A95E1F780E5E0E582
:10038000F1E0DE01119601900D928A95E1F7CE0120
:1003900001967C016801F701619171917F01769569
:1003A0006795F601819191916F010E944B00FFEFDB
:1003B00020E782E0F15020408040E1F700C00000DB
:1003C000E016F10641F79FEFE3ECF9E09150E040D1
:1003D000F040E1F700C00000DACF052E97FB1EF4D5
:1003E00000940E94040257FD07D00E940C0207FCF3
:1003F00003D04EF40C94040250954095309521950D
:100400003F4F4F4F5F4F0895909580957095619540
:100410007F4F8F4F9F4F0895A1E21A2EAA1BBB1B3F
:10042000FD010DC0AA1FBB1FEE1FFF1FA217B307C0
:10043000E407F50720F0A21BB30BE40BF50B661FD6
:10044000771F881F991F1A9469F76095709580959A
:1004500090959B01AC01BD01CF0108955058BB2779
:10046000AA270E9446020C9425030E94170338F025
:100470000E941E0320F039F49F3F19F426F40C94D7
:1004800014030EF4E095E7FB0C940E03E92F0E9491
:10049000360358F3BA17620773078407950720F0ED
:1004A00079F4A6F50C9458030EF4E0950B2EBA2FB0
:1004B000A02D0B01B90190010C01CA01A00111246A
:1004C000FF27591B99F0593F50F4503E68F11A1616
:1004D000F040A22F232F342F4427585FF3CF4695A7
:1004E00037952795A795F0405395C9F77EF41F16C9
:1004F000BA0B620B730B840BBAF09150A1F0FF0F93
:10050000BB1F661F771F881FC2F70EC0BA0F621F7E
:10051000731F841F48F4879577956795B795F7956E
:100520009E3F08F0B0CF9395880F08F09927EE0F03
:100530009795879508950E94A2026894B1110C9432
:10054000590308950E943E0388F09F5798F0B92FF1
:100550009927B751B0F0E1F0660F771F881F991FF8
:100560001AF0BA95C9F714C0B13091F00E9458033F
:10057000B1E008950C945803672F782F8827B85F4F
:1005800039F0B93FCCF3869577956795B395D9F750
:100590003EF490958095709561957F4F8F4F9F4F5A
:1005A0000895E89409C097FB3EF490958095709566
:1005B00061957F4F8F4F9F4F9923A9F0F92F96E9AF
:1005C000BB279395F695879577956795B795F11124
:1005D000F8CFFAF4BB0F11F460FF1BC06F5F7F4FC1
:1005E0008F4F9F4F16C0882311F096E911C07723D3
:1005F00021F09EE8872F762F05C0662371F096E8DC
:10060000862F70E060E02AF09A95660F771F881FAA
:10061000DAF7880F9695879597F9089597F99F6768
:1006200080E870E060E008959FEF80EC089500247A
:100630000A941616170618060906089500240A9447
:1006400012161306140605060895092E0394000CCD
:1006500011F4882352F0BB0F40F4BF2B11F460FF5C
:1006600004C06F5F7F4F8F4F9F4F089557FD905885
:10067000440F551F59F05F3F71F04795880F97FB66
:10068000991F61F09F3F79F0879508951216130620
:100690001406551FF2CF4695F1DF08C0161617064F
:1006A0001806991FF1CF8695710561050894089584
:1006B000E894BB2766277727CB0197F908950E9416
:1006C000640308F48FEF0895990F0008550FAA0BE3
:1006D000E0E8FEEF16161706E807F907C0F0121655
:1006E0001306E407F50798F0621B730B840B950B58
:1006F00039F40A2661F0232B242B252B21F40895AD
:100700000A2609F4A140A6958FEF811D811D089549
:04071000F894FFCF8B
:100714004901ED010B024B020B02ED01B801B801D6
:100724000B0293024B020B02ED010B024B029302EC
:100734000B02B801B8010B0293027003700370033B
:100744001003BA0293020B0293024B020B02ED0157
:10075400ED010B024B0293020B02B801B801B80180
:100764002C0196002C0196002C012C012C019600E2
:100774002C012C0196002C012C0196002C012C013B
:100784002C012C012C0196002C012C0196002C012B
:100794002C0196002C012C0196002C012C019600B2
:1007A4002C012C0196002C012C0196002C012C010B
:00000001FF
