:100000000C9434000C9451000C9451000C94510049
:100010000C9451000C9451000C9451000C9451001C
:100020000C9451000C94BE020C9451000C9451009D
:100030000C9451000C9451000C9451000C945100FC
:100040000C9451000C9451000C9451000C945100EC
:100050000C9451000C9451000C9451000C945100DC
:100060000C9451000C94510011241FBECFEFD8E026
:10007000DEBFCDBF14E0A0E0B1E0E8ECFFE002C0DD
:1000800005900D92A837B107D9F724E0A8E7B4E0AE
:1000900001C01D92AC37B207E1F70E94E0050C9455
:1000A000E2070C940000CF93DF93EC0161E271E072
:1000B0000E94D907892B09F423C164E271E0CE01C3
:1000C0000E94D907892B09F41EC167E271E0CE01B5
:1000D0000E94D907892B09F419C16AE271E0CE01A7
:1000E0000E94D907892B09F414C16DE271E0CE0199
:1000F0000E94D907892B09F40FC160E371E0CE019A
:100100000E94D907892B09F40AC163E371E0CE018B
:100110000E94D907892B09F405C166E371E0CE017D
:100120000E94D907892B09F400C169E371E0CE016F
:100130000E94D907892B09F4FBC06CE371E0CE0162
:100140000E94D907892B09F4F6C06FE371E0CE0154
:100150000E94D907892B09F4F1C062E471E0CE0155
:100160000E94D907892B09F4ECC065E471E0CE0147
:100170000E94D907892B09F4E7C068E471E0CE0139
:100180000E94D907892B09F4E2C06BE471E0CE012B
:100190000E94D907892B09F4DDC06EE471E0CE011D
:1001A0000E94D907892B09F4D8C061E571E0CE011E
:1001B0000E94D907892B09F4D3C064E571E0CE0110
:1001C0000E94D907892B09F4CEC067E571E0CE0102
:1001D0000E94D907892B09F4C9C06AE571E0CE01F4
:1001E0000E94D907892B09F4C4C06DE571E0CE01E6
:1001F0000E94D907892B09F4BFC060E671E0CE01E7
:100200000E94D907892B09F4BAC063E671E0CE01D8
:100210000E94D907892B09F4B5C066E671E0CE01CA
:100220000E94D907892B09F4B0C069E671E0CE01BC
:100230000E94D907892B09F4ABC06CE671E0CE01AE
:100240000E94D907892B09F4A6C06FE671E0CE01A0
:100250000E94D907892B09F4A1C062E771E0CE01A1
:100260000E94D907892B09F49CC065E771E0CE0193
:100270000E94D907892B09F497C068E771E0CE0185
:100280000E94D907892B09F492C06BE771E0CE0177
:100290000E94D907892B09F48DC06EE771E0CE0169
:1002A0000E94D907892B09F488C061E871E0CE016A
:1002B0000E94D907892B09F483C064E871E0CE015C
:1002C0000E94D907892B09F47EC067E871E0CE014E
:1002D0000E94D907892B09F479C06AE871E0CE0140
:1002E0000E94D907892B09F474C06DE871E0CE0132
:1002F0000E94D907892B09F46FC080E090E06EC09E
:1003000083E890E06BC08BE890E068C083E990E000
:1003100065C08CE990E062C085EA90E05FC08FEA3A
:1003200090E05CC089EB90E059C084EC90E056C04E
:1003300080ED90E053C08CED90E050C089EE90E0ED
:100340004DC087EF90E04AC085E091E047C085E16D
:1003500091E044C086E291E041C087E391E03EC075
:1003600089E491E03BC08DE591E038C082E791E0FF
:1003700035C088E891E032C08FE991E02FC088EB6A
:1003800091E02CC082ED91E029C08DEE91E026C075
:100390008BE092E023C08AE292E020C08BE492E0FE
:1003A0001DC08EE692E01AC083E992E017C08AEB86
:1003B00092E014C084EE92E011C080E193E00EC0A0
:1003C0008FE393E00BC080E793E008C084EA93E0FA
:1003D00005C08BED93E002C086E194E0DF91CF9100
:1003E00008950F931F93CF93DF938C01C0E0D0E06B
:1003F0002196CE010E949D0380E991E00E9417039F
:10040000F801808191810E94230384E991E00E9498
:100410001703F801828193810E94230382EA91E00D
:100420000E9417030C5F1F4FC434D10509F7DF91F9
:10043000CF911F910F9108958F929F92AF92BF928B
:10044000CF92DF92EF92FF920F931F93CF93DF93A0
:1004500000D01F92CDB7DEB75B017C016C0182E159
:10046000C80ED11C96E9892E912CF70101911191AA
:100470007F01F8018081898381818A831B82CE017B
:1004800001960E9453009C01F801349640E050E030
:1004900091919923A1F09C37D9F3983569F4DA0149
:1004A000AA0FBB1FAA0FBB1FAA0DBB1D13969C92C0
:1004B0008E9212972D933C934F5F5F4FE9CFEC14D0
:1004C000FD0499F60F900F900F90DF91CF911F913F
:1004D0000F91FF90EF90DF90CF90BF90AF909F90E3
:1004E0008F900895109280001092890010928800D9
:1004F000089541E060E080E00E94580421E041E07E
:1005000060E081E00E94700420E041E060E081E072
:100510000E9491041092B00086E08093B10081E0C7
:10052000809370000895CF93DF93EB01009719F447
:100530000E9472020DC09C0140E050E060E874E847
:100540008EE190E00E944E0630938900209388004F
:1005500010927904109278041092B2009E01A4E2E5
:10056000B4EF0E94700628EE33E040E050E00E94B5
:100570004E0620937A04DF91CF9108951F920F9237
:100580000FB60F9211242F933F934F935F936F9366
:100590007F938F939F93AF93BF93EF93FF9380913C
:1005A000780490917904019690937904809378046B
:1005B00080917A04209178043091790490E0281792
:1005C000390728F00E94720281E080937B04FF913A
:1005D000EF91BF91AF919F918F917F916F915F91BB
:1005E0004F913F912F910F900FBE0F901F90189534
:1005F0006CE177EC85EF90E40E94A5051092C500B0
:100600008093C40088E08093C10086E08093C2009C
:1006100008959091C00095FFFCCF8093C600089587
:100620008091C00087FFFCCF8091C6000895CF93D2
:10063000DF93EC018991882319F00E940903FACF16
:10064000DF91CF910895EF92FF920F931F93CF9375
:10065000DF9300D000D01F92CDB7DEB7009771F4C2
:1006600080E30F900F900F900F900F90DF91CF913C
:100670001F910F91FF90EF900C9409039E012F5F43
:100680003F4F7901F9012AE030E08F010E191F096F
:10069000B9010E943A06805D8193CB010097A9F7CA
:1006A0000F5F1F4F0E0D1F1DE016F10631F0F80110
:1006B00082918F010E940903F7CF0F900F900F9046
:1006C0000F900F90DF91CF911F910F91FF90EF90BE
:1006D00008951F93CF93DF93CDB7DEB760970FB622
:1006E000F894DEBF0FBECDBF182F80E1E0E1F1E04E
:1006F000DE01119601900D928A95E1F7812F829586
:100700008F70E1E0F0E0EC0FFD1FE80FF11D80813C
:100710000E9409031F70E1E0F0E0EC0FFD1FE10F04
:10072000F11D808160960FB6F894DEBF0FBECDBF7D
:10073000DF91CF911F910C940903CF93DF93EC01CC
:1007400097FF06C08DE20E940903D195C195D1099A
:10075000CE01DF91CF910C942303CF93C82F892F23
:100760000E9469038C2FCF910C946903CF93DF9380
:10077000D62FC42F42E0682F85E490E00E94DD046C
:1007800041E06D2F85E490E00E94DD0440E06C2F95
:1007900085E490E0DF91CF910C94DD04CF93DF935B
:1007A000C82FD62F642F40E084E490E00E94DD043F
:1007B00041E06D2F84E490E00E94DD0443E06C2F63
:1007C00085E490E0DF91CF910C94DD041F93CF93EB
:1007D000DF93162FD42FC22F47E0682F84E490E0D8
:1007E0000E94DD0446E0612F84E490E00E94DD0475
:1007F00045E06D2F84E490E00E94DD0444E06C2F1E
:1008000084E490E0DF91CF911F910C94DD04CF93AD
:10081000DF93D62FC42F40E0682F81EB90E00E9439
:10082000DD0441E06D2F81EB90E00E94DD0442E0A9
:100830006C2F81EB90E0DF91CF910C94DD04CF938E
:10084000DF93C82FD62F642F40E080EB90E00E940A
:10085000DD0441E06D2F80EB90E00E94DD0443E079
:100860006C2F81EB90E0DF91CF910C94DD041F930E
:10087000CF93DF93162FD42FC22F47E0682F80EB42
:1008800090E00E94DD0446E0612F80EB90E00E9442
:10089000DD0445E06D2F80EB90E00E94DD0444E034
:1008A0006C2F80EB90E0DF91CF911F910C94DD04D1
:1008B000CF93DF93D62FC42F42E0682F81E890E0DA
:1008C0000E94DD0441E06D2F81E890E00E94DD048C
:1008D00040E06C2F81E890E0DF91CF910C94DD0433
:1008E0001F93CF93DF93C82FD62F142F40E0622F92
:1008F00080E890E00E94DD0441E0612F80E890E014
:100900000E94DD0443E06D2F81E890E00E94DD0449
:1009100044E06C2F81E890E0DF91CF911F910C941F
:10092000DD041F93CF93DF93162FD42FC22F47E000
:10093000682F80E890E00E94DD0446E0612F80E8A7
:1009400090E00E94DD0445E06D2F80E890E00E9479
:10095000DD0444E06C2F80E890E0DF91CF911F919F
:100960000C94DD0421E030E001C0220F6A95EAF723
:10097000FC0120830895FC01408121E030E001C0AA
:10098000220F6A95EAF7242720830895FC0140810D
:1009900021E030E001C0220F6A95EAF7242B208382
:1009A0000895FC01908121E030E001C0220F6A959A
:1009B000EAF72095292320830895662359F0FC0146
:1009C000508121E030E001C0220F4A95EAF7252B43
:1009D00020830895642F0C94D104FC01208181E0D0
:1009E00090E001C0880F6A95EAF78223817008952C
:1009F000FC01108208950F931F93CF93DF9300D0D3
:100A000000D01F92CDB7DEB749835A836B837C83B6
:100A10008D83E981FA81002349F0308181E090E003
:100A200001C0880F6A95EAF7832B8083112359F060
:100A3000308181E090E00C8002C0880F991F0A94F9
:100A4000E2F7832B8083222359F0208181E090E01C
:100A50000D8002C0880F991F0A94E2F7822B8083D1
:100A60000F900F900F900F900F90DF91CF911F91EB
:100A70000F910895CF93DF9300D000D01F92CDB790
:100A8000DEB749835A836B837C838D83E981FA8146
:100A9000308181E090E0AC0101C0440F6A95EAF733
:100AA000242F2095232320833081AC0101C0440FE3
:100AB0007A95EAF7242F20952323208320810D8027
:100AC00002C0880F991F0A94E2F7809582238083E1
:100AD0000F900F900F900F900F90DF91CF9108958E
:100AE0009FE9980F9A3110F4805208959FEB980F68
:100AF0009A3108F4805E089590ED980F9A3038F09E
:100B00009FE9980F81E0963018F080E0089581E029
:100B1000089590ED980F9A3040F09FE9980F963025
:100B200018F499EA980F01C090E0892F8295807F90
:100B300090ED960F9A3010F4890F08959FE9960F63
:100B4000963010F46755860F0895CF92DF92EF929A
:100B5000FF926B017C010E94EC06072E000C880BB3
:100B6000990B0E9424079B01AC01C701B6010E94AA
:100B70007F0620E030E040E05FE30E94B00787FDA1
:100B800006C0C701B6010E94F3066F5F04C0C7012B
:100B9000B6010E94F306862FFF90EF90DF90CF9072
:100BA00008959C0180E0F901E80FF11D90819923DF
:100BB00011F08F5FF8CF0895559A569A579A089575
:100BC000CF93DF93CDB7DEB7C052D1400FB6F894C4
:100BD000DEBF0FBECDBF219A0E94F8020E947902AB
:100BE000789480E1E0E0F1E0DE01AF5EBE4F01907D
:100BF0000D928A95E1F78E010F5F1F4F80E191E022
:100C0000F8019C01119221503040E1F7B801CE016A
:100C10008F5E9E4F0E941C0280917B048823E1F32B
:100C200090917B0480917B04F80134E0939FE00D68
:100C3000F11D112462817381660F771FF80194E022
:100C4000899FE00DF11D11248081918197FD01960E
:100C5000959587950E94930280917B048F5F809386
:100C60007B0410927A0480917B048434A8F2109261
:100C70007B04D2CFAA1BBB1B51E107C0AA1FBB1F1D
:100C8000A617B70710F0A61BB70B881F991F5A9518
:100C9000A9F780959095BC01CD010895A1E21A2E87
:100CA000AA1BBB1BFD010DC0AA1FBB1FEE1FFF1F10
:100CB000A217B307E407F50720F0A21BB30BE40B60
:100CC000F50B661F771F881F991F1A9469F76095A7
:100CD0007095809590959B01AC01BD01CF01089561
:100CE000A29FB001B39FC001A39F700D811D11246D
:100CF000911DB29F700D811D1124911D08955058B2
:100D0000BB27AA270E9497060C9476070E946807C3
:100D100038F00E946F0720F039F49F3F19F426F451
:100D20000C9465070EF4E095E7FB0C945F07E92F40
:100D30000E94870758F3BA1762077307840795075D
:100D400020F079F4A6F50C94A9070EF4E0950B2E8B
:100D5000BA2FA02D0B01B90190010C01CA01A0010D
:100D60001124FF27591B99F0593F50F4503E68F168
:100D70001A16F040A22F232F342F4427585FF3CFA9
:100D8000469537952795A795F0405395C9F77EF47A
:100D90001F16BA0B620B730B840BBAF09150A1F0C3
:100DA000FF0FBB1F661F771F881FC2F70EC0BA0F49
:100DB000621F731F841F48F4879577956795B795D1
:100DC000F7959E3F08F0B0CF9395880F08F09927CC
:100DD000EE0F9795879508950E94F3066894B111D8
:100DE0000C94AA0708950E948F0788F09F5798F0E7
:100DF000B92F9927B751B0F0E1F0660F771F881F20
:100E0000991F1AF0BA95C9F714C0B13091F00E9439
:100E1000A907B1E008950C94A907672F782F8827B8
:100E2000B85F39F0B93FCCF3869577956795B39560
:100E3000D9F73EF490958095709561957F4F8F4FCF
:100E40009F4F0895E89409C097FB3EF490958095D4
:100E5000709561957F4F8F4F9F4F9923A9F0F92F80
:100E600096E9BB279395F695879577956795B795FE
:100E7000F111F8CFFAF4BB0F11F460FF1BC06F5FE4
:100E80007F4F8F4F9F4F16C0882311F096E911C0F6
:100E9000772321F09EE8872F762F05C0662371F017
:100EA00096E8862F70E060E02AF09A95660F771F2B
:100EB000881FDAF7880F9695879597F9089597F91F
:100EC0009F6780E870E060E008959FEF80EC0895F0
:100ED00000240A9416161706180609060895002419
:100EE0000A9412161306140605060895092E039493
:100EF000000C11F4882352F0BB0F40F4BF2B11F407
:100F000060FF04C06F5F7F4F8F4F9F4F089557FD65
:100F10009058440F551F59F05F3F71F04795880F67
:100F200097FB991F61F09F3F79F0879508951216FE
:100F300013061406551FF2CF4695F1DF08C01616AA
:100F400017061806991FF1CF86957105610508945B
:100F50000895E894BB2766277727CB0197F9089572
:100F60000E94B50708F48FEF0895990F0008550FF8
:100F7000AA0BE0E8FEEF16161706E807F907C0F01F
:100F800012161306E407F50798F0621B730B840B27
:100F9000950B39F40A2661F0232B242B252B21F401
:100FA00008950A2609F4A140A6958FEF811D811DA1
:100FB0000895FB01DC018D91019080190110D9F396
:080FC000990B0895F894FFCF8E
:100FC800A80102025C02B60210036A03C4031E04ED
:100FD8003031323334353637383941424344454667
:100FE8000043330063330044330064330045330067
:100FF80046330066330047330067330041330061EE
:101008003300423300433400633400443400643412
:101018000045340046340066340047340067340025
:1010280041340061340042340043350063350044E4
:1010380035006435004535004635006635004735CE
:101048000067350041350061350042350043360000
:10105800202D200020487A2C20447572C3A9653AB7
:101068002000206D730D0A004135207C2D2D2D2D7B
:101078007C2D2D2D2D7C2D2D2D2D7C2D2D2D2D7C5C
:101088002D2D2D2D7C2D2D2D2D7C2D2D2D2D7C2D9B
:101098002D2D2D7C2D2D2D2D7C582D2D2D7C2D2D60
:1010A8002D2D7C2D2D2D2D7C2D2D2D2D7C2D2D2D7B
:1010B8002D7C2D2D2D2D7C2D2D2D2D7C2D2D2D2D6B
:1010C8007C004735207C2D2D2D2D7C2D2D2D2D7C24
:1010D8002D2D2D2D7C2D2D2D2D7C2D2D2D2D7C2D4B
:1010E8002D2D2D7C2D2D2D2D7C2D2D2D2D7C2D2D3B
:1010F8002D2D7C2D2D582D7C2D2D2D2D7C2D2D2D00
:101108002D7C2D2D2D2D7C2D2D2D2D7C2D2D2D2D1A
:101118007C2D2D2D2D7C2D2D2D2D7C004635207CD4
:101128002D2D2D2D7C2D2D2D2D7C2D2D2D2D7C2DFA
:101138002D2D2D7C2D2D2D2D7C2D2D2D2D7C2D2DEA
:101148002D2D7C2D2D2D2D7C2D2D2D587C2D2D2DAF
:10115800587C2D2D2D2D7C2D2D2D2D7C2D2D2D2D9F
:101168007C2D2D2D2D7C2D2D2D2D7C2D2D2D2D7C6B
:101178002D2D2D2D7C004535207C58782D2D7C2D4E
:101188002D2D2D7C2D2D2D2D7C582D2D2D7C2D2D6F
:101198002D2D7C2D2D582D7C2D2D2D2D7C2D2D2D5F
:1011A8002D7C2D2D2D2D7C2D2D2D2D7C582D2D2D4F
:1011B8007C582D2D2D7C2D2D2D2D7C2D2D582D7CC5
:1011C8002D2D2D2D7C2D2D2D2D7C2D2D2D2D7C0087
:1011D8004435207C2D2D2D2D7C582D2D2D7C2D2D0D
:1011E8002D2D7C2D2D582D7C2D2D2D2D7C582D2DE4
:1011F8002D7C2D2D2D2D7C2D2D2D2D7C2D582D2DFF
:101208007C2D2D2D2D7C2D2D2D2D7C2D2D582D7C9F
:101218002D2D2D2D7C582D2D2D7C2D2D2D2D7C2DDE
:101228002D2D2D7C2D2D2D2D7C004335207C2D2D15
:101238002D587C2D2D582D7C2D2D2D587C2D2D2D68
:10124800587C2D2D2D587C2D2D2D2D7C582D2D2D58
:101258007C2D2D2D2D7C2D2D2D2D7C2D2D2D2D7C7A
:101268002D2D2D587C2D2D2D587C2D2D2D587C2D38
:101278002D2D2D7C582D2D2D7C2D2D2D2D7C2D2D7E
:101288002D2D7C004234207C2D2D582D7C2D2D2D8C
:10129800587C2D2D2D2D7C2D2D2D2D7C582D2D2D33
:1012A8007C2D2D2D2D7C2D2D2D2D7C2D2D2D2D7C2A
:1012B8002D2D2D2D7C2D2D2D2D7C2D2D2D2D7C2D69
:1012C8002D2D2D7C582D582D7C2D2D2D2D7C2D2D03
:1012D8002D2D7C2D2D2D2D7C2D2D2D2D7C0041345B
:1012E800207C2D2D2D2D7C2D2D2D2D7C582D582DF0
:1012F8007C2D2D2D2D7C2D2D2D2D7C2D2D2D2D7CDA
:101308002D2D582D7C582D2D2D7C2D2D2D2D7C2DC2
:101318002D2D2D7C2D2D2D2D7C2D2D2D2D7C2D2D08
:101328002D2D7C2D2D2D2D7C2D2D2D2D7C58585877
:08133800587C582D2D2D7C007E
:00000001FF
